{"contracts/ProofOfWorkJob.sol":{"ProofOfWorkJob":{"abi":[{"inputs":[{"internalType":"address","name":"_employer","type":"address"},{"internalType":"uint8","name":"_payType","type":"uint8"},{"internalType":"uint256","name":"_weeklyPay","type":"uint256"},{"internalType":"uint256","name":"_durationWeeks","type":"uint256"},{"internalType":"uint256","name":"_totalPay","type":"uint256"},{"internalType":"string","name":"_title","type":"string"},{"internalType":"string","name":"_description","type":"string"},{"internalType":"uint256","name":"_positions","type":"uint256"},{"internalType":"address","name":"_disputeDAO","type":"address"},{"internalType":"string[]","name":"_tags","type":"string[]"}],"stateMutability":"payable","type":"constructor"},{"inputs":[],"name":"ReentrancyGuardReentrantCall","type":"error"},{"anonymous":false,"inputs":[{"indexed":true,"internalType":"address","name":"applicant","type":"address"}],"name":"ApplicationAccepted","type":"event"},{"anonymous":false,"inputs":[{"indexed":true,"internalType":"address","name":"applicant","type":"address"}],"name":"ApplicationDeclined","type":"event"},{"anonymous":false,"inputs":[{"indexed":true,"internalType":"address","name":"applicant","type":"address"},{"indexed":false,"internalType":"string","name":"application","type":"string"}],"name":"ApplicationSubmitted","type":"event"},{"anonymous":false,"inputs":[{"indexed":true,"internalType":"address","name":"applicant","type":"address"}],"name":"ApplicationWithdrawn","type":"event"},{"anonymous":false,"inputs":[{"indexed":true,"internalType":"address","name":"by","type":"address"},{"indexed":false,"internalType":"uint256","name":"disputeId","type":"uint256"},{"indexed":false,"internalType":"string","name":"reason","type":"string"}],"name":"DisputeOpened","type":"event"},{"anonymous":false,"inputs":[{"indexed":false,"internalType":"uint256","name":"refundAmount","type":"uint256"}],"name":"JobCancelled","type":"event"},{"anonymous":false,"inputs":[{"indexed":true,"internalType":"address","name":"worker","type":"address"}],"name":"JobCompleted","type":"event"},{"anonymous":false,"inputs":[],"name":"JobEnded","type":"event"},{"anonymous":false,"inputs":[{"indexed":true,"internalType":"address","name":"worker","type":"address"},{"indexed":false,"internalType":"uint256","name":"amount","type":"uint256"}],"name":"OneOffPayment","type":"event"},{"anonymous":false,"inputs":[{"indexed":true,"internalType":"address","name":"worker","type":"address"},{"indexed":false,"internalType":"uint256","name":"amount","type":"uint256"}],"name":"PaymentConfirmed","type":"event"},{"anonymous":false,"inputs":[{"indexed":true,"internalType":"address","name":"worker","type":"address"},{"indexed":false,"internalType":"uint256","name":"amount","type":"uint256"}],"name":"PaymentReleased","type":"event"},{"anonymous":false,"inputs":[{"indexed":true,"internalType":"address","name":"worker","type":"address"},{"indexed":false,"internalType":"uint256","name":"requestTime","type":"uint256"}],"name":"PaymentRequested","type":"event"},{"anonymous":false,"inputs":[{"indexed":true,"internalType":"address","name":"rater","type":"address"},{"indexed":true,"internalType":"address","name":"ratee","type":"address"},{"indexed":false,"internalType":"uint8","name":"score","type":"uint8"}],"name":"RatingSubmitted","type":"event"},{"anonymous":false,"inputs":[{"indexed":true,"internalType":"address","name":"worker","type":"address"}],"name":"WorkerAssigned","type":"event"},{"inputs":[],"name":"ADMIN","outputs":[{"internalType":"address","name":"","type":"address"}],"stateMutability":"view","type":"function"},{"inputs":[{"internalType":"address","name":"applicant","type":"address"}],"name":"acceptApplication","outputs":[],"stateMutability":"nonpayable","type":"function"},{"inputs":[{"internalType":"address","name":"","type":"address"}],"name":"activeWorker","outputs":[{"internalType":"bool","name":"","type":"bool"}],"stateMutability":"view","type":"function"},{"inputs":[{"internalType":"uint256","name":"","type":"uint256"}],"name":"applicantAddresses","outputs":[{"internalType":"address","name":"","type":"address"}],"stateMutability":"view","type":"function"},{"inputs":[{"internalType":"address","name":"","type":"address"}],"name":"applicants","outputs":[{"internalType":"address","name":"applicantAddress","type":"address"},{"internalType":"string","name":"application","type":"string"},{"internalType":"uint256","name":"appliedAt","type":"uint256"},{"internalType":"bool","name":"isActive","type":"bool"},{"internalType":"enum ProofOfWorkJob.ApplicationStatus","name":"status","type":"uint8"},{"internalType":"uint256","name":"reviewedAt","type":"uint256"},{"internalType":"bool","name":"wasAccepted","type":"bool"}],"stateMutability":"view","type":"function"},{"inputs":[{"internalType":"address","name":"worker","type":"address"}],"name":"assignWorkerDirect","outputs":[],"stateMutability":"nonpayable","type":"function"},{"inputs":[{"internalType":"uint256","name":"","type":"uint256"}],"name":"assignedWorkers","outputs":[{"internalType":"address","name":"","type":"address"}],"stateMutability":"view","type":"function"},{"inputs":[],"name":"canCancelJob","outputs":[{"internalType":"bool","name":"","type":"bool"}],"stateMutability":"view","type":"function"},{"inputs":[{"internalType":"address","name":"worker","type":"address"}],"name":"canRateEmployer","outputs":[{"internalType":"bool","name":"","type":"bool"}],"stateMutability":"view","type":"function"},{"inputs":[{"internalType":"address","name":"worker","type":"address"}],"name":"canRateWorker","outputs":[{"internalType":"bool","name":"","type":"bool"}],"stateMutability":"view","type":"function"},{"inputs":[],"name":"cancelJob","outputs":[],"stateMutability":"nonpayable","type":"function"},{"inputs":[{"internalType":"address","name":"worker","type":"address"}],"name":"confirmOneOffPayment","outputs":[],"stateMutability":"nonpayable","type":"function"},{"inputs":[{"internalType":"address","name":"worker","type":"address"}],"name":"confirmWeeklyPayment","outputs":[],"stateMutability":"nonpayable","type":"function"},{"inputs":[],"name":"createdAt","outputs":[{"internalType":"uint256","name":"","type":"uint256"}],"stateMutability":"view","type":"function"},{"inputs":[{"internalType":"address","name":"applicant","type":"address"}],"name":"declineApplication","outputs":[],"stateMutability":"nonpayable","type":"function"},{"inputs":[],"name":"description","outputs":[{"internalType":"string","name":"","type":"string"}],"stateMutability":"view","type":"function"},{"inputs":[],"name":"disputeDAO","outputs":[{"internalType":"contract DisputeDAO","name":"","type":"address"}],"stateMutability":"view","type":"function"},{"inputs":[],"name":"durationWeeks","outputs":[{"internalType":"uint256","name":"","type":"uint256"}],"stateMutability":"view","type":"function"},{"inputs":[],"name":"employer","outputs":[{"internalType":"address","name":"","type":"address"}],"stateMutability":"view","type":"function"},{"inputs":[{"internalType":"address","name":"","type":"address"}],"name":"employerHasRatedWorker","outputs":[{"internalType":"bool","name":"","type":"bool"}],"stateMutability":"view","type":"function"},{"inputs":[],"name":"endJob","outputs":[],"stateMutability":"nonpayable","type":"function"},{"inputs":[],"name":"getActiveApplicants","outputs":[{"internalType":"address[]","name":"","type":"address[]"}],"stateMutability":"view","type":"function"},{"inputs":[],"name":"getActiveApplicationsCount","outputs":[{"internalType":"uint256","name":"","type":"uint256"}],"stateMutability":"view","type":"function"},{"inputs":[],"name":"getAllApplicants","outputs":[{"internalType":"address[]","name":"","type":"address[]"}],"stateMutability":"view","type":"function"},{"inputs":[{"internalType":"address","name":"_applicant","type":"address"}],"name":"getApplicant","outputs":[{"internalType":"address","name":"applicantAddress","type":"address"},{"internalType":"string","name":"application","type":"string"},{"internalType":"uint256","name":"appliedAt","type":"uint256"},{"internalType":"bool","name":"isActive","type":"bool"},{"internalType":"enum ProofOfWorkJob.ApplicationStatus","name":"status","type":"uint8"},{"internalType":"uint256","name":"reviewedAt","type":"uint256"},{"internalType":"bool","name":"wasAccepted","type":"bool"}],"stateMutability":"view","type":"function"},{"inputs":[{"internalType":"address","name":"_applicant","type":"address"}],"name":"getApplicationStatusString","outputs":[{"internalType":"string","name":"","type":"string"}],"stateMutability":"view","type":"function"},{"inputs":[],"name":"getAssignedWorkers","outputs":[{"internalType":"address[]","name":"","type":"address[]"}],"stateMutability":"view","type":"function"},{"inputs":[{"internalType":"address","name":"worker","type":"address"}],"name":"getPaymentRequestStatus","outputs":[{"internalType":"bool","name":"hasRequested","type":"bool"},{"internalType":"uint256","name":"requestTime","type":"uint256"}],"stateMutability":"view","type":"function"},{"inputs":[],"name":"getPendingPaymentRequests","outputs":[{"internalType":"address[]","name":"","type":"address[]"}],"stateMutability":"view","type":"function"},{"inputs":[],"name":"getTotalApplications","outputs":[{"internalType":"uint256","name":"","type":"uint256"}],"stateMutability":"view","type":"function"},{"inputs":[{"internalType":"address","name":"","type":"address"}],"name":"hasApplied","outputs":[{"internalType":"bool","name":"","type":"bool"}],"stateMutability":"view","type":"function"},{"inputs":[{"internalType":"address","name":"","type":"address"}],"name":"hasCompletedJob","outputs":[{"internalType":"bool","name":"","type":"bool"}],"stateMutability":"view","type":"function"},{"inputs":[{"internalType":"address","name":"","type":"address"}],"name":"hasRatedEmployer","outputs":[{"internalType":"bool","name":"","type":"bool"}],"stateMutability":"view","type":"function"},{"inputs":[{"internalType":"address","name":"","type":"address"}],"name":"hasReceivedAllPayments","outputs":[{"internalType":"bool","name":"","type":"bool"}],"stateMutability":"view","type":"function"},{"inputs":[{"internalType":"address","name":"","type":"address"}],"name":"hasRequestedPayment","outputs":[{"internalType":"bool","name":"","type":"bool"}],"stateMutability":"view","type":"function"},{"inputs":[{"internalType":"address","name":"","type":"address"}],"name":"isWorker","outputs":[{"internalType":"bool","name":"","type":"bool"}],"stateMutability":"view","type":"function"},{"inputs":[],"name":"jobCancelled","outputs":[{"internalType":"bool","name":"","type":"bool"}],"stateMutability":"view","type":"function"},{"inputs":[],"name":"jobEnded","outputs":[{"internalType":"bool","name":"","type":"bool"}],"stateMutability":"view","type":"function"},{"inputs":[],"name":"lastPayoutAt","outputs":[{"internalType":"uint256","name":"","type":"uint256"}],"stateMutability":"view","type":"function"},{"inputs":[{"internalType":"string","name":"reason","type":"string"}],"name":"openDispute","outputs":[],"stateMutability":"nonpayable","type":"function"},{"inputs":[],"name":"payType","outputs":[{"internalType":"enum ProofOfWorkJob.PayType","name":"","type":"uint8"}],"stateMutability":"view","type":"function"},{"inputs":[{"internalType":"address","name":"","type":"address"}],"name":"paymentRequestTime","outputs":[{"internalType":"uint256","name":"","type":"uint256"}],"stateMutability":"view","type":"function"},{"inputs":[],"name":"payoutsMade","outputs":[{"internalType":"uint256","name":"","type":"uint256"}],"stateMutability":"view","type":"function"},{"inputs":[],"name":"positions","outputs":[{"internalType":"uint256","name":"","type":"uint256"}],"stateMutability":"view","type":"function"},{"inputs":[{"internalType":"uint8","name":"score","type":"uint8"}],"name":"rateEmployer","outputs":[],"stateMutability":"nonpayable","type":"function"},{"inputs":[{"internalType":"address","name":"worker","type":"address"},{"internalType":"uint8","name":"score","type":"uint8"}],"name":"rateWorker","outputs":[],"stateMutability":"nonpayable","type":"function"},{"inputs":[],"name":"reputation","outputs":[{"internalType":"contract ReputationSystem","name":"","type":"address"}],"stateMutability":"view","type":"function"},{"inputs":[],"name":"requestOneOffPayment","outputs":[],"stateMutability":"nonpayable","type":"function"},{"inputs":[],"name":"requestWeeklyPayment","outputs":[],"stateMutability":"nonpayable","type":"function"},{"inputs":[{"internalType":"bool","name":"active","type":"bool"}],"name":"setActive","outputs":[],"stateMutability":"nonpayable","type":"function"},{"inputs":[{"internalType":"string","name":"_application","type":"string"}],"name":"submitApplication","outputs":[],"stateMutability":"nonpayable","type":"function"},{"inputs":[{"internalType":"uint256","name":"","type":"uint256"}],"name":"tags","outputs":[{"internalType":"string","name":"","type":"string"}],"stateMutability":"view","type":"function"},{"inputs":[],"name":"title","outputs":[{"internalType":"string","name":"","type":"string"}],"stateMutability":"view","type":"function"},{"inputs":[],"name":"totalPay","outputs":[{"internalType":"uint256","name":"","type":"uint256"}],"stateMutability":"view","type":"function"},{"inputs":[],"name":"weeklyPay","outputs":[{"internalType":"uint256","name":"","type":"uint256"}],"stateMutability":"view","type":"function"},{"inputs":[],"name":"withdrawApplication","outputs":[],"stateMutability":"nonpayable","type":"function"}],"evm":{"bytecode":{"linkReferences":{},"object":"6101406040819052600f805461ffff191690556200498438819003908190833981016040819052620000319162000367565b600160008190556001600160a01b038b1660a05260ff8a16908111156200005c576200005c6200045b565b60018111156200007057620000706200045b565b60808160018111156200008757620000876200045b565b90525060c088905260e08790526101008690526003839055426101208190526001556004620000b7868262000500565b506005620000c6858262000500565b5060005b81518110156200012c576006828281518110620000eb57620000eb620005cc565b6020908102919091018101518254600181018455600093845291909220019062000116908262000500565b50806200012381620005e2565b915050620000ca565b50306040516200013c90620001aa565b6001600160a01b039091168152602001604051809103906000f08015801562000169573d6000803e3d6000fd5b50600780546001600160a01b039283166001600160a01b0319918216179091556008805494909216931692909217909155506200060a975050505050505050565b610975806200400f83390190565b80516001600160a01b0381168114620001d057600080fd5b919050565b805160ff81168114620001d057600080fd5b634e487b7160e01b600052604160045260246000fd5b604051601f8201601f191681016001600160401b0381118282101715620002285762000228620001e7565b604052919050565b600082601f8301126200024257600080fd5b81516001600160401b038111156200025e576200025e620001e7565b602062000274601f8301601f19168201620001fd565b82815285828487010111156200028957600080fd5b60005b83811015620002a95785810183015182820184015282016200028c565b506000928101909101919091529392505050565b600082601f830112620002cf57600080fd5b815160206001600160401b0380831115620002ee57620002ee620001e7565b8260051b620002ff838201620001fd565b93845285810183019383810190888611156200031a57600080fd5b84880192505b858310156200035b578251848111156200033a5760008081fd5b6200034a8a87838c010162000230565b835250918401919084019062000320565b98975050505050505050565b6000806000806000806000806000806101408b8d0312156200038857600080fd5b620003938b620001b8565b9950620003a360208c01620001d5565b60408c015160608d015160808e015160a08f0151939c50919a50985096506001600160401b0380821115620003d757600080fd5b620003e58e838f0162000230565b965060c08d0151915080821115620003fc57600080fd5b6200040a8e838f0162000230565b955060e08d01519450620004226101008e01620001b8565b93506101208d01519150808211156200043a57600080fd5b50620004498d828e01620002bd565b9150509295989b9194979a5092959850565b634e487b7160e01b600052602160045260246000fd5b600181811c908216806200048657607f821691505b602082108103620004a757634e487b7160e01b600052602260045260246000fd5b50919050565b601f821115620004fb57600081815260208120601f850160051c81016020861015620004d65750805b601f850160051c820191505b81811015620004f757828155600101620004e2565b5050505b505050565b81516001600160401b038111156200051c576200051c620001e7565b62000534816200052d845462000471565b84620004ad565b602080601f8311600181146200056c5760008415620005535750858301515b600019600386901b1c1916600185901b178555620004f7565b600085815260208120601f198616915b828110156200059d578886015182559484019460019091019084016200057c565b5085821015620005bc5787850151600019600388901b60f8161c191681555b5050505050600190811b01905550565b634e487b7160e01b600052603260045260246000fd5b6000600182016200060357634e487b7160e01b600052601160045260246000fd5b5060010190565b60805160a05160c05160e0516101005161012051613929620006e660003960006107190152600081816107580152610cb401526000818161048f0152818161146c015281816115d20152611d0a0152600081816106bc01526114e80152600081816105d5015281816109ab01528181610b2a015281816110a6015281816112d501528181611e04015281816121d601528181612341015281816125c60152818161263301528181612b9e0152612e2301526000818161050f01528181610b9b0152818161134601528181611c2e015261278a01526139296000f3fe608060405234801561001057600080fd5b50600436106102b85760003560e01c8063a678b65b11610173578063c52164c6116100d4578063c52164c6146106a4578063cc5870e4146106b7578063ccd66863146106de578063cec81c44146106f1578063cf09e0d014610714578063d31a385e1461073b578063d4bcdc3d14610743578063de87bca01461074b578063e154adf514610753578063e28f80741461077a578063e9c566cd1461078d578063f1c2d0d9146107a0578063f35c181d146107b3578063f7453d14146107d657600080fd5b8063a678b65b1461053e578063aa15664514610551578063aab097c814610574578063abdfd95814610587578063acec338a146105aa578063ada03159146105bd578063ae200e79146105d0578063afc5ce44146105f7578063b07c7475146105ff578063b40cc27714610607578063b85656541461061a578063b94b32951461066b578063ba5b79821461068e578063bb971fb21461069757600080fd5b80634a7de5f21161021d5780634a7de5f21461044057806353f537e314610453578063581c091b1461045c578063595210ad1461046457806368d5526f146104775780636d6356f01461048a5780637284e416146104b15780637552a5df146104b957806377444917146104cc578063778c559b146104df5780638ae52a38146104f25780638ae9487c146104fa5780639ac7e6a9146105025780639da2fb3f1461050a57600080fd5b806309413a51146102bd5780630d9485fc146102f55780630fc9b95d14610323578063123c0b2b146103465780631fcf55ff1461034f57806320822abc1461035957806324548fe714610379578063273df8f51461038c5780632a0acc6a146103af5780633638a8b2146103e2578063388d5399146103f55780633b8e1bf51461040a578063438baa55146104305780634a79d50c14610438575b600080fd5b6102e06102cb3660046130e7565b60126020526000908152604090205460ff1681565b60405190151581526020015b60405180910390f35b6103156103033660046130e7565b600d6020526000908152604090205481565b6040519081526020016102ec565b6102e06103313660046130e7565b60096020526000908152604090205460ff1681565b61031560025481565b6103576107e8565b005b61036c610367366004613102565b6108f4565b6040516102ec9190613161565b6103576103873660046130e7565b6109a0565b6102e061039a3660046130e7565b600b6020526000908152604090205460ff1681565b6103ca73a0c5048c32870bb66d0be861643cd6bb5f66ada281565b6040516001600160a01b0390911681526020016102ec565b6103576103f03660046130e7565b610b1f565b6103fd610e8e565b6040516102ec9190613174565b61041d6104183660046130e7565b610ef0565b6040516102ec97969594939291906131d7565b61035761109b565b61036c611143565b6102e061044e3660046130e7565b611150565b61031560015481565b601054610315565b61035761047236600461323b565b6111de565b6103576104853660046130e7565b6112ca565b6103157f000000000000000000000000000000000000000000000000000000000000000081565b61036c6116c8565b6102e06104c73660046130e7565b6116d5565b61036c6104da3660046130e7565b61175f565b6103576104ed3660046132c2565b6118ab565b6103fd611b76565b6102e0611bd6565b610357611c02565b6105317f000000000000000000000000000000000000000000000000000000000000000081565b6040516102ec9190613372565b61035761054c3660046130e7565b611df9565b6102e061055f3660046130e7565b60146020526000908152604090205460ff1681565b6103ca610582366004613102565b612039565b6102e06105953660046130e7565b600c6020526000908152604090205460ff1681565b6103576105b836600461338c565b612063565b6103ca6105cb366004613102565b6120f7565b6103ca7f000000000000000000000000000000000000000000000000000000000000000081565b610315612107565b6103576121cb565b6103576106153660046133bf565b612432565b6106546106283660046130e7565b6001600160a01b03166000908152600c6020908152604080832054600d9092529091205460ff90911691565b6040805192151583526020830191909152016102ec565b6102e06106793660046130e7565b600a6020526000908152604090205460ff1681565b61031560035481565b600f546102e09060ff1681565b6007546103ca906001600160a01b031681565b6103157f000000000000000000000000000000000000000000000000000000000000000081565b61041d6106ec3660046130e7565b612688565b6102e06106ff3660046130e7565b600e6020526000908152604090205460ff1681565b6103157f000000000000000000000000000000000000000000000000000000000000000081565b61035761275e565b6103fd612835565b6103fd612a0b565b6103157f000000000000000000000000000000000000000000000000000000000000000081565b6103576107883660046130e7565b612b93565b61035761079b3660046133da565b612e18565b6008546103ca906001600160a01b031681565b6102e06107c13660046130e7565b60156020526000908152604090205460ff1681565b600f546102e090610100900460ff1681565b3360009081526012602052604090205460ff166108205760405162461bcd60e51b81526004016108179061340d565b60405180910390fd5b3360009081526011602052604090206003015460ff166108825760405162461bcd60e51b815260206004820152601c60248201527f4170706c69636174696f6e20616c726561647920696e616374697665000000006044820152606401610817565b3360009081526014602052604090205460ff16156108b25760405162461bcd60e51b81526004016108179061343b565b33600081815260116020526040808220600301805460ff19169055517fc6a566fc730a6d604ab0cdb7b53172fbd7db34f6e5434d23927fcdad6640e64f9190a2565b6006818154811061090457600080fd5b90600052602060002001600091509050805461091f9061346f565b80601f016020809104026020016040519081016040528092919081815260200182805461094b9061346f565b80156109985780601f1061096d57610100808354040283529160200191610998565b820191906000526020600020905b81548152906001019060200180831161097b57829003601f168201915b505050505081565b336001600160a01b037f000000000000000000000000000000000000000000000000000000000000000016146109e85760405162461bcd60e51b8152600401610817906134a3565b600f54610100900460ff1615610a105760405162461bcd60e51b8152600401610817906134ca565b6001600160a01b03811660009081526012602052604090205460ff16610a485760405162461bcd60e51b81526004016108179061340d565b6001600160a01b03811660009081526011602052604090206003015460ff16610a835760405162461bcd60e51b8152600401610817906134fa565b6001600160a01b03811660009081526014602052604090205460ff1615610abc5760405162461bcd60e51b81526004016108179061343b565b6001600160a01b03811660008181526011602052604080822060038101805442600484015561ffff1916610100179055600501805460ff19169055517f100f0d5a3ed6f212cbb8c205e4544ae49888e8f4081af2c28afb3883391b8b809190a250565b336001600160a01b037f00000000000000000000000000000000000000000000000000000000000000001614610b675760405162461bcd60e51b8152600401610817906134a3565b610b6f6130a1565b600f54610100900460ff1615610b975760405162461bcd60e51b8152600401610817906134ca565b60017f00000000000000000000000000000000000000000000000000000000000000006001811115610bcb57610bcb6131c1565b14610be85760405162461bcd60e51b81526004016108179061352a565b6001600160a01b03811660009081526014602052604090205460ff16610c205760405162461bcd60e51b81526004016108179061354f565b6001600160a01b03811660009081526015602052604090205460ff16610c585760405162461bcd60e51b815260040161081790613575565b6001600160a01b0381166000908152600c602052604090205460ff16610c905760405162461bcd60e51b815260040161081790613597565b6001600160a01b0381166000818152600c6020526040808220805460ff19169055517f00000000000000000000000000000000000000000000000000000000000000009284929184908381818185875af1925050503d8060008114610d11576040519150601f19603f3d011682016040523d82523d6000602084013e610d16565b606091505b5050905080610d375760405162461bcd60e51b8152600401610817906135c3565b60075460405163a27caeb760e01b81526001600160a01b039091169063a27caeb790610d6a9085906001906004016135e7565b600060405180830381600087803b158015610d8457600080fd5b505af1158015610d98573d6000803e3d6000fd5b505050506001600160a01b03821660008181526009602090815260408083208054600160ff199182168117909255600e84529382902080549094161790925590518581527f9250be6d331c7b11672fc0207421bfc1631fb0ddfa5479299c034ac0ec06583c910160405180910390a2816001600160a01b03167fd8d171e9282727e9227efa1afc482fc744e84c7b8233e44e03450844ba34abdf84604051610e4291815260200190565b60405180910390a26040516001600160a01b038316907fa7ce9489b811cd79bb8695d6ad4051484c96aea68805ffa76eea626f7121f80090600090a2505050610e8b6001600055565b50565b60606010805480602002602001604051908101604052809291908181526020018280548015610ee657602002820191906000526020600020905b81546001600160a01b03168152600190910190602001808311610ec8575b5050505050905090565b6001600160a01b0381166000908152601260205260408120546060908290819081908190819060ff16610f355760405162461bcd60e51b81526004016108179061340d565b6001600160a01b038089166000908152601160209081526040808320815160e0810190925280549094168152600184018054939491939192840191610f799061346f565b80601f0160208091040260200160405190810160405280929190818152602001828054610fa59061346f565b8015610ff25780601f10610fc757610100808354040283529160200191610ff2565b820191906000526020600020905b815481529060010190602001808311610fd557829003601f168201915b50505091835250506002820154602082015260038083015460ff808216151560408501526060909301926101009091041690811115611033576110336131c1565b6003811115611044576110446131c1565b8152600482015460208083019190915260059092015460ff161515604091820152825191830151908301516060840151608085015160a086015160c090960151949f939e50919c509a509850919650945092505050565b336001600160a01b037f000000000000000000000000000000000000000000000000000000000000000016146110e35760405162461bcd60e51b8152600401610817906134a3565b600f54610100900460ff161561110b5760405162461bcd60e51b8152600401610817906134ca565b600f805460ff191660011790556040517ff15447bf6e80cadb12851e8f57292eb42c9df96cbabf91c1bd239e35813e52cc90600090a1565b6004805461091f9061346f565b600f54600090610100900460ff1615801561118357506001600160a01b03821660009081526014602052604090205460ff165b80156111b357506001600160a01b0382166000908152600e602052604090205460ff16806111b35750600f5460ff165b80156111d857506001600160a01b0382166000908152600b602052604090205460ff16155b92915050565b600f54610100900460ff16156112065760405162461bcd60e51b8152600401610817906134ca565b600854604051637569a44d60e11b81526000916001600160a01b03169063ead3489a9061123b90309087908790600401613629565b6020604051808303816000875af115801561125a573d6000803e3d6000fd5b505050506040513d601f19601f8201168201806040525081019061127e9190613657565b9050336001600160a01b03167f90dbc172d69d9ef2ed29aa7a0aa260e1e96930cb705d72a22bcd2cfbe3b27f3b8285856040516112bd93929190613670565b60405180910390a2505050565b336001600160a01b037f000000000000000000000000000000000000000000000000000000000000000016146113125760405162461bcd60e51b8152600401610817906134a3565b61131a6130a1565b600f54610100900460ff16156113425760405162461bcd60e51b8152600401610817906134ca565b60007f00000000000000000000000000000000000000000000000000000000000000006001811115611376576113766131c1565b146113935760405162461bcd60e51b81526004016108179061368a565b6001600160a01b03811660009081526014602052604090205460ff166113cb5760405162461bcd60e51b81526004016108179061354f565b6001600160a01b03811660009081526015602052604090205460ff166114035760405162461bcd60e51b815260040161081790613575565b6001600160a01b0381166000908152600c602052604090205460ff1661143b5760405162461bcd60e51b815260040161081790613597565b60015461144b9062093a806136c4565b42101561146a5760405162461bcd60e51b8152600401610817906136d7565b7f0000000000000000000000000000000000000000000000000000000000000000600254106114ab5760405162461bcd60e51b8152600401610817906136f9565b42600155600280549060006114bf8361371b565b90915550506001600160a01b0381166000818152600c6020526040808220805460ff19169055517f00000000000000000000000000000000000000000000000000000000000000009284929184908381818185875af1925050503d8060008114611545576040519150601f19603f3d011682016040523d82523d6000602084013e61154a565b606091505b505090508061156b5760405162461bcd60e51b8152600401610817906135c3565b60075460405163a27caeb760e01b81526001600160a01b039091169063a27caeb79061159e9085906001906004016135e7565b600060405180830381600087803b1580156115b857600080fd5b505af11580156115cc573d6000803e3d6000fd5b505050507f000000000000000000000000000000000000000000000000000000000000000060025403611635576001600160a01b03821660009081526009602090815260408083208054600160ff199182168117909255600e9093529220805490911690911790555b816001600160a01b03167f9250be6d331c7b11672fc0207421bfc1631fb0ddfa5479299c034ac0ec06583c8460405161167091815260200190565b60405180910390a2816001600160a01b03167fdf20fd1e76bc69d672e4814fafb2c449bba3a5369d8359adf9e05e6fde87b056846040516116b391815260200190565b60405180910390a2505050610e8b6001600055565b6005805461091f9061346f565b600f54600090610100900460ff1615801561170857506001600160a01b03821660009081526014602052604090205460ff165b801561173857506001600160a01b0382166000908152600b602052604090205460ff16806117385750600f5460ff165b80156111d85750506001600160a01b03166000908152600a602052604090205460ff161590565b6001600160a01b03811660009081526012602052604090205460609060ff1661179a5760405162461bcd60e51b81526004016108179061340d565b6001600160a01b038216600090815260116020526040812060030154610100900460ff16908160038111156117d1576117d16131c1565b036117fb57505060408051808201909152600781526650656e64696e6760c81b6020820152919050565b600181600381111561180f5761180f6131c1565b03611886576001600160a01b03831660009081526011602052604090206005015460ff1661185d5760405180604001604052806008815260200167111958db1a5b995960c21b81525061187f565b604051806040016040528060088152602001671058d8d95c1d195960c21b8152505b9392505050565b50506040805180820190915260078152662ab735b737bbb760c91b6020820152919050565b600f54610100900460ff16156118d35760405162461bcd60e51b8152600401610817906134ca565b60008151116119225760405162461bcd60e51b815260206004820152601b60248201527a4170706c69636174696f6e2063616e6e6f7420626520656d70747960281b6044820152606401610817565b3360009081526012602052604090205460ff16156119745760405162461bcd60e51b815260206004820152600f60248201526e105b1c9958591e48185c1c1b1a5959608a1b6044820152606401610817565b3360009081526014602052604090205460ff16156119a45760405162461bcd60e51b81526004016108179061343b565b600354601354106119ee5760405162461bcd60e51b8152602060048201526014602482015273105b1b081c1bdcda5d1a5bdb9cc8199a5b1b195960621b6044820152606401610817565b6040805160e08101825233815260208101839052429181019190915260016060820152608081016000815260006020808301829052604092830182905233825260118152919020825181546001600160a01b0319166001600160a01b03909116178155908201516001820190611a649082613783565b506040820151600282015560608201516003808301805492151560ff19841681178255608086015193919261ff001990911661ffff199092169190911790610100908490811115611ab757611ab76131c1565b021790555060a0820151600482015560c0909101516005909101805491151560ff1992831617905533600081815260126020526040808220805490941660019081179094556010805494850181559091527f1b6847dc741a1b0cd08d278845f9d819d87b734759afb55fe2de5cb82a9ae67290920180546001600160a01b0319168217905590517f4d954d97ff5f7e3ceb48557e63515f2b6d839b08e9cb52c79f8be5347e86ad5590611b6b908490613161565b60405180910390a250565b60606013805480602002602001604051908101604052809291908181526020018280548015610ee6576020028201919060005260206000209081546001600160a01b03168152600190910190602001808311610ec8575050505050905090565b600f54600090610100900460ff16158015611bf15750601354155b8015611bfd5750600254155b905090565b600f54610100900460ff1615611c2a5760405162461bcd60e51b8152600401610817906134ca565b60007f00000000000000000000000000000000000000000000000000000000000000006001811115611c5e57611c5e6131c1565b14611c7b5760405162461bcd60e51b81526004016108179061368a565b3360009081526014602052604090205460ff16611caa5760405162461bcd60e51b81526004016108179061354f565b3360009081526015602052604090205460ff16611cd95760405162461bcd60e51b815260040161081790613575565b600154611ce99062093a806136c4565b421015611d085760405162461bcd60e51b8152600401610817906136d7565b7f000000000000000000000000000000000000000000000000000000000000000060025410611d495760405162461bcd60e51b8152600401610817906136f9565b336000908152600c602052604090205460ff1615611d9d5760405162461bcd60e51b8152602060048201526011602482015270105b1c9958591e481c995c5d595cdd1959607a1b6044820152606401610817565b336000818152600c60209081526040808320805460ff19166001179055600d825291829020429081905591519182527f4a0353366c54503c4eb4d024baf56134b0a62137ed7b5f688a205cb8ec34758f910160405180910390a2565b336001600160a01b037f00000000000000000000000000000000000000000000000000000000000000001614611e415760405162461bcd60e51b8152600401610817906134a3565b600f54610100900460ff1615611e695760405162461bcd60e51b8152600401610817906134ca565b6001600160a01b03811660009081526012602052604090205460ff16611ea15760405162461bcd60e51b81526004016108179061340d565b6001600160a01b03811660009081526011602052604090206003015460ff16611edc5760405162461bcd60e51b8152600401610817906134fa565b6001600160a01b03811660009081526014602052604090205460ff1615611f155760405162461bcd60e51b81526004016108179061343b565b60035460135410611f385760405162461bcd60e51b815260040161081790613842565b6001600160a01b038116600081815260116020908152604080832060038101805442600484015561ffff1916610100179055600501805460ff19908116600190811790925560148452828520805482168317905560159093528184208054909316811790925560138054928301815583527f66de8ffda797e3de9c05e8fc57b3bf0ec28a930d40b0d285d93c06501cf6a09090910180546001600160a01b03191684179055517f485af27643b0f91058287eb2aa76b88703036e31298f4a07f7efbbbf7ffa5f8b9190a26040516001600160a01b038216907f9f4c97600ac649eabe56724216338e96fe75493563dc37a3e489a8c46228d75690600090a250565b6013818154811061204957600080fd5b6000918252602090912001546001600160a01b0316905081565b600f54610100900460ff161561208b5760405162461bcd60e51b8152600401610817906134ca565b3360009081526014602052604090205460ff166120d75760405162461bcd60e51b815260206004820152600a6024820152692737ba103bb7b935b2b960b11b6044820152606401610817565b336000908152601560205260409020805460ff1916911515919091179055565b6010818154811061204957600080fd5b600080805b6010548110156121c557601160006010838154811061212d5761212d613870565b60009182526020808320909101546001600160a01b0316835282019290925260400190206003015460ff1680156121a05750601460006010838154811061217657612176613870565b60009182526020808320909101546001600160a01b0316835282019290925260400190205460ff16155b156121b357816121af8161371b565b9250505b806121bd8161371b565b91505061210c565b50919050565b336001600160a01b037f000000000000000000000000000000000000000000000000000000000000000016146122135760405162461bcd60e51b8152600401610817906134a3565b61221b6130a1565b600f54610100900460ff161561226b5760405162461bcd60e51b8152602060048201526015602482015274129bd888185b1c9958591e4818d85b98d95b1b1959605a1b6044820152606401610817565b601354156122cb5760405162461bcd60e51b815260206004820152602760248201527f43616e6e6f742063616e63656c206a6f6220776974682061737369676e656420604482015266776f726b65727360c81b6064820152608401610817565b600254156123275760405162461bcd60e51b8152602060048201526024808201527f43616e6e6f742063616e63656c206a6f622077697468207061796d656e7473206044820152636d61646560e01b6064820152608401610817565b600f805461ff0019166101001790554780156123f25760007f00000000000000000000000000000000000000000000000000000000000000006001600160a01b03168260405160006040518083038185875af1925050503d80600081146123aa576040519150601f19603f3d011682016040523d82523d6000602084013e6123af565b606091505b50509050806123f05760405162461bcd60e51b815260206004820152600d60248201526c1499599d5b990819985a5b1959609a1b6044820152606401610817565b505b6040518181527f58243f872c550ad02802199ade99eb4250f6bb19e9abbf2d3de7b969c0eb5e4f9060200160405180910390a1506124306001600055565b565b600f54610100900460ff161561245a5760405162461bcd60e51b8152600401610817906134ca565b3360009081526014602052604090205460ff166124895760405162461bcd60e51b815260040161081790613886565b336000908152600b602052604090205460ff16806124a95750600f5460ff165b6124f55760405162461bcd60e51b815260206004820152601d60248201527f456d706c6f796572206861736e277420726174656420796f75207965740000006044820152606401610817565b336000908152600a602052604090205460ff161561254e5760405162461bcd60e51b815260206004820152601660248201527520b63932b0b23c903930ba32b21032b6b83637bcb2b960511b6044820152606401610817565b60018160ff1610158015612566575060058160ff1611155b6125825760405162461bcd60e51b8152600401610817906138ac565b336000908152600a602052604090819020805460ff191660011790556007549051636ba0ed7960e11b81526001600160a01b03919091169063d741daf2906125f0907f00000000000000000000000000000000000000000000000000000000000000009085906004016138d7565b600060405180830381600087803b15801561260a57600080fd5b505af115801561261e573d6000803e3d6000fd5b505060405160ff841681526001600160a01b037f00000000000000000000000000000000000000000000000000000000000000001692503391507ff679ed47d9d270fdbcc0841fa6aaada363a11452a6629e5a49223b28fc0830659060200160405180910390a350565b601160205260009081526040902080546001820180546001600160a01b0390921692916126b49061346f565b80601f01602080910402602001604051908101604052809291908181526020018280546126e09061346f565b801561272d5780601f106127025761010080835404028352916020019161272d565b820191906000526020600020905b81548152906001019060200180831161271057829003601f168201915b5050506002840154600385015460048601546005909601549495919460ff8083169550610100909204821693501687565b600f54610100900460ff16156127865760405162461bcd60e51b8152600401610817906134ca565b60017f000000000000000000000000000000000000000000000000000000000000000060018111156127ba576127ba6131c1565b146127d75760405162461bcd60e51b81526004016108179061352a565b3360009081526014602052604090205460ff166128065760405162461bcd60e51b81526004016108179061354f565b3360009081526015602052604090205460ff16611d495760405162461bcd60e51b815260040161081790613575565b60606000805b6010548110156128f457601160006010838154811061285c5761285c613870565b60009182526020808320909101546001600160a01b0316835282019290925260400190206003015460ff1680156128cf575060146000601083815481106128a5576128a5613870565b60009182526020808320909101546001600160a01b0316835282019290925260400190205460ff16155b156128e257816128de8161371b565b9250505b806128ec8161371b565b91505061283b565b506000816001600160401b0381111561290f5761290f6132ac565b604051908082528060200260200182016040528015612938578160200160208202803683370190505b5090506000805b601054811015612a025760006010828154811061295e5761295e613870565b60009182526020808320909101546001600160a01b0316808352601190915260409091206003015490915060ff1680156129b157506001600160a01b03811660009081526014602052604090205460ff16155b156129ef57808484815181106129c9576129c9613870565b6001600160a01b0390921660209283029190910190910152826129eb8161371b565b9350505b50806129fa8161371b565b91505061293f565b50909392505050565b60606000805b601354811015612a7f57600c600060138381548110612a3257612a32613870565b60009182526020808320909101546001600160a01b0316835282019290925260400190205460ff1615612a6d5781612a698161371b565b9250505b80612a778161371b565b915050612a11565b506000816001600160401b03811115612a9a57612a9a6132ac565b604051908082528060200260200182016040528015612ac3578160200160208202803683370190505b5090506000805b601354811015612a0257600c600060138381548110612aeb57612aeb613870565b60009182526020808320909101546001600160a01b0316835282019290925260400190205460ff1615612b815760138181548110612b2b57612b2b613870565b9060005260206000200160009054906101000a90046001600160a01b0316838381518110612b5b57612b5b613870565b6001600160a01b039092166020928302919091019091015281612b7d8161371b565b9250505b80612b8b8161371b565b915050612aca565b336001600160a01b037f00000000000000000000000000000000000000000000000000000000000000001614612bdb5760405162461bcd60e51b8152600401610817906134a3565b600f54610100900460ff1615612c035760405162461bcd60e51b8152600401610817906134ca565b6001600160a01b038116612c465760405162461bcd60e51b815260206004820152600a6024820152692130b2103bb7b935b2b960b11b6044820152606401610817565b6001600160a01b03811660009081526014602052604090205460ff1615612ca25760405162461bcd60e51b815260206004820152601060248201526f105b1c9958591e48185cdcda59db995960821b6044820152606401610817565b60035460135410612cc55760405162461bcd60e51b815260040161081790613842565b6001600160a01b03811660008181526014602090815260408083208054600160ff199182168117909255601584528285208054909116821790556013805491820190557f66de8ffda797e3de9c05e8fc57b3bf0ec28a930d40b0d285d93c06501cf6a0900180546001600160a01b03191690941790935560129052205460ff1615612de1576001600160a01b038116600090815260116020526040812060038101805461ffff191661010017905560058101805460ff19166001179055600401549003612dac576001600160a01b0381166000908152601160205260409020426004909101555b6040516001600160a01b038216907f485af27643b0f91058287eb2aa76b88703036e31298f4a07f7efbbbf7ffa5f8b90600090a25b6040516001600160a01b038216907f9f4c97600ac649eabe56724216338e96fe75493563dc37a3e489a8c46228d75690600090a250565b336001600160a01b037f00000000000000000000000000000000000000000000000000000000000000001614612e605760405162461bcd60e51b8152600401610817906134a3565b600f54610100900460ff1615612e885760405162461bcd60e51b8152600401610817906134ca565b6001600160a01b03821660009081526014602052604090205460ff16612ec05760405162461bcd60e51b815260040161081790613886565b6001600160a01b0382166000908152600e602052604090205460ff1680612ee95750600f5460ff165b612f415760405162461bcd60e51b815260206004820152602360248201527f576f726b6572206861736e277420726563656976656420616c6c207061796d656044820152626e747360e81b6064820152608401610817565b6001600160a01b0382166000908152600b602052604090205460ff1615612fa65760405162461bcd60e51b815260206004820152601960248201527820b63932b0b23c903930ba32b2103a3434b9903bb7b935b2b960391b6044820152606401610817565b60018160ff1610158015612fbe575060058160ff1611155b612fda5760405162461bcd60e51b8152600401610817906138ac565b6001600160a01b038083166000908152600b602052604090819020805460ff191660011790556007549051636ba0ed7960e11b815291169063d741daf29061302890859085906004016138d7565b600060405180830381600087803b15801561304257600080fd5b505af1158015613056573d6000803e3d6000fd5b505060405160ff841681526001600160a01b03851692503391507ff679ed47d9d270fdbcc0841fa6aaada363a11452a6629e5a49223b28fc0830659060200160405180910390a35050565b6002600054036130c457604051633ee5aeb560e01b815260040160405180910390fd5b6002600055565b80356001600160a01b03811681146130e257600080fd5b919050565b6000602082840312156130f957600080fd5b61187f826130cb565b60006020828403121561311457600080fd5b5035919050565b6000815180845260005b8181101561314157602081850181015186830182015201613125565b506000602082860101526020601f19601f83011685010191505092915050565b60208152600061187f602083018461311b565b6020808252825182820181905260009190848201906040850190845b818110156131b55783516001600160a01b031683529284019291840191600101613190565b50909695505050505050565b634e487b7160e01b600052602160045260246000fd5b6001600160a01b038816815260e0602082018190526000906131fb9083018961311b565b905086604083015285151560608301526004851061321b5761321b6131c1565b8460808301528360a083015282151560c083015298975050505050505050565b6000806020838503121561324e57600080fd5b82356001600160401b038082111561326557600080fd5b818501915085601f83011261327957600080fd5b81358181111561328857600080fd5b86602082850101111561329a57600080fd5b60209290920196919550909350505050565b634e487b7160e01b600052604160045260246000fd5b6000602082840312156132d457600080fd5b81356001600160401b03808211156132eb57600080fd5b818401915084601f8301126132ff57600080fd5b813581811115613311576133116132ac565b604051601f8201601f19908116603f01168101908382118183101715613339576133396132ac565b8160405282815287602084870101111561335257600080fd5b826020860160208301376000928101602001929092525095945050505050565b6020810160028310613386576133866131c1565b91905290565b60006020828403121561339e57600080fd5b8135801515811461187f57600080fd5b803560ff811681146130e257600080fd5b6000602082840312156133d157600080fd5b61187f826133ae565b600080604083850312156133ed57600080fd5b6133f6836130cb565b9150613404602084016133ae565b90509250929050565b602080825260149082015273139bc8185c1c1b1a58d85d1a5bdb88199bdd5b9960621b604082015260600190565b6020808252601a908201527920b63932b0b23c9030b9b9b4b3b732b21030b9903bb7b935b2b960311b604082015260600190565b600181811c9082168061348357607f821691505b6020821081036121c557634e487b7160e01b600052602260045260246000fd5b6020808252600d908201526c27b7363c9032b6b83637bcb2b960991b604082015260600190565b602080825260169082015275129bd8881a185cc81899595b8818d85b98d95b1b195960521b604082015260600190565b6020808252601690820152754170706c69636174696f6e206e6f742061637469766560501b604082015260600190565b6020808252600b908201526a2737ba1037b73296b7b33360a91b604082015260600190565b6020808252600c908201526b139bdd08185cdcda59db995960a21b604082015260600190565b602080825260089082015267496e61637469766560c01b604082015260600190565b602080825260129082015271139bc81c185e5b595b9d081c995c5d595cdd60721b604082015260600190565b6020808252600a908201526914185e4819985a5b195960b21b604082015260600190565b6001600160a01b03929092168252602082015260400190565b81835281816020850137506000828201602090810191909152601f909101601f19169091010190565b6001600160a01b038416815260406020820181905260009061364e9083018486613600565b95945050505050565b60006020828403121561366957600080fd5b5051919050565b83815260406020820152600061364e604083018486613600565b6020808252600a90820152694e6f74207765656b6c7960b01b604082015260600190565b634e487b7160e01b600052601160045260246000fd5b808201808211156111d8576111d86136ae565b6020808252600890820152672a37b79039b7b7b760c11b604082015260600190565b602080825260089082015267105b1b081c185a5960c21b604082015260600190565b60006001820161372d5761372d6136ae565b5060010190565b601f82111561377e57600081815260208120601f850160051c8101602086101561375b5750805b601f850160051c820191505b8181101561377a57828155600101613767565b5050505b505050565b81516001600160401b0381111561379c5761379c6132ac565b6137b0816137aa845461346f565b84613734565b602080601f8311600181146137e557600084156137cd5750858301515b600019600386901b1c1916600185901b17855561377a565b600085815260208120601f198616915b82811015613814578886015182559484019460019091019084016137f5565b50858210156138325787850151600019600388901b60f8161c191681555b5050505050600190811b01905550565b60208082526014908201527313585e081c1bdcda5d1a5bdb9cc8199a5b1b195960621b604082015260600190565b634e487b7160e01b600052603260045260246000fd5b6020808252600c908201526b2737ba1030903bb7b935b2b960a11b604082015260600190565b60208082526011908201527053636f7265206d75737420626520312d3560781b604082015260600190565b6001600160a01b0392909216825260ff1660208201526040019056fea26469706673582212202747defd1304db7ff95766bab731e270a524400205fb98844546f44d93b050a864736f6c63430008140033608060405234801561001057600080fd5b5060405161097538038061097583398101604081905261002f91610054565b600080546001600160a01b0319166001600160a01b0392909216919091179055610084565b60006020828403121561006657600080fd5b81516001600160a01b038116811461007d57600080fd5b9392505050565b6108e2806100936000396000f3fe608060405234801561001057600080fd5b50600436106100835760003560e01c80637dafeb5414610088578063993aa627146100ff578063a27caeb71461011f578063afd86a7614610134578063baccbfdb1461015f578063c8b675221461018d578063d741daf2146101b5578063eb73d2ba146101c8578063f8b11691146101eb575b600080fd5b6100d96100963660046106f4565b6001600160a01b03908116600090815260016020818152604080842095909416835260039094019093522080549181015460029091015460ff9283169391921690565b6040805160ff909416845260208401929092521515908201526060015b60405180910390f35b61011261010d366004610727565b610219565b6040516100f69190610749565b61013261012d366004610796565b610292565b005b600054610147906001600160a01b031681565b6040516001600160a01b0390911681526020016100f6565b61017261016d366004610727565b61032d565b604080519384526020840192909252908201526060016100f6565b6101a061019b366004610727565b61038a565b604080519283526020830191909152016100f6565b6101326101c33660046107c0565b6103e1565b6101db6101d63660046106f4565b6106a1565b60405190151581526020016100f6565b6101726101f9366004610727565b600160208190526000918252604090912080549181015460029091015483565b6001600160a01b03811660009081526001602090815260409182902060050180548351818402810184019094528084526060939283018282801561028657602002820191906000526020600020905b81546001600160a01b03168152600190910190602001808311610268575b50505050509050919050565b6000546001600160a01b031633146102c55760405162461bcd60e51b81526004016102bc906107fd565b60405180910390fd5b6001600160a01b038216600090815260016020526040812060020180548392906102f0908490610847565b90915550506040516001600160a01b038316907fa7ce9489b811cd79bb8695d6ad4051484c96aea68805ffa76eea626f7121f80090600090a25050565b6001600160a01b03811660009081526001602052604081208054829182918290610358576000610374565b8154600183015461036a90606461085a565b6103749190610871565b8254600290930154909792965094509092505050565b6001600160a01b0381166000908152600160205260408120805482919082036103b95750600093849350915050565b805460018201546103cb90606461085a565b6103d59190610871565b90549094909350915050565b6000546001600160a01b0316331461040b5760405162461bcd60e51b81526004016102bc906107fd565b6001600160a01b0382166104595760405162461bcd60e51b8152602060048201526015602482015274496e76616c6964207261746565206164647265737360581b60448201526064016102bc565b60018160ff1610158015610471575060058160ff1611155b6104b15760405162461bcd60e51b815260206004820152601160248201527053636f7265206d75737420626520312d3560781b60448201526064016102bc565b6001600160a01b038216600090815260016020908152604080832032845260030190915290206002015460ff161561051b5760405162461bcd60e51b815260206004820152600d60248201526c105b1c9958591e481c985d1959609a1b60448201526064016102bc565b604080516060808201835260ff80851680845242602080860182815260018789018181526001600160a01b038c1660008181528386528b8120328083526003820188528d83209c518d54908c1660ff19918216178e5596518d870155935160029c8d0180549115159188169190911790558c519a8b018d52978a52898601968752898c018481529281528386528b812091815260049091018552998a209751885497169683169690961787559251868401559351949095018054941515949093169390931790915591528054916105f183610893565b90915550506001600160a01b0382166000908152600160208190526040822001805460ff84169290610624908490610847565b90915550506001600160a01b03821660008181526001602081815260408084206005018054938401815584529281902090910180546001600160a01b03191632908117909155915160ff851681527ff679ed47d9d270fdbcc0841fa6aaada363a11452a6629e5a49223b28fc083065910160405180910390a35050565b6001600160a01b038082166000908152600160209081526040808320938616835260039093019052206002015460ff165b92915050565b80356001600160a01b03811681146106ef57600080fd5b919050565b6000806040838503121561070757600080fd5b610710836106d8565b915061071e602084016106d8565b90509250929050565b60006020828403121561073957600080fd5b610742826106d8565b9392505050565b6020808252825182820181905260009190848201906040850190845b8181101561078a5783516001600160a01b031683529284019291840191600101610765565b50909695505050505050565b600080604083850312156107a957600080fd5b6107b2836106d8565b946020939093013593505050565b600080604083850312156107d357600080fd5b6107dc836106d8565b9150602083013560ff811681146107f257600080fd5b809150509250929050565b6020808252601a908201527913db9b1e481a9bd88818dbdb9d1c9858dd0818d85b8818d85b1b60321b604082015260600190565b634e487b7160e01b600052601160045260246000fd5b808201808211156106d2576106d2610831565b80820281158282048414176106d2576106d2610831565b60008261088e57634e487b7160e01b600052601260045260246000fd5b500490565b6000600182016108a5576108a5610831565b506001019056fea26469706673582212204a03572708afebd893e1503019ceeeab9867b1c043835cfb9d17d7e33e18109364736f6c63430008140033","opcodes":"PUSH2 0x140 PUSH1 0x40 DUP2 SWAP1 MSTORE PUSH1 0xF DUP1 SLOAD PUSH2 0xFFFF NOT AND SWAP1 SSTORE PUSH3 0x4984 CODESIZE DUP2 SWAP1 SUB SWAP1 DUP2 SWAP1 DUP4 CODECOPY DUP2 ADD PUSH1 0x40 DUP2 SWAP1 MSTORE PUSH3 0x31 SWAP2 PUSH3 0x367 JUMP JUMPDEST PUSH1 0x1 PUSH1 0x0 DUP2 SWAP1 SSTORE PUSH1 0x1 PUSH1 0x1 PUSH1 0xA0 SHL SUB DUP12 AND PUSH1 0xA0 MSTORE PUSH1 0xFF DUP11 AND SWAP1 DUP2 GT ISZERO PUSH3 0x5C JUMPI PUSH3 0x5C PUSH3 0x45B JUMP JUMPDEST PUSH1 0x1 DUP2 GT ISZERO PUSH3 0x70 JUMPI PUSH3 0x70 PUSH3 0x45B JUMP JUMPDEST PUSH1 0x80 DUP2 PUSH1 0x1 DUP2 GT ISZERO PUSH3 0x87 JUMPI PUSH3 0x87 PUSH3 0x45B JUMP JUMPDEST SWAP1 MSTORE POP PUSH1 0xC0 DUP9 SWAP1 MSTORE PUSH1 0xE0 DUP8 SWAP1 MSTORE PUSH2 0x100 DUP7 SWAP1 MSTORE PUSH1 0x3 DUP4 SWAP1 SSTORE TIMESTAMP PUSH2 0x120 DUP2 SWAP1 MSTORE PUSH1 0x1 SSTORE PUSH1 0x4 PUSH3 0xB7 DUP7 DUP3 PUSH3 0x500 JUMP JUMPDEST POP PUSH1 0x5 PUSH3 0xC6 DUP6 DUP3 PUSH3 0x500 JUMP JUMPDEST POP PUSH1 0x0 JUMPDEST DUP2 MLOAD DUP2 LT ISZERO PUSH3 0x12C JUMPI PUSH1 0x6 DUP3 DUP3 DUP2 MLOAD DUP2 LT PUSH3 0xEB JUMPI PUSH3 0xEB PUSH3 0x5CC JUMP JUMPDEST PUSH1 0x20 SWAP1 DUP2 MUL SWAP2 SWAP1 SWAP2 ADD DUP2 ADD MLOAD DUP3 SLOAD PUSH1 0x1 DUP2 ADD DUP5 SSTORE PUSH1 0x0 SWAP4 DUP5 MSTORE SWAP2 SWAP1 SWAP3 KECCAK256 ADD SWAP1 PUSH3 0x116 SWAP1 DUP3 PUSH3 0x500 JUMP JUMPDEST POP DUP1 PUSH3 0x123 DUP2 PUSH3 0x5E2 JUMP JUMPDEST SWAP2 POP POP PUSH3 0xCA JUMP JUMPDEST POP ADDRESS PUSH1 0x40 MLOAD PUSH3 0x13C SWAP1 PUSH3 0x1AA JUMP JUMPDEST PUSH1 0x1 PUSH1 0x1 PUSH1 0xA0 SHL SUB SWAP1 SWAP2 AND DUP2 MSTORE PUSH1 0x20 ADD PUSH1 0x40 MLOAD DUP1 SWAP2 SUB SWAP1 PUSH1 0x0 CREATE DUP1 ISZERO DUP1 ISZERO PUSH3 0x169 JUMPI RETURNDATASIZE PUSH1 0x0 DUP1 RETURNDATACOPY RETURNDATASIZE PUSH1 0x0 REVERT JUMPDEST POP PUSH1 0x7 DUP1 SLOAD PUSH1 0x1 PUSH1 0x1 PUSH1 0xA0 SHL SUB SWAP3 DUP4 AND PUSH1 0x1 PUSH1 0x1 PUSH1 0xA0 SHL SUB NOT SWAP2 DUP3 AND OR SWAP1 SWAP2 SSTORE PUSH1 0x8 DUP1 SLOAD SWAP5 SWAP1 SWAP3 AND SWAP4 AND SWAP3 SWAP1 SWAP3 OR SWAP1 SWAP2 SSTORE POP PUSH3 0x60A SWAP8 POP POP POP POP POP POP POP POP JUMP JUMPDEST PUSH2 0x975 DUP1 PUSH3 0x400F DUP4 CODECOPY ADD SWAP1 JUMP JUMPDEST DUP1 MLOAD PUSH1 0x1 PUSH1 0x1 PUSH1 0xA0 SHL SUB DUP2 AND DUP2 EQ PUSH3 0x1D0 JUMPI PUSH1 0x0 DUP1 REVERT JUMPDEST SWAP2 SWAP1 POP JUMP JUMPDEST DUP1 MLOAD PUSH1 0xFF DUP2 AND DUP2 EQ PUSH3 0x1D0 JUMPI PUSH1 0x0 DUP1 REVERT JUMPDEST PUSH4 0x4E487B71 PUSH1 0xE0 SHL PUSH1 0x0 MSTORE PUSH1 0x41 PUSH1 0x4 MSTORE PUSH1 0x24 PUSH1 0x0 REVERT JUMPDEST PUSH1 0x40 MLOAD PUSH1 0x1F DUP3 ADD PUSH1 0x1F NOT AND DUP2 ADD PUSH1 0x1 PUSH1 0x1 PUSH1 0x40 SHL SUB DUP2 GT DUP3 DUP3 LT OR ISZERO PUSH3 0x228 JUMPI PUSH3 0x228 PUSH3 0x1E7 JUMP JUMPDEST PUSH1 0x40 MSTORE SWAP2 SWAP1 POP JUMP JUMPDEST PUSH1 0x0 DUP3 PUSH1 0x1F DUP4 ADD SLT PUSH3 0x242 JUMPI PUSH1 0x0 DUP1 REVERT JUMPDEST DUP2 MLOAD PUSH1 0x1 PUSH1 0x1 PUSH1 0x40 SHL SUB DUP2 GT ISZERO PUSH3 0x25E JUMPI PUSH3 0x25E PUSH3 0x1E7 JUMP JUMPDEST PUSH1 0x20 PUSH3 0x274 PUSH1 0x1F DUP4 ADD PUSH1 0x1F NOT AND DUP3 ADD PUSH3 0x1FD JUMP JUMPDEST DUP3 DUP2 MSTORE DUP6 DUP3 DUP5 DUP8 ADD ADD GT ISZERO PUSH3 0x289 JUMPI PUSH1 0x0 DUP1 REVERT JUMPDEST PUSH1 0x0 JUMPDEST DUP4 DUP2 LT ISZERO PUSH3 0x2A9 JUMPI DUP6 DUP2 ADD DUP4 ADD MLOAD DUP3 DUP3 ADD DUP5 ADD MSTORE DUP3 ADD PUSH3 0x28C JUMP JUMPDEST POP PUSH1 0x0 SWAP3 DUP2 ADD SWAP1 SWAP2 ADD SWAP2 SWAP1 SWAP2 MSTORE SWAP4 SWAP3 POP POP POP JUMP JUMPDEST PUSH1 0x0 DUP3 PUSH1 0x1F DUP4 ADD SLT PUSH3 0x2CF JUMPI PUSH1 0x0 DUP1 REVERT JUMPDEST DUP2 MLOAD PUSH1 0x20 PUSH1 0x1 PUSH1 0x1 PUSH1 0x40 SHL SUB DUP1 DUP4 GT ISZERO PUSH3 0x2EE JUMPI PUSH3 0x2EE PUSH3 0x1E7 JUMP JUMPDEST DUP3 PUSH1 0x5 SHL PUSH3 0x2FF DUP4 DUP3 ADD PUSH3 0x1FD JUMP JUMPDEST SWAP4 DUP5 MSTORE DUP6 DUP2 ADD DUP4 ADD SWAP4 DUP4 DUP2 ADD SWAP1 DUP9 DUP7 GT ISZERO PUSH3 0x31A JUMPI PUSH1 0x0 DUP1 REVERT JUMPDEST DUP5 DUP9 ADD SWAP3 POP JUMPDEST DUP6 DUP4 LT ISZERO PUSH3 0x35B JUMPI DUP3 MLOAD DUP5 DUP2 GT ISZERO PUSH3 0x33A JUMPI PUSH1 0x0 DUP1 DUP2 REVERT JUMPDEST PUSH3 0x34A DUP11 DUP8 DUP4 DUP13 ADD ADD PUSH3 0x230 JUMP JUMPDEST DUP4 MSTORE POP SWAP2 DUP5 ADD SWAP2 SWAP1 DUP5 ADD SWAP1 PUSH3 0x320 JUMP JUMPDEST SWAP9 SWAP8 POP POP POP POP POP POP POP POP JUMP JUMPDEST PUSH1 0x0 DUP1 PUSH1 0x0 DUP1 PUSH1 0x0 DUP1 PUSH1 0x0 DUP1 PUSH1 0x0 DUP1 PUSH2 0x140 DUP12 DUP14 SUB SLT ISZERO PUSH3 0x388 JUMPI PUSH1 0x0 DUP1 REVERT JUMPDEST PUSH3 0x393 DUP12 PUSH3 0x1B8 JUMP JUMPDEST SWAP10 POP PUSH3 0x3A3 PUSH1 0x20 DUP13 ADD PUSH3 0x1D5 JUMP JUMPDEST PUSH1 0x40 DUP13 ADD MLOAD PUSH1 0x60 DUP14 ADD MLOAD PUSH1 0x80 DUP15 ADD MLOAD PUSH1 0xA0 DUP16 ADD MLOAD SWAP4 SWAP13 POP SWAP2 SWAP11 POP SWAP9 POP SWAP7 POP PUSH1 0x1 PUSH1 0x1 PUSH1 0x40 SHL SUB DUP1 DUP3 GT ISZERO PUSH3 0x3D7 JUMPI PUSH1 0x0 DUP1 REVERT JUMPDEST PUSH3 0x3E5 DUP15 DUP4 DUP16 ADD PUSH3 0x230 JUMP JUMPDEST SWAP7 POP PUSH1 0xC0 DUP14 ADD MLOAD SWAP2 POP DUP1 DUP3 GT ISZERO PUSH3 0x3FC JUMPI PUSH1 0x0 DUP1 REVERT JUMPDEST PUSH3 0x40A DUP15 DUP4 DUP16 ADD PUSH3 0x230 JUMP JUMPDEST SWAP6 POP PUSH1 0xE0 DUP14 ADD MLOAD SWAP5 POP PUSH3 0x422 PUSH2 0x100 DUP15 ADD PUSH3 0x1B8 JUMP JUMPDEST SWAP4 POP PUSH2 0x120 DUP14 ADD MLOAD SWAP2 POP DUP1 DUP3 GT ISZERO PUSH3 0x43A JUMPI PUSH1 0x0 DUP1 REVERT JUMPDEST POP PUSH3 0x449 DUP14 DUP3 DUP15 ADD PUSH3 0x2BD JUMP JUMPDEST SWAP2 POP POP SWAP3 SWAP6 SWAP9 SWAP12 SWAP2 SWAP5 SWAP8 SWAP11 POP SWAP3 SWAP6 SWAP9 POP JUMP JUMPDEST PUSH4 0x4E487B71 PUSH1 0xE0 SHL PUSH1 0x0 MSTORE PUSH1 0x21 PUSH1 0x4 MSTORE PUSH1 0x24 PUSH1 0x0 REVERT JUMPDEST PUSH1 0x1 DUP2 DUP2 SHR SWAP1 DUP3 AND DUP1 PUSH3 0x486 JUMPI PUSH1 0x7F DUP3 AND SWAP2 POP JUMPDEST PUSH1 0x20 DUP3 LT DUP2 SUB PUSH3 0x4A7 JUMPI PUSH4 0x4E487B71 PUSH1 0xE0 SHL PUSH1 0x0 MSTORE PUSH1 0x22 PUSH1 0x4 MSTORE PUSH1 0x24 PUSH1 0x0 REVERT JUMPDEST POP SWAP2 SWAP1 POP JUMP JUMPDEST PUSH1 0x1F DUP3 GT ISZERO PUSH3 0x4FB JUMPI PUSH1 0x0 DUP2 DUP2 MSTORE PUSH1 0x20 DUP2 KECCAK256 PUSH1 0x1F DUP6 ADD PUSH1 0x5 SHR DUP2 ADD PUSH1 0x20 DUP7 LT ISZERO PUSH3 0x4D6 JUMPI POP DUP1 JUMPDEST PUSH1 0x1F DUP6 ADD PUSH1 0x5 SHR DUP3 ADD SWAP2 POP JUMPDEST DUP2 DUP2 LT ISZERO PUSH3 0x4F7 JUMPI DUP3 DUP2 SSTORE PUSH1 0x1 ADD PUSH3 0x4E2 JUMP JUMPDEST POP POP POP JUMPDEST POP POP POP JUMP JUMPDEST DUP2 MLOAD PUSH1 0x1 PUSH1 0x1 PUSH1 0x40 SHL SUB DUP2 GT ISZERO PUSH3 0x51C JUMPI PUSH3 0x51C PUSH3 0x1E7 JUMP JUMPDEST PUSH3 0x534 DUP2 PUSH3 0x52D DUP5 SLOAD PUSH3 0x471 JUMP JUMPDEST DUP5 PUSH3 0x4AD JUMP JUMPDEST PUSH1 0x20 DUP1 PUSH1 0x1F DUP4 GT PUSH1 0x1 DUP2 EQ PUSH3 0x56C JUMPI PUSH1 0x0 DUP5 ISZERO PUSH3 0x553 JUMPI POP DUP6 DUP4 ADD MLOAD JUMPDEST PUSH1 0x0 NOT PUSH1 0x3 DUP7 SWAP1 SHL SHR NOT AND PUSH1 0x1 DUP6 SWAP1 SHL OR DUP6 SSTORE PUSH3 0x4F7 JUMP JUMPDEST PUSH1 0x0 DUP6 DUP2 MSTORE PUSH1 0x20 DUP2 KECCAK256 PUSH1 0x1F NOT DUP7 AND SWAP2 JUMPDEST DUP3 DUP2 LT ISZERO PUSH3 0x59D JUMPI DUP9 DUP7 ADD MLOAD DUP3 SSTORE SWAP5 DUP5 ADD SWAP5 PUSH1 0x1 SWAP1 SWAP2 ADD SWAP1 DUP5 ADD PUSH3 0x57C JUMP JUMPDEST POP DUP6 DUP3 LT ISZERO PUSH3 0x5BC JUMPI DUP8 DUP6 ADD MLOAD PUSH1 0x0 NOT PUSH1 0x3 DUP9 SWAP1 SHL PUSH1 0xF8 AND SHR NOT AND DUP2 SSTORE JUMPDEST POP POP POP POP POP PUSH1 0x1 SWAP1 DUP2 SHL ADD SWAP1 SSTORE POP JUMP JUMPDEST PUSH4 0x4E487B71 PUSH1 0xE0 SHL PUSH1 0x0 MSTORE PUSH1 0x32 PUSH1 0x4 MSTORE PUSH1 0x24 PUSH1 0x0 REVERT JUMPDEST PUSH1 0x0 PUSH1 0x1 DUP3 ADD PUSH3 0x603 JUMPI PUSH4 0x4E487B71 PUSH1 0xE0 SHL PUSH1 0x0 MSTORE PUSH1 0x11 PUSH1 0x4 MSTORE PUSH1 0x24 PUSH1 0x0 REVERT JUMPDEST POP PUSH1 0x1 ADD SWAP1 JUMP JUMPDEST PUSH1 0x80 MLOAD PUSH1 0xA0 MLOAD PUSH1 0xC0 MLOAD PUSH1 0xE0 MLOAD PUSH2 0x100 MLOAD PUSH2 0x120 MLOAD PUSH2 0x3929 PUSH3 0x6E6 PUSH1 0x0 CODECOPY PUSH1 0x0 PUSH2 0x719 ADD MSTORE PUSH1 0x0 DUP2 DUP2 PUSH2 0x758 ADD MSTORE PUSH2 0xCB4 ADD MSTORE PUSH1 0x0 DUP2 DUP2 PUSH2 0x48F ADD MSTORE DUP2 DUP2 PUSH2 0x146C ADD MSTORE DUP2 DUP2 PUSH2 0x15D2 ADD MSTORE PUSH2 0x1D0A ADD MSTORE PUSH1 0x0 DUP2 DUP2 PUSH2 0x6BC ADD MSTORE PUSH2 0x14E8 ADD MSTORE PUSH1 0x0 DUP2 DUP2 PUSH2 0x5D5 ADD MSTORE DUP2 DUP2 PUSH2 0x9AB ADD MSTORE DUP2 DUP2 PUSH2 0xB2A ADD MSTORE DUP2 DUP2 PUSH2 0x10A6 ADD MSTORE DUP2 DUP2 PUSH2 0x12D5 ADD MSTORE DUP2 DUP2 PUSH2 0x1E04 ADD MSTORE DUP2 DUP2 PUSH2 0x21D6 ADD MSTORE DUP2 DUP2 PUSH2 0x2341 ADD MSTORE DUP2 DUP2 PUSH2 0x25C6 ADD MSTORE DUP2 DUP2 PUSH2 0x2633 ADD MSTORE DUP2 DUP2 PUSH2 0x2B9E ADD MSTORE PUSH2 0x2E23 ADD MSTORE PUSH1 0x0 DUP2 DUP2 PUSH2 0x50F ADD MSTORE DUP2 DUP2 PUSH2 0xB9B ADD MSTORE DUP2 DUP2 PUSH2 0x1346 ADD MSTORE DUP2 DUP2 PUSH2 0x1C2E ADD MSTORE PUSH2 0x278A ADD MSTORE PUSH2 0x3929 PUSH1 0x0 RETURN INVALID PUSH1 0x80 PUSH1 0x40 MSTORE CALLVALUE DUP1 ISZERO PUSH2 0x10 JUMPI PUSH1 0x0 DUP1 REVERT JUMPDEST POP PUSH1 0x4 CALLDATASIZE LT PUSH2 0x2B8 JUMPI PUSH1 0x0 CALLDATALOAD PUSH1 0xE0 SHR DUP1 PUSH4 0xA678B65B GT PUSH2 0x173 JUMPI DUP1 PUSH4 0xC52164C6 GT PUSH2 0xD4 JUMPI DUP1 PUSH4 0xC52164C6 EQ PUSH2 0x6A4 JUMPI DUP1 PUSH4 0xCC5870E4 EQ PUSH2 0x6B7 JUMPI DUP1 PUSH4 0xCCD66863 EQ PUSH2 0x6DE JUMPI DUP1 PUSH4 0xCEC81C44 EQ PUSH2 0x6F1 JUMPI DUP1 PUSH4 0xCF09E0D0 EQ PUSH2 0x714 JUMPI DUP1 PUSH4 0xD31A385E EQ PUSH2 0x73B JUMPI DUP1 PUSH4 0xD4BCDC3D EQ PUSH2 0x743 JUMPI DUP1 PUSH4 0xDE87BCA0 EQ PUSH2 0x74B JUMPI DUP1 PUSH4 0xE154ADF5 EQ PUSH2 0x753 JUMPI DUP1 PUSH4 0xE28F8074 EQ PUSH2 0x77A JUMPI DUP1 PUSH4 0xE9C566CD EQ PUSH2 0x78D JUMPI DUP1 PUSH4 0xF1C2D0D9 EQ PUSH2 0x7A0 JUMPI DUP1 PUSH4 0xF35C181D EQ PUSH2 0x7B3 JUMPI DUP1 PUSH4 0xF7453D14 EQ PUSH2 0x7D6 JUMPI PUSH1 0x0 DUP1 REVERT JUMPDEST DUP1 PUSH4 0xA678B65B EQ PUSH2 0x53E JUMPI DUP1 PUSH4 0xAA156645 EQ PUSH2 0x551 JUMPI DUP1 PUSH4 0xAAB097C8 EQ PUSH2 0x574 JUMPI DUP1 PUSH4 0xABDFD958 EQ PUSH2 0x587 JUMPI DUP1 PUSH4 0xACEC338A EQ PUSH2 0x5AA JUMPI DUP1 PUSH4 0xADA03159 EQ PUSH2 0x5BD JUMPI DUP1 PUSH4 0xAE200E79 EQ PUSH2 0x5D0 JUMPI DUP1 PUSH4 0xAFC5CE44 EQ PUSH2 0x5F7 JUMPI DUP1 PUSH4 0xB07C7475 EQ PUSH2 0x5FF JUMPI DUP1 PUSH4 0xB40CC277 EQ PUSH2 0x607 JUMPI DUP1 PUSH4 0xB8565654 EQ PUSH2 0x61A JUMPI DUP1 PUSH4 0xB94B3295 EQ PUSH2 0x66B JUMPI DUP1 PUSH4 0xBA5B7982 EQ PUSH2 0x68E JUMPI DUP1 PUSH4 0xBB971FB2 EQ PUSH2 0x697 JUMPI PUSH1 0x0 DUP1 REVERT JUMPDEST DUP1 PUSH4 0x4A7DE5F2 GT PUSH2 0x21D JUMPI DUP1 PUSH4 0x4A7DE5F2 EQ PUSH2 0x440 JUMPI DUP1 PUSH4 0x53F537E3 EQ PUSH2 0x453 JUMPI DUP1 PUSH4 0x581C091B EQ PUSH2 0x45C JUMPI DUP1 PUSH4 0x595210AD EQ PUSH2 0x464 JUMPI DUP1 PUSH4 0x68D5526F EQ PUSH2 0x477 JUMPI DUP1 PUSH4 0x6D6356F0 EQ PUSH2 0x48A JUMPI DUP1 PUSH4 0x7284E416 EQ PUSH2 0x4B1 JUMPI DUP1 PUSH4 0x7552A5DF EQ PUSH2 0x4B9 JUMPI DUP1 PUSH4 0x77444917 EQ PUSH2 0x4CC JUMPI DUP1 PUSH4 0x778C559B EQ PUSH2 0x4DF JUMPI DUP1 PUSH4 0x8AE52A38 EQ PUSH2 0x4F2 JUMPI DUP1 PUSH4 0x8AE9487C EQ PUSH2 0x4FA JUMPI DUP1 PUSH4 0x9AC7E6A9 EQ PUSH2 0x502 JUMPI DUP1 PUSH4 0x9DA2FB3F EQ PUSH2 0x50A JUMPI PUSH1 0x0 DUP1 REVERT JUMPDEST DUP1 PUSH4 0x9413A51 EQ PUSH2 0x2BD JUMPI DUP1 PUSH4 0xD9485FC EQ PUSH2 0x2F5 JUMPI DUP1 PUSH4 0xFC9B95D EQ PUSH2 0x323 JUMPI DUP1 PUSH4 0x123C0B2B EQ PUSH2 0x346 JUMPI DUP1 PUSH4 0x1FCF55FF EQ PUSH2 0x34F JUMPI DUP1 PUSH4 0x20822ABC EQ PUSH2 0x359 JUMPI DUP1 PUSH4 0x24548FE7 EQ PUSH2 0x379 JUMPI DUP1 PUSH4 0x273DF8F5 EQ PUSH2 0x38C JUMPI DUP1 PUSH4 0x2A0ACC6A EQ PUSH2 0x3AF JUMPI DUP1 PUSH4 0x3638A8B2 EQ PUSH2 0x3E2 JUMPI DUP1 PUSH4 0x388D5399 EQ PUSH2 0x3F5 JUMPI DUP1 PUSH4 0x3B8E1BF5 EQ PUSH2 0x40A JUMPI DUP1 PUSH4 0x438BAA55 EQ PUSH2 0x430 JUMPI DUP1 PUSH4 0x4A79D50C EQ PUSH2 0x438 JUMPI JUMPDEST PUSH1 0x0 DUP1 REVERT JUMPDEST PUSH2 0x2E0 PUSH2 0x2CB CALLDATASIZE PUSH1 0x4 PUSH2 0x30E7 JUMP JUMPDEST PUSH1 0x12 PUSH1 0x20 MSTORE PUSH1 0x0 SWAP1 DUP2 MSTORE PUSH1 0x40 SWAP1 KECCAK256 SLOAD PUSH1 0xFF AND DUP2 JUMP JUMPDEST PUSH1 0x40 MLOAD SWAP1 ISZERO ISZERO DUP2 MSTORE PUSH1 0x20 ADD JUMPDEST PUSH1 0x40 MLOAD DUP1 SWAP2 SUB SWAP1 RETURN JUMPDEST PUSH2 0x315 PUSH2 0x303 CALLDATASIZE PUSH1 0x4 PUSH2 0x30E7 JUMP JUMPDEST PUSH1 0xD PUSH1 0x20 MSTORE PUSH1 0x0 SWAP1 DUP2 MSTORE PUSH1 0x40 SWAP1 KECCAK256 SLOAD DUP2 JUMP JUMPDEST PUSH1 0x40 MLOAD SWAP1 DUP2 MSTORE PUSH1 0x20 ADD PUSH2 0x2EC JUMP JUMPDEST PUSH2 0x2E0 PUSH2 0x331 CALLDATASIZE PUSH1 0x4 PUSH2 0x30E7 JUMP JUMPDEST PUSH1 0x9 PUSH1 0x20 MSTORE PUSH1 0x0 SWAP1 DUP2 MSTORE PUSH1 0x40 SWAP1 KECCAK256 SLOAD PUSH1 0xFF AND DUP2 JUMP JUMPDEST PUSH2 0x315 PUSH1 0x2 SLOAD DUP2 JUMP JUMPDEST PUSH2 0x357 PUSH2 0x7E8 JUMP JUMPDEST STOP JUMPDEST PUSH2 0x36C PUSH2 0x367 CALLDATASIZE PUSH1 0x4 PUSH2 0x3102 JUMP JUMPDEST PUSH2 0x8F4 JUMP JUMPDEST PUSH1 0x40 MLOAD PUSH2 0x2EC SWAP2 SWAP1 PUSH2 0x3161 JUMP JUMPDEST PUSH2 0x357 PUSH2 0x387 CALLDATASIZE PUSH1 0x4 PUSH2 0x30E7 JUMP JUMPDEST PUSH2 0x9A0 JUMP JUMPDEST PUSH2 0x2E0 PUSH2 0x39A CALLDATASIZE PUSH1 0x4 PUSH2 0x30E7 JUMP JUMPDEST PUSH1 0xB PUSH1 0x20 MSTORE PUSH1 0x0 SWAP1 DUP2 MSTORE PUSH1 0x40 SWAP1 KECCAK256 SLOAD PUSH1 0xFF AND DUP2 JUMP JUMPDEST PUSH2 0x3CA PUSH20 0xA0C5048C32870BB66D0BE861643CD6BB5F66ADA2 DUP2 JUMP JUMPDEST PUSH1 0x40 MLOAD PUSH1 0x1 PUSH1 0x1 PUSH1 0xA0 SHL SUB SWAP1 SWAP2 AND DUP2 MSTORE PUSH1 0x20 ADD PUSH2 0x2EC JUMP JUMPDEST PUSH2 0x357 PUSH2 0x3F0 CALLDATASIZE PUSH1 0x4 PUSH2 0x30E7 JUMP JUMPDEST PUSH2 0xB1F JUMP JUMPDEST PUSH2 0x3FD PUSH2 0xE8E JUMP JUMPDEST PUSH1 0x40 MLOAD PUSH2 0x2EC SWAP2 SWAP1 PUSH2 0x3174 JUMP JUMPDEST PUSH2 0x41D PUSH2 0x418 CALLDATASIZE PUSH1 0x4 PUSH2 0x30E7 JUMP JUMPDEST PUSH2 0xEF0 JUMP JUMPDEST PUSH1 0x40 MLOAD PUSH2 0x2EC SWAP8 SWAP7 SWAP6 SWAP5 SWAP4 SWAP3 SWAP2 SWAP1 PUSH2 0x31D7 JUMP JUMPDEST PUSH2 0x357 PUSH2 0x109B JUMP JUMPDEST PUSH2 0x36C PUSH2 0x1143 JUMP JUMPDEST PUSH2 0x2E0 PUSH2 0x44E CALLDATASIZE PUSH1 0x4 PUSH2 0x30E7 JUMP JUMPDEST PUSH2 0x1150 JUMP JUMPDEST PUSH2 0x315 PUSH1 0x1 SLOAD DUP2 JUMP JUMPDEST PUSH1 0x10 SLOAD PUSH2 0x315 JUMP JUMPDEST PUSH2 0x357 PUSH2 0x472 CALLDATASIZE PUSH1 0x4 PUSH2 0x323B JUMP JUMPDEST PUSH2 0x11DE JUMP JUMPDEST PUSH2 0x357 PUSH2 0x485 CALLDATASIZE PUSH1 0x4 PUSH2 0x30E7 JUMP JUMPDEST PUSH2 0x12CA JUMP JUMPDEST PUSH2 0x315 PUSH32 0x0 DUP2 JUMP JUMPDEST PUSH2 0x36C PUSH2 0x16C8 JUMP JUMPDEST PUSH2 0x2E0 PUSH2 0x4C7 CALLDATASIZE PUSH1 0x4 PUSH2 0x30E7 JUMP JUMPDEST PUSH2 0x16D5 JUMP JUMPDEST PUSH2 0x36C PUSH2 0x4DA CALLDATASIZE PUSH1 0x4 PUSH2 0x30E7 JUMP JUMPDEST PUSH2 0x175F JUMP JUMPDEST PUSH2 0x357 PUSH2 0x4ED CALLDATASIZE PUSH1 0x4 PUSH2 0x32C2 JUMP JUMPDEST PUSH2 0x18AB JUMP JUMPDEST PUSH2 0x3FD PUSH2 0x1B76 JUMP JUMPDEST PUSH2 0x2E0 PUSH2 0x1BD6 JUMP JUMPDEST PUSH2 0x357 PUSH2 0x1C02 JUMP JUMPDEST PUSH2 0x531 PUSH32 0x0 DUP2 JUMP JUMPDEST PUSH1 0x40 MLOAD PUSH2 0x2EC SWAP2 SWAP1 PUSH2 0x3372 JUMP JUMPDEST PUSH2 0x357 PUSH2 0x54C CALLDATASIZE PUSH1 0x4 PUSH2 0x30E7 JUMP JUMPDEST PUSH2 0x1DF9 JUMP JUMPDEST PUSH2 0x2E0 PUSH2 0x55F CALLDATASIZE PUSH1 0x4 PUSH2 0x30E7 JUMP JUMPDEST PUSH1 0x14 PUSH1 0x20 MSTORE PUSH1 0x0 SWAP1 DUP2 MSTORE PUSH1 0x40 SWAP1 KECCAK256 SLOAD PUSH1 0xFF AND DUP2 JUMP JUMPDEST PUSH2 0x3CA PUSH2 0x582 CALLDATASIZE PUSH1 0x4 PUSH2 0x3102 JUMP JUMPDEST PUSH2 0x2039 JUMP JUMPDEST PUSH2 0x2E0 PUSH2 0x595 CALLDATASIZE PUSH1 0x4 PUSH2 0x30E7 JUMP JUMPDEST PUSH1 0xC PUSH1 0x20 MSTORE PUSH1 0x0 SWAP1 DUP2 MSTORE PUSH1 0x40 SWAP1 KECCAK256 SLOAD PUSH1 0xFF AND DUP2 JUMP JUMPDEST PUSH2 0x357 PUSH2 0x5B8 CALLDATASIZE PUSH1 0x4 PUSH2 0x338C JUMP JUMPDEST PUSH2 0x2063 JUMP JUMPDEST PUSH2 0x3CA PUSH2 0x5CB CALLDATASIZE PUSH1 0x4 PUSH2 0x3102 JUMP JUMPDEST PUSH2 0x20F7 JUMP JUMPDEST PUSH2 0x3CA PUSH32 0x0 DUP2 JUMP JUMPDEST PUSH2 0x315 PUSH2 0x2107 JUMP JUMPDEST PUSH2 0x357 PUSH2 0x21CB JUMP JUMPDEST PUSH2 0x357 PUSH2 0x615 CALLDATASIZE PUSH1 0x4 PUSH2 0x33BF JUMP JUMPDEST PUSH2 0x2432 JUMP JUMPDEST PUSH2 0x654 PUSH2 0x628 CALLDATASIZE PUSH1 0x4 PUSH2 0x30E7 JUMP JUMPDEST PUSH1 0x1 PUSH1 0x1 PUSH1 0xA0 SHL SUB AND PUSH1 0x0 SWAP1 DUP2 MSTORE PUSH1 0xC PUSH1 0x20 SWAP1 DUP2 MSTORE PUSH1 0x40 DUP1 DUP4 KECCAK256 SLOAD PUSH1 0xD SWAP1 SWAP3 MSTORE SWAP1 SWAP2 KECCAK256 SLOAD PUSH1 0xFF SWAP1 SWAP2 AND SWAP2 JUMP JUMPDEST PUSH1 0x40 DUP1 MLOAD SWAP3 ISZERO ISZERO DUP4 MSTORE PUSH1 0x20 DUP4 ADD SWAP2 SWAP1 SWAP2 MSTORE ADD PUSH2 0x2EC JUMP JUMPDEST PUSH2 0x2E0 PUSH2 0x679 CALLDATASIZE PUSH1 0x4 PUSH2 0x30E7 JUMP JUMPDEST PUSH1 0xA PUSH1 0x20 MSTORE PUSH1 0x0 SWAP1 DUP2 MSTORE PUSH1 0x40 SWAP1 KECCAK256 SLOAD PUSH1 0xFF AND DUP2 JUMP JUMPDEST PUSH2 0x315 PUSH1 0x3 SLOAD DUP2 JUMP JUMPDEST PUSH1 0xF SLOAD PUSH2 0x2E0 SWAP1 PUSH1 0xFF AND DUP2 JUMP JUMPDEST PUSH1 0x7 SLOAD PUSH2 0x3CA SWAP1 PUSH1 0x1 PUSH1 0x1 PUSH1 0xA0 SHL SUB AND DUP2 JUMP JUMPDEST PUSH2 0x315 PUSH32 0x0 DUP2 JUMP JUMPDEST PUSH2 0x41D PUSH2 0x6EC CALLDATASIZE PUSH1 0x4 PUSH2 0x30E7 JUMP JUMPDEST PUSH2 0x2688 JUMP JUMPDEST PUSH2 0x2E0 PUSH2 0x6FF CALLDATASIZE PUSH1 0x4 PUSH2 0x30E7 JUMP JUMPDEST PUSH1 0xE PUSH1 0x20 MSTORE PUSH1 0x0 SWAP1 DUP2 MSTORE PUSH1 0x40 SWAP1 KECCAK256 SLOAD PUSH1 0xFF AND DUP2 JUMP JUMPDEST PUSH2 0x315 PUSH32 0x0 DUP2 JUMP JUMPDEST PUSH2 0x357 PUSH2 0x275E JUMP JUMPDEST PUSH2 0x3FD PUSH2 0x2835 JUMP JUMPDEST PUSH2 0x3FD PUSH2 0x2A0B JUMP JUMPDEST PUSH2 0x315 PUSH32 0x0 DUP2 JUMP JUMPDEST PUSH2 0x357 PUSH2 0x788 CALLDATASIZE PUSH1 0x4 PUSH2 0x30E7 JUMP JUMPDEST PUSH2 0x2B93 JUMP JUMPDEST PUSH2 0x357 PUSH2 0x79B CALLDATASIZE PUSH1 0x4 PUSH2 0x33DA JUMP JUMPDEST PUSH2 0x2E18 JUMP JUMPDEST PUSH1 0x8 SLOAD PUSH2 0x3CA SWAP1 PUSH1 0x1 PUSH1 0x1 PUSH1 0xA0 SHL SUB AND DUP2 JUMP JUMPDEST PUSH2 0x2E0 PUSH2 0x7C1 CALLDATASIZE PUSH1 0x4 PUSH2 0x30E7 JUMP JUMPDEST PUSH1 0x15 PUSH1 0x20 MSTORE PUSH1 0x0 SWAP1 DUP2 MSTORE PUSH1 0x40 SWAP1 KECCAK256 SLOAD PUSH1 0xFF AND DUP2 JUMP JUMPDEST PUSH1 0xF SLOAD PUSH2 0x2E0 SWAP1 PUSH2 0x100 SWAP1 DIV PUSH1 0xFF AND DUP2 JUMP JUMPDEST CALLER PUSH1 0x0 SWAP1 DUP2 MSTORE PUSH1 0x12 PUSH1 0x20 MSTORE PUSH1 0x40 SWAP1 KECCAK256 SLOAD PUSH1 0xFF AND PUSH2 0x820 JUMPI PUSH1 0x40 MLOAD PUSH3 0x461BCD PUSH1 0xE5 SHL DUP2 MSTORE PUSH1 0x4 ADD PUSH2 0x817 SWAP1 PUSH2 0x340D JUMP JUMPDEST PUSH1 0x40 MLOAD DUP1 SWAP2 SUB SWAP1 REVERT JUMPDEST CALLER PUSH1 0x0 SWAP1 DUP2 MSTORE PUSH1 0x11 PUSH1 0x20 MSTORE PUSH1 0x40 SWAP1 KECCAK256 PUSH1 0x3 ADD SLOAD PUSH1 0xFF AND PUSH2 0x882 JUMPI PUSH1 0x40 MLOAD PUSH3 0x461BCD PUSH1 0xE5 SHL DUP2 MSTORE PUSH1 0x20 PUSH1 0x4 DUP3 ADD MSTORE PUSH1 0x1C PUSH1 0x24 DUP3 ADD MSTORE PUSH32 0x4170706C69636174696F6E20616C726561647920696E61637469766500000000 PUSH1 0x44 DUP3 ADD MSTORE PUSH1 0x64 ADD PUSH2 0x817 JUMP JUMPDEST CALLER PUSH1 0x0 SWAP1 DUP2 MSTORE PUSH1 0x14 PUSH1 0x20 MSTORE PUSH1 0x40 SWAP1 KECCAK256 SLOAD PUSH1 0xFF AND ISZERO PUSH2 0x8B2 JUMPI PUSH1 0x40 MLOAD PUSH3 0x461BCD PUSH1 0xE5 SHL DUP2 MSTORE PUSH1 0x4 ADD PUSH2 0x817 SWAP1 PUSH2 0x343B JUMP JUMPDEST CALLER PUSH1 0x0 DUP2 DUP2 MSTORE PUSH1 0x11 PUSH1 0x20 MSTORE PUSH1 0x40 DUP1 DUP3 KECCAK256 PUSH1 0x3 ADD DUP1 SLOAD PUSH1 0xFF NOT AND SWAP1 SSTORE MLOAD PUSH32 0xC6A566FC730A6D604AB0CDB7B53172FBD7DB34F6E5434D23927FCDAD6640E64F SWAP2 SWAP1 LOG2 JUMP JUMPDEST PUSH1 0x6 DUP2 DUP2 SLOAD DUP2 LT PUSH2 0x904 JUMPI PUSH1 0x0 DUP1 REVERT JUMPDEST SWAP1 PUSH1 0x0 MSTORE PUSH1 0x20 PUSH1 0x0 KECCAK256 ADD PUSH1 0x0 SWAP2 POP SWAP1 POP DUP1 SLOAD PUSH2 0x91F SWAP1 PUSH2 0x346F JUMP JUMPDEST DUP1 PUSH1 0x1F ADD PUSH1 0x20 DUP1 SWAP2 DIV MUL PUSH1 0x20 ADD PUSH1 0x40 MLOAD SWAP1 DUP2 ADD PUSH1 0x40 MSTORE DUP1 SWAP3 SWAP2 SWAP1 DUP2 DUP2 MSTORE PUSH1 0x20 ADD DUP3 DUP1 SLOAD PUSH2 0x94B SWAP1 PUSH2 0x346F JUMP JUMPDEST DUP1 ISZERO PUSH2 0x998 JUMPI DUP1 PUSH1 0x1F LT PUSH2 0x96D JUMPI PUSH2 0x100 DUP1 DUP4 SLOAD DIV MUL DUP4 MSTORE SWAP2 PUSH1 0x20 ADD SWAP2 PUSH2 0x998 JUMP JUMPDEST DUP3 ADD SWAP2 SWAP1 PUSH1 0x0 MSTORE PUSH1 0x20 PUSH1 0x0 KECCAK256 SWAP1 JUMPDEST DUP2 SLOAD DUP2 MSTORE SWAP1 PUSH1 0x1 ADD SWAP1 PUSH1 0x20 ADD DUP1 DUP4 GT PUSH2 0x97B JUMPI DUP3 SWAP1 SUB PUSH1 0x1F AND DUP3 ADD SWAP2 JUMPDEST POP POP POP POP POP DUP2 JUMP JUMPDEST CALLER PUSH1 0x1 PUSH1 0x1 PUSH1 0xA0 SHL SUB PUSH32 0x0 AND EQ PUSH2 0x9E8 JUMPI PUSH1 0x40 MLOAD PUSH3 0x461BCD PUSH1 0xE5 SHL DUP2 MSTORE PUSH1 0x4 ADD PUSH2 0x817 SWAP1 PUSH2 0x34A3 JUMP JUMPDEST PUSH1 0xF SLOAD PUSH2 0x100 SWAP1 DIV PUSH1 0xFF AND ISZERO PUSH2 0xA10 JUMPI PUSH1 0x40 MLOAD PUSH3 0x461BCD PUSH1 0xE5 SHL DUP2 MSTORE PUSH1 0x4 ADD PUSH2 0x817 SWAP1 PUSH2 0x34CA JUMP JUMPDEST PUSH1 0x1 PUSH1 0x1 PUSH1 0xA0 SHL SUB DUP2 AND PUSH1 0x0 SWAP1 DUP2 MSTORE PUSH1 0x12 PUSH1 0x20 MSTORE PUSH1 0x40 SWAP1 KECCAK256 SLOAD PUSH1 0xFF AND PUSH2 0xA48 JUMPI PUSH1 0x40 MLOAD PUSH3 0x461BCD PUSH1 0xE5 SHL DUP2 MSTORE PUSH1 0x4 ADD PUSH2 0x817 SWAP1 PUSH2 0x340D JUMP JUMPDEST PUSH1 0x1 PUSH1 0x1 PUSH1 0xA0 SHL SUB DUP2 AND PUSH1 0x0 SWAP1 DUP2 MSTORE PUSH1 0x11 PUSH1 0x20 MSTORE PUSH1 0x40 SWAP1 KECCAK256 PUSH1 0x3 ADD SLOAD PUSH1 0xFF AND PUSH2 0xA83 JUMPI PUSH1 0x40 MLOAD PUSH3 0x461BCD PUSH1 0xE5 SHL DUP2 MSTORE PUSH1 0x4 ADD PUSH2 0x817 SWAP1 PUSH2 0x34FA JUMP JUMPDEST PUSH1 0x1 PUSH1 0x1 PUSH1 0xA0 SHL SUB DUP2 AND PUSH1 0x0 SWAP1 DUP2 MSTORE PUSH1 0x14 PUSH1 0x20 MSTORE PUSH1 0x40 SWAP1 KECCAK256 SLOAD PUSH1 0xFF AND ISZERO PUSH2 0xABC JUMPI PUSH1 0x40 MLOAD PUSH3 0x461BCD PUSH1 0xE5 SHL DUP2 MSTORE PUSH1 0x4 ADD PUSH2 0x817 SWAP1 PUSH2 0x343B JUMP JUMPDEST PUSH1 0x1 PUSH1 0x1 PUSH1 0xA0 SHL SUB DUP2 AND PUSH1 0x0 DUP2 DUP2 MSTORE PUSH1 0x11 PUSH1 0x20 MSTORE PUSH1 0x40 DUP1 DUP3 KECCAK256 PUSH1 0x3 DUP2 ADD DUP1 SLOAD TIMESTAMP PUSH1 0x4 DUP5 ADD SSTORE PUSH2 0xFFFF NOT AND PUSH2 0x100 OR SWAP1 SSTORE PUSH1 0x5 ADD DUP1 SLOAD PUSH1 0xFF NOT AND SWAP1 SSTORE MLOAD PUSH32 0x100F0D5A3ED6F212CBB8C205E4544AE49888E8F4081AF2C28AFB3883391B8B80 SWAP2 SWAP1 LOG2 POP JUMP JUMPDEST CALLER PUSH1 0x1 PUSH1 0x1 PUSH1 0xA0 SHL SUB PUSH32 0x0 AND EQ PUSH2 0xB67 JUMPI PUSH1 0x40 MLOAD PUSH3 0x461BCD PUSH1 0xE5 SHL DUP2 MSTORE PUSH1 0x4 ADD PUSH2 0x817 SWAP1 PUSH2 0x34A3 JUMP JUMPDEST PUSH2 0xB6F PUSH2 0x30A1 JUMP JUMPDEST PUSH1 0xF SLOAD PUSH2 0x100 SWAP1 DIV PUSH1 0xFF AND ISZERO PUSH2 0xB97 JUMPI PUSH1 0x40 MLOAD PUSH3 0x461BCD PUSH1 0xE5 SHL DUP2 MSTORE PUSH1 0x4 ADD PUSH2 0x817 SWAP1 PUSH2 0x34CA JUMP JUMPDEST PUSH1 0x1 PUSH32 0x0 PUSH1 0x1 DUP2 GT ISZERO PUSH2 0xBCB JUMPI PUSH2 0xBCB PUSH2 0x31C1 JUMP JUMPDEST EQ PUSH2 0xBE8 JUMPI PUSH1 0x40 MLOAD PUSH3 0x461BCD PUSH1 0xE5 SHL DUP2 MSTORE PUSH1 0x4 ADD PUSH2 0x817 SWAP1 PUSH2 0x352A JUMP JUMPDEST PUSH1 0x1 PUSH1 0x1 PUSH1 0xA0 SHL SUB DUP2 AND PUSH1 0x0 SWAP1 DUP2 MSTORE PUSH1 0x14 PUSH1 0x20 MSTORE PUSH1 0x40 SWAP1 KECCAK256 SLOAD PUSH1 0xFF AND PUSH2 0xC20 JUMPI PUSH1 0x40 MLOAD PUSH3 0x461BCD PUSH1 0xE5 SHL DUP2 MSTORE PUSH1 0x4 ADD PUSH2 0x817 SWAP1 PUSH2 0x354F JUMP JUMPDEST PUSH1 0x1 PUSH1 0x1 PUSH1 0xA0 SHL SUB DUP2 AND PUSH1 0x0 SWAP1 DUP2 MSTORE PUSH1 0x15 PUSH1 0x20 MSTORE PUSH1 0x40 SWAP1 KECCAK256 SLOAD PUSH1 0xFF AND PUSH2 0xC58 JUMPI PUSH1 0x40 MLOAD PUSH3 0x461BCD PUSH1 0xE5 SHL DUP2 MSTORE PUSH1 0x4 ADD PUSH2 0x817 SWAP1 PUSH2 0x3575 JUMP JUMPDEST PUSH1 0x1 PUSH1 0x1 PUSH1 0xA0 SHL SUB DUP2 AND PUSH1 0x0 SWAP1 DUP2 MSTORE PUSH1 0xC PUSH1 0x20 MSTORE PUSH1 0x40 SWAP1 KECCAK256 SLOAD PUSH1 0xFF AND PUSH2 0xC90 JUMPI PUSH1 0x40 MLOAD PUSH3 0x461BCD PUSH1 0xE5 SHL DUP2 MSTORE PUSH1 0x4 ADD PUSH2 0x817 SWAP1 PUSH2 0x3597 JUMP JUMPDEST PUSH1 0x1 PUSH1 0x1 PUSH1 0xA0 SHL SUB DUP2 AND PUSH1 0x0 DUP2 DUP2 MSTORE PUSH1 0xC PUSH1 0x20 MSTORE PUSH1 0x40 DUP1 DUP3 KECCAK256 DUP1 SLOAD PUSH1 0xFF NOT AND SWAP1 SSTORE MLOAD PUSH32 0x0 SWAP3 DUP5 SWAP3 SWAP2 DUP5 SWAP1 DUP4 DUP2 DUP2 DUP2 DUP6 DUP8 GAS CALL SWAP3 POP POP POP RETURNDATASIZE DUP1 PUSH1 0x0 DUP2 EQ PUSH2 0xD11 JUMPI PUSH1 0x40 MLOAD SWAP2 POP PUSH1 0x1F NOT PUSH1 0x3F RETURNDATASIZE ADD AND DUP3 ADD PUSH1 0x40 MSTORE RETURNDATASIZE DUP3 MSTORE RETURNDATASIZE PUSH1 0x0 PUSH1 0x20 DUP5 ADD RETURNDATACOPY PUSH2 0xD16 JUMP JUMPDEST PUSH1 0x60 SWAP2 POP JUMPDEST POP POP SWAP1 POP DUP1 PUSH2 0xD37 JUMPI PUSH1 0x40 MLOAD PUSH3 0x461BCD PUSH1 0xE5 SHL DUP2 MSTORE PUSH1 0x4 ADD PUSH2 0x817 SWAP1 PUSH2 0x35C3 JUMP JUMPDEST PUSH1 0x7 SLOAD PUSH1 0x40 MLOAD PUSH4 0xA27CAEB7 PUSH1 0xE0 SHL DUP2 MSTORE PUSH1 0x1 PUSH1 0x1 PUSH1 0xA0 SHL SUB SWAP1 SWAP2 AND SWAP1 PUSH4 0xA27CAEB7 SWAP1 PUSH2 0xD6A SWAP1 DUP6 SWAP1 PUSH1 0x1 SWAP1 PUSH1 0x4 ADD PUSH2 0x35E7 JUMP JUMPDEST PUSH1 0x0 PUSH1 0x40 MLOAD DUP1 DUP4 SUB DUP2 PUSH1 0x0 DUP8 DUP1 EXTCODESIZE ISZERO DUP1 ISZERO PUSH2 0xD84 JUMPI PUSH1 0x0 DUP1 REVERT JUMPDEST POP GAS CALL ISZERO DUP1 ISZERO PUSH2 0xD98 JUMPI RETURNDATASIZE PUSH1 0x0 DUP1 RETURNDATACOPY RETURNDATASIZE PUSH1 0x0 REVERT JUMPDEST POP POP POP POP PUSH1 0x1 PUSH1 0x1 PUSH1 0xA0 SHL SUB DUP3 AND PUSH1 0x0 DUP2 DUP2 MSTORE PUSH1 0x9 PUSH1 0x20 SWAP1 DUP2 MSTORE PUSH1 0x40 DUP1 DUP4 KECCAK256 DUP1 SLOAD PUSH1 0x1 PUSH1 0xFF NOT SWAP2 DUP3 AND DUP2 OR SWAP1 SWAP3 SSTORE PUSH1 0xE DUP5 MSTORE SWAP4 DUP3 SWAP1 KECCAK256 DUP1 SLOAD SWAP1 SWAP5 AND OR SWAP1 SWAP3 SSTORE SWAP1 MLOAD DUP6 DUP2 MSTORE PUSH32 0x9250BE6D331C7B11672FC0207421BFC1631FB0DDFA5479299C034AC0EC06583C SWAP2 ADD PUSH1 0x40 MLOAD DUP1 SWAP2 SUB SWAP1 LOG2 DUP2 PUSH1 0x1 PUSH1 0x1 PUSH1 0xA0 SHL SUB AND PUSH32 0xD8D171E9282727E9227EFA1AFC482FC744E84C7B8233E44E03450844BA34ABDF DUP5 PUSH1 0x40 MLOAD PUSH2 0xE42 SWAP2 DUP2 MSTORE PUSH1 0x20 ADD SWAP1 JUMP JUMPDEST PUSH1 0x40 MLOAD DUP1 SWAP2 SUB SWAP1 LOG2 PUSH1 0x40 MLOAD PUSH1 0x1 PUSH1 0x1 PUSH1 0xA0 SHL SUB DUP4 AND SWAP1 PUSH32 0xA7CE9489B811CD79BB8695D6AD4051484C96AEA68805FFA76EEA626F7121F800 SWAP1 PUSH1 0x0 SWAP1 LOG2 POP POP POP PUSH2 0xE8B PUSH1 0x1 PUSH1 0x0 SSTORE JUMP JUMPDEST POP JUMP JUMPDEST PUSH1 0x60 PUSH1 0x10 DUP1 SLOAD DUP1 PUSH1 0x20 MUL PUSH1 0x20 ADD PUSH1 0x40 MLOAD SWAP1 DUP2 ADD PUSH1 0x40 MSTORE DUP1 SWAP3 SWAP2 SWAP1 DUP2 DUP2 MSTORE PUSH1 0x20 ADD DUP3 DUP1 SLOAD DUP1 ISZERO PUSH2 0xEE6 JUMPI PUSH1 0x20 MUL DUP3 ADD SWAP2 SWAP1 PUSH1 0x0 MSTORE PUSH1 0x20 PUSH1 0x0 KECCAK256 SWAP1 JUMPDEST DUP2 SLOAD PUSH1 0x1 PUSH1 0x1 PUSH1 0xA0 SHL SUB AND DUP2 MSTORE PUSH1 0x1 SWAP1 SWAP2 ADD SWAP1 PUSH1 0x20 ADD DUP1 DUP4 GT PUSH2 0xEC8 JUMPI JUMPDEST POP POP POP POP POP SWAP1 POP SWAP1 JUMP JUMPDEST PUSH1 0x1 PUSH1 0x1 PUSH1 0xA0 SHL SUB DUP2 AND PUSH1 0x0 SWAP1 DUP2 MSTORE PUSH1 0x12 PUSH1 0x20 MSTORE PUSH1 0x40 DUP2 KECCAK256 SLOAD PUSH1 0x60 SWAP1 DUP3 SWAP1 DUP2 SWAP1 DUP2 SWAP1 DUP2 SWAP1 DUP2 SWAP1 PUSH1 0xFF AND PUSH2 0xF35 JUMPI PUSH1 0x40 MLOAD PUSH3 0x461BCD PUSH1 0xE5 SHL DUP2 MSTORE PUSH1 0x4 ADD PUSH2 0x817 SWAP1 PUSH2 0x340D JUMP JUMPDEST PUSH1 0x1 PUSH1 0x1 PUSH1 0xA0 SHL SUB DUP1 DUP10 AND PUSH1 0x0 SWAP1 DUP2 MSTORE PUSH1 0x11 PUSH1 0x20 SWAP1 DUP2 MSTORE PUSH1 0x40 DUP1 DUP4 KECCAK256 DUP2 MLOAD PUSH1 0xE0 DUP2 ADD SWAP1 SWAP3 MSTORE DUP1 SLOAD SWAP1 SWAP5 AND DUP2 MSTORE PUSH1 0x1 DUP5 ADD DUP1 SLOAD SWAP4 SWAP5 SWAP2 SWAP4 SWAP2 SWAP3 DUP5 ADD SWAP2 PUSH2 0xF79 SWAP1 PUSH2 0x346F JUMP JUMPDEST DUP1 PUSH1 0x1F ADD PUSH1 0x20 DUP1 SWAP2 DIV MUL PUSH1 0x20 ADD PUSH1 0x40 MLOAD SWAP1 DUP2 ADD PUSH1 0x40 MSTORE DUP1 SWAP3 SWAP2 SWAP1 DUP2 DUP2 MSTORE PUSH1 0x20 ADD DUP3 DUP1 SLOAD PUSH2 0xFA5 SWAP1 PUSH2 0x346F JUMP JUMPDEST DUP1 ISZERO PUSH2 0xFF2 JUMPI DUP1 PUSH1 0x1F LT PUSH2 0xFC7 JUMPI PUSH2 0x100 DUP1 DUP4 SLOAD DIV MUL DUP4 MSTORE SWAP2 PUSH1 0x20 ADD SWAP2 PUSH2 0xFF2 JUMP JUMPDEST DUP3 ADD SWAP2 SWAP1 PUSH1 0x0 MSTORE PUSH1 0x20 PUSH1 0x0 KECCAK256 SWAP1 JUMPDEST DUP2 SLOAD DUP2 MSTORE SWAP1 PUSH1 0x1 ADD SWAP1 PUSH1 0x20 ADD DUP1 DUP4 GT PUSH2 0xFD5 JUMPI DUP3 SWAP1 SUB PUSH1 0x1F AND DUP3 ADD SWAP2 JUMPDEST POP POP POP SWAP2 DUP4 MSTORE POP POP PUSH1 0x2 DUP3 ADD SLOAD PUSH1 0x20 DUP3 ADD MSTORE PUSH1 0x3 DUP1 DUP4 ADD SLOAD PUSH1 0xFF DUP1 DUP3 AND ISZERO ISZERO PUSH1 0x40 DUP6 ADD MSTORE PUSH1 0x60 SWAP1 SWAP4 ADD SWAP3 PUSH2 0x100 SWAP1 SWAP2 DIV AND SWAP1 DUP2 GT ISZERO PUSH2 0x1033 JUMPI PUSH2 0x1033 PUSH2 0x31C1 JUMP JUMPDEST PUSH1 0x3 DUP2 GT ISZERO PUSH2 0x1044 JUMPI PUSH2 0x1044 PUSH2 0x31C1 JUMP JUMPDEST DUP2 MSTORE PUSH1 0x4 DUP3 ADD SLOAD PUSH1 0x20 DUP1 DUP4 ADD SWAP2 SWAP1 SWAP2 MSTORE PUSH1 0x5 SWAP1 SWAP3 ADD SLOAD PUSH1 0xFF AND ISZERO ISZERO PUSH1 0x40 SWAP2 DUP3 ADD MSTORE DUP3 MLOAD SWAP2 DUP4 ADD MLOAD SWAP1 DUP4 ADD MLOAD PUSH1 0x60 DUP5 ADD MLOAD PUSH1 0x80 DUP6 ADD MLOAD PUSH1 0xA0 DUP7 ADD MLOAD PUSH1 0xC0 SWAP1 SWAP7 ADD MLOAD SWAP5 SWAP16 SWAP4 SWAP15 POP SWAP2 SWAP13 POP SWAP11 POP SWAP9 POP SWAP2 SWAP7 POP SWAP5 POP SWAP3 POP POP POP JUMP JUMPDEST CALLER PUSH1 0x1 PUSH1 0x1 PUSH1 0xA0 SHL SUB PUSH32 0x0 AND EQ PUSH2 0x10E3 JUMPI PUSH1 0x40 MLOAD PUSH3 0x461BCD PUSH1 0xE5 SHL DUP2 MSTORE PUSH1 0x4 ADD PUSH2 0x817 SWAP1 PUSH2 0x34A3 JUMP JUMPDEST PUSH1 0xF SLOAD PUSH2 0x100 SWAP1 DIV PUSH1 0xFF AND ISZERO PUSH2 0x110B JUMPI PUSH1 0x40 MLOAD PUSH3 0x461BCD PUSH1 0xE5 SHL DUP2 MSTORE PUSH1 0x4 ADD PUSH2 0x817 SWAP1 PUSH2 0x34CA JUMP JUMPDEST PUSH1 0xF DUP1 SLOAD PUSH1 0xFF NOT AND PUSH1 0x1 OR SWAP1 SSTORE PUSH1 0x40 MLOAD PUSH32 0xF15447BF6E80CADB12851E8F57292EB42C9DF96CBABF91C1BD239E35813E52CC SWAP1 PUSH1 0x0 SWAP1 LOG1 JUMP JUMPDEST PUSH1 0x4 DUP1 SLOAD PUSH2 0x91F SWAP1 PUSH2 0x346F JUMP JUMPDEST PUSH1 0xF SLOAD PUSH1 0x0 SWAP1 PUSH2 0x100 SWAP1 DIV PUSH1 0xFF AND ISZERO DUP1 ISZERO PUSH2 0x1183 JUMPI POP PUSH1 0x1 PUSH1 0x1 PUSH1 0xA0 SHL SUB DUP3 AND PUSH1 0x0 SWAP1 DUP2 MSTORE PUSH1 0x14 PUSH1 0x20 MSTORE PUSH1 0x40 SWAP1 KECCAK256 SLOAD PUSH1 0xFF AND JUMPDEST DUP1 ISZERO PUSH2 0x11B3 JUMPI POP PUSH1 0x1 PUSH1 0x1 PUSH1 0xA0 SHL SUB DUP3 AND PUSH1 0x0 SWAP1 DUP2 MSTORE PUSH1 0xE PUSH1 0x20 MSTORE PUSH1 0x40 SWAP1 KECCAK256 SLOAD PUSH1 0xFF AND DUP1 PUSH2 0x11B3 JUMPI POP PUSH1 0xF SLOAD PUSH1 0xFF AND JUMPDEST DUP1 ISZERO PUSH2 0x11D8 JUMPI POP PUSH1 0x1 PUSH1 0x1 PUSH1 0xA0 SHL SUB DUP3 AND PUSH1 0x0 SWAP1 DUP2 MSTORE PUSH1 0xB PUSH1 0x20 MSTORE PUSH1 0x40 SWAP1 KECCAK256 SLOAD PUSH1 0xFF AND ISZERO JUMPDEST SWAP3 SWAP2 POP POP JUMP JUMPDEST PUSH1 0xF SLOAD PUSH2 0x100 SWAP1 DIV PUSH1 0xFF AND ISZERO PUSH2 0x1206 JUMPI PUSH1 0x40 MLOAD PUSH3 0x461BCD PUSH1 0xE5 SHL DUP2 MSTORE PUSH1 0x4 ADD PUSH2 0x817 SWAP1 PUSH2 0x34CA JUMP JUMPDEST PUSH1 0x8 SLOAD PUSH1 0x40 MLOAD PUSH4 0x7569A44D PUSH1 0xE1 SHL DUP2 MSTORE PUSH1 0x0 SWAP2 PUSH1 0x1 PUSH1 0x1 PUSH1 0xA0 SHL SUB AND SWAP1 PUSH4 0xEAD3489A SWAP1 PUSH2 0x123B SWAP1 ADDRESS SWAP1 DUP8 SWAP1 DUP8 SWAP1 PUSH1 0x4 ADD PUSH2 0x3629 JUMP JUMPDEST PUSH1 0x20 PUSH1 0x40 MLOAD DUP1 DUP4 SUB DUP2 PUSH1 0x0 DUP8 GAS CALL ISZERO DUP1 ISZERO PUSH2 0x125A JUMPI RETURNDATASIZE PUSH1 0x0 DUP1 RETURNDATACOPY RETURNDATASIZE PUSH1 0x0 REVERT JUMPDEST POP POP POP POP PUSH1 0x40 MLOAD RETURNDATASIZE PUSH1 0x1F NOT PUSH1 0x1F DUP3 ADD AND DUP3 ADD DUP1 PUSH1 0x40 MSTORE POP DUP2 ADD SWAP1 PUSH2 0x127E SWAP2 SWAP1 PUSH2 0x3657 JUMP JUMPDEST SWAP1 POP CALLER PUSH1 0x1 PUSH1 0x1 PUSH1 0xA0 SHL SUB AND PUSH32 0x90DBC172D69D9EF2ED29AA7A0AA260E1E96930CB705D72A22BCD2CFBE3B27F3B DUP3 DUP6 DUP6 PUSH1 0x40 MLOAD PUSH2 0x12BD SWAP4 SWAP3 SWAP2 SWAP1 PUSH2 0x3670 JUMP JUMPDEST PUSH1 0x40 MLOAD DUP1 SWAP2 SUB SWAP1 LOG2 POP POP POP JUMP JUMPDEST CALLER PUSH1 0x1 PUSH1 0x1 PUSH1 0xA0 SHL SUB PUSH32 0x0 AND EQ PUSH2 0x1312 JUMPI PUSH1 0x40 MLOAD PUSH3 0x461BCD PUSH1 0xE5 SHL DUP2 MSTORE PUSH1 0x4 ADD PUSH2 0x817 SWAP1 PUSH2 0x34A3 JUMP JUMPDEST PUSH2 0x131A PUSH2 0x30A1 JUMP JUMPDEST PUSH1 0xF SLOAD PUSH2 0x100 SWAP1 DIV PUSH1 0xFF AND ISZERO PUSH2 0x1342 JUMPI PUSH1 0x40 MLOAD PUSH3 0x461BCD PUSH1 0xE5 SHL DUP2 MSTORE PUSH1 0x4 ADD PUSH2 0x817 SWAP1 PUSH2 0x34CA JUMP JUMPDEST PUSH1 0x0 PUSH32 0x0 PUSH1 0x1 DUP2 GT ISZERO PUSH2 0x1376 JUMPI PUSH2 0x1376 PUSH2 0x31C1 JUMP JUMPDEST EQ PUSH2 0x1393 JUMPI PUSH1 0x40 MLOAD PUSH3 0x461BCD PUSH1 0xE5 SHL DUP2 MSTORE PUSH1 0x4 ADD PUSH2 0x817 SWAP1 PUSH2 0x368A JUMP JUMPDEST PUSH1 0x1 PUSH1 0x1 PUSH1 0xA0 SHL SUB DUP2 AND PUSH1 0x0 SWAP1 DUP2 MSTORE PUSH1 0x14 PUSH1 0x20 MSTORE PUSH1 0x40 SWAP1 KECCAK256 SLOAD PUSH1 0xFF AND PUSH2 0x13CB JUMPI PUSH1 0x40 MLOAD PUSH3 0x461BCD PUSH1 0xE5 SHL DUP2 MSTORE PUSH1 0x4 ADD PUSH2 0x817 SWAP1 PUSH2 0x354F JUMP JUMPDEST PUSH1 0x1 PUSH1 0x1 PUSH1 0xA0 SHL SUB DUP2 AND PUSH1 0x0 SWAP1 DUP2 MSTORE PUSH1 0x15 PUSH1 0x20 MSTORE PUSH1 0x40 SWAP1 KECCAK256 SLOAD PUSH1 0xFF AND PUSH2 0x1403 JUMPI PUSH1 0x40 MLOAD PUSH3 0x461BCD PUSH1 0xE5 SHL DUP2 MSTORE PUSH1 0x4 ADD PUSH2 0x817 SWAP1 PUSH2 0x3575 JUMP JUMPDEST PUSH1 0x1 PUSH1 0x1 PUSH1 0xA0 SHL SUB DUP2 AND PUSH1 0x0 SWAP1 DUP2 MSTORE PUSH1 0xC PUSH1 0x20 MSTORE PUSH1 0x40 SWAP1 KECCAK256 SLOAD PUSH1 0xFF AND PUSH2 0x143B JUMPI PUSH1 0x40 MLOAD PUSH3 0x461BCD PUSH1 0xE5 SHL DUP2 MSTORE PUSH1 0x4 ADD PUSH2 0x817 SWAP1 PUSH2 0x3597 JUMP JUMPDEST PUSH1 0x1 SLOAD PUSH2 0x144B SWAP1 PUSH3 0x93A80 PUSH2 0x36C4 JUMP JUMPDEST TIMESTAMP LT ISZERO PUSH2 0x146A JUMPI PUSH1 0x40 MLOAD PUSH3 0x461BCD PUSH1 0xE5 SHL DUP2 MSTORE PUSH1 0x4 ADD PUSH2 0x817 SWAP1 PUSH2 0x36D7 JUMP JUMPDEST PUSH32 0x0 PUSH1 0x2 SLOAD LT PUSH2 0x14AB JUMPI PUSH1 0x40 MLOAD PUSH3 0x461BCD PUSH1 0xE5 SHL DUP2 MSTORE PUSH1 0x4 ADD PUSH2 0x817 SWAP1 PUSH2 0x36F9 JUMP JUMPDEST TIMESTAMP PUSH1 0x1 SSTORE PUSH1 0x2 DUP1 SLOAD SWAP1 PUSH1 0x0 PUSH2 0x14BF DUP4 PUSH2 0x371B JUMP JUMPDEST SWAP1 SWAP2 SSTORE POP POP PUSH1 0x1 PUSH1 0x1 PUSH1 0xA0 SHL SUB DUP2 AND PUSH1 0x0 DUP2 DUP2 MSTORE PUSH1 0xC PUSH1 0x20 MSTORE PUSH1 0x40 DUP1 DUP3 KECCAK256 DUP1 SLOAD PUSH1 0xFF NOT AND SWAP1 SSTORE MLOAD PUSH32 0x0 SWAP3 DUP5 SWAP3 SWAP2 DUP5 SWAP1 DUP4 DUP2 DUP2 DUP2 DUP6 DUP8 GAS CALL SWAP3 POP POP POP RETURNDATASIZE DUP1 PUSH1 0x0 DUP2 EQ PUSH2 0x1545 JUMPI PUSH1 0x40 MLOAD SWAP2 POP PUSH1 0x1F NOT PUSH1 0x3F RETURNDATASIZE ADD AND DUP3 ADD PUSH1 0x40 MSTORE RETURNDATASIZE DUP3 MSTORE RETURNDATASIZE PUSH1 0x0 PUSH1 0x20 DUP5 ADD RETURNDATACOPY PUSH2 0x154A JUMP JUMPDEST PUSH1 0x60 SWAP2 POP JUMPDEST POP POP SWAP1 POP DUP1 PUSH2 0x156B JUMPI PUSH1 0x40 MLOAD PUSH3 0x461BCD PUSH1 0xE5 SHL DUP2 MSTORE PUSH1 0x4 ADD PUSH2 0x817 SWAP1 PUSH2 0x35C3 JUMP JUMPDEST PUSH1 0x7 SLOAD PUSH1 0x40 MLOAD PUSH4 0xA27CAEB7 PUSH1 0xE0 SHL DUP2 MSTORE PUSH1 0x1 PUSH1 0x1 PUSH1 0xA0 SHL SUB SWAP1 SWAP2 AND SWAP1 PUSH4 0xA27CAEB7 SWAP1 PUSH2 0x159E SWAP1 DUP6 SWAP1 PUSH1 0x1 SWAP1 PUSH1 0x4 ADD PUSH2 0x35E7 JUMP JUMPDEST PUSH1 0x0 PUSH1 0x40 MLOAD DUP1 DUP4 SUB DUP2 PUSH1 0x0 DUP8 DUP1 EXTCODESIZE ISZERO DUP1 ISZERO PUSH2 0x15B8 JUMPI PUSH1 0x0 DUP1 REVERT JUMPDEST POP GAS CALL ISZERO DUP1 ISZERO PUSH2 0x15CC JUMPI RETURNDATASIZE PUSH1 0x0 DUP1 RETURNDATACOPY RETURNDATASIZE PUSH1 0x0 REVERT JUMPDEST POP POP POP POP PUSH32 0x0 PUSH1 0x2 SLOAD SUB PUSH2 0x1635 JUMPI PUSH1 0x1 PUSH1 0x1 PUSH1 0xA0 SHL SUB DUP3 AND PUSH1 0x0 SWAP1 DUP2 MSTORE PUSH1 0x9 PUSH1 0x20 SWAP1 DUP2 MSTORE PUSH1 0x40 DUP1 DUP4 KECCAK256 DUP1 SLOAD PUSH1 0x1 PUSH1 0xFF NOT SWAP2 DUP3 AND DUP2 OR SWAP1 SWAP3 SSTORE PUSH1 0xE SWAP1 SWAP4 MSTORE SWAP3 KECCAK256 DUP1 SLOAD SWAP1 SWAP2 AND SWAP1 SWAP2 OR SWAP1 SSTORE JUMPDEST DUP2 PUSH1 0x1 PUSH1 0x1 PUSH1 0xA0 SHL SUB AND PUSH32 0x9250BE6D331C7B11672FC0207421BFC1631FB0DDFA5479299C034AC0EC06583C DUP5 PUSH1 0x40 MLOAD PUSH2 0x1670 SWAP2 DUP2 MSTORE PUSH1 0x20 ADD SWAP1 JUMP JUMPDEST PUSH1 0x40 MLOAD DUP1 SWAP2 SUB SWAP1 LOG2 DUP2 PUSH1 0x1 PUSH1 0x1 PUSH1 0xA0 SHL SUB AND PUSH32 0xDF20FD1E76BC69D672E4814FAFB2C449BBA3A5369D8359ADF9E05E6FDE87B056 DUP5 PUSH1 0x40 MLOAD PUSH2 0x16B3 SWAP2 DUP2 MSTORE PUSH1 0x20 ADD SWAP1 JUMP JUMPDEST PUSH1 0x40 MLOAD DUP1 SWAP2 SUB SWAP1 LOG2 POP POP POP PUSH2 0xE8B PUSH1 0x1 PUSH1 0x0 SSTORE JUMP JUMPDEST PUSH1 0x5 DUP1 SLOAD PUSH2 0x91F SWAP1 PUSH2 0x346F JUMP JUMPDEST PUSH1 0xF SLOAD PUSH1 0x0 SWAP1 PUSH2 0x100 SWAP1 DIV PUSH1 0xFF AND ISZERO DUP1 ISZERO PUSH2 0x1708 JUMPI POP PUSH1 0x1 PUSH1 0x1 PUSH1 0xA0 SHL SUB DUP3 AND PUSH1 0x0 SWAP1 DUP2 MSTORE PUSH1 0x14 PUSH1 0x20 MSTORE PUSH1 0x40 SWAP1 KECCAK256 SLOAD PUSH1 0xFF AND JUMPDEST DUP1 ISZERO PUSH2 0x1738 JUMPI POP PUSH1 0x1 PUSH1 0x1 PUSH1 0xA0 SHL SUB DUP3 AND PUSH1 0x0 SWAP1 DUP2 MSTORE PUSH1 0xB PUSH1 0x20 MSTORE PUSH1 0x40 SWAP1 KECCAK256 SLOAD PUSH1 0xFF AND DUP1 PUSH2 0x1738 JUMPI POP PUSH1 0xF SLOAD PUSH1 0xFF AND JUMPDEST DUP1 ISZERO PUSH2 0x11D8 JUMPI POP POP PUSH1 0x1 PUSH1 0x1 PUSH1 0xA0 SHL SUB AND PUSH1 0x0 SWAP1 DUP2 MSTORE PUSH1 0xA PUSH1 0x20 MSTORE PUSH1 0x40 SWAP1 KECCAK256 SLOAD PUSH1 0xFF AND ISZERO SWAP1 JUMP JUMPDEST PUSH1 0x1 PUSH1 0x1 PUSH1 0xA0 SHL SUB DUP2 AND PUSH1 0x0 SWAP1 DUP2 MSTORE PUSH1 0x12 PUSH1 0x20 MSTORE PUSH1 0x40 SWAP1 KECCAK256 SLOAD PUSH1 0x60 SWAP1 PUSH1 0xFF AND PUSH2 0x179A JUMPI PUSH1 0x40 MLOAD PUSH3 0x461BCD PUSH1 0xE5 SHL DUP2 MSTORE PUSH1 0x4 ADD PUSH2 0x817 SWAP1 PUSH2 0x340D JUMP JUMPDEST PUSH1 0x1 PUSH1 0x1 PUSH1 0xA0 SHL SUB DUP3 AND PUSH1 0x0 SWAP1 DUP2 MSTORE PUSH1 0x11 PUSH1 0x20 MSTORE PUSH1 0x40 DUP2 KECCAK256 PUSH1 0x3 ADD SLOAD PUSH2 0x100 SWAP1 DIV PUSH1 0xFF AND SWAP1 DUP2 PUSH1 0x3 DUP2 GT ISZERO PUSH2 0x17D1 JUMPI PUSH2 0x17D1 PUSH2 0x31C1 JUMP JUMPDEST SUB PUSH2 0x17FB JUMPI POP POP PUSH1 0x40 DUP1 MLOAD DUP1 DUP3 ADD SWAP1 SWAP2 MSTORE PUSH1 0x7 DUP2 MSTORE PUSH7 0x50656E64696E67 PUSH1 0xC8 SHL PUSH1 0x20 DUP3 ADD MSTORE SWAP2 SWAP1 POP JUMP JUMPDEST PUSH1 0x1 DUP2 PUSH1 0x3 DUP2 GT ISZERO PUSH2 0x180F JUMPI PUSH2 0x180F PUSH2 0x31C1 JUMP JUMPDEST SUB PUSH2 0x1886 JUMPI PUSH1 0x1 PUSH1 0x1 PUSH1 0xA0 SHL SUB DUP4 AND PUSH1 0x0 SWAP1 DUP2 MSTORE PUSH1 0x11 PUSH1 0x20 MSTORE PUSH1 0x40 SWAP1 KECCAK256 PUSH1 0x5 ADD SLOAD PUSH1 0xFF AND PUSH2 0x185D JUMPI PUSH1 0x40 MLOAD DUP1 PUSH1 0x40 ADD PUSH1 0x40 MSTORE DUP1 PUSH1 0x8 DUP2 MSTORE PUSH1 0x20 ADD PUSH8 0x111958DB1A5B9959 PUSH1 0xC2 SHL DUP2 MSTORE POP PUSH2 0x187F JUMP JUMPDEST PUSH1 0x40 MLOAD DUP1 PUSH1 0x40 ADD PUSH1 0x40 MSTORE DUP1 PUSH1 0x8 DUP2 MSTORE PUSH1 0x20 ADD PUSH8 0x1058D8D95C1D1959 PUSH1 0xC2 SHL DUP2 MSTORE POP JUMPDEST SWAP4 SWAP3 POP POP POP JUMP JUMPDEST POP POP PUSH1 0x40 DUP1 MLOAD DUP1 DUP3 ADD SWAP1 SWAP2 MSTORE PUSH1 0x7 DUP2 MSTORE PUSH7 0x2AB735B737BBB7 PUSH1 0xC9 SHL PUSH1 0x20 DUP3 ADD MSTORE SWAP2 SWAP1 POP JUMP JUMPDEST PUSH1 0xF SLOAD PUSH2 0x100 SWAP1 DIV PUSH1 0xFF AND ISZERO PUSH2 0x18D3 JUMPI PUSH1 0x40 MLOAD PUSH3 0x461BCD PUSH1 0xE5 SHL DUP2 MSTORE PUSH1 0x4 ADD PUSH2 0x817 SWAP1 PUSH2 0x34CA JUMP JUMPDEST PUSH1 0x0 DUP2 MLOAD GT PUSH2 0x1922 JUMPI PUSH1 0x40 MLOAD PUSH3 0x461BCD PUSH1 0xE5 SHL DUP2 MSTORE PUSH1 0x20 PUSH1 0x4 DUP3 ADD MSTORE PUSH1 0x1B PUSH1 0x24 DUP3 ADD MSTORE PUSH27 0x4170706C69636174696F6E2063616E6E6F7420626520656D707479 PUSH1 0x28 SHL PUSH1 0x44 DUP3 ADD MSTORE PUSH1 0x64 ADD PUSH2 0x817 JUMP JUMPDEST CALLER PUSH1 0x0 SWAP1 DUP2 MSTORE PUSH1 0x12 PUSH1 0x20 MSTORE PUSH1 0x40 SWAP1 KECCAK256 SLOAD PUSH1 0xFF AND ISZERO PUSH2 0x1974 JUMPI PUSH1 0x40 MLOAD PUSH3 0x461BCD PUSH1 0xE5 SHL DUP2 MSTORE PUSH1 0x20 PUSH1 0x4 DUP3 ADD MSTORE PUSH1 0xF PUSH1 0x24 DUP3 ADD MSTORE PUSH15 0x105B1C9958591E48185C1C1B1A5959 PUSH1 0x8A SHL PUSH1 0x44 DUP3 ADD MSTORE PUSH1 0x64 ADD PUSH2 0x817 JUMP JUMPDEST CALLER PUSH1 0x0 SWAP1 DUP2 MSTORE PUSH1 0x14 PUSH1 0x20 MSTORE PUSH1 0x40 SWAP1 KECCAK256 SLOAD PUSH1 0xFF AND ISZERO PUSH2 0x19A4 JUMPI PUSH1 0x40 MLOAD PUSH3 0x461BCD PUSH1 0xE5 SHL DUP2 MSTORE PUSH1 0x4 ADD PUSH2 0x817 SWAP1 PUSH2 0x343B JUMP JUMPDEST PUSH1 0x3 SLOAD PUSH1 0x13 SLOAD LT PUSH2 0x19EE JUMPI PUSH1 0x40 MLOAD PUSH3 0x461BCD PUSH1 0xE5 SHL DUP2 MSTORE PUSH1 0x20 PUSH1 0x4 DUP3 ADD MSTORE PUSH1 0x14 PUSH1 0x24 DUP3 ADD MSTORE PUSH20 0x105B1B081C1BDCDA5D1A5BDB9CC8199A5B1B1959 PUSH1 0x62 SHL PUSH1 0x44 DUP3 ADD MSTORE PUSH1 0x64 ADD PUSH2 0x817 JUMP JUMPDEST PUSH1 0x40 DUP1 MLOAD PUSH1 0xE0 DUP2 ADD DUP3 MSTORE CALLER DUP2 MSTORE PUSH1 0x20 DUP2 ADD DUP4 SWAP1 MSTORE TIMESTAMP SWAP2 DUP2 ADD SWAP2 SWAP1 SWAP2 MSTORE PUSH1 0x1 PUSH1 0x60 DUP3 ADD MSTORE PUSH1 0x80 DUP2 ADD PUSH1 0x0 DUP2 MSTORE PUSH1 0x0 PUSH1 0x20 DUP1 DUP4 ADD DUP3 SWAP1 MSTORE PUSH1 0x40 SWAP3 DUP4 ADD DUP3 SWAP1 MSTORE CALLER DUP3 MSTORE PUSH1 0x11 DUP2 MSTORE SWAP2 SWAP1 KECCAK256 DUP3 MLOAD DUP2 SLOAD PUSH1 0x1 PUSH1 0x1 PUSH1 0xA0 SHL SUB NOT AND PUSH1 0x1 PUSH1 0x1 PUSH1 0xA0 SHL SUB SWAP1 SWAP2 AND OR DUP2 SSTORE SWAP1 DUP3 ADD MLOAD PUSH1 0x1 DUP3 ADD SWAP1 PUSH2 0x1A64 SWAP1 DUP3 PUSH2 0x3783 JUMP JUMPDEST POP PUSH1 0x40 DUP3 ADD MLOAD PUSH1 0x2 DUP3 ADD SSTORE PUSH1 0x60 DUP3 ADD MLOAD PUSH1 0x3 DUP1 DUP4 ADD DUP1 SLOAD SWAP3 ISZERO ISZERO PUSH1 0xFF NOT DUP5 AND DUP2 OR DUP3 SSTORE PUSH1 0x80 DUP7 ADD MLOAD SWAP4 SWAP2 SWAP3 PUSH2 0xFF00 NOT SWAP1 SWAP2 AND PUSH2 0xFFFF NOT SWAP1 SWAP3 AND SWAP2 SWAP1 SWAP2 OR SWAP1 PUSH2 0x100 SWAP1 DUP5 SWAP1 DUP2 GT ISZERO PUSH2 0x1AB7 JUMPI PUSH2 0x1AB7 PUSH2 0x31C1 JUMP JUMPDEST MUL OR SWAP1 SSTORE POP PUSH1 0xA0 DUP3 ADD MLOAD PUSH1 0x4 DUP3 ADD SSTORE PUSH1 0xC0 SWAP1 SWAP2 ADD MLOAD PUSH1 0x5 SWAP1 SWAP2 ADD DUP1 SLOAD SWAP2 ISZERO ISZERO PUSH1 0xFF NOT SWAP3 DUP4 AND OR SWAP1 SSTORE CALLER PUSH1 0x0 DUP2 DUP2 MSTORE PUSH1 0x12 PUSH1 0x20 MSTORE PUSH1 0x40 DUP1 DUP3 KECCAK256 DUP1 SLOAD SWAP1 SWAP5 AND PUSH1 0x1 SWAP1 DUP2 OR SWAP1 SWAP5 SSTORE PUSH1 0x10 DUP1 SLOAD SWAP5 DUP6 ADD DUP2 SSTORE SWAP1 SWAP2 MSTORE PUSH32 0x1B6847DC741A1B0CD08D278845F9D819D87B734759AFB55FE2DE5CB82A9AE672 SWAP1 SWAP3 ADD DUP1 SLOAD PUSH1 0x1 PUSH1 0x1 PUSH1 0xA0 SHL SUB NOT AND DUP3 OR SWAP1 SSTORE SWAP1 MLOAD PUSH32 0x4D954D97FF5F7E3CEB48557E63515F2B6D839B08E9CB52C79F8BE5347E86AD55 SWAP1 PUSH2 0x1B6B SWAP1 DUP5 SWAP1 PUSH2 0x3161 JUMP JUMPDEST PUSH1 0x40 MLOAD DUP1 SWAP2 SUB SWAP1 LOG2 POP JUMP JUMPDEST PUSH1 0x60 PUSH1 0x13 DUP1 SLOAD DUP1 PUSH1 0x20 MUL PUSH1 0x20 ADD PUSH1 0x40 MLOAD SWAP1 DUP2 ADD PUSH1 0x40 MSTORE DUP1 SWAP3 SWAP2 SWAP1 DUP2 DUP2 MSTORE PUSH1 0x20 ADD DUP3 DUP1 SLOAD DUP1 ISZERO PUSH2 0xEE6 JUMPI PUSH1 0x20 MUL DUP3 ADD SWAP2 SWAP1 PUSH1 0x0 MSTORE PUSH1 0x20 PUSH1 0x0 KECCAK256 SWAP1 DUP2 SLOAD PUSH1 0x1 PUSH1 0x1 PUSH1 0xA0 SHL SUB AND DUP2 MSTORE PUSH1 0x1 SWAP1 SWAP2 ADD SWAP1 PUSH1 0x20 ADD DUP1 DUP4 GT PUSH2 0xEC8 JUMPI POP POP POP POP POP SWAP1 POP SWAP1 JUMP JUMPDEST PUSH1 0xF SLOAD PUSH1 0x0 SWAP1 PUSH2 0x100 SWAP1 DIV PUSH1 0xFF AND ISZERO DUP1 ISZERO PUSH2 0x1BF1 JUMPI POP PUSH1 0x13 SLOAD ISZERO JUMPDEST DUP1 ISZERO PUSH2 0x1BFD JUMPI POP PUSH1 0x2 SLOAD ISZERO JUMPDEST SWAP1 POP SWAP1 JUMP JUMPDEST PUSH1 0xF SLOAD PUSH2 0x100 SWAP1 DIV PUSH1 0xFF AND ISZERO PUSH2 0x1C2A JUMPI PUSH1 0x40 MLOAD PUSH3 0x461BCD PUSH1 0xE5 SHL DUP2 MSTORE PUSH1 0x4 ADD PUSH2 0x817 SWAP1 PUSH2 0x34CA JUMP JUMPDEST PUSH1 0x0 PUSH32 0x0 PUSH1 0x1 DUP2 GT ISZERO PUSH2 0x1C5E JUMPI PUSH2 0x1C5E PUSH2 0x31C1 JUMP JUMPDEST EQ PUSH2 0x1C7B JUMPI PUSH1 0x40 MLOAD PUSH3 0x461BCD PUSH1 0xE5 SHL DUP2 MSTORE PUSH1 0x4 ADD PUSH2 0x817 SWAP1 PUSH2 0x368A JUMP JUMPDEST CALLER PUSH1 0x0 SWAP1 DUP2 MSTORE PUSH1 0x14 PUSH1 0x20 MSTORE PUSH1 0x40 SWAP1 KECCAK256 SLOAD PUSH1 0xFF AND PUSH2 0x1CAA JUMPI PUSH1 0x40 MLOAD PUSH3 0x461BCD PUSH1 0xE5 SHL DUP2 MSTORE PUSH1 0x4 ADD PUSH2 0x817 SWAP1 PUSH2 0x354F JUMP JUMPDEST CALLER PUSH1 0x0 SWAP1 DUP2 MSTORE PUSH1 0x15 PUSH1 0x20 MSTORE PUSH1 0x40 SWAP1 KECCAK256 SLOAD PUSH1 0xFF AND PUSH2 0x1CD9 JUMPI PUSH1 0x40 MLOAD PUSH3 0x461BCD PUSH1 0xE5 SHL DUP2 MSTORE PUSH1 0x4 ADD PUSH2 0x817 SWAP1 PUSH2 0x3575 JUMP JUMPDEST PUSH1 0x1 SLOAD PUSH2 0x1CE9 SWAP1 PUSH3 0x93A80 PUSH2 0x36C4 JUMP JUMPDEST TIMESTAMP LT ISZERO PUSH2 0x1D08 JUMPI PUSH1 0x40 MLOAD PUSH3 0x461BCD PUSH1 0xE5 SHL DUP2 MSTORE PUSH1 0x4 ADD PUSH2 0x817 SWAP1 PUSH2 0x36D7 JUMP JUMPDEST PUSH32 0x0 PUSH1 0x2 SLOAD LT PUSH2 0x1D49 JUMPI PUSH1 0x40 MLOAD PUSH3 0x461BCD PUSH1 0xE5 SHL DUP2 MSTORE PUSH1 0x4 ADD PUSH2 0x817 SWAP1 PUSH2 0x36F9 JUMP JUMPDEST CALLER PUSH1 0x0 SWAP1 DUP2 MSTORE PUSH1 0xC PUSH1 0x20 MSTORE PUSH1 0x40 SWAP1 KECCAK256 SLOAD PUSH1 0xFF AND ISZERO PUSH2 0x1D9D JUMPI PUSH1 0x40 MLOAD PUSH3 0x461BCD PUSH1 0xE5 SHL DUP2 MSTORE PUSH1 0x20 PUSH1 0x4 DUP3 ADD MSTORE PUSH1 0x11 PUSH1 0x24 DUP3 ADD MSTORE PUSH17 0x105B1C9958591E481C995C5D595CDD1959 PUSH1 0x7A SHL PUSH1 0x44 DUP3 ADD MSTORE PUSH1 0x64 ADD PUSH2 0x817 JUMP JUMPDEST CALLER PUSH1 0x0 DUP2 DUP2 MSTORE PUSH1 0xC PUSH1 0x20 SWAP1 DUP2 MSTORE PUSH1 0x40 DUP1 DUP4 KECCAK256 DUP1 SLOAD PUSH1 0xFF NOT AND PUSH1 0x1 OR SWAP1 SSTORE PUSH1 0xD DUP3 MSTORE SWAP2 DUP3 SWAP1 KECCAK256 TIMESTAMP SWAP1 DUP2 SWAP1 SSTORE SWAP2 MLOAD SWAP2 DUP3 MSTORE PUSH32 0x4A0353366C54503C4EB4D024BAF56134B0A62137ED7B5F688A205CB8EC34758F SWAP2 ADD PUSH1 0x40 MLOAD DUP1 SWAP2 SUB SWAP1 LOG2 JUMP JUMPDEST CALLER PUSH1 0x1 PUSH1 0x1 PUSH1 0xA0 SHL SUB PUSH32 0x0 AND EQ PUSH2 0x1E41 JUMPI PUSH1 0x40 MLOAD PUSH3 0x461BCD PUSH1 0xE5 SHL DUP2 MSTORE PUSH1 0x4 ADD PUSH2 0x817 SWAP1 PUSH2 0x34A3 JUMP JUMPDEST PUSH1 0xF SLOAD PUSH2 0x100 SWAP1 DIV PUSH1 0xFF AND ISZERO PUSH2 0x1E69 JUMPI PUSH1 0x40 MLOAD PUSH3 0x461BCD PUSH1 0xE5 SHL DUP2 MSTORE PUSH1 0x4 ADD PUSH2 0x817 SWAP1 PUSH2 0x34CA JUMP JUMPDEST PUSH1 0x1 PUSH1 0x1 PUSH1 0xA0 SHL SUB DUP2 AND PUSH1 0x0 SWAP1 DUP2 MSTORE PUSH1 0x12 PUSH1 0x20 MSTORE PUSH1 0x40 SWAP1 KECCAK256 SLOAD PUSH1 0xFF AND PUSH2 0x1EA1 JUMPI PUSH1 0x40 MLOAD PUSH3 0x461BCD PUSH1 0xE5 SHL DUP2 MSTORE PUSH1 0x4 ADD PUSH2 0x817 SWAP1 PUSH2 0x340D JUMP JUMPDEST PUSH1 0x1 PUSH1 0x1 PUSH1 0xA0 SHL SUB DUP2 AND PUSH1 0x0 SWAP1 DUP2 MSTORE PUSH1 0x11 PUSH1 0x20 MSTORE PUSH1 0x40 SWAP1 KECCAK256 PUSH1 0x3 ADD SLOAD PUSH1 0xFF AND PUSH2 0x1EDC JUMPI PUSH1 0x40 MLOAD PUSH3 0x461BCD PUSH1 0xE5 SHL DUP2 MSTORE PUSH1 0x4 ADD PUSH2 0x817 SWAP1 PUSH2 0x34FA JUMP JUMPDEST PUSH1 0x1 PUSH1 0x1 PUSH1 0xA0 SHL SUB DUP2 AND PUSH1 0x0 SWAP1 DUP2 MSTORE PUSH1 0x14 PUSH1 0x20 MSTORE PUSH1 0x40 SWAP1 KECCAK256 SLOAD PUSH1 0xFF AND ISZERO PUSH2 0x1F15 JUMPI PUSH1 0x40 MLOAD PUSH3 0x461BCD PUSH1 0xE5 SHL DUP2 MSTORE PUSH1 0x4 ADD PUSH2 0x817 SWAP1 PUSH2 0x343B JUMP JUMPDEST PUSH1 0x3 SLOAD PUSH1 0x13 SLOAD LT PUSH2 0x1F38 JUMPI PUSH1 0x40 MLOAD PUSH3 0x461BCD PUSH1 0xE5 SHL DUP2 MSTORE PUSH1 0x4 ADD PUSH2 0x817 SWAP1 PUSH2 0x3842 JUMP JUMPDEST PUSH1 0x1 PUSH1 0x1 PUSH1 0xA0 SHL SUB DUP2 AND PUSH1 0x0 DUP2 DUP2 MSTORE PUSH1 0x11 PUSH1 0x20 SWAP1 DUP2 MSTORE PUSH1 0x40 DUP1 DUP4 KECCAK256 PUSH1 0x3 DUP2 ADD DUP1 SLOAD TIMESTAMP PUSH1 0x4 DUP5 ADD SSTORE PUSH2 0xFFFF NOT AND PUSH2 0x100 OR SWAP1 SSTORE PUSH1 0x5 ADD DUP1 SLOAD PUSH1 0xFF NOT SWAP1 DUP2 AND PUSH1 0x1 SWAP1 DUP2 OR SWAP1 SWAP3 SSTORE PUSH1 0x14 DUP5 MSTORE DUP3 DUP6 KECCAK256 DUP1 SLOAD DUP3 AND DUP4 OR SWAP1 SSTORE PUSH1 0x15 SWAP1 SWAP4 MSTORE DUP2 DUP5 KECCAK256 DUP1 SLOAD SWAP1 SWAP4 AND DUP2 OR SWAP1 SWAP3 SSTORE PUSH1 0x13 DUP1 SLOAD SWAP3 DUP4 ADD DUP2 SSTORE DUP4 MSTORE PUSH32 0x66DE8FFDA797E3DE9C05E8FC57B3BF0EC28A930D40B0D285D93C06501CF6A090 SWAP1 SWAP2 ADD DUP1 SLOAD PUSH1 0x1 PUSH1 0x1 PUSH1 0xA0 SHL SUB NOT AND DUP5 OR SWAP1 SSTORE MLOAD PUSH32 0x485AF27643B0F91058287EB2AA76B88703036E31298F4A07F7EFBBBF7FFA5F8B SWAP2 SWAP1 LOG2 PUSH1 0x40 MLOAD PUSH1 0x1 PUSH1 0x1 PUSH1 0xA0 SHL SUB DUP3 AND SWAP1 PUSH32 0x9F4C97600AC649EABE56724216338E96FE75493563DC37A3E489A8C46228D756 SWAP1 PUSH1 0x0 SWAP1 LOG2 POP JUMP JUMPDEST PUSH1 0x13 DUP2 DUP2 SLOAD DUP2 LT PUSH2 0x2049 JUMPI PUSH1 0x0 DUP1 REVERT JUMPDEST PUSH1 0x0 SWAP2 DUP3 MSTORE PUSH1 0x20 SWAP1 SWAP2 KECCAK256 ADD SLOAD PUSH1 0x1 PUSH1 0x1 PUSH1 0xA0 SHL SUB AND SWAP1 POP DUP2 JUMP JUMPDEST PUSH1 0xF SLOAD PUSH2 0x100 SWAP1 DIV PUSH1 0xFF AND ISZERO PUSH2 0x208B JUMPI PUSH1 0x40 MLOAD PUSH3 0x461BCD PUSH1 0xE5 SHL DUP2 MSTORE PUSH1 0x4 ADD PUSH2 0x817 SWAP1 PUSH2 0x34CA JUMP JUMPDEST CALLER PUSH1 0x0 SWAP1 DUP2 MSTORE PUSH1 0x14 PUSH1 0x20 MSTORE PUSH1 0x40 SWAP1 KECCAK256 SLOAD PUSH1 0xFF AND PUSH2 0x20D7 JUMPI PUSH1 0x40 MLOAD PUSH3 0x461BCD PUSH1 0xE5 SHL DUP2 MSTORE PUSH1 0x20 PUSH1 0x4 DUP3 ADD MSTORE PUSH1 0xA PUSH1 0x24 DUP3 ADD MSTORE PUSH10 0x2737BA103BB7B935B2B9 PUSH1 0xB1 SHL PUSH1 0x44 DUP3 ADD MSTORE PUSH1 0x64 ADD PUSH2 0x817 JUMP JUMPDEST CALLER PUSH1 0x0 SWAP1 DUP2 MSTORE PUSH1 0x15 PUSH1 0x20 MSTORE PUSH1 0x40 SWAP1 KECCAK256 DUP1 SLOAD PUSH1 0xFF NOT AND SWAP2 ISZERO ISZERO SWAP2 SWAP1 SWAP2 OR SWAP1 SSTORE JUMP JUMPDEST PUSH1 0x10 DUP2 DUP2 SLOAD DUP2 LT PUSH2 0x2049 JUMPI PUSH1 0x0 DUP1 REVERT JUMPDEST PUSH1 0x0 DUP1 DUP1 JUMPDEST PUSH1 0x10 SLOAD DUP2 LT ISZERO PUSH2 0x21C5 JUMPI PUSH1 0x11 PUSH1 0x0 PUSH1 0x10 DUP4 DUP2 SLOAD DUP2 LT PUSH2 0x212D JUMPI PUSH2 0x212D PUSH2 0x3870 JUMP JUMPDEST PUSH1 0x0 SWAP2 DUP3 MSTORE PUSH1 0x20 DUP1 DUP4 KECCAK256 SWAP1 SWAP2 ADD SLOAD PUSH1 0x1 PUSH1 0x1 PUSH1 0xA0 SHL SUB AND DUP4 MSTORE DUP3 ADD SWAP3 SWAP1 SWAP3 MSTORE PUSH1 0x40 ADD SWAP1 KECCAK256 PUSH1 0x3 ADD SLOAD PUSH1 0xFF AND DUP1 ISZERO PUSH2 0x21A0 JUMPI POP PUSH1 0x14 PUSH1 0x0 PUSH1 0x10 DUP4 DUP2 SLOAD DUP2 LT PUSH2 0x2176 JUMPI PUSH2 0x2176 PUSH2 0x3870 JUMP JUMPDEST PUSH1 0x0 SWAP2 DUP3 MSTORE PUSH1 0x20 DUP1 DUP4 KECCAK256 SWAP1 SWAP2 ADD SLOAD PUSH1 0x1 PUSH1 0x1 PUSH1 0xA0 SHL SUB AND DUP4 MSTORE DUP3 ADD SWAP3 SWAP1 SWAP3 MSTORE PUSH1 0x40 ADD SWAP1 KECCAK256 SLOAD PUSH1 0xFF AND ISZERO JUMPDEST ISZERO PUSH2 0x21B3 JUMPI DUP2 PUSH2 0x21AF DUP2 PUSH2 0x371B JUMP JUMPDEST SWAP3 POP POP JUMPDEST DUP1 PUSH2 0x21BD DUP2 PUSH2 0x371B JUMP JUMPDEST SWAP2 POP POP PUSH2 0x210C JUMP JUMPDEST POP SWAP2 SWAP1 POP JUMP JUMPDEST CALLER PUSH1 0x1 PUSH1 0x1 PUSH1 0xA0 SHL SUB PUSH32 0x0 AND EQ PUSH2 0x2213 JUMPI PUSH1 0x40 MLOAD PUSH3 0x461BCD PUSH1 0xE5 SHL DUP2 MSTORE PUSH1 0x4 ADD PUSH2 0x817 SWAP1 PUSH2 0x34A3 JUMP JUMPDEST PUSH2 0x221B PUSH2 0x30A1 JUMP JUMPDEST PUSH1 0xF SLOAD PUSH2 0x100 SWAP1 DIV PUSH1 0xFF AND ISZERO PUSH2 0x226B JUMPI PUSH1 0x40 MLOAD PUSH3 0x461BCD PUSH1 0xE5 SHL DUP2 MSTORE PUSH1 0x20 PUSH1 0x4 DUP3 ADD MSTORE PUSH1 0x15 PUSH1 0x24 DUP3 ADD MSTORE PUSH21 0x129BD888185B1C9958591E4818D85B98D95B1B1959 PUSH1 0x5A SHL PUSH1 0x44 DUP3 ADD MSTORE PUSH1 0x64 ADD PUSH2 0x817 JUMP JUMPDEST PUSH1 0x13 SLOAD ISZERO PUSH2 0x22CB JUMPI PUSH1 0x40 MLOAD PUSH3 0x461BCD PUSH1 0xE5 SHL DUP2 MSTORE PUSH1 0x20 PUSH1 0x4 DUP3 ADD MSTORE PUSH1 0x27 PUSH1 0x24 DUP3 ADD MSTORE PUSH32 0x43616E6E6F742063616E63656C206A6F6220776974682061737369676E656420 PUSH1 0x44 DUP3 ADD MSTORE PUSH7 0x776F726B657273 PUSH1 0xC8 SHL PUSH1 0x64 DUP3 ADD MSTORE PUSH1 0x84 ADD PUSH2 0x817 JUMP JUMPDEST PUSH1 0x2 SLOAD ISZERO PUSH2 0x2327 JUMPI PUSH1 0x40 MLOAD PUSH3 0x461BCD PUSH1 0xE5 SHL DUP2 MSTORE PUSH1 0x20 PUSH1 0x4 DUP3 ADD MSTORE PUSH1 0x24 DUP1 DUP3 ADD MSTORE PUSH32 0x43616E6E6F742063616E63656C206A6F622077697468207061796D656E747320 PUSH1 0x44 DUP3 ADD MSTORE PUSH4 0x6D616465 PUSH1 0xE0 SHL PUSH1 0x64 DUP3 ADD MSTORE PUSH1 0x84 ADD PUSH2 0x817 JUMP JUMPDEST PUSH1 0xF DUP1 SLOAD PUSH2 0xFF00 NOT AND PUSH2 0x100 OR SWAP1 SSTORE SELFBALANCE DUP1 ISZERO PUSH2 0x23F2 JUMPI PUSH1 0x0 PUSH32 0x0 PUSH1 0x1 PUSH1 0x1 PUSH1 0xA0 SHL SUB AND DUP3 PUSH1 0x40 MLOAD PUSH1 0x0 PUSH1 0x40 MLOAD DUP1 DUP4 SUB DUP2 DUP6 DUP8 GAS CALL SWAP3 POP POP POP RETURNDATASIZE DUP1 PUSH1 0x0 DUP2 EQ PUSH2 0x23AA JUMPI PUSH1 0x40 MLOAD SWAP2 POP PUSH1 0x1F NOT PUSH1 0x3F RETURNDATASIZE ADD AND DUP3 ADD PUSH1 0x40 MSTORE RETURNDATASIZE DUP3 MSTORE RETURNDATASIZE PUSH1 0x0 PUSH1 0x20 DUP5 ADD RETURNDATACOPY PUSH2 0x23AF JUMP JUMPDEST PUSH1 0x60 SWAP2 POP JUMPDEST POP POP SWAP1 POP DUP1 PUSH2 0x23F0 JUMPI PUSH1 0x40 MLOAD PUSH3 0x461BCD PUSH1 0xE5 SHL DUP2 MSTORE PUSH1 0x20 PUSH1 0x4 DUP3 ADD MSTORE PUSH1 0xD PUSH1 0x24 DUP3 ADD MSTORE PUSH13 0x1499599D5B990819985A5B1959 PUSH1 0x9A SHL PUSH1 0x44 DUP3 ADD MSTORE PUSH1 0x64 ADD PUSH2 0x817 JUMP JUMPDEST POP JUMPDEST PUSH1 0x40 MLOAD DUP2 DUP2 MSTORE PUSH32 0x58243F872C550AD02802199ADE99EB4250F6BB19E9ABBF2D3DE7B969C0EB5E4F SWAP1 PUSH1 0x20 ADD PUSH1 0x40 MLOAD DUP1 SWAP2 SUB SWAP1 LOG1 POP PUSH2 0x2430 PUSH1 0x1 PUSH1 0x0 SSTORE JUMP JUMPDEST JUMP JUMPDEST PUSH1 0xF SLOAD PUSH2 0x100 SWAP1 DIV PUSH1 0xFF AND ISZERO PUSH2 0x245A JUMPI PUSH1 0x40 MLOAD PUSH3 0x461BCD PUSH1 0xE5 SHL DUP2 MSTORE PUSH1 0x4 ADD PUSH2 0x817 SWAP1 PUSH2 0x34CA JUMP JUMPDEST CALLER PUSH1 0x0 SWAP1 DUP2 MSTORE PUSH1 0x14 PUSH1 0x20 MSTORE PUSH1 0x40 SWAP1 KECCAK256 SLOAD PUSH1 0xFF AND PUSH2 0x2489 JUMPI PUSH1 0x40 MLOAD PUSH3 0x461BCD PUSH1 0xE5 SHL DUP2 MSTORE PUSH1 0x4 ADD PUSH2 0x817 SWAP1 PUSH2 0x3886 JUMP JUMPDEST CALLER PUSH1 0x0 SWAP1 DUP2 MSTORE PUSH1 0xB PUSH1 0x20 MSTORE PUSH1 0x40 SWAP1 KECCAK256 SLOAD PUSH1 0xFF AND DUP1 PUSH2 0x24A9 JUMPI POP PUSH1 0xF SLOAD PUSH1 0xFF AND JUMPDEST PUSH2 0x24F5 JUMPI PUSH1 0x40 MLOAD PUSH3 0x461BCD PUSH1 0xE5 SHL DUP2 MSTORE PUSH1 0x20 PUSH1 0x4 DUP3 ADD MSTORE PUSH1 0x1D PUSH1 0x24 DUP3 ADD MSTORE PUSH32 0x456D706C6F796572206861736E277420726174656420796F7520796574000000 PUSH1 0x44 DUP3 ADD MSTORE PUSH1 0x64 ADD PUSH2 0x817 JUMP JUMPDEST CALLER PUSH1 0x0 SWAP1 DUP2 MSTORE PUSH1 0xA PUSH1 0x20 MSTORE PUSH1 0x40 SWAP1 KECCAK256 SLOAD PUSH1 0xFF AND ISZERO PUSH2 0x254E JUMPI PUSH1 0x40 MLOAD PUSH3 0x461BCD PUSH1 0xE5 SHL DUP2 MSTORE PUSH1 0x20 PUSH1 0x4 DUP3 ADD MSTORE PUSH1 0x16 PUSH1 0x24 DUP3 ADD MSTORE PUSH22 0x20B63932B0B23C903930BA32B21032B6B83637BCB2B9 PUSH1 0x51 SHL PUSH1 0x44 DUP3 ADD MSTORE PUSH1 0x64 ADD PUSH2 0x817 JUMP JUMPDEST PUSH1 0x1 DUP2 PUSH1 0xFF AND LT ISZERO DUP1 ISZERO PUSH2 0x2566 JUMPI POP PUSH1 0x5 DUP2 PUSH1 0xFF AND GT ISZERO JUMPDEST PUSH2 0x2582 JUMPI PUSH1 0x40 MLOAD PUSH3 0x461BCD PUSH1 0xE5 SHL DUP2 MSTORE PUSH1 0x4 ADD PUSH2 0x817 SWAP1 PUSH2 0x38AC JUMP JUMPDEST CALLER PUSH1 0x0 SWAP1 DUP2 MSTORE PUSH1 0xA PUSH1 0x20 MSTORE PUSH1 0x40 SWAP1 DUP2 SWAP1 KECCAK256 DUP1 SLOAD PUSH1 0xFF NOT AND PUSH1 0x1 OR SWAP1 SSTORE PUSH1 0x7 SLOAD SWAP1 MLOAD PUSH4 0x6BA0ED79 PUSH1 0xE1 SHL DUP2 MSTORE PUSH1 0x1 PUSH1 0x1 PUSH1 0xA0 SHL SUB SWAP2 SWAP1 SWAP2 AND SWAP1 PUSH4 0xD741DAF2 SWAP1 PUSH2 0x25F0 SWAP1 PUSH32 0x0 SWAP1 DUP6 SWAP1 PUSH1 0x4 ADD PUSH2 0x38D7 JUMP JUMPDEST PUSH1 0x0 PUSH1 0x40 MLOAD DUP1 DUP4 SUB DUP2 PUSH1 0x0 DUP8 DUP1 EXTCODESIZE ISZERO DUP1 ISZERO PUSH2 0x260A JUMPI PUSH1 0x0 DUP1 REVERT JUMPDEST POP GAS CALL ISZERO DUP1 ISZERO PUSH2 0x261E JUMPI RETURNDATASIZE PUSH1 0x0 DUP1 RETURNDATACOPY RETURNDATASIZE PUSH1 0x0 REVERT JUMPDEST POP POP PUSH1 0x40 MLOAD PUSH1 0xFF DUP5 AND DUP2 MSTORE PUSH1 0x1 PUSH1 0x1 PUSH1 0xA0 SHL SUB PUSH32 0x0 AND SWAP3 POP CALLER SWAP2 POP PUSH32 0xF679ED47D9D270FDBCC0841FA6AAADA363A11452A6629E5A49223B28FC083065 SWAP1 PUSH1 0x20 ADD PUSH1 0x40 MLOAD DUP1 SWAP2 SUB SWAP1 LOG3 POP JUMP JUMPDEST PUSH1 0x11 PUSH1 0x20 MSTORE PUSH1 0x0 SWAP1 DUP2 MSTORE PUSH1 0x40 SWAP1 KECCAK256 DUP1 SLOAD PUSH1 0x1 DUP3 ADD DUP1 SLOAD PUSH1 0x1 PUSH1 0x1 PUSH1 0xA0 SHL SUB SWAP1 SWAP3 AND SWAP3 SWAP2 PUSH2 0x26B4 SWAP1 PUSH2 0x346F JUMP JUMPDEST DUP1 PUSH1 0x1F ADD PUSH1 0x20 DUP1 SWAP2 DIV MUL PUSH1 0x20 ADD PUSH1 0x40 MLOAD SWAP1 DUP2 ADD PUSH1 0x40 MSTORE DUP1 SWAP3 SWAP2 SWAP1 DUP2 DUP2 MSTORE PUSH1 0x20 ADD DUP3 DUP1 SLOAD PUSH2 0x26E0 SWAP1 PUSH2 0x346F JUMP JUMPDEST DUP1 ISZERO PUSH2 0x272D JUMPI DUP1 PUSH1 0x1F LT PUSH2 0x2702 JUMPI PUSH2 0x100 DUP1 DUP4 SLOAD DIV MUL DUP4 MSTORE SWAP2 PUSH1 0x20 ADD SWAP2 PUSH2 0x272D JUMP JUMPDEST DUP3 ADD SWAP2 SWAP1 PUSH1 0x0 MSTORE PUSH1 0x20 PUSH1 0x0 KECCAK256 SWAP1 JUMPDEST DUP2 SLOAD DUP2 MSTORE SWAP1 PUSH1 0x1 ADD SWAP1 PUSH1 0x20 ADD DUP1 DUP4 GT PUSH2 0x2710 JUMPI DUP3 SWAP1 SUB PUSH1 0x1F AND DUP3 ADD SWAP2 JUMPDEST POP POP POP PUSH1 0x2 DUP5 ADD SLOAD PUSH1 0x3 DUP6 ADD SLOAD PUSH1 0x4 DUP7 ADD SLOAD PUSH1 0x5 SWAP1 SWAP7 ADD SLOAD SWAP5 SWAP6 SWAP2 SWAP5 PUSH1 0xFF DUP1 DUP4 AND SWAP6 POP PUSH2 0x100 SWAP1 SWAP3 DIV DUP3 AND SWAP4 POP AND DUP8 JUMP JUMPDEST PUSH1 0xF SLOAD PUSH2 0x100 SWAP1 DIV PUSH1 0xFF AND ISZERO PUSH2 0x2786 JUMPI PUSH1 0x40 MLOAD PUSH3 0x461BCD PUSH1 0xE5 SHL DUP2 MSTORE PUSH1 0x4 ADD PUSH2 0x817 SWAP1 PUSH2 0x34CA JUMP JUMPDEST PUSH1 0x1 PUSH32 0x0 PUSH1 0x1 DUP2 GT ISZERO PUSH2 0x27BA JUMPI PUSH2 0x27BA PUSH2 0x31C1 JUMP JUMPDEST EQ PUSH2 0x27D7 JUMPI PUSH1 0x40 MLOAD PUSH3 0x461BCD PUSH1 0xE5 SHL DUP2 MSTORE PUSH1 0x4 ADD PUSH2 0x817 SWAP1 PUSH2 0x352A JUMP JUMPDEST CALLER PUSH1 0x0 SWAP1 DUP2 MSTORE PUSH1 0x14 PUSH1 0x20 MSTORE PUSH1 0x40 SWAP1 KECCAK256 SLOAD PUSH1 0xFF AND PUSH2 0x2806 JUMPI PUSH1 0x40 MLOAD PUSH3 0x461BCD PUSH1 0xE5 SHL DUP2 MSTORE PUSH1 0x4 ADD PUSH2 0x817 SWAP1 PUSH2 0x354F JUMP JUMPDEST CALLER PUSH1 0x0 SWAP1 DUP2 MSTORE PUSH1 0x15 PUSH1 0x20 MSTORE PUSH1 0x40 SWAP1 KECCAK256 SLOAD PUSH1 0xFF AND PUSH2 0x1D49 JUMPI PUSH1 0x40 MLOAD PUSH3 0x461BCD PUSH1 0xE5 SHL DUP2 MSTORE PUSH1 0x4 ADD PUSH2 0x817 SWAP1 PUSH2 0x3575 JUMP JUMPDEST PUSH1 0x60 PUSH1 0x0 DUP1 JUMPDEST PUSH1 0x10 SLOAD DUP2 LT ISZERO PUSH2 0x28F4 JUMPI PUSH1 0x11 PUSH1 0x0 PUSH1 0x10 DUP4 DUP2 SLOAD DUP2 LT PUSH2 0x285C JUMPI PUSH2 0x285C PUSH2 0x3870 JUMP JUMPDEST PUSH1 0x0 SWAP2 DUP3 MSTORE PUSH1 0x20 DUP1 DUP4 KECCAK256 SWAP1 SWAP2 ADD SLOAD PUSH1 0x1 PUSH1 0x1 PUSH1 0xA0 SHL SUB AND DUP4 MSTORE DUP3 ADD SWAP3 SWAP1 SWAP3 MSTORE PUSH1 0x40 ADD SWAP1 KECCAK256 PUSH1 0x3 ADD SLOAD PUSH1 0xFF AND DUP1 ISZERO PUSH2 0x28CF JUMPI POP PUSH1 0x14 PUSH1 0x0 PUSH1 0x10 DUP4 DUP2 SLOAD DUP2 LT PUSH2 0x28A5 JUMPI PUSH2 0x28A5 PUSH2 0x3870 JUMP JUMPDEST PUSH1 0x0 SWAP2 DUP3 MSTORE PUSH1 0x20 DUP1 DUP4 KECCAK256 SWAP1 SWAP2 ADD SLOAD PUSH1 0x1 PUSH1 0x1 PUSH1 0xA0 SHL SUB AND DUP4 MSTORE DUP3 ADD SWAP3 SWAP1 SWAP3 MSTORE PUSH1 0x40 ADD SWAP1 KECCAK256 SLOAD PUSH1 0xFF AND ISZERO JUMPDEST ISZERO PUSH2 0x28E2 JUMPI DUP2 PUSH2 0x28DE DUP2 PUSH2 0x371B JUMP JUMPDEST SWAP3 POP POP JUMPDEST DUP1 PUSH2 0x28EC DUP2 PUSH2 0x371B JUMP JUMPDEST SWAP2 POP POP PUSH2 0x283B JUMP JUMPDEST POP PUSH1 0x0 DUP2 PUSH1 0x1 PUSH1 0x1 PUSH1 0x40 SHL SUB DUP2 GT ISZERO PUSH2 0x290F JUMPI PUSH2 0x290F PUSH2 0x32AC JUMP JUMPDEST PUSH1 0x40 MLOAD SWAP1 DUP1 DUP3 MSTORE DUP1 PUSH1 0x20 MUL PUSH1 0x20 ADD DUP3 ADD PUSH1 0x40 MSTORE DUP1 ISZERO PUSH2 0x2938 JUMPI DUP2 PUSH1 0x20 ADD PUSH1 0x20 DUP3 MUL DUP1 CALLDATASIZE DUP4 CALLDATACOPY ADD SWAP1 POP JUMPDEST POP SWAP1 POP PUSH1 0x0 DUP1 JUMPDEST PUSH1 0x10 SLOAD DUP2 LT ISZERO PUSH2 0x2A02 JUMPI PUSH1 0x0 PUSH1 0x10 DUP3 DUP2 SLOAD DUP2 LT PUSH2 0x295E JUMPI PUSH2 0x295E PUSH2 0x3870 JUMP JUMPDEST PUSH1 0x0 SWAP2 DUP3 MSTORE PUSH1 0x20 DUP1 DUP4 KECCAK256 SWAP1 SWAP2 ADD SLOAD PUSH1 0x1 PUSH1 0x1 PUSH1 0xA0 SHL SUB AND DUP1 DUP4 MSTORE PUSH1 0x11 SWAP1 SWAP2 MSTORE PUSH1 0x40 SWAP1 SWAP2 KECCAK256 PUSH1 0x3 ADD SLOAD SWAP1 SWAP2 POP PUSH1 0xFF AND DUP1 ISZERO PUSH2 0x29B1 JUMPI POP PUSH1 0x1 PUSH1 0x1 PUSH1 0xA0 SHL SUB DUP2 AND PUSH1 0x0 SWAP1 DUP2 MSTORE PUSH1 0x14 PUSH1 0x20 MSTORE PUSH1 0x40 SWAP1 KECCAK256 SLOAD PUSH1 0xFF AND ISZERO JUMPDEST ISZERO PUSH2 0x29EF JUMPI DUP1 DUP5 DUP5 DUP2 MLOAD DUP2 LT PUSH2 0x29C9 JUMPI PUSH2 0x29C9 PUSH2 0x3870 JUMP JUMPDEST PUSH1 0x1 PUSH1 0x1 PUSH1 0xA0 SHL SUB SWAP1 SWAP3 AND PUSH1 0x20 SWAP3 DUP4 MUL SWAP2 SWAP1 SWAP2 ADD SWAP1 SWAP2 ADD MSTORE DUP3 PUSH2 0x29EB DUP2 PUSH2 0x371B JUMP JUMPDEST SWAP4 POP POP JUMPDEST POP DUP1 PUSH2 0x29FA DUP2 PUSH2 0x371B JUMP JUMPDEST SWAP2 POP POP PUSH2 0x293F JUMP JUMPDEST POP SWAP1 SWAP4 SWAP3 POP POP POP JUMP JUMPDEST PUSH1 0x60 PUSH1 0x0 DUP1 JUMPDEST PUSH1 0x13 SLOAD DUP2 LT ISZERO PUSH2 0x2A7F JUMPI PUSH1 0xC PUSH1 0x0 PUSH1 0x13 DUP4 DUP2 SLOAD DUP2 LT PUSH2 0x2A32 JUMPI PUSH2 0x2A32 PUSH2 0x3870 JUMP JUMPDEST PUSH1 0x0 SWAP2 DUP3 MSTORE PUSH1 0x20 DUP1 DUP4 KECCAK256 SWAP1 SWAP2 ADD SLOAD PUSH1 0x1 PUSH1 0x1 PUSH1 0xA0 SHL SUB AND DUP4 MSTORE DUP3 ADD SWAP3 SWAP1 SWAP3 MSTORE PUSH1 0x40 ADD SWAP1 KECCAK256 SLOAD PUSH1 0xFF AND ISZERO PUSH2 0x2A6D JUMPI DUP2 PUSH2 0x2A69 DUP2 PUSH2 0x371B JUMP JUMPDEST SWAP3 POP POP JUMPDEST DUP1 PUSH2 0x2A77 DUP2 PUSH2 0x371B JUMP JUMPDEST SWAP2 POP POP PUSH2 0x2A11 JUMP JUMPDEST POP PUSH1 0x0 DUP2 PUSH1 0x1 PUSH1 0x1 PUSH1 0x40 SHL SUB DUP2 GT ISZERO PUSH2 0x2A9A JUMPI PUSH2 0x2A9A PUSH2 0x32AC JUMP JUMPDEST PUSH1 0x40 MLOAD SWAP1 DUP1 DUP3 MSTORE DUP1 PUSH1 0x20 MUL PUSH1 0x20 ADD DUP3 ADD PUSH1 0x40 MSTORE DUP1 ISZERO PUSH2 0x2AC3 JUMPI DUP2 PUSH1 0x20 ADD PUSH1 0x20 DUP3 MUL DUP1 CALLDATASIZE DUP4 CALLDATACOPY ADD SWAP1 POP JUMPDEST POP SWAP1 POP PUSH1 0x0 DUP1 JUMPDEST PUSH1 0x13 SLOAD DUP2 LT ISZERO PUSH2 0x2A02 JUMPI PUSH1 0xC PUSH1 0x0 PUSH1 0x13 DUP4 DUP2 SLOAD DUP2 LT PUSH2 0x2AEB JUMPI PUSH2 0x2AEB PUSH2 0x3870 JUMP JUMPDEST PUSH1 0x0 SWAP2 DUP3 MSTORE PUSH1 0x20 DUP1 DUP4 KECCAK256 SWAP1 SWAP2 ADD SLOAD PUSH1 0x1 PUSH1 0x1 PUSH1 0xA0 SHL SUB AND DUP4 MSTORE DUP3 ADD SWAP3 SWAP1 SWAP3 MSTORE PUSH1 0x40 ADD SWAP1 KECCAK256 SLOAD PUSH1 0xFF AND ISZERO PUSH2 0x2B81 JUMPI PUSH1 0x13 DUP2 DUP2 SLOAD DUP2 LT PUSH2 0x2B2B JUMPI PUSH2 0x2B2B PUSH2 0x3870 JUMP JUMPDEST SWAP1 PUSH1 0x0 MSTORE PUSH1 0x20 PUSH1 0x0 KECCAK256 ADD PUSH1 0x0 SWAP1 SLOAD SWAP1 PUSH2 0x100 EXP SWAP1 DIV PUSH1 0x1 PUSH1 0x1 PUSH1 0xA0 SHL SUB AND DUP4 DUP4 DUP2 MLOAD DUP2 LT PUSH2 0x2B5B JUMPI PUSH2 0x2B5B PUSH2 0x3870 JUMP JUMPDEST PUSH1 0x1 PUSH1 0x1 PUSH1 0xA0 SHL SUB SWAP1 SWAP3 AND PUSH1 0x20 SWAP3 DUP4 MUL SWAP2 SWAP1 SWAP2 ADD SWAP1 SWAP2 ADD MSTORE DUP2 PUSH2 0x2B7D DUP2 PUSH2 0x371B JUMP JUMPDEST SWAP3 POP POP JUMPDEST DUP1 PUSH2 0x2B8B DUP2 PUSH2 0x371B JUMP JUMPDEST SWAP2 POP POP PUSH2 0x2ACA JUMP JUMPDEST CALLER PUSH1 0x1 PUSH1 0x1 PUSH1 0xA0 SHL SUB PUSH32 0x0 AND EQ PUSH2 0x2BDB JUMPI PUSH1 0x40 MLOAD PUSH3 0x461BCD PUSH1 0xE5 SHL DUP2 MSTORE PUSH1 0x4 ADD PUSH2 0x817 SWAP1 PUSH2 0x34A3 JUMP JUMPDEST PUSH1 0xF SLOAD PUSH2 0x100 SWAP1 DIV PUSH1 0xFF AND ISZERO PUSH2 0x2C03 JUMPI PUSH1 0x40 MLOAD PUSH3 0x461BCD PUSH1 0xE5 SHL DUP2 MSTORE PUSH1 0x4 ADD PUSH2 0x817 SWAP1 PUSH2 0x34CA JUMP JUMPDEST PUSH1 0x1 PUSH1 0x1 PUSH1 0xA0 SHL SUB DUP2 AND PUSH2 0x2C46 JUMPI PUSH1 0x40 MLOAD PUSH3 0x461BCD PUSH1 0xE5 SHL DUP2 MSTORE PUSH1 0x20 PUSH1 0x4 DUP3 ADD MSTORE PUSH1 0xA PUSH1 0x24 DUP3 ADD MSTORE PUSH10 0x2130B2103BB7B935B2B9 PUSH1 0xB1 SHL PUSH1 0x44 DUP3 ADD MSTORE PUSH1 0x64 ADD PUSH2 0x817 JUMP JUMPDEST PUSH1 0x1 PUSH1 0x1 PUSH1 0xA0 SHL SUB DUP2 AND PUSH1 0x0 SWAP1 DUP2 MSTORE PUSH1 0x14 PUSH1 0x20 MSTORE PUSH1 0x40 SWAP1 KECCAK256 SLOAD PUSH1 0xFF AND ISZERO PUSH2 0x2CA2 JUMPI PUSH1 0x40 MLOAD PUSH3 0x461BCD PUSH1 0xE5 SHL DUP2 MSTORE PUSH1 0x20 PUSH1 0x4 DUP3 ADD MSTORE PUSH1 0x10 PUSH1 0x24 DUP3 ADD MSTORE PUSH16 0x105B1C9958591E48185CDCDA59DB9959 PUSH1 0x82 SHL PUSH1 0x44 DUP3 ADD MSTORE PUSH1 0x64 ADD PUSH2 0x817 JUMP JUMPDEST PUSH1 0x3 SLOAD PUSH1 0x13 SLOAD LT PUSH2 0x2CC5 JUMPI PUSH1 0x40 MLOAD PUSH3 0x461BCD PUSH1 0xE5 SHL DUP2 MSTORE PUSH1 0x4 ADD PUSH2 0x817 SWAP1 PUSH2 0x3842 JUMP JUMPDEST PUSH1 0x1 PUSH1 0x1 PUSH1 0xA0 SHL SUB DUP2 AND PUSH1 0x0 DUP2 DUP2 MSTORE PUSH1 0x14 PUSH1 0x20 SWAP1 DUP2 MSTORE PUSH1 0x40 DUP1 DUP4 KECCAK256 DUP1 SLOAD PUSH1 0x1 PUSH1 0xFF NOT SWAP2 DUP3 AND DUP2 OR SWAP1 SWAP3 SSTORE PUSH1 0x15 DUP5 MSTORE DUP3 DUP6 KECCAK256 DUP1 SLOAD SWAP1 SWAP2 AND DUP3 OR SWAP1 SSTORE PUSH1 0x13 DUP1 SLOAD SWAP2 DUP3 ADD SWAP1 SSTORE PUSH32 0x66DE8FFDA797E3DE9C05E8FC57B3BF0EC28A930D40B0D285D93C06501CF6A090 ADD DUP1 SLOAD PUSH1 0x1 PUSH1 0x1 PUSH1 0xA0 SHL SUB NOT AND SWAP1 SWAP5 OR SWAP1 SWAP4 SSTORE PUSH1 0x12 SWAP1 MSTORE KECCAK256 SLOAD PUSH1 0xFF AND ISZERO PUSH2 0x2DE1 JUMPI PUSH1 0x1 PUSH1 0x1 PUSH1 0xA0 SHL SUB DUP2 AND PUSH1 0x0 SWAP1 DUP2 MSTORE PUSH1 0x11 PUSH1 0x20 MSTORE PUSH1 0x40 DUP2 KECCAK256 PUSH1 0x3 DUP2 ADD DUP1 SLOAD PUSH2 0xFFFF NOT AND PUSH2 0x100 OR SWAP1 SSTORE PUSH1 0x5 DUP2 ADD DUP1 SLOAD PUSH1 0xFF NOT AND PUSH1 0x1 OR SWAP1 SSTORE PUSH1 0x4 ADD SLOAD SWAP1 SUB PUSH2 0x2DAC JUMPI PUSH1 0x1 PUSH1 0x1 PUSH1 0xA0 SHL SUB DUP2 AND PUSH1 0x0 SWAP1 DUP2 MSTORE PUSH1 0x11 PUSH1 0x20 MSTORE PUSH1 0x40 SWAP1 KECCAK256 TIMESTAMP PUSH1 0x4 SWAP1 SWAP2 ADD SSTORE JUMPDEST PUSH1 0x40 MLOAD PUSH1 0x1 PUSH1 0x1 PUSH1 0xA0 SHL SUB DUP3 AND SWAP1 PUSH32 0x485AF27643B0F91058287EB2AA76B88703036E31298F4A07F7EFBBBF7FFA5F8B SWAP1 PUSH1 0x0 SWAP1 LOG2 JUMPDEST PUSH1 0x40 MLOAD PUSH1 0x1 PUSH1 0x1 PUSH1 0xA0 SHL SUB DUP3 AND SWAP1 PUSH32 0x9F4C97600AC649EABE56724216338E96FE75493563DC37A3E489A8C46228D756 SWAP1 PUSH1 0x0 SWAP1 LOG2 POP JUMP JUMPDEST CALLER PUSH1 0x1 PUSH1 0x1 PUSH1 0xA0 SHL SUB PUSH32 0x0 AND EQ PUSH2 0x2E60 JUMPI PUSH1 0x40 MLOAD PUSH3 0x461BCD PUSH1 0xE5 SHL DUP2 MSTORE PUSH1 0x4 ADD PUSH2 0x817 SWAP1 PUSH2 0x34A3 JUMP JUMPDEST PUSH1 0xF SLOAD PUSH2 0x100 SWAP1 DIV PUSH1 0xFF AND ISZERO PUSH2 0x2E88 JUMPI PUSH1 0x40 MLOAD PUSH3 0x461BCD PUSH1 0xE5 SHL DUP2 MSTORE PUSH1 0x4 ADD PUSH2 0x817 SWAP1 PUSH2 0x34CA JUMP JUMPDEST PUSH1 0x1 PUSH1 0x1 PUSH1 0xA0 SHL SUB DUP3 AND PUSH1 0x0 SWAP1 DUP2 MSTORE PUSH1 0x14 PUSH1 0x20 MSTORE PUSH1 0x40 SWAP1 KECCAK256 SLOAD PUSH1 0xFF AND PUSH2 0x2EC0 JUMPI PUSH1 0x40 MLOAD PUSH3 0x461BCD PUSH1 0xE5 SHL DUP2 MSTORE PUSH1 0x4 ADD PUSH2 0x817 SWAP1 PUSH2 0x3886 JUMP JUMPDEST PUSH1 0x1 PUSH1 0x1 PUSH1 0xA0 SHL SUB DUP3 AND PUSH1 0x0 SWAP1 DUP2 MSTORE PUSH1 0xE PUSH1 0x20 MSTORE PUSH1 0x40 SWAP1 KECCAK256 SLOAD PUSH1 0xFF AND DUP1 PUSH2 0x2EE9 JUMPI POP PUSH1 0xF SLOAD PUSH1 0xFF AND JUMPDEST PUSH2 0x2F41 JUMPI PUSH1 0x40 MLOAD PUSH3 0x461BCD PUSH1 0xE5 SHL DUP2 MSTORE PUSH1 0x20 PUSH1 0x4 DUP3 ADD MSTORE PUSH1 0x23 PUSH1 0x24 DUP3 ADD MSTORE PUSH32 0x576F726B6572206861736E277420726563656976656420616C6C207061796D65 PUSH1 0x44 DUP3 ADD MSTORE PUSH3 0x6E7473 PUSH1 0xE8 SHL PUSH1 0x64 DUP3 ADD MSTORE PUSH1 0x84 ADD PUSH2 0x817 JUMP JUMPDEST PUSH1 0x1 PUSH1 0x1 PUSH1 0xA0 SHL SUB DUP3 AND PUSH1 0x0 SWAP1 DUP2 MSTORE PUSH1 0xB PUSH1 0x20 MSTORE PUSH1 0x40 SWAP1 KECCAK256 SLOAD PUSH1 0xFF AND ISZERO PUSH2 0x2FA6 JUMPI PUSH1 0x40 MLOAD PUSH3 0x461BCD PUSH1 0xE5 SHL DUP2 MSTORE PUSH1 0x20 PUSH1 0x4 DUP3 ADD MSTORE PUSH1 0x19 PUSH1 0x24 DUP3 ADD MSTORE PUSH25 0x20B63932B0B23C903930BA32B2103A3434B9903BB7B935B2B9 PUSH1 0x39 SHL PUSH1 0x44 DUP3 ADD MSTORE PUSH1 0x64 ADD PUSH2 0x817 JUMP JUMPDEST PUSH1 0x1 DUP2 PUSH1 0xFF AND LT ISZERO DUP1 ISZERO PUSH2 0x2FBE JUMPI POP PUSH1 0x5 DUP2 PUSH1 0xFF AND GT ISZERO JUMPDEST PUSH2 0x2FDA JUMPI PUSH1 0x40 MLOAD PUSH3 0x461BCD PUSH1 0xE5 SHL DUP2 MSTORE PUSH1 0x4 ADD PUSH2 0x817 SWAP1 PUSH2 0x38AC JUMP JUMPDEST PUSH1 0x1 PUSH1 0x1 PUSH1 0xA0 SHL SUB DUP1 DUP4 AND PUSH1 0x0 SWAP1 DUP2 MSTORE PUSH1 0xB PUSH1 0x20 MSTORE PUSH1 0x40 SWAP1 DUP2 SWAP1 KECCAK256 DUP1 SLOAD PUSH1 0xFF NOT AND PUSH1 0x1 OR SWAP1 SSTORE PUSH1 0x7 SLOAD SWAP1 MLOAD PUSH4 0x6BA0ED79 PUSH1 0xE1 SHL DUP2 MSTORE SWAP2 AND SWAP1 PUSH4 0xD741DAF2 SWAP1 PUSH2 0x3028 SWAP1 DUP6 SWAP1 DUP6 SWAP1 PUSH1 0x4 ADD PUSH2 0x38D7 JUMP JUMPDEST PUSH1 0x0 PUSH1 0x40 MLOAD DUP1 DUP4 SUB DUP2 PUSH1 0x0 DUP8 DUP1 EXTCODESIZE ISZERO DUP1 ISZERO PUSH2 0x3042 JUMPI PUSH1 0x0 DUP1 REVERT JUMPDEST POP GAS CALL ISZERO DUP1 ISZERO PUSH2 0x3056 JUMPI RETURNDATASIZE PUSH1 0x0 DUP1 RETURNDATACOPY RETURNDATASIZE PUSH1 0x0 REVERT JUMPDEST POP POP PUSH1 0x40 MLOAD PUSH1 0xFF DUP5 AND DUP2 MSTORE PUSH1 0x1 PUSH1 0x1 PUSH1 0xA0 SHL SUB DUP6 AND SWAP3 POP CALLER SWAP2 POP PUSH32 0xF679ED47D9D270FDBCC0841FA6AAADA363A11452A6629E5A49223B28FC083065 SWAP1 PUSH1 0x20 ADD PUSH1 0x40 MLOAD DUP1 SWAP2 SUB SWAP1 LOG3 POP POP JUMP JUMPDEST PUSH1 0x2 PUSH1 0x0 SLOAD SUB PUSH2 0x30C4 JUMPI PUSH1 0x40 MLOAD PUSH4 0x3EE5AEB5 PUSH1 0xE0 SHL DUP2 MSTORE PUSH1 0x4 ADD PUSH1 0x40 MLOAD DUP1 SWAP2 SUB SWAP1 REVERT JUMPDEST PUSH1 0x2 PUSH1 0x0 SSTORE JUMP JUMPDEST DUP1 CALLDATALOAD PUSH1 0x1 PUSH1 0x1 PUSH1 0xA0 SHL SUB DUP2 AND DUP2 EQ PUSH2 0x30E2 JUMPI PUSH1 0x0 DUP1 REVERT JUMPDEST SWAP2 SWAP1 POP JUMP JUMPDEST PUSH1 0x0 PUSH1 0x20 DUP3 DUP5 SUB SLT ISZERO PUSH2 0x30F9 JUMPI PUSH1 0x0 DUP1 REVERT JUMPDEST PUSH2 0x187F DUP3 PUSH2 0x30CB JUMP JUMPDEST PUSH1 0x0 PUSH1 0x20 DUP3 DUP5 SUB SLT ISZERO PUSH2 0x3114 JUMPI PUSH1 0x0 DUP1 REVERT JUMPDEST POP CALLDATALOAD SWAP2 SWAP1 POP JUMP JUMPDEST PUSH1 0x0 DUP2 MLOAD DUP1 DUP5 MSTORE PUSH1 0x0 JUMPDEST DUP2 DUP2 LT ISZERO PUSH2 0x3141 JUMPI PUSH1 0x20 DUP2 DUP6 ADD DUP2 ADD MLOAD DUP7 DUP4 ADD DUP3 ADD MSTORE ADD PUSH2 0x3125 JUMP JUMPDEST POP PUSH1 0x0 PUSH1 0x20 DUP3 DUP7 ADD ADD MSTORE PUSH1 0x20 PUSH1 0x1F NOT PUSH1 0x1F DUP4 ADD AND DUP6 ADD ADD SWAP2 POP POP SWAP3 SWAP2 POP POP JUMP JUMPDEST PUSH1 0x20 DUP2 MSTORE PUSH1 0x0 PUSH2 0x187F PUSH1 0x20 DUP4 ADD DUP5 PUSH2 0x311B JUMP JUMPDEST PUSH1 0x20 DUP1 DUP3 MSTORE DUP3 MLOAD DUP3 DUP3 ADD DUP2 SWAP1 MSTORE PUSH1 0x0 SWAP2 SWAP1 DUP5 DUP3 ADD SWAP1 PUSH1 0x40 DUP6 ADD SWAP1 DUP5 JUMPDEST DUP2 DUP2 LT ISZERO PUSH2 0x31B5 JUMPI DUP4 MLOAD PUSH1 0x1 PUSH1 0x1 PUSH1 0xA0 SHL SUB AND DUP4 MSTORE SWAP3 DUP5 ADD SWAP3 SWAP2 DUP5 ADD SWAP2 PUSH1 0x1 ADD PUSH2 0x3190 JUMP JUMPDEST POP SWAP1 SWAP7 SWAP6 POP POP POP POP POP POP JUMP JUMPDEST PUSH4 0x4E487B71 PUSH1 0xE0 SHL PUSH1 0x0 MSTORE PUSH1 0x21 PUSH1 0x4 MSTORE PUSH1 0x24 PUSH1 0x0 REVERT JUMPDEST PUSH1 0x1 PUSH1 0x1 PUSH1 0xA0 SHL SUB DUP9 AND DUP2 MSTORE PUSH1 0xE0 PUSH1 0x20 DUP3 ADD DUP2 SWAP1 MSTORE PUSH1 0x0 SWAP1 PUSH2 0x31FB SWAP1 DUP4 ADD DUP10 PUSH2 0x311B JUMP JUMPDEST SWAP1 POP DUP7 PUSH1 0x40 DUP4 ADD MSTORE DUP6 ISZERO ISZERO PUSH1 0x60 DUP4 ADD MSTORE PUSH1 0x4 DUP6 LT PUSH2 0x321B JUMPI PUSH2 0x321B PUSH2 0x31C1 JUMP JUMPDEST DUP5 PUSH1 0x80 DUP4 ADD MSTORE DUP4 PUSH1 0xA0 DUP4 ADD MSTORE DUP3 ISZERO ISZERO PUSH1 0xC0 DUP4 ADD MSTORE SWAP9 SWAP8 POP POP POP POP POP POP POP POP JUMP JUMPDEST PUSH1 0x0 DUP1 PUSH1 0x20 DUP4 DUP6 SUB SLT ISZERO PUSH2 0x324E JUMPI PUSH1 0x0 DUP1 REVERT JUMPDEST DUP3 CALLDATALOAD PUSH1 0x1 PUSH1 0x1 PUSH1 0x40 SHL SUB DUP1 DUP3 GT ISZERO PUSH2 0x3265 JUMPI PUSH1 0x0 DUP1 REVERT JUMPDEST DUP2 DUP6 ADD SWAP2 POP DUP6 PUSH1 0x1F DUP4 ADD SLT PUSH2 0x3279 JUMPI PUSH1 0x0 DUP1 REVERT JUMPDEST DUP2 CALLDATALOAD DUP2 DUP2 GT ISZERO PUSH2 0x3288 JUMPI PUSH1 0x0 DUP1 REVERT JUMPDEST DUP7 PUSH1 0x20 DUP3 DUP6 ADD ADD GT ISZERO PUSH2 0x329A JUMPI PUSH1 0x0 DUP1 REVERT JUMPDEST PUSH1 0x20 SWAP3 SWAP1 SWAP3 ADD SWAP7 SWAP2 SWAP6 POP SWAP1 SWAP4 POP POP POP POP JUMP JUMPDEST PUSH4 0x4E487B71 PUSH1 0xE0 SHL PUSH1 0x0 MSTORE PUSH1 0x41 PUSH1 0x4 MSTORE PUSH1 0x24 PUSH1 0x0 REVERT JUMPDEST PUSH1 0x0 PUSH1 0x20 DUP3 DUP5 SUB SLT ISZERO PUSH2 0x32D4 JUMPI PUSH1 0x0 DUP1 REVERT JUMPDEST DUP2 CALLDATALOAD PUSH1 0x1 PUSH1 0x1 PUSH1 0x40 SHL SUB DUP1 DUP3 GT ISZERO PUSH2 0x32EB JUMPI PUSH1 0x0 DUP1 REVERT JUMPDEST DUP2 DUP5 ADD SWAP2 POP DUP5 PUSH1 0x1F DUP4 ADD SLT PUSH2 0x32FF JUMPI PUSH1 0x0 DUP1 REVERT JUMPDEST DUP2 CALLDATALOAD DUP2 DUP2 GT ISZERO PUSH2 0x3311 JUMPI PUSH2 0x3311 PUSH2 0x32AC JUMP JUMPDEST PUSH1 0x40 MLOAD PUSH1 0x1F DUP3 ADD PUSH1 0x1F NOT SWAP1 DUP2 AND PUSH1 0x3F ADD AND DUP2 ADD SWAP1 DUP4 DUP3 GT DUP2 DUP4 LT OR ISZERO PUSH2 0x3339 JUMPI PUSH2 0x3339 PUSH2 0x32AC JUMP JUMPDEST DUP2 PUSH1 0x40 MSTORE DUP3 DUP2 MSTORE DUP8 PUSH1 0x20 DUP5 DUP8 ADD ADD GT ISZERO PUSH2 0x3352 JUMPI PUSH1 0x0 DUP1 REVERT JUMPDEST DUP3 PUSH1 0x20 DUP7 ADD PUSH1 0x20 DUP4 ADD CALLDATACOPY PUSH1 0x0 SWAP3 DUP2 ADD PUSH1 0x20 ADD SWAP3 SWAP1 SWAP3 MSTORE POP SWAP6 SWAP5 POP POP POP POP POP JUMP JUMPDEST PUSH1 0x20 DUP2 ADD PUSH1 0x2 DUP4 LT PUSH2 0x3386 JUMPI PUSH2 0x3386 PUSH2 0x31C1 JUMP JUMPDEST SWAP2 SWAP1 MSTORE SWAP1 JUMP JUMPDEST PUSH1 0x0 PUSH1 0x20 DUP3 DUP5 SUB SLT ISZERO PUSH2 0x339E JUMPI PUSH1 0x0 DUP1 REVERT JUMPDEST DUP2 CALLDATALOAD DUP1 ISZERO ISZERO DUP2 EQ PUSH2 0x187F JUMPI PUSH1 0x0 DUP1 REVERT JUMPDEST DUP1 CALLDATALOAD PUSH1 0xFF DUP2 AND DUP2 EQ PUSH2 0x30E2 JUMPI PUSH1 0x0 DUP1 REVERT JUMPDEST PUSH1 0x0 PUSH1 0x20 DUP3 DUP5 SUB SLT ISZERO PUSH2 0x33D1 JUMPI PUSH1 0x0 DUP1 REVERT JUMPDEST PUSH2 0x187F DUP3 PUSH2 0x33AE JUMP JUMPDEST PUSH1 0x0 DUP1 PUSH1 0x40 DUP4 DUP6 SUB SLT ISZERO PUSH2 0x33ED JUMPI PUSH1 0x0 DUP1 REVERT JUMPDEST PUSH2 0x33F6 DUP4 PUSH2 0x30CB JUMP JUMPDEST SWAP2 POP PUSH2 0x3404 PUSH1 0x20 DUP5 ADD PUSH2 0x33AE JUMP JUMPDEST SWAP1 POP SWAP3 POP SWAP3 SWAP1 POP JUMP JUMPDEST PUSH1 0x20 DUP1 DUP3 MSTORE PUSH1 0x14 SWAP1 DUP3 ADD MSTORE PUSH20 0x139BC8185C1C1B1A58D85D1A5BDB88199BDD5B99 PUSH1 0x62 SHL PUSH1 0x40 DUP3 ADD MSTORE PUSH1 0x60 ADD SWAP1 JUMP JUMPDEST PUSH1 0x20 DUP1 DUP3 MSTORE PUSH1 0x1A SWAP1 DUP3 ADD MSTORE PUSH26 0x20B63932B0B23C9030B9B9B4B3B732B21030B9903BB7B935B2B9 PUSH1 0x31 SHL PUSH1 0x40 DUP3 ADD MSTORE PUSH1 0x60 ADD SWAP1 JUMP JUMPDEST PUSH1 0x1 DUP2 DUP2 SHR SWAP1 DUP3 AND DUP1 PUSH2 0x3483 JUMPI PUSH1 0x7F DUP3 AND SWAP2 POP JUMPDEST PUSH1 0x20 DUP3 LT DUP2 SUB PUSH2 0x21C5 JUMPI PUSH4 0x4E487B71 PUSH1 0xE0 SHL PUSH1 0x0 MSTORE PUSH1 0x22 PUSH1 0x4 MSTORE PUSH1 0x24 PUSH1 0x0 REVERT JUMPDEST PUSH1 0x20 DUP1 DUP3 MSTORE PUSH1 0xD SWAP1 DUP3 ADD MSTORE PUSH13 0x27B7363C9032B6B83637BCB2B9 PUSH1 0x99 SHL PUSH1 0x40 DUP3 ADD MSTORE PUSH1 0x60 ADD SWAP1 JUMP JUMPDEST PUSH1 0x20 DUP1 DUP3 MSTORE PUSH1 0x16 SWAP1 DUP3 ADD MSTORE PUSH22 0x129BD8881A185CC81899595B8818D85B98D95B1B1959 PUSH1 0x52 SHL PUSH1 0x40 DUP3 ADD MSTORE PUSH1 0x60 ADD SWAP1 JUMP JUMPDEST PUSH1 0x20 DUP1 DUP3 MSTORE PUSH1 0x16 SWAP1 DUP3 ADD MSTORE PUSH22 0x4170706C69636174696F6E206E6F7420616374697665 PUSH1 0x50 SHL PUSH1 0x40 DUP3 ADD MSTORE PUSH1 0x60 ADD SWAP1 JUMP JUMPDEST PUSH1 0x20 DUP1 DUP3 MSTORE PUSH1 0xB SWAP1 DUP3 ADD MSTORE PUSH11 0x2737BA1037B73296B7B333 PUSH1 0xA9 SHL PUSH1 0x40 DUP3 ADD MSTORE PUSH1 0x60 ADD SWAP1 JUMP JUMPDEST PUSH1 0x20 DUP1 DUP3 MSTORE PUSH1 0xC SWAP1 DUP3 ADD MSTORE PUSH12 0x139BDD08185CDCDA59DB9959 PUSH1 0xA2 SHL PUSH1 0x40 DUP3 ADD MSTORE PUSH1 0x60 ADD SWAP1 JUMP JUMPDEST PUSH1 0x20 DUP1 DUP3 MSTORE PUSH1 0x8 SWAP1 DUP3 ADD MSTORE PUSH8 0x496E616374697665 PUSH1 0xC0 SHL PUSH1 0x40 DUP3 ADD MSTORE PUSH1 0x60 ADD SWAP1 JUMP JUMPDEST PUSH1 0x20 DUP1 DUP3 MSTORE PUSH1 0x12 SWAP1 DUP3 ADD MSTORE PUSH18 0x139BC81C185E5B595B9D081C995C5D595CDD PUSH1 0x72 SHL PUSH1 0x40 DUP3 ADD MSTORE PUSH1 0x60 ADD SWAP1 JUMP JUMPDEST PUSH1 0x20 DUP1 DUP3 MSTORE PUSH1 0xA SWAP1 DUP3 ADD MSTORE PUSH10 0x14185E4819985A5B1959 PUSH1 0xB2 SHL PUSH1 0x40 DUP3 ADD MSTORE PUSH1 0x60 ADD SWAP1 JUMP JUMPDEST PUSH1 0x1 PUSH1 0x1 PUSH1 0xA0 SHL SUB SWAP3 SWAP1 SWAP3 AND DUP3 MSTORE PUSH1 0x20 DUP3 ADD MSTORE PUSH1 0x40 ADD SWAP1 JUMP JUMPDEST DUP2 DUP4 MSTORE DUP2 DUP2 PUSH1 0x20 DUP6 ADD CALLDATACOPY POP PUSH1 0x0 DUP3 DUP3 ADD PUSH1 0x20 SWAP1 DUP2 ADD SWAP2 SWAP1 SWAP2 MSTORE PUSH1 0x1F SWAP1 SWAP2 ADD PUSH1 0x1F NOT AND SWAP1 SWAP2 ADD ADD SWAP1 JUMP JUMPDEST PUSH1 0x1 PUSH1 0x1 PUSH1 0xA0 SHL SUB DUP5 AND DUP2 MSTORE PUSH1 0x40 PUSH1 0x20 DUP3 ADD DUP2 SWAP1 MSTORE PUSH1 0x0 SWAP1 PUSH2 0x364E SWAP1 DUP4 ADD DUP5 DUP7 PUSH2 0x3600 JUMP JUMPDEST SWAP6 SWAP5 POP POP POP POP POP JUMP JUMPDEST PUSH1 0x0 PUSH1 0x20 DUP3 DUP5 SUB SLT ISZERO PUSH2 0x3669 JUMPI PUSH1 0x0 DUP1 REVERT JUMPDEST POP MLOAD SWAP2 SWAP1 POP JUMP JUMPDEST DUP4 DUP2 MSTORE PUSH1 0x40 PUSH1 0x20 DUP3 ADD MSTORE PUSH1 0x0 PUSH2 0x364E PUSH1 0x40 DUP4 ADD DUP5 DUP7 PUSH2 0x3600 JUMP JUMPDEST PUSH1 0x20 DUP1 DUP3 MSTORE PUSH1 0xA SWAP1 DUP3 ADD MSTORE PUSH10 0x4E6F74207765656B6C79 PUSH1 0xB0 SHL PUSH1 0x40 DUP3 ADD MSTORE PUSH1 0x60 ADD SWAP1 JUMP JUMPDEST PUSH4 0x4E487B71 PUSH1 0xE0 SHL PUSH1 0x0 MSTORE PUSH1 0x11 PUSH1 0x4 MSTORE PUSH1 0x24 PUSH1 0x0 REVERT JUMPDEST DUP1 DUP3 ADD DUP1 DUP3 GT ISZERO PUSH2 0x11D8 JUMPI PUSH2 0x11D8 PUSH2 0x36AE JUMP JUMPDEST PUSH1 0x20 DUP1 DUP3 MSTORE PUSH1 0x8 SWAP1 DUP3 ADD MSTORE PUSH8 0x2A37B79039B7B7B7 PUSH1 0xC1 SHL PUSH1 0x40 DUP3 ADD MSTORE PUSH1 0x60 ADD SWAP1 JUMP JUMPDEST PUSH1 0x20 DUP1 DUP3 MSTORE PUSH1 0x8 SWAP1 DUP3 ADD MSTORE PUSH8 0x105B1B081C185A59 PUSH1 0xC2 SHL PUSH1 0x40 DUP3 ADD MSTORE PUSH1 0x60 ADD SWAP1 JUMP JUMPDEST PUSH1 0x0 PUSH1 0x1 DUP3 ADD PUSH2 0x372D JUMPI PUSH2 0x372D PUSH2 0x36AE JUMP JUMPDEST POP PUSH1 0x1 ADD SWAP1 JUMP JUMPDEST PUSH1 0x1F DUP3 GT ISZERO PUSH2 0x377E JUMPI PUSH1 0x0 DUP2 DUP2 MSTORE PUSH1 0x20 DUP2 KECCAK256 PUSH1 0x1F DUP6 ADD PUSH1 0x5 SHR DUP2 ADD PUSH1 0x20 DUP7 LT ISZERO PUSH2 0x375B JUMPI POP DUP1 JUMPDEST PUSH1 0x1F DUP6 ADD PUSH1 0x5 SHR DUP3 ADD SWAP2 POP JUMPDEST DUP2 DUP2 LT ISZERO PUSH2 0x377A JUMPI DUP3 DUP2 SSTORE PUSH1 0x1 ADD PUSH2 0x3767 JUMP JUMPDEST POP POP POP JUMPDEST POP POP POP JUMP JUMPDEST DUP2 MLOAD PUSH1 0x1 PUSH1 0x1 PUSH1 0x40 SHL SUB DUP2 GT ISZERO PUSH2 0x379C JUMPI PUSH2 0x379C PUSH2 0x32AC JUMP JUMPDEST PUSH2 0x37B0 DUP2 PUSH2 0x37AA DUP5 SLOAD PUSH2 0x346F JUMP JUMPDEST DUP5 PUSH2 0x3734 JUMP JUMPDEST PUSH1 0x20 DUP1 PUSH1 0x1F DUP4 GT PUSH1 0x1 DUP2 EQ PUSH2 0x37E5 JUMPI PUSH1 0x0 DUP5 ISZERO PUSH2 0x37CD JUMPI POP DUP6 DUP4 ADD MLOAD JUMPDEST PUSH1 0x0 NOT PUSH1 0x3 DUP7 SWAP1 SHL SHR NOT AND PUSH1 0x1 DUP6 SWAP1 SHL OR DUP6 SSTORE PUSH2 0x377A JUMP JUMPDEST PUSH1 0x0 DUP6 DUP2 MSTORE PUSH1 0x20 DUP2 KECCAK256 PUSH1 0x1F NOT DUP7 AND SWAP2 JUMPDEST DUP3 DUP2 LT ISZERO PUSH2 0x3814 JUMPI DUP9 DUP7 ADD MLOAD DUP3 SSTORE SWAP5 DUP5 ADD SWAP5 PUSH1 0x1 SWAP1 SWAP2 ADD SWAP1 DUP5 ADD PUSH2 0x37F5 JUMP JUMPDEST POP DUP6 DUP3 LT ISZERO PUSH2 0x3832 JUMPI DUP8 DUP6 ADD MLOAD PUSH1 0x0 NOT PUSH1 0x3 DUP9 SWAP1 SHL PUSH1 0xF8 AND SHR NOT AND DUP2 SSTORE JUMPDEST POP POP POP POP POP PUSH1 0x1 SWAP1 DUP2 SHL ADD SWAP1 SSTORE POP JUMP JUMPDEST PUSH1 0x20 DUP1 DUP3 MSTORE PUSH1 0x14 SWAP1 DUP3 ADD MSTORE PUSH20 0x13585E081C1BDCDA5D1A5BDB9CC8199A5B1B1959 PUSH1 0x62 SHL PUSH1 0x40 DUP3 ADD MSTORE PUSH1 0x60 ADD SWAP1 JUMP JUMPDEST PUSH4 0x4E487B71 PUSH1 0xE0 SHL PUSH1 0x0 MSTORE PUSH1 0x32 PUSH1 0x4 MSTORE PUSH1 0x24 PUSH1 0x0 REVERT JUMPDEST PUSH1 0x20 DUP1 DUP3 MSTORE PUSH1 0xC SWAP1 DUP3 ADD MSTORE PUSH12 0x2737BA1030903BB7B935B2B9 PUSH1 0xA1 SHL PUSH1 0x40 DUP3 ADD MSTORE PUSH1 0x60 ADD SWAP1 JUMP JUMPDEST PUSH1 0x20 DUP1 DUP3 MSTORE PUSH1 0x11 SWAP1 DUP3 ADD MSTORE PUSH17 0x53636F7265206D75737420626520312D35 PUSH1 0x78 SHL PUSH1 0x40 DUP3 ADD MSTORE PUSH1 0x60 ADD SWAP1 JUMP JUMPDEST PUSH1 0x1 PUSH1 0x1 PUSH1 0xA0 SHL SUB SWAP3 SWAP1 SWAP3 AND DUP3 MSTORE PUSH1 0xFF AND PUSH1 0x20 DUP3 ADD MSTORE PUSH1 0x40 ADD SWAP1 JUMP INVALID LOG2 PUSH5 0x6970667358 0x22 SLT KECCAK256 0x27 SELFBALANCE 0xDE REVERT SGT DIV 0xDB PUSH32 0xF95766BAB731E270A524400205FB98844546F44D93B050A864736F6C63430008 EQ STOP CALLER PUSH1 0x80 PUSH1 0x40 MSTORE CALLVALUE DUP1 ISZERO PUSH2 0x10 JUMPI PUSH1 0x0 DUP1 REVERT JUMPDEST POP PUSH1 0x40 MLOAD PUSH2 0x975 CODESIZE SUB DUP1 PUSH2 0x975 DUP4 CODECOPY DUP2 ADD PUSH1 0x40 DUP2 SWAP1 MSTORE PUSH2 0x2F SWAP2 PUSH2 0x54 JUMP JUMPDEST PUSH1 0x0 DUP1 SLOAD PUSH1 0x1 PUSH1 0x1 PUSH1 0xA0 SHL SUB NOT AND PUSH1 0x1 PUSH1 0x1 PUSH1 0xA0 SHL SUB SWAP3 SWAP1 SWAP3 AND SWAP2 SWAP1 SWAP2 OR SWAP1 SSTORE PUSH2 0x84 JUMP JUMPDEST PUSH1 0x0 PUSH1 0x20 DUP3 DUP5 SUB SLT ISZERO PUSH2 0x66 JUMPI PUSH1 0x0 DUP1 REVERT JUMPDEST DUP2 MLOAD PUSH1 0x1 PUSH1 0x1 PUSH1 0xA0 SHL SUB DUP2 AND DUP2 EQ PUSH2 0x7D JUMPI PUSH1 0x0 DUP1 REVERT JUMPDEST SWAP4 SWAP3 POP POP POP JUMP JUMPDEST PUSH2 0x8E2 DUP1 PUSH2 0x93 PUSH1 0x0 CODECOPY PUSH1 0x0 RETURN INVALID PUSH1 0x80 PUSH1 0x40 MSTORE CALLVALUE DUP1 ISZERO PUSH2 0x10 JUMPI PUSH1 0x0 DUP1 REVERT JUMPDEST POP PUSH1 0x4 CALLDATASIZE LT PUSH2 0x83 JUMPI PUSH1 0x0 CALLDATALOAD PUSH1 0xE0 SHR DUP1 PUSH4 0x7DAFEB54 EQ PUSH2 0x88 JUMPI DUP1 PUSH4 0x993AA627 EQ PUSH2 0xFF JUMPI DUP1 PUSH4 0xA27CAEB7 EQ PUSH2 0x11F JUMPI DUP1 PUSH4 0xAFD86A76 EQ PUSH2 0x134 JUMPI DUP1 PUSH4 0xBACCBFDB EQ PUSH2 0x15F JUMPI DUP1 PUSH4 0xC8B67522 EQ PUSH2 0x18D JUMPI DUP1 PUSH4 0xD741DAF2 EQ PUSH2 0x1B5 JUMPI DUP1 PUSH4 0xEB73D2BA EQ PUSH2 0x1C8 JUMPI DUP1 PUSH4 0xF8B11691 EQ PUSH2 0x1EB JUMPI JUMPDEST PUSH1 0x0 DUP1 REVERT JUMPDEST PUSH2 0xD9 PUSH2 0x96 CALLDATASIZE PUSH1 0x4 PUSH2 0x6F4 JUMP JUMPDEST PUSH1 0x1 PUSH1 0x1 PUSH1 0xA0 SHL SUB SWAP1 DUP2 AND PUSH1 0x0 SWAP1 DUP2 MSTORE PUSH1 0x1 PUSH1 0x20 DUP2 DUP2 MSTORE PUSH1 0x40 DUP1 DUP5 KECCAK256 SWAP6 SWAP1 SWAP5 AND DUP4 MSTORE PUSH1 0x3 SWAP1 SWAP5 ADD SWAP1 SWAP4 MSTORE KECCAK256 DUP1 SLOAD SWAP2 DUP2 ADD SLOAD PUSH1 0x2 SWAP1 SWAP2 ADD SLOAD PUSH1 0xFF SWAP3 DUP4 AND SWAP4 SWAP2 SWAP3 AND SWAP1 JUMP JUMPDEST PUSH1 0x40 DUP1 MLOAD PUSH1 0xFF SWAP1 SWAP5 AND DUP5 MSTORE PUSH1 0x20 DUP5 ADD SWAP3 SWAP1 SWAP3 MSTORE ISZERO ISZERO SWAP1 DUP3 ADD MSTORE PUSH1 0x60 ADD JUMPDEST PUSH1 0x40 MLOAD DUP1 SWAP2 SUB SWAP1 RETURN JUMPDEST PUSH2 0x112 PUSH2 0x10D CALLDATASIZE PUSH1 0x4 PUSH2 0x727 JUMP JUMPDEST PUSH2 0x219 JUMP JUMPDEST PUSH1 0x40 MLOAD PUSH2 0xF6 SWAP2 SWAP1 PUSH2 0x749 JUMP JUMPDEST PUSH2 0x132 PUSH2 0x12D CALLDATASIZE PUSH1 0x4 PUSH2 0x796 JUMP JUMPDEST PUSH2 0x292 JUMP JUMPDEST STOP JUMPDEST PUSH1 0x0 SLOAD PUSH2 0x147 SWAP1 PUSH1 0x1 PUSH1 0x1 PUSH1 0xA0 SHL SUB AND DUP2 JUMP JUMPDEST PUSH1 0x40 MLOAD PUSH1 0x1 PUSH1 0x1 PUSH1 0xA0 SHL SUB SWAP1 SWAP2 AND DUP2 MSTORE PUSH1 0x20 ADD PUSH2 0xF6 JUMP JUMPDEST PUSH2 0x172 PUSH2 0x16D CALLDATASIZE PUSH1 0x4 PUSH2 0x727 JUMP JUMPDEST PUSH2 0x32D JUMP JUMPDEST PUSH1 0x40 DUP1 MLOAD SWAP4 DUP5 MSTORE PUSH1 0x20 DUP5 ADD SWAP3 SWAP1 SWAP3 MSTORE SWAP1 DUP3 ADD MSTORE PUSH1 0x60 ADD PUSH2 0xF6 JUMP JUMPDEST PUSH2 0x1A0 PUSH2 0x19B CALLDATASIZE PUSH1 0x4 PUSH2 0x727 JUMP JUMPDEST PUSH2 0x38A JUMP JUMPDEST PUSH1 0x40 DUP1 MLOAD SWAP3 DUP4 MSTORE PUSH1 0x20 DUP4 ADD SWAP2 SWAP1 SWAP2 MSTORE ADD PUSH2 0xF6 JUMP JUMPDEST PUSH2 0x132 PUSH2 0x1C3 CALLDATASIZE PUSH1 0x4 PUSH2 0x7C0 JUMP JUMPDEST PUSH2 0x3E1 JUMP JUMPDEST PUSH2 0x1DB PUSH2 0x1D6 CALLDATASIZE PUSH1 0x4 PUSH2 0x6F4 JUMP JUMPDEST PUSH2 0x6A1 JUMP JUMPDEST PUSH1 0x40 MLOAD SWAP1 ISZERO ISZERO DUP2 MSTORE PUSH1 0x20 ADD PUSH2 0xF6 JUMP JUMPDEST PUSH2 0x172 PUSH2 0x1F9 CALLDATASIZE PUSH1 0x4 PUSH2 0x727 JUMP JUMPDEST PUSH1 0x1 PUSH1 0x20 DUP2 SWAP1 MSTORE PUSH1 0x0 SWAP2 DUP3 MSTORE PUSH1 0x40 SWAP1 SWAP2 KECCAK256 DUP1 SLOAD SWAP2 DUP2 ADD SLOAD PUSH1 0x2 SWAP1 SWAP2 ADD SLOAD DUP4 JUMP JUMPDEST PUSH1 0x1 PUSH1 0x1 PUSH1 0xA0 SHL SUB DUP2 AND PUSH1 0x0 SWAP1 DUP2 MSTORE PUSH1 0x1 PUSH1 0x20 SWAP1 DUP2 MSTORE PUSH1 0x40 SWAP2 DUP3 SWAP1 KECCAK256 PUSH1 0x5 ADD DUP1 SLOAD DUP4 MLOAD DUP2 DUP5 MUL DUP2 ADD DUP5 ADD SWAP1 SWAP5 MSTORE DUP1 DUP5 MSTORE PUSH1 0x60 SWAP4 SWAP3 DUP4 ADD DUP3 DUP3 DUP1 ISZERO PUSH2 0x286 JUMPI PUSH1 0x20 MUL DUP3 ADD SWAP2 SWAP1 PUSH1 0x0 MSTORE PUSH1 0x20 PUSH1 0x0 KECCAK256 SWAP1 JUMPDEST DUP2 SLOAD PUSH1 0x1 PUSH1 0x1 PUSH1 0xA0 SHL SUB AND DUP2 MSTORE PUSH1 0x1 SWAP1 SWAP2 ADD SWAP1 PUSH1 0x20 ADD DUP1 DUP4 GT PUSH2 0x268 JUMPI JUMPDEST POP POP POP POP POP SWAP1 POP SWAP2 SWAP1 POP JUMP JUMPDEST PUSH1 0x0 SLOAD PUSH1 0x1 PUSH1 0x1 PUSH1 0xA0 SHL SUB AND CALLER EQ PUSH2 0x2C5 JUMPI PUSH1 0x40 MLOAD PUSH3 0x461BCD PUSH1 0xE5 SHL DUP2 MSTORE PUSH1 0x4 ADD PUSH2 0x2BC SWAP1 PUSH2 0x7FD JUMP JUMPDEST PUSH1 0x40 MLOAD DUP1 SWAP2 SUB SWAP1 REVERT JUMPDEST PUSH1 0x1 PUSH1 0x1 PUSH1 0xA0 SHL SUB DUP3 AND PUSH1 0x0 SWAP1 DUP2 MSTORE PUSH1 0x1 PUSH1 0x20 MSTORE PUSH1 0x40 DUP2 KECCAK256 PUSH1 0x2 ADD DUP1 SLOAD DUP4 SWAP3 SWAP1 PUSH2 0x2F0 SWAP1 DUP5 SWAP1 PUSH2 0x847 JUMP JUMPDEST SWAP1 SWAP2 SSTORE POP POP PUSH1 0x40 MLOAD PUSH1 0x1 PUSH1 0x1 PUSH1 0xA0 SHL SUB DUP4 AND SWAP1 PUSH32 0xA7CE9489B811CD79BB8695D6AD4051484C96AEA68805FFA76EEA626F7121F800 SWAP1 PUSH1 0x0 SWAP1 LOG2 POP POP JUMP JUMPDEST PUSH1 0x1 PUSH1 0x1 PUSH1 0xA0 SHL SUB DUP2 AND PUSH1 0x0 SWAP1 DUP2 MSTORE PUSH1 0x1 PUSH1 0x20 MSTORE PUSH1 0x40 DUP2 KECCAK256 DUP1 SLOAD DUP3 SWAP2 DUP3 SWAP2 DUP3 SWAP1 PUSH2 0x358 JUMPI PUSH1 0x0 PUSH2 0x374 JUMP JUMPDEST DUP2 SLOAD PUSH1 0x1 DUP4 ADD SLOAD PUSH2 0x36A SWAP1 PUSH1 0x64 PUSH2 0x85A JUMP JUMPDEST PUSH2 0x374 SWAP2 SWAP1 PUSH2 0x871 JUMP JUMPDEST DUP3 SLOAD PUSH1 0x2 SWAP1 SWAP4 ADD SLOAD SWAP1 SWAP8 SWAP3 SWAP7 POP SWAP5 POP SWAP1 SWAP3 POP POP POP JUMP JUMPDEST PUSH1 0x1 PUSH1 0x1 PUSH1 0xA0 SHL SUB DUP2 AND PUSH1 0x0 SWAP1 DUP2 MSTORE PUSH1 0x1 PUSH1 0x20 MSTORE PUSH1 0x40 DUP2 KECCAK256 DUP1 SLOAD DUP3 SWAP2 SWAP1 DUP3 SUB PUSH2 0x3B9 JUMPI POP PUSH1 0x0 SWAP4 DUP5 SWAP4 POP SWAP2 POP POP JUMP JUMPDEST DUP1 SLOAD PUSH1 0x1 DUP3 ADD SLOAD PUSH2 0x3CB SWAP1 PUSH1 0x64 PUSH2 0x85A JUMP JUMPDEST PUSH2 0x3D5 SWAP2 SWAP1 PUSH2 0x871 JUMP JUMPDEST SWAP1 SLOAD SWAP1 SWAP5 SWAP1 SWAP4 POP SWAP2 POP POP JUMP JUMPDEST PUSH1 0x0 SLOAD PUSH1 0x1 PUSH1 0x1 PUSH1 0xA0 SHL SUB AND CALLER EQ PUSH2 0x40B JUMPI PUSH1 0x40 MLOAD PUSH3 0x461BCD PUSH1 0xE5 SHL DUP2 MSTORE PUSH1 0x4 ADD PUSH2 0x2BC SWAP1 PUSH2 0x7FD JUMP JUMPDEST PUSH1 0x1 PUSH1 0x1 PUSH1 0xA0 SHL SUB DUP3 AND PUSH2 0x459 JUMPI PUSH1 0x40 MLOAD PUSH3 0x461BCD PUSH1 0xE5 SHL DUP2 MSTORE PUSH1 0x20 PUSH1 0x4 DUP3 ADD MSTORE PUSH1 0x15 PUSH1 0x24 DUP3 ADD MSTORE PUSH21 0x496E76616C69642072617465652061646472657373 PUSH1 0x58 SHL PUSH1 0x44 DUP3 ADD MSTORE PUSH1 0x64 ADD PUSH2 0x2BC JUMP JUMPDEST PUSH1 0x1 DUP2 PUSH1 0xFF AND LT ISZERO DUP1 ISZERO PUSH2 0x471 JUMPI POP PUSH1 0x5 DUP2 PUSH1 0xFF AND GT ISZERO JUMPDEST PUSH2 0x4B1 JUMPI PUSH1 0x40 MLOAD PUSH3 0x461BCD PUSH1 0xE5 SHL DUP2 MSTORE PUSH1 0x20 PUSH1 0x4 DUP3 ADD MSTORE PUSH1 0x11 PUSH1 0x24 DUP3 ADD MSTORE PUSH17 0x53636F7265206D75737420626520312D35 PUSH1 0x78 SHL PUSH1 0x44 DUP3 ADD MSTORE PUSH1 0x64 ADD PUSH2 0x2BC JUMP JUMPDEST PUSH1 0x1 PUSH1 0x1 PUSH1 0xA0 SHL SUB DUP3 AND PUSH1 0x0 SWAP1 DUP2 MSTORE PUSH1 0x1 PUSH1 0x20 SWAP1 DUP2 MSTORE PUSH1 0x40 DUP1 DUP4 KECCAK256 ORIGIN DUP5 MSTORE PUSH1 0x3 ADD SWAP1 SWAP2 MSTORE SWAP1 KECCAK256 PUSH1 0x2 ADD SLOAD PUSH1 0xFF AND ISZERO PUSH2 0x51B JUMPI PUSH1 0x40 MLOAD PUSH3 0x461BCD PUSH1 0xE5 SHL DUP2 MSTORE PUSH1 0x20 PUSH1 0x4 DUP3 ADD MSTORE PUSH1 0xD PUSH1 0x24 DUP3 ADD MSTORE PUSH13 0x105B1C9958591E481C985D1959 PUSH1 0x9A SHL PUSH1 0x44 DUP3 ADD MSTORE PUSH1 0x64 ADD PUSH2 0x2BC JUMP JUMPDEST PUSH1 0x40 DUP1 MLOAD PUSH1 0x60 DUP1 DUP3 ADD DUP4 MSTORE PUSH1 0xFF DUP1 DUP6 AND DUP1 DUP5 MSTORE TIMESTAMP PUSH1 0x20 DUP1 DUP7 ADD DUP3 DUP2 MSTORE PUSH1 0x1 DUP8 DUP10 ADD DUP2 DUP2 MSTORE PUSH1 0x1 PUSH1 0x1 PUSH1 0xA0 SHL SUB DUP13 AND PUSH1 0x0 DUP2 DUP2 MSTORE DUP4 DUP7 MSTORE DUP12 DUP2 KECCAK256 ORIGIN DUP1 DUP4 MSTORE PUSH1 0x3 DUP3 ADD DUP9 MSTORE DUP14 DUP4 KECCAK256 SWAP13 MLOAD DUP14 SLOAD SWAP1 DUP13 AND PUSH1 0xFF NOT SWAP2 DUP3 AND OR DUP15 SSTORE SWAP7 MLOAD DUP14 DUP8 ADD SSTORE SWAP4 MLOAD PUSH1 0x2 SWAP13 DUP14 ADD DUP1 SLOAD SWAP2 ISZERO ISZERO SWAP2 DUP9 AND SWAP2 SWAP1 SWAP2 OR SWAP1 SSTORE DUP13 MLOAD SWAP11 DUP12 ADD DUP14 MSTORE SWAP8 DUP11 MSTORE DUP10 DUP7 ADD SWAP7 DUP8 MSTORE DUP10 DUP13 ADD DUP5 DUP2 MSTORE SWAP3 DUP2 MSTORE DUP4 DUP7 MSTORE DUP12 DUP2 KECCAK256 SWAP2 DUP2 MSTORE PUSH1 0x4 SWAP1 SWAP2 ADD DUP6 MSTORE SWAP10 DUP11 KECCAK256 SWAP8 MLOAD DUP9 SLOAD SWAP8 AND SWAP7 DUP4 AND SWAP7 SWAP1 SWAP7 OR DUP8 SSTORE SWAP3 MLOAD DUP7 DUP5 ADD SSTORE SWAP4 MLOAD SWAP5 SWAP1 SWAP6 ADD DUP1 SLOAD SWAP5 ISZERO ISZERO SWAP5 SWAP1 SWAP4 AND SWAP4 SWAP1 SWAP4 OR SWAP1 SWAP2 SSTORE SWAP2 MSTORE DUP1 SLOAD SWAP2 PUSH2 0x5F1 DUP4 PUSH2 0x893 JUMP JUMPDEST SWAP1 SWAP2 SSTORE POP POP PUSH1 0x1 PUSH1 0x1 PUSH1 0xA0 SHL SUB DUP3 AND PUSH1 0x0 SWAP1 DUP2 MSTORE PUSH1 0x1 PUSH1 0x20 DUP2 SWAP1 MSTORE PUSH1 0x40 DUP3 KECCAK256 ADD DUP1 SLOAD PUSH1 0xFF DUP5 AND SWAP3 SWAP1 PUSH2 0x624 SWAP1 DUP5 SWAP1 PUSH2 0x847 JUMP JUMPDEST SWAP1 SWAP2 SSTORE POP POP PUSH1 0x1 PUSH1 0x1 PUSH1 0xA0 SHL SUB DUP3 AND PUSH1 0x0 DUP2 DUP2 MSTORE PUSH1 0x1 PUSH1 0x20 DUP2 DUP2 MSTORE PUSH1 0x40 DUP1 DUP5 KECCAK256 PUSH1 0x5 ADD DUP1 SLOAD SWAP4 DUP5 ADD DUP2 SSTORE DUP5 MSTORE SWAP3 DUP2 SWAP1 KECCAK256 SWAP1 SWAP2 ADD DUP1 SLOAD PUSH1 0x1 PUSH1 0x1 PUSH1 0xA0 SHL SUB NOT AND ORIGIN SWAP1 DUP2 OR SWAP1 SWAP2 SSTORE SWAP2 MLOAD PUSH1 0xFF DUP6 AND DUP2 MSTORE PUSH32 0xF679ED47D9D270FDBCC0841FA6AAADA363A11452A6629E5A49223B28FC083065 SWAP2 ADD PUSH1 0x40 MLOAD DUP1 SWAP2 SUB SWAP1 LOG3 POP POP JUMP JUMPDEST PUSH1 0x1 PUSH1 0x1 PUSH1 0xA0 SHL SUB DUP1 DUP3 AND PUSH1 0x0 SWAP1 DUP2 MSTORE PUSH1 0x1 PUSH1 0x20 SWAP1 DUP2 MSTORE PUSH1 0x40 DUP1 DUP4 KECCAK256 SWAP4 DUP7 AND DUP4 MSTORE PUSH1 0x3 SWAP1 SWAP4 ADD SWAP1 MSTORE KECCAK256 PUSH1 0x2 ADD SLOAD PUSH1 0xFF AND JUMPDEST SWAP3 SWAP2 POP POP JUMP JUMPDEST DUP1 CALLDATALOAD PUSH1 0x1 PUSH1 0x1 PUSH1 0xA0 SHL SUB DUP2 AND DUP2 EQ PUSH2 0x6EF JUMPI PUSH1 0x0 DUP1 REVERT JUMPDEST SWAP2 SWAP1 POP JUMP JUMPDEST PUSH1 0x0 DUP1 PUSH1 0x40 DUP4 DUP6 SUB SLT ISZERO PUSH2 0x707 JUMPI PUSH1 0x0 DUP1 REVERT JUMPDEST PUSH2 0x710 DUP4 PUSH2 0x6D8 JUMP JUMPDEST SWAP2 POP PUSH2 0x71E PUSH1 0x20 DUP5 ADD PUSH2 0x6D8 JUMP JUMPDEST SWAP1 POP SWAP3 POP SWAP3 SWAP1 POP JUMP JUMPDEST PUSH1 0x0 PUSH1 0x20 DUP3 DUP5 SUB SLT ISZERO PUSH2 0x739 JUMPI PUSH1 0x0 DUP1 REVERT JUMPDEST PUSH2 0x742 DUP3 PUSH2 0x6D8 JUMP JUMPDEST SWAP4 SWAP3 POP POP POP JUMP JUMPDEST PUSH1 0x20 DUP1 DUP3 MSTORE DUP3 MLOAD DUP3 DUP3 ADD DUP2 SWAP1 MSTORE PUSH1 0x0 SWAP2 SWAP1 DUP5 DUP3 ADD SWAP1 PUSH1 0x40 DUP6 ADD SWAP1 DUP5 JUMPDEST DUP2 DUP2 LT ISZERO PUSH2 0x78A JUMPI DUP4 MLOAD PUSH1 0x1 PUSH1 0x1 PUSH1 0xA0 SHL SUB AND DUP4 MSTORE SWAP3 DUP5 ADD SWAP3 SWAP2 DUP5 ADD SWAP2 PUSH1 0x1 ADD PUSH2 0x765 JUMP JUMPDEST POP SWAP1 SWAP7 SWAP6 POP POP POP POP POP POP JUMP JUMPDEST PUSH1 0x0 DUP1 PUSH1 0x40 DUP4 DUP6 SUB SLT ISZERO PUSH2 0x7A9 JUMPI PUSH1 0x0 DUP1 REVERT JUMPDEST PUSH2 0x7B2 DUP4 PUSH2 0x6D8 JUMP JUMPDEST SWAP5 PUSH1 0x20 SWAP4 SWAP1 SWAP4 ADD CALLDATALOAD SWAP4 POP POP POP JUMP JUMPDEST PUSH1 0x0 DUP1 PUSH1 0x40 DUP4 DUP6 SUB SLT ISZERO PUSH2 0x7D3 JUMPI PUSH1 0x0 DUP1 REVERT JUMPDEST PUSH2 0x7DC DUP4 PUSH2 0x6D8 JUMP JUMPDEST SWAP2 POP PUSH1 0x20 DUP4 ADD CALLDATALOAD PUSH1 0xFF DUP2 AND DUP2 EQ PUSH2 0x7F2 JUMPI PUSH1 0x0 DUP1 REVERT JUMPDEST DUP1 SWAP2 POP POP SWAP3 POP SWAP3 SWAP1 POP JUMP JUMPDEST PUSH1 0x20 DUP1 DUP3 MSTORE PUSH1 0x1A SWAP1 DUP3 ADD MSTORE PUSH26 0x13DB9B1E481A9BD88818DBDB9D1C9858DD0818D85B8818D85B1B PUSH1 0x32 SHL PUSH1 0x40 DUP3 ADD MSTORE PUSH1 0x60 ADD SWAP1 JUMP JUMPDEST PUSH4 0x4E487B71 PUSH1 0xE0 SHL PUSH1 0x0 MSTORE PUSH1 0x11 PUSH1 0x4 MSTORE PUSH1 0x24 PUSH1 0x0 REVERT JUMPDEST DUP1 DUP3 ADD DUP1 DUP3 GT ISZERO PUSH2 0x6D2 JUMPI PUSH2 0x6D2 PUSH2 0x831 JUMP JUMPDEST DUP1 DUP3 MUL DUP2 ISZERO DUP3 DUP3 DIV DUP5 EQ OR PUSH2 0x6D2 JUMPI PUSH2 0x6D2 PUSH2 0x831 JUMP JUMPDEST PUSH1 0x0 DUP3 PUSH2 0x88E JUMPI PUSH4 0x4E487B71 PUSH1 0xE0 SHL PUSH1 0x0 MSTORE PUSH1 0x12 PUSH1 0x4 MSTORE PUSH1 0x24 PUSH1 0x0 REVERT JUMPDEST POP DIV SWAP1 JUMP JUMPDEST PUSH1 0x0 PUSH1 0x1 DUP3 ADD PUSH2 0x8A5 JUMPI PUSH2 0x8A5 PUSH2 0x831 JUMP JUMPDEST POP PUSH1 0x1 ADD SWAP1 JUMP INVALID LOG2 PUSH5 0x6970667358 0x22 SLT KECCAK256 0x4A SUB JUMPI 0x27 ADDMOD 0xAF 0xEB 0xD8 SWAP4 0xE1 POP ADDRESS NOT 0xCE 0xEE 0xAB SWAP9 PUSH8 0xB1C043835CFB9D17 0xD7 0xE3 RETURNDATACOPY XOR LT SWAP4 PUSH5 0x736F6C6343 STOP ADDMOD EQ STOP CALLER "},"methodIdentifiers":{"ADMIN()":"2a0acc6a","acceptApplication(address)":"a678b65b","activeWorker(address)":"f35c181d","applicantAddresses(uint256)":"ada03159","applicants(address)":"ccd66863","assignWorkerDirect(address)":"e28f8074","assignedWorkers(uint256)":"aab097c8","canCancelJob()":"8ae9487c","canRateEmployer(address)":"7552a5df","canRateWorker(address)":"4a7de5f2","cancelJob()":"b07c7475","confirmOneOffPayment(address)":"3638a8b2","confirmWeeklyPayment(address)":"68d5526f","createdAt()":"cf09e0d0","declineApplication(address)":"24548fe7","description()":"7284e416","disputeDAO()":"f1c2d0d9","durationWeeks()":"6d6356f0","employer()":"ae200e79","employerHasRatedWorker(address)":"273df8f5","endJob()":"438baa55","getActiveApplicants()":"d4bcdc3d","getActiveApplicationsCount()":"afc5ce44","getAllApplicants()":"388d5399","getApplicant(address)":"3b8e1bf5","getApplicationStatusString(address)":"77444917","getAssignedWorkers()":"8ae52a38","getPaymentRequestStatus(address)":"b8565654","getPendingPaymentRequests()":"de87bca0","getTotalApplications()":"581c091b","hasApplied(address)":"09413a51","hasCompletedJob(address)":"0fc9b95d","hasRatedEmployer(address)":"b94b3295","hasReceivedAllPayments(address)":"cec81c44","hasRequestedPayment(address)":"abdfd958","isWorker(address)":"aa156645","jobCancelled()":"f7453d14","jobEnded()":"bb971fb2","lastPayoutAt()":"53f537e3","openDispute(string)":"595210ad","payType()":"9da2fb3f","paymentRequestTime(address)":"0d9485fc","payoutsMade()":"123c0b2b","positions()":"ba5b7982","rateEmployer(uint8)":"b40cc277","rateWorker(address,uint8)":"e9c566cd","reputation()":"c52164c6","requestOneOffPayment()":"d31a385e","requestWeeklyPayment()":"9ac7e6a9","setActive(bool)":"acec338a","submitApplication(string)":"778c559b","tags(uint256)":"20822abc","title()":"4a79d50c","totalPay()":"e154adf5","weeklyPay()":"cc5870e4","withdrawApplication()":"1fcf55ff"}}}}}