{"contracts/ReputationSystem.sol":{"ReputationSystem":{"abi":[{"inputs":[{"internalType":"address","name":"_jobContract","type":"address"}],"stateMutability":"nonpayable","type":"constructor"},{"anonymous":false,"inputs":[{"indexed":true,"internalType":"address","name":"worker","type":"address"}],"name":"JobCompleted","type":"event"},{"anonymous":false,"inputs":[{"indexed":true,"internalType":"address","name":"rater","type":"address"},{"indexed":true,"internalType":"address","name":"ratee","type":"address"},{"indexed":false,"internalType":"uint8","name":"score","type":"uint8"}],"name":"RatingSubmitted","type":"event"},{"inputs":[{"internalType":"address","name":"user","type":"address"}],"name":"getAverageRating","outputs":[{"internalType":"uint256","name":"average","type":"uint256"},{"internalType":"uint256","name":"totalRatings","type":"uint256"}],"stateMutability":"view","type":"function"},{"inputs":[{"internalType":"address","name":"rater","type":"address"},{"internalType":"address","name":"ratee","type":"address"}],"name":"getRating","outputs":[{"internalType":"uint8","name":"score","type":"uint8"},{"internalType":"uint256","name":"timestamp","type":"uint256"},{"internalType":"bool","name":"exists","type":"bool"}],"stateMutability":"view","type":"function"},{"inputs":[{"internalType":"address","name":"user","type":"address"}],"name":"getRatingAddresses","outputs":[{"internalType":"address[]","name":"","type":"address[]"}],"stateMutability":"view","type":"function"},{"inputs":[{"internalType":"address","name":"user","type":"address"}],"name":"getUserReputation","outputs":[{"internalType":"uint256","name":"averageRating","type":"uint256"},{"internalType":"uint256","name":"totalRatings","type":"uint256"},{"internalType":"uint256","name":"jobsCompleted","type":"uint256"}],"stateMutability":"view","type":"function"},{"inputs":[{"internalType":"address","name":"rater","type":"address"},{"internalType":"address","name":"ratee","type":"address"}],"name":"hasBeenRated","outputs":[{"internalType":"bool","name":"","type":"bool"}],"stateMutability":"view","type":"function"},{"inputs":[],"name":"jobContract","outputs":[{"internalType":"address","name":"","type":"address"}],"stateMutability":"view","type":"function"},{"inputs":[{"internalType":"address","name":"ratee","type":"address"},{"internalType":"uint8","name":"score","type":"uint8"}],"name":"submitRating","outputs":[],"stateMutability":"nonpayable","type":"function"},{"inputs":[{"internalType":"address","name":"worker","type":"address"},{"internalType":"uint256","name":"jobsCompleted","type":"uint256"}],"name":"updateWorker","outputs":[],"stateMutability":"nonpayable","type":"function"},{"inputs":[{"internalType":"address","name":"","type":"address"}],"name":"userReputations","outputs":[{"internalType":"uint256","name":"totalRatings","type":"uint256"},{"internalType":"uint256","name":"totalScore","type":"uint256"},{"internalType":"uint256","name":"jobsCompleted","type":"uint256"}],"stateMutability":"view","type":"function"}],"evm":{"bytecode":{"linkReferences":{},"object":"608060405234801561001057600080fd5b5060405161097538038061097583398101604081905261002f91610054565b600080546001600160a01b0319166001600160a01b0392909216919091179055610084565b60006020828403121561006657600080fd5b81516001600160a01b038116811461007d57600080fd5b9392505050565b6108e2806100936000396000f3fe608060405234801561001057600080fd5b50600436106100835760003560e01c80637dafeb5414610088578063993aa627146100ff578063a27caeb71461011f578063afd86a7614610134578063baccbfdb1461015f578063c8b675221461018d578063d741daf2146101b5578063eb73d2ba146101c8578063f8b11691146101eb575b600080fd5b6100d96100963660046106f4565b6001600160a01b03908116600090815260016020818152604080842095909416835260039094019093522080549181015460029091015460ff9283169391921690565b6040805160ff909416845260208401929092521515908201526060015b60405180910390f35b61011261010d366004610727565b610219565b6040516100f69190610749565b61013261012d366004610796565b610292565b005b600054610147906001600160a01b031681565b6040516001600160a01b0390911681526020016100f6565b61017261016d366004610727565b61032d565b604080519384526020840192909252908201526060016100f6565b6101a061019b366004610727565b61038a565b604080519283526020830191909152016100f6565b6101326101c33660046107c0565b6103e1565b6101db6101d63660046106f4565b6106a1565b60405190151581526020016100f6565b6101726101f9366004610727565b600160208190526000918252604090912080549181015460029091015483565b6001600160a01b03811660009081526001602090815260409182902060050180548351818402810184019094528084526060939283018282801561028657602002820191906000526020600020905b81546001600160a01b03168152600190910190602001808311610268575b50505050509050919050565b6000546001600160a01b031633146102c55760405162461bcd60e51b81526004016102bc906107fd565b60405180910390fd5b6001600160a01b038216600090815260016020526040812060020180548392906102f0908490610847565b90915550506040516001600160a01b038316907fa7ce9489b811cd79bb8695d6ad4051484c96aea68805ffa76eea626f7121f80090600090a25050565b6001600160a01b03811660009081526001602052604081208054829182918290610358576000610374565b8154600183015461036a90606461085a565b6103749190610871565b8254600290930154909792965094509092505050565b6001600160a01b0381166000908152600160205260408120805482919082036103b95750600093849350915050565b805460018201546103cb90606461085a565b6103d59190610871565b90549094909350915050565b6000546001600160a01b0316331461040b5760405162461bcd60e51b81526004016102bc906107fd565b6001600160a01b0382166104595760405162461bcd60e51b8152602060048201526015602482015274496e76616c6964207261746565206164647265737360581b60448201526064016102bc565b60018160ff1610158015610471575060058160ff1611155b6104b15760405162461bcd60e51b815260206004820152601160248201527053636f7265206d75737420626520312d3560781b60448201526064016102bc565b6001600160a01b038216600090815260016020908152604080832032845260030190915290206002015460ff161561051b5760405162461bcd60e51b815260206004820152600d60248201526c105b1c9958591e481c985d1959609a1b60448201526064016102bc565b604080516060808201835260ff80851680845242602080860182815260018789018181526001600160a01b038c1660008181528386528b8120328083526003820188528d83209c518d54908c1660ff19918216178e5596518d870155935160029c8d0180549115159188169190911790558c519a8b018d52978a52898601968752898c018481529281528386528b812091815260049091018552998a209751885497169683169690961787559251868401559351949095018054941515949093169390931790915591528054916105f183610893565b90915550506001600160a01b0382166000908152600160208190526040822001805460ff84169290610624908490610847565b90915550506001600160a01b03821660008181526001602081815260408084206005018054938401815584529281902090910180546001600160a01b03191632908117909155915160ff851681527ff679ed47d9d270fdbcc0841fa6aaada363a11452a6629e5a49223b28fc083065910160405180910390a35050565b6001600160a01b038082166000908152600160209081526040808320938616835260039093019052206002015460ff165b92915050565b80356001600160a01b03811681146106ef57600080fd5b919050565b6000806040838503121561070757600080fd5b610710836106d8565b915061071e602084016106d8565b90509250929050565b60006020828403121561073957600080fd5b610742826106d8565b9392505050565b6020808252825182820181905260009190848201906040850190845b8181101561078a5783516001600160a01b031683529284019291840191600101610765565b50909695505050505050565b600080604083850312156107a957600080fd5b6107b2836106d8565b946020939093013593505050565b600080604083850312156107d357600080fd5b6107dc836106d8565b9150602083013560ff811681146107f257600080fd5b809150509250929050565b6020808252601a908201527913db9b1e481a9bd88818dbdb9d1c9858dd0818d85b8818d85b1b60321b604082015260600190565b634e487b7160e01b600052601160045260246000fd5b808201808211156106d2576106d2610831565b80820281158282048414176106d2576106d2610831565b60008261088e57634e487b7160e01b600052601260045260246000fd5b500490565b6000600182016108a5576108a5610831565b506001019056fea26469706673582212204a03572708afebd893e1503019ceeeab9867b1c043835cfb9d17d7e33e18109364736f6c63430008140033","opcodes":"PUSH1 0x80 PUSH1 0x40 MSTORE CALLVALUE DUP1 ISZERO PUSH2 0x10 JUMPI PUSH1 0x0 DUP1 REVERT JUMPDEST POP PUSH1 0x40 MLOAD PUSH2 0x975 CODESIZE SUB DUP1 PUSH2 0x975 DUP4 CODECOPY DUP2 ADD PUSH1 0x40 DUP2 SWAP1 MSTORE PUSH2 0x2F SWAP2 PUSH2 0x54 JUMP JUMPDEST PUSH1 0x0 DUP1 SLOAD PUSH1 0x1 PUSH1 0x1 PUSH1 0xA0 SHL SUB NOT AND PUSH1 0x1 PUSH1 0x1 PUSH1 0xA0 SHL SUB SWAP3 SWAP1 SWAP3 AND SWAP2 SWAP1 SWAP2 OR SWAP1 SSTORE PUSH2 0x84 JUMP JUMPDEST PUSH1 0x0 PUSH1 0x20 DUP3 DUP5 SUB SLT ISZERO PUSH2 0x66 JUMPI PUSH1 0x0 DUP1 REVERT JUMPDEST DUP2 MLOAD PUSH1 0x1 PUSH1 0x1 PUSH1 0xA0 SHL SUB DUP2 AND DUP2 EQ PUSH2 0x7D JUMPI PUSH1 0x0 DUP1 REVERT JUMPDEST SWAP4 SWAP3 POP POP POP JUMP JUMPDEST PUSH2 0x8E2 DUP1 PUSH2 0x93 PUSH1 0x0 CODECOPY PUSH1 0x0 RETURN INVALID PUSH1 0x80 PUSH1 0x40 MSTORE CALLVALUE DUP1 ISZERO PUSH2 0x10 JUMPI PUSH1 0x0 DUP1 REVERT JUMPDEST POP PUSH1 0x4 CALLDATASIZE LT PUSH2 0x83 JUMPI PUSH1 0x0 CALLDATALOAD PUSH1 0xE0 SHR DUP1 PUSH4 0x7DAFEB54 EQ PUSH2 0x88 JUMPI DUP1 PUSH4 0x993AA627 EQ PUSH2 0xFF JUMPI DUP1 PUSH4 0xA27CAEB7 EQ PUSH2 0x11F JUMPI DUP1 PUSH4 0xAFD86A76 EQ PUSH2 0x134 JUMPI DUP1 PUSH4 0xBACCBFDB EQ PUSH2 0x15F JUMPI DUP1 PUSH4 0xC8B67522 EQ PUSH2 0x18D JUMPI DUP1 PUSH4 0xD741DAF2 EQ PUSH2 0x1B5 JUMPI DUP1 PUSH4 0xEB73D2BA EQ PUSH2 0x1C8 JUMPI DUP1 PUSH4 0xF8B11691 EQ PUSH2 0x1EB JUMPI JUMPDEST PUSH1 0x0 DUP1 REVERT JUMPDEST PUSH2 0xD9 PUSH2 0x96 CALLDATASIZE PUSH1 0x4 PUSH2 0x6F4 JUMP JUMPDEST PUSH1 0x1 PUSH1 0x1 PUSH1 0xA0 SHL SUB SWAP1 DUP2 AND PUSH1 0x0 SWAP1 DUP2 MSTORE PUSH1 0x1 PUSH1 0x20 DUP2 DUP2 MSTORE PUSH1 0x40 DUP1 DUP5 KECCAK256 SWAP6 SWAP1 SWAP5 AND DUP4 MSTORE PUSH1 0x3 SWAP1 SWAP5 ADD SWAP1 SWAP4 MSTORE KECCAK256 DUP1 SLOAD SWAP2 DUP2 ADD SLOAD PUSH1 0x2 SWAP1 SWAP2 ADD SLOAD PUSH1 0xFF SWAP3 DUP4 AND SWAP4 SWAP2 SWAP3 AND SWAP1 JUMP JUMPDEST PUSH1 0x40 DUP1 MLOAD PUSH1 0xFF SWAP1 SWAP5 AND DUP5 MSTORE PUSH1 0x20 DUP5 ADD SWAP3 SWAP1 SWAP3 MSTORE ISZERO ISZERO SWAP1 DUP3 ADD MSTORE PUSH1 0x60 ADD JUMPDEST PUSH1 0x40 MLOAD DUP1 SWAP2 SUB SWAP1 RETURN JUMPDEST PUSH2 0x112 PUSH2 0x10D CALLDATASIZE PUSH1 0x4 PUSH2 0x727 JUMP JUMPDEST PUSH2 0x219 JUMP JUMPDEST PUSH1 0x40 MLOAD PUSH2 0xF6 SWAP2 SWAP1 PUSH2 0x749 JUMP JUMPDEST PUSH2 0x132 PUSH2 0x12D CALLDATASIZE PUSH1 0x4 PUSH2 0x796 JUMP JUMPDEST PUSH2 0x292 JUMP JUMPDEST STOP JUMPDEST PUSH1 0x0 SLOAD PUSH2 0x147 SWAP1 PUSH1 0x1 PUSH1 0x1 PUSH1 0xA0 SHL SUB AND DUP2 JUMP JUMPDEST PUSH1 0x40 MLOAD PUSH1 0x1 PUSH1 0x1 PUSH1 0xA0 SHL SUB SWAP1 SWAP2 AND DUP2 MSTORE PUSH1 0x20 ADD PUSH2 0xF6 JUMP JUMPDEST PUSH2 0x172 PUSH2 0x16D CALLDATASIZE PUSH1 0x4 PUSH2 0x727 JUMP JUMPDEST PUSH2 0x32D JUMP JUMPDEST PUSH1 0x40 DUP1 MLOAD SWAP4 DUP5 MSTORE PUSH1 0x20 DUP5 ADD SWAP3 SWAP1 SWAP3 MSTORE SWAP1 DUP3 ADD MSTORE PUSH1 0x60 ADD PUSH2 0xF6 JUMP JUMPDEST PUSH2 0x1A0 PUSH2 0x19B CALLDATASIZE PUSH1 0x4 PUSH2 0x727 JUMP JUMPDEST PUSH2 0x38A JUMP JUMPDEST PUSH1 0x40 DUP1 MLOAD SWAP3 DUP4 MSTORE PUSH1 0x20 DUP4 ADD SWAP2 SWAP1 SWAP2 MSTORE ADD PUSH2 0xF6 JUMP JUMPDEST PUSH2 0x132 PUSH2 0x1C3 CALLDATASIZE PUSH1 0x4 PUSH2 0x7C0 JUMP JUMPDEST PUSH2 0x3E1 JUMP JUMPDEST PUSH2 0x1DB PUSH2 0x1D6 CALLDATASIZE PUSH1 0x4 PUSH2 0x6F4 JUMP JUMPDEST PUSH2 0x6A1 JUMP JUMPDEST PUSH1 0x40 MLOAD SWAP1 ISZERO ISZERO DUP2 MSTORE PUSH1 0x20 ADD PUSH2 0xF6 JUMP JUMPDEST PUSH2 0x172 PUSH2 0x1F9 CALLDATASIZE PUSH1 0x4 PUSH2 0x727 JUMP JUMPDEST PUSH1 0x1 PUSH1 0x20 DUP2 SWAP1 MSTORE PUSH1 0x0 SWAP2 DUP3 MSTORE PUSH1 0x40 SWAP1 SWAP2 KECCAK256 DUP1 SLOAD SWAP2 DUP2 ADD SLOAD PUSH1 0x2 SWAP1 SWAP2 ADD SLOAD DUP4 JUMP JUMPDEST PUSH1 0x1 PUSH1 0x1 PUSH1 0xA0 SHL SUB DUP2 AND PUSH1 0x0 SWAP1 DUP2 MSTORE PUSH1 0x1 PUSH1 0x20 SWAP1 DUP2 MSTORE PUSH1 0x40 SWAP2 DUP3 SWAP1 KECCAK256 PUSH1 0x5 ADD DUP1 SLOAD DUP4 MLOAD DUP2 DUP5 MUL DUP2 ADD DUP5 ADD SWAP1 SWAP5 MSTORE DUP1 DUP5 MSTORE PUSH1 0x60 SWAP4 SWAP3 DUP4 ADD DUP3 DUP3 DUP1 ISZERO PUSH2 0x286 JUMPI PUSH1 0x20 MUL DUP3 ADD SWAP2 SWAP1 PUSH1 0x0 MSTORE PUSH1 0x20 PUSH1 0x0 KECCAK256 SWAP1 JUMPDEST DUP2 SLOAD PUSH1 0x1 PUSH1 0x1 PUSH1 0xA0 SHL SUB AND DUP2 MSTORE PUSH1 0x1 SWAP1 SWAP2 ADD SWAP1 PUSH1 0x20 ADD DUP1 DUP4 GT PUSH2 0x268 JUMPI JUMPDEST POP POP POP POP POP SWAP1 POP SWAP2 SWAP1 POP JUMP JUMPDEST PUSH1 0x0 SLOAD PUSH1 0x1 PUSH1 0x1 PUSH1 0xA0 SHL SUB AND CALLER EQ PUSH2 0x2C5 JUMPI PUSH1 0x40 MLOAD PUSH3 0x461BCD PUSH1 0xE5 SHL DUP2 MSTORE PUSH1 0x4 ADD PUSH2 0x2BC SWAP1 PUSH2 0x7FD JUMP JUMPDEST PUSH1 0x40 MLOAD DUP1 SWAP2 SUB SWAP1 REVERT JUMPDEST PUSH1 0x1 PUSH1 0x1 PUSH1 0xA0 SHL SUB DUP3 AND PUSH1 0x0 SWAP1 DUP2 MSTORE PUSH1 0x1 PUSH1 0x20 MSTORE PUSH1 0x40 DUP2 KECCAK256 PUSH1 0x2 ADD DUP1 SLOAD DUP4 SWAP3 SWAP1 PUSH2 0x2F0 SWAP1 DUP5 SWAP1 PUSH2 0x847 JUMP JUMPDEST SWAP1 SWAP2 SSTORE POP POP PUSH1 0x40 MLOAD PUSH1 0x1 PUSH1 0x1 PUSH1 0xA0 SHL SUB DUP4 AND SWAP1 PUSH32 0xA7CE9489B811CD79BB8695D6AD4051484C96AEA68805FFA76EEA626F7121F800 SWAP1 PUSH1 0x0 SWAP1 LOG2 POP POP JUMP JUMPDEST PUSH1 0x1 PUSH1 0x1 PUSH1 0xA0 SHL SUB DUP2 AND PUSH1 0x0 SWAP1 DUP2 MSTORE PUSH1 0x1 PUSH1 0x20 MSTORE PUSH1 0x40 DUP2 KECCAK256 DUP1 SLOAD DUP3 SWAP2 DUP3 SWAP2 DUP3 SWAP1 PUSH2 0x358 JUMPI PUSH1 0x0 PUSH2 0x374 JUMP JUMPDEST DUP2 SLOAD PUSH1 0x1 DUP4 ADD SLOAD PUSH2 0x36A SWAP1 PUSH1 0x64 PUSH2 0x85A JUMP JUMPDEST PUSH2 0x374 SWAP2 SWAP1 PUSH2 0x871 JUMP JUMPDEST DUP3 SLOAD PUSH1 0x2 SWAP1 SWAP4 ADD SLOAD SWAP1 SWAP8 SWAP3 SWAP7 POP SWAP5 POP SWAP1 SWAP3 POP POP POP JUMP JUMPDEST PUSH1 0x1 PUSH1 0x1 PUSH1 0xA0 SHL SUB DUP2 AND PUSH1 0x0 SWAP1 DUP2 MSTORE PUSH1 0x1 PUSH1 0x20 MSTORE PUSH1 0x40 DUP2 KECCAK256 DUP1 SLOAD DUP3 SWAP2 SWAP1 DUP3 SUB PUSH2 0x3B9 JUMPI POP PUSH1 0x0 SWAP4 DUP5 SWAP4 POP SWAP2 POP POP JUMP JUMPDEST DUP1 SLOAD PUSH1 0x1 DUP3 ADD SLOAD PUSH2 0x3CB SWAP1 PUSH1 0x64 PUSH2 0x85A JUMP JUMPDEST PUSH2 0x3D5 SWAP2 SWAP1 PUSH2 0x871 JUMP JUMPDEST SWAP1 SLOAD SWAP1 SWAP5 SWAP1 SWAP4 POP SWAP2 POP POP JUMP JUMPDEST PUSH1 0x0 SLOAD PUSH1 0x1 PUSH1 0x1 PUSH1 0xA0 SHL SUB AND CALLER EQ PUSH2 0x40B JUMPI PUSH1 0x40 MLOAD PUSH3 0x461BCD PUSH1 0xE5 SHL DUP2 MSTORE PUSH1 0x4 ADD PUSH2 0x2BC SWAP1 PUSH2 0x7FD JUMP JUMPDEST PUSH1 0x1 PUSH1 0x1 PUSH1 0xA0 SHL SUB DUP3 AND PUSH2 0x459 JUMPI PUSH1 0x40 MLOAD PUSH3 0x461BCD PUSH1 0xE5 SHL DUP2 MSTORE PUSH1 0x20 PUSH1 0x4 DUP3 ADD MSTORE PUSH1 0x15 PUSH1 0x24 DUP3 ADD MSTORE PUSH21 0x496E76616C69642072617465652061646472657373 PUSH1 0x58 SHL PUSH1 0x44 DUP3 ADD MSTORE PUSH1 0x64 ADD PUSH2 0x2BC JUMP JUMPDEST PUSH1 0x1 DUP2 PUSH1 0xFF AND LT ISZERO DUP1 ISZERO PUSH2 0x471 JUMPI POP PUSH1 0x5 DUP2 PUSH1 0xFF AND GT ISZERO JUMPDEST PUSH2 0x4B1 JUMPI PUSH1 0x40 MLOAD PUSH3 0x461BCD PUSH1 0xE5 SHL DUP2 MSTORE PUSH1 0x20 PUSH1 0x4 DUP3 ADD MSTORE PUSH1 0x11 PUSH1 0x24 DUP3 ADD MSTORE PUSH17 0x53636F7265206D75737420626520312D35 PUSH1 0x78 SHL PUSH1 0x44 DUP3 ADD MSTORE PUSH1 0x64 ADD PUSH2 0x2BC JUMP JUMPDEST PUSH1 0x1 PUSH1 0x1 PUSH1 0xA0 SHL SUB DUP3 AND PUSH1 0x0 SWAP1 DUP2 MSTORE PUSH1 0x1 PUSH1 0x20 SWAP1 DUP2 MSTORE PUSH1 0x40 DUP1 DUP4 KECCAK256 ORIGIN DUP5 MSTORE PUSH1 0x3 ADD SWAP1 SWAP2 MSTORE SWAP1 KECCAK256 PUSH1 0x2 ADD SLOAD PUSH1 0xFF AND ISZERO PUSH2 0x51B JUMPI PUSH1 0x40 MLOAD PUSH3 0x461BCD PUSH1 0xE5 SHL DUP2 MSTORE PUSH1 0x20 PUSH1 0x4 DUP3 ADD MSTORE PUSH1 0xD PUSH1 0x24 DUP3 ADD MSTORE PUSH13 0x105B1C9958591E481C985D1959 PUSH1 0x9A SHL PUSH1 0x44 DUP3 ADD MSTORE PUSH1 0x64 ADD PUSH2 0x2BC JUMP JUMPDEST PUSH1 0x40 DUP1 MLOAD PUSH1 0x60 DUP1 DUP3 ADD DUP4 MSTORE PUSH1 0xFF DUP1 DUP6 AND DUP1 DUP5 MSTORE TIMESTAMP PUSH1 0x20 DUP1 DUP7 ADD DUP3 DUP2 MSTORE PUSH1 0x1 DUP8 DUP10 ADD DUP2 DUP2 MSTORE PUSH1 0x1 PUSH1 0x1 PUSH1 0xA0 SHL SUB DUP13 AND PUSH1 0x0 DUP2 DUP2 MSTORE DUP4 DUP7 MSTORE DUP12 DUP2 KECCAK256 ORIGIN DUP1 DUP4 MSTORE PUSH1 0x3 DUP3 ADD DUP9 MSTORE DUP14 DUP4 KECCAK256 SWAP13 MLOAD DUP14 SLOAD SWAP1 DUP13 AND PUSH1 0xFF NOT SWAP2 DUP3 AND OR DUP15 SSTORE SWAP7 MLOAD DUP14 DUP8 ADD SSTORE SWAP4 MLOAD PUSH1 0x2 SWAP13 DUP14 ADD DUP1 SLOAD SWAP2 ISZERO ISZERO SWAP2 DUP9 AND SWAP2 SWAP1 SWAP2 OR SWAP1 SSTORE DUP13 MLOAD SWAP11 DUP12 ADD DUP14 MSTORE SWAP8 DUP11 MSTORE DUP10 DUP7 ADD SWAP7 DUP8 MSTORE DUP10 DUP13 ADD DUP5 DUP2 MSTORE SWAP3 DUP2 MSTORE DUP4 DUP7 MSTORE DUP12 DUP2 KECCAK256 SWAP2 DUP2 MSTORE PUSH1 0x4 SWAP1 SWAP2 ADD DUP6 MSTORE SWAP10 DUP11 KECCAK256 SWAP8 MLOAD DUP9 SLOAD SWAP8 AND SWAP7 DUP4 AND SWAP7 SWAP1 SWAP7 OR DUP8 SSTORE SWAP3 MLOAD DUP7 DUP5 ADD SSTORE SWAP4 MLOAD SWAP5 SWAP1 SWAP6 ADD DUP1 SLOAD SWAP5 ISZERO ISZERO SWAP5 SWAP1 SWAP4 AND SWAP4 SWAP1 SWAP4 OR SWAP1 SWAP2 SSTORE SWAP2 MSTORE DUP1 SLOAD SWAP2 PUSH2 0x5F1 DUP4 PUSH2 0x893 JUMP JUMPDEST SWAP1 SWAP2 SSTORE POP POP PUSH1 0x1 PUSH1 0x1 PUSH1 0xA0 SHL SUB DUP3 AND PUSH1 0x0 SWAP1 DUP2 MSTORE PUSH1 0x1 PUSH1 0x20 DUP2 SWAP1 MSTORE PUSH1 0x40 DUP3 KECCAK256 ADD DUP1 SLOAD PUSH1 0xFF DUP5 AND SWAP3 SWAP1 PUSH2 0x624 SWAP1 DUP5 SWAP1 PUSH2 0x847 JUMP JUMPDEST SWAP1 SWAP2 SSTORE POP POP PUSH1 0x1 PUSH1 0x1 PUSH1 0xA0 SHL SUB DUP3 AND PUSH1 0x0 DUP2 DUP2 MSTORE PUSH1 0x1 PUSH1 0x20 DUP2 DUP2 MSTORE PUSH1 0x40 DUP1 DUP5 KECCAK256 PUSH1 0x5 ADD DUP1 SLOAD SWAP4 DUP5 ADD DUP2 SSTORE DUP5 MSTORE SWAP3 DUP2 SWAP1 KECCAK256 SWAP1 SWAP2 ADD DUP1 SLOAD PUSH1 0x1 PUSH1 0x1 PUSH1 0xA0 SHL SUB NOT AND ORIGIN SWAP1 DUP2 OR SWAP1 SWAP2 SSTORE SWAP2 MLOAD PUSH1 0xFF DUP6 AND DUP2 MSTORE PUSH32 0xF679ED47D9D270FDBCC0841FA6AAADA363A11452A6629E5A49223B28FC083065 SWAP2 ADD PUSH1 0x40 MLOAD DUP1 SWAP2 SUB SWAP1 LOG3 POP POP JUMP JUMPDEST PUSH1 0x1 PUSH1 0x1 PUSH1 0xA0 SHL SUB DUP1 DUP3 AND PUSH1 0x0 SWAP1 DUP2 MSTORE PUSH1 0x1 PUSH1 0x20 SWAP1 DUP2 MSTORE PUSH1 0x40 DUP1 DUP4 KECCAK256 SWAP4 DUP7 AND DUP4 MSTORE PUSH1 0x3 SWAP1 SWAP4 ADD SWAP1 MSTORE KECCAK256 PUSH1 0x2 ADD SLOAD PUSH1 0xFF AND JUMPDEST SWAP3 SWAP2 POP POP JUMP JUMPDEST DUP1 CALLDATALOAD PUSH1 0x1 PUSH1 0x1 PUSH1 0xA0 SHL SUB DUP2 AND DUP2 EQ PUSH2 0x6EF JUMPI PUSH1 0x0 DUP1 REVERT JUMPDEST SWAP2 SWAP1 POP JUMP JUMPDEST PUSH1 0x0 DUP1 PUSH1 0x40 DUP4 DUP6 SUB SLT ISZERO PUSH2 0x707 JUMPI PUSH1 0x0 DUP1 REVERT JUMPDEST PUSH2 0x710 DUP4 PUSH2 0x6D8 JUMP JUMPDEST SWAP2 POP PUSH2 0x71E PUSH1 0x20 DUP5 ADD PUSH2 0x6D8 JUMP JUMPDEST SWAP1 POP SWAP3 POP SWAP3 SWAP1 POP JUMP JUMPDEST PUSH1 0x0 PUSH1 0x20 DUP3 DUP5 SUB SLT ISZERO PUSH2 0x739 JUMPI PUSH1 0x0 DUP1 REVERT JUMPDEST PUSH2 0x742 DUP3 PUSH2 0x6D8 JUMP JUMPDEST SWAP4 SWAP3 POP POP POP JUMP JUMPDEST PUSH1 0x20 DUP1 DUP3 MSTORE DUP3 MLOAD DUP3 DUP3 ADD DUP2 SWAP1 MSTORE PUSH1 0x0 SWAP2 SWAP1 DUP5 DUP3 ADD SWAP1 PUSH1 0x40 DUP6 ADD SWAP1 DUP5 JUMPDEST DUP2 DUP2 LT ISZERO PUSH2 0x78A JUMPI DUP4 MLOAD PUSH1 0x1 PUSH1 0x1 PUSH1 0xA0 SHL SUB AND DUP4 MSTORE SWAP3 DUP5 ADD SWAP3 SWAP2 DUP5 ADD SWAP2 PUSH1 0x1 ADD PUSH2 0x765 JUMP JUMPDEST POP SWAP1 SWAP7 SWAP6 POP POP POP POP POP POP JUMP JUMPDEST PUSH1 0x0 DUP1 PUSH1 0x40 DUP4 DUP6 SUB SLT ISZERO PUSH2 0x7A9 JUMPI PUSH1 0x0 DUP1 REVERT JUMPDEST PUSH2 0x7B2 DUP4 PUSH2 0x6D8 JUMP JUMPDEST SWAP5 PUSH1 0x20 SWAP4 SWAP1 SWAP4 ADD CALLDATALOAD SWAP4 POP POP POP JUMP JUMPDEST PUSH1 0x0 DUP1 PUSH1 0x40 DUP4 DUP6 SUB SLT ISZERO PUSH2 0x7D3 JUMPI PUSH1 0x0 DUP1 REVERT JUMPDEST PUSH2 0x7DC DUP4 PUSH2 0x6D8 JUMP JUMPDEST SWAP2 POP PUSH1 0x20 DUP4 ADD CALLDATALOAD PUSH1 0xFF DUP2 AND DUP2 EQ PUSH2 0x7F2 JUMPI PUSH1 0x0 DUP1 REVERT JUMPDEST DUP1 SWAP2 POP POP SWAP3 POP SWAP3 SWAP1 POP JUMP JUMPDEST PUSH1 0x20 DUP1 DUP3 MSTORE PUSH1 0x1A SWAP1 DUP3 ADD MSTORE PUSH26 0x13DB9B1E481A9BD88818DBDB9D1C9858DD0818D85B8818D85B1B PUSH1 0x32 SHL PUSH1 0x40 DUP3 ADD MSTORE PUSH1 0x60 ADD SWAP1 JUMP JUMPDEST PUSH4 0x4E487B71 PUSH1 0xE0 SHL PUSH1 0x0 MSTORE PUSH1 0x11 PUSH1 0x4 MSTORE PUSH1 0x24 PUSH1 0x0 REVERT JUMPDEST DUP1 DUP3 ADD DUP1 DUP3 GT ISZERO PUSH2 0x6D2 JUMPI PUSH2 0x6D2 PUSH2 0x831 JUMP JUMPDEST DUP1 DUP3 MUL DUP2 ISZERO DUP3 DUP3 DIV DUP5 EQ OR PUSH2 0x6D2 JUMPI PUSH2 0x6D2 PUSH2 0x831 JUMP JUMPDEST PUSH1 0x0 DUP3 PUSH2 0x88E JUMPI PUSH4 0x4E487B71 PUSH1 0xE0 SHL PUSH1 0x0 MSTORE PUSH1 0x12 PUSH1 0x4 MSTORE PUSH1 0x24 PUSH1 0x0 REVERT JUMPDEST POP DIV SWAP1 JUMP JUMPDEST PUSH1 0x0 PUSH1 0x1 DUP3 ADD PUSH2 0x8A5 JUMPI PUSH2 0x8A5 PUSH2 0x831 JUMP JUMPDEST POP PUSH1 0x1 ADD SWAP1 JUMP INVALID LOG2 PUSH5 0x6970667358 0x22 SLT KECCAK256 0x4A SUB JUMPI 0x27 ADDMOD 0xAF 0xEB 0xD8 SWAP4 0xE1 POP ADDRESS NOT 0xCE 0xEE 0xAB SWAP9 PUSH8 0xB1C043835CFB9D17 0xD7 0xE3 RETURNDATACOPY XOR LT SWAP4 PUSH5 0x736F6C6343 STOP ADDMOD EQ STOP CALLER "},"methodIdentifiers":{"getAverageRating(address)":"c8b67522","getRating(address,address)":"7dafeb54","getRatingAddresses(address)":"993aa627","getUserReputation(address)":"baccbfdb","hasBeenRated(address,address)":"eb73d2ba","jobContract()":"afd86a76","submitRating(address,uint8)":"d741daf2","updateWorker(address,uint256)":"a27caeb7","userReputations(address)":"f8b11691"}}}}}