{
  "_format": "hh-sol-artifact-1",
  "contractName": "ZKResume",
  "sourceName": "contracts/ZKResume.sol",
  "abi": [
    {
      "inputs": [
        {
          "internalType": "address",
          "name": "verifierAddr",
          "type": "address"
        }
      ],
      "stateMutability": "nonpayable",
      "type": "constructor"
    },
    {
      "anonymous": false,
      "inputs": [
        {
          "indexed": true,
          "internalType": "address",
          "name": "worker",
          "type": "address"
        }
      ],
      "name": "ResumeProofSubmitted",
      "type": "event"
    },
    {
      "inputs": [
        {
          "internalType": "address",
          "name": "",
          "type": "address"
        }
      ],
      "name": "proofs",
      "outputs": [
        {
          "internalType": "bytes",
          "name": "",
          "type": "bytes"
        }
      ],
      "stateMutability": "view",
      "type": "function"
    },
    {
      "inputs": [
        {
          "internalType": "bytes",
          "name": "proof",
          "type": "bytes"
        },
        {
          "internalType": "uint256[]",
          "name": "pubSignals",
          "type": "uint256[]"
        }
      ],
      "name": "submitProof",
      "outputs": [],
      "stateMutability": "nonpayable",
      "type": "function"
    },
    {
      "inputs": [],
      "name": "verifier",
      "outputs": [
        {
          "internalType": "contract IZKVerifier",
          "name": "",
          "type": "address"
        }
      ],
      "stateMutability": "view",
      "type": "function"
    }
  ],
  "bytecode": "0x60a060405234801561001057600080fd5b5060405161066638038061066683398101604081905261002f91610040565b6001600160a01b0316608052610070565b60006020828403121561005257600080fd5b81516001600160a01b038116811461006957600080fd5b9392505050565b6080516105d661009060003960008181605f015260d501526105d66000f3fe608060405234801561001057600080fd5b50600436106100405760003560e01c8062c80d81146100455780632b7ac3f31461005a578063a795f9e21461009e575b600080fd5b610058610053366004610277565b6100be565b005b6100817f000000000000000000000000000000000000000000000000000000000000000081565b6040516001600160a01b0390911681526020015b60405180910390f35b6100b16100ac36600461033c565b6101dd565b604051610095919061036c565b604051631e8e1e1360e01b81526001600160a01b037f00000000000000000000000000000000000000000000000000000000000000001690631e8e1e13906101109087908790879087906004016103ba565b602060405180830381865afa15801561012d573d6000803e3d6000fd5b505050506040513d601f19601f82011682018060405250810190610151919061041e565b6101915760405162461bcd60e51b815260206004820152600d60248201526c24b73b30b634b210383937b7b360991b604482015260640160405180910390fd5b3360009081526020819052604090206101ab8486836104df565b5060405133907fcf70a781be2faa45267b8cc0377209dffdf0e2dd8c7f3c1b94ad15a1e352618e90600090a250505050565b600060208190529081526040902080546101f690610456565b80601f016020809104026020016040519081016040528092919081815260200182805461022290610456565b801561026f5780601f106102445761010080835404028352916020019161026f565b820191906000526020600020905b81548152906001019060200180831161025257829003601f168201915b505050505081565b6000806000806040858703121561028d57600080fd5b843567ffffffffffffffff808211156102a557600080fd5b818701915087601f8301126102b957600080fd5b8135818111156102c857600080fd5b8860208285010111156102da57600080fd5b6020928301965094509086013590808211156102f557600080fd5b818701915087601f83011261030957600080fd5b81358181111561031857600080fd5b8860208260051b850101111561032d57600080fd5b95989497505060200194505050565b60006020828403121561034e57600080fd5b81356001600160a01b038116811461036557600080fd5b9392505050565b600060208083528351808285015260005b818110156103995785810183015185820160400152820161037d565b506000604082860101526040601f19601f8301168501019250505092915050565b6040815283604082015283856060830137600060608583018101829052601f19601f8701168301838103820160208501529081018490526001600160fb1b0384111561040557600080fd5b8360051b80866080840137016080019695505050505050565b60006020828403121561043057600080fd5b8151801515811461036557600080fd5b634e487b7160e01b600052604160045260246000fd5b600181811c9082168061046a57607f821691505b60208210810361048a57634e487b7160e01b600052602260045260246000fd5b50919050565b601f8211156104da57600081815260208120601f850160051c810160208610156104b75750805b601f850160051c820191505b818110156104d6578281556001016104c3565b5050505b505050565b67ffffffffffffffff8311156104f7576104f7610440565b61050b836105058354610456565b83610490565b6000601f84116001811461053f57600085156105275750838201355b600019600387901b1c1916600186901b178355610599565b600083815260209020601f19861690835b828110156105705786850135825560209485019460019092019101610550565b508682101561058d5760001960f88860031b161c19848701351681555b505060018560011b0183555b505050505056fea264697066735822122090d2c6d53ba51776bba766446a7f3f90e0cddb9956096d7ba4ff2b2940e6c78a64736f6c63430008140033",
  "linkReferences": {},
  "deployedLinkReferences": {}
}