{
  "_format": "hh-sol-artifact-1",
  "contractName": "JobFactory",
  "sourceName": "contracts/JobFactory.sol",
  "abi": [
    {
      "inputs": [
        {
          "internalType": "address",
          "name": "_admin",
          "type": "address"
        },
        {
          "internalType": "address",
          "name": "_disputeDAO",
          "type": "address"
        }
      ],
      "stateMutability": "nonpayable",
      "type": "constructor"
    },
    {
      "inputs": [],
      "name": "ReentrancyGuardReentrantCall",
      "type": "error"
    },
    {
      "anonymous": false,
      "inputs": [
        {
          "indexed": true,
          "internalType": "address",
          "name": "jobAddress",
          "type": "address"
        },
        {
          "indexed": true,
          "internalType": "address",
          "name": "employer",
          "type": "address"
        }
      ],
      "name": "JobCreated",
      "type": "event"
    },
    {
      "anonymous": false,
      "inputs": [
        {
          "indexed": false,
          "internalType": "uint256",
          "name": "newAmount",
          "type": "uint256"
        }
      ],
      "name": "MinimumJobAmountUpdated",
      "type": "event"
    },
    {
      "inputs": [],
      "name": "MINIMUM_JOB_AMOUNT",
      "outputs": [
        {
          "internalType": "uint256",
          "name": "",
          "type": "uint256"
        }
      ],
      "stateMutability": "view",
      "type": "function"
    },
    {
      "inputs": [],
      "name": "admin",
      "outputs": [
        {
          "internalType": "address",
          "name": "",
          "type": "address"
        }
      ],
      "stateMutability": "view",
      "type": "function"
    },
    {
      "inputs": [
        {
          "internalType": "uint256",
          "name": "",
          "type": "uint256"
        }
      ],
      "name": "allJobs",
      "outputs": [
        {
          "internalType": "address",
          "name": "",
          "type": "address"
        }
      ],
      "stateMutability": "view",
      "type": "function"
    },
    {
      "inputs": [
        {
          "internalType": "uint256",
          "name": "_totalPay",
          "type": "uint256"
        }
      ],
      "name": "calculateJobCost",
      "outputs": [
        {
          "internalType": "uint256",
          "name": "totalCost",
          "type": "uint256"
        },
        {
          "internalType": "uint256",
          "name": "fee",
          "type": "uint256"
        }
      ],
      "stateMutability": "pure",
      "type": "function"
    },
    {
      "inputs": [
        {
          "internalType": "address",
          "name": "_employer",
          "type": "address"
        },
        {
          "internalType": "uint8",
          "name": "_payType",
          "type": "uint8"
        },
        {
          "internalType": "uint256",
          "name": "_weeklyPay",
          "type": "uint256"
        },
        {
          "internalType": "uint256",
          "name": "_durationWeeks",
          "type": "uint256"
        },
        {
          "internalType": "uint256",
          "name": "_totalPay",
          "type": "uint256"
        },
        {
          "internalType": "string",
          "name": "_title",
          "type": "string"
        },
        {
          "internalType": "string",
          "name": "_description",
          "type": "string"
        },
        {
          "internalType": "uint256",
          "name": "_positions",
          "type": "uint256"
        },
        {
          "internalType": "string[]",
          "name": "_tags",
          "type": "string[]"
        }
      ],
      "name": "createJob",
      "outputs": [
        {
          "internalType": "address",
          "name": "",
          "type": "address"
        }
      ],
      "stateMutability": "payable",
      "type": "function"
    },
    {
      "inputs": [],
      "name": "disputeDAOAddress",
      "outputs": [
        {
          "internalType": "address",
          "name": "",
          "type": "address"
        }
      ],
      "stateMutability": "view",
      "type": "function"
    },
    {
      "inputs": [],
      "name": "feeRecipient",
      "outputs": [
        {
          "internalType": "address payable",
          "name": "",
          "type": "address"
        }
      ],
      "stateMutability": "view",
      "type": "function"
    },
    {
      "inputs": [],
      "name": "getAllJobs",
      "outputs": [
        {
          "internalType": "address[]",
          "name": "",
          "type": "address[]"
        }
      ],
      "stateMutability": "view",
      "type": "function"
    },
    {
      "inputs": [],
      "name": "getMinimumJobAmount",
      "outputs": [
        {
          "internalType": "uint256",
          "name": "",
          "type": "uint256"
        }
      ],
      "stateMutability": "pure",
      "type": "function"
    },
    {
      "inputs": [],
      "name": "getTotalJobsCount",
      "outputs": [
        {
          "internalType": "uint256",
          "name": "",
          "type": "uint256"
        }
      ],
      "stateMutability": "view",
      "type": "function"
    },
    {
      "inputs": [
        {
          "internalType": "address",
          "name": "_newAdmin",
          "type": "address"
        }
      ],
      "name": "updateAdmin",
      "outputs": [],
      "stateMutability": "nonpayable",
      "type": "function"
    },
    {
      "inputs": [
        {
          "internalType": "address",
          "name": "_newDisputeDAO",
          "type": "address"
        }
      ],
      "name": "updateDisputeDAO",
      "outputs": [],
      "stateMutability": "nonpayable",
      "type": "function"
    },
    {
      "inputs": [
        {
          "internalType": "address payable",
          "name": "_newFeeRecipient",
          "type": "address"
        }
      ],
      "name": "updateFeeRecipient",
      "outputs": [],
      "stateMutability": "nonpayable",
      "type": "function"
    }
  ],
  "bytecode": "0x6080604052600280546001600160a01b03191673a0c5048c32870bb66d0be861643cd6bb5f66ada217905534801561003657600080fd5b50604051615769380380615769833981016040819052610055916100a7565b6001600081905580546001600160a01b039384166001600160a01b031991821617909155600380549290931691161790556100da565b80516001600160a01b03811681146100a257600080fd5b919050565b600080604083850312156100ba57600080fd5b6100c38361008b565b91506100d16020840161008b565b90509250929050565b615680806100e96000396000f3fe608060405260043610620000b05760003560e01c80631b58762414620000b55780631c78ee2614620000e95780632d40e072146200010b57806346904840146200013857806352753dd2146200015a57806390c3e9791462000177578063965a79fb146200019c578063a87a873214620001c3578063e2f273bd14620001da578063e880a99b1462000201578063f160d369146200023c578063f851a4401462000261578063f93d532a1462000283575b600080fd5b620000cc620000c636600462000976565b620002a8565b6040516001600160a01b0390911681526020015b60405180910390f35b348015620000f657600080fd5b50600354620000cc906001600160a01b031681565b3480156200011857600080fd5b5062000129674563918244f4000081565b604051908152602001620000e0565b3480156200014557600080fd5b50600254620000cc906001600160a01b031681565b3480156200016757600080fd5b50674563918244f4000062000129565b3480156200018457600080fd5b50620000cc6200019636600462000a54565b620004e9565b348015620001a957600080fd5b50620001b462000514565b604051620000e0919062000a6e565b348015620001d057600080fd5b5060045462000129565b348015620001e757600080fd5b50620001ff620001f936600462000abd565b62000578565b005b3480156200020e57600080fd5b50620002266200022036600462000a54565b62000617565b60408051928352602083019190915201620000e0565b3480156200024957600080fd5b50620001ff6200025b36600462000abd565b62000676565b3480156200026e57600080fd5b50600154620000cc906001600160a01b031681565b3480156200029057600080fd5b50620001ff620002a236600462000abd565b6200071d565b6000674563918244f40000861015620002de5760405162461bcd60e51b8152600401620002d59062000ae4565b60405180910390fd5b6000612710620002f088604b62000b2c565b620002fc919062000b4c565b90506200030a818862000b6f565b34146200034e5760405162461bcd60e51b8152602060048201526011602482015270125b98dbdc9c9958dd081c185e5b595b9d607a1b6044820152606401620002d5565b6002546040516000916001600160a01b03169083908381818185875af1925050503d80600081146200039d576040519150601f19603f3d011682016040523d82523d6000602084013e620003a2565b606091505b5050905080620003ea5760405162461bcd60e51b8152602060048201526012602482015271119959481c185e5b595b9d0819985a5b195960721b6044820152606401620002d5565b6000888d8d8d8d8d8d8d8d600360009054906101000a90046001600160a01b03168e6040516200041a90620007c2565b6200042f9a9998979695949392919062000bcd565b6040518091039082f09050801580156200044d573d6000803e3d6000fd5b5090506004819080600181540180825580915050600190039060005260206000200160009091909190916101000a8154816001600160a01b0302191690836001600160a01b031602179055508c6001600160a01b0316816001600160a01b03167f973abf9a077fe09805f52cd14812b946365d963988cd99fcad9d47f8fa3d082b60405160405180910390a39c9b505050505050505050505050565b60048181548110620004fa57600080fd5b6000918252602090912001546001600160a01b0316905081565b606060048054806020026020016040519081016040528092919081815260200182805480156200056e57602002820191906000526020600020905b81546001600160a01b031681526001909101906020018083116200054f575b5050505050905090565b6001546001600160a01b03163314620005a55760405162461bcd60e51b8152600401620002d59062000ca3565b6001600160a01b038116620005f55760405162461bcd60e51b8152602060048201526015602482015274496e76616c69642061646d696e206164647265737360581b6044820152606401620002d5565b600180546001600160a01b0319166001600160a01b0392909216919091179055565b600080674563918244f40000831015620006455760405162461bcd60e51b8152600401620002d59062000ae4565b6127106200065584604b62000b2c565b62000661919062000b4c565b90506200066f818462000b6f565b9150915091565b6001546001600160a01b03163314620006a35760405162461bcd60e51b8152600401620002d59062000ca3565b6001600160a01b038116620006fb5760405162461bcd60e51b815260206004820152601d60248201527f496e76616c69642066656520726563697069656e7420616464726573730000006044820152606401620002d5565b600280546001600160a01b0319166001600160a01b0392909216919091179055565b6001546001600160a01b031633146200074a5760405162461bcd60e51b8152600401620002d59062000ca3565b6001600160a01b038116620007a05760405162461bcd60e51b815260206004820152601b60248201527a496e76616c696420646973707574652044414f206164647265737360281b6044820152606401620002d5565b600380546001600160a01b0319166001600160a01b0392909216919091179055565b6149848062000cc783390190565b6001600160a01b0381168114620007e657600080fd5b50565b8035620007f681620007d0565b919050565b803560ff81168114620007f657600080fd5b634e487b7160e01b600052604160045260246000fd5b604051601f8201601f191681016001600160401b03811182821017156200084e576200084e6200080d565b604052919050565b600082601f8301126200086857600080fd5b81356001600160401b038111156200088457620008846200080d565b62000899601f8201601f191660200162000823565b818152846020838601011115620008af57600080fd5b816020850160208301376000918101602001919091529392505050565b600082601f830112620008de57600080fd5b813560206001600160401b0380831115620008fd57620008fd6200080d565b8260051b6200090e83820162000823565b93845285810183019383810190888611156200092957600080fd5b84880192505b858310156200096a57823584811115620009495760008081fd5b620009598a87838c010162000856565b83525091840191908401906200092f565b98975050505050505050565b60008060008060008060008060006101208a8c0312156200099657600080fd5b620009a18a620007e9565b9850620009b160208b01620007fb565b975060408a0135965060608a0135955060808a0135945060a08a01356001600160401b0380821115620009e357600080fd5b620009f18d838e0162000856565b955060c08c013591508082111562000a0857600080fd5b62000a168d838e0162000856565b945060e08c013593506101008c013591508082111562000a3557600080fd5b5062000a448c828d01620008cc565b9150509295985092959850929598565b60006020828403121562000a6757600080fd5b5035919050565b6020808252825182820181905260009190848201906040850190845b8181101562000ab15783516001600160a01b03168352928401929184019160010162000a8a565b50909695505050505050565b60006020828403121562000ad057600080fd5b813562000add81620007d0565b9392505050565b6020808252601890820152774a6f6220616d6f756e742062656c6f77206d696e696d756d60401b604082015260600190565b634e487b7160e01b600052601160045260246000fd5b808202811582820484141762000b465762000b4662000b16565b92915050565b60008262000b6a57634e487b7160e01b600052601260045260246000fd5b500490565b8082018082111562000b465762000b4662000b16565b6000815180845260005b8181101562000bad5760208185018101518683018201520162000b8f565b506000602082860101526020601f19601f83011685010191505092915050565b600061014060018060a01b03808e168452602060ff8e16818601528c60408601528b60608601528a60808601528260a086015262000c0e8386018b62000b85565b925084830360c086015262000c24838a62000b85565b60e08601899052918716610100860152848203610120860152855180835291925080830191600581901b8401820182880160005b8381101562000c8a57601f1987840301865262000c7783835162000b85565b9585019592509084019060010162000c58565b505080955050505050509b9a5050505050505050505050565b6020808252600990820152682737ba1030b236b4b760b91b60408201526060019056fe6101406040819052600f805461ffff191690556200498438819003908190833981016040819052620000319162000367565b600160008190556001600160a01b038b1660a05260ff8a16908111156200005c576200005c6200045b565b60018111156200007057620000706200045b565b60808160018111156200008757620000876200045b565b90525060c088905260e08790526101008690526003839055426101208190526001556004620000b7868262000500565b506005620000c6858262000500565b5060005b81518110156200012c576006828281518110620000eb57620000eb620005cc565b6020908102919091018101518254600181018455600093845291909220019062000116908262000500565b50806200012381620005e2565b915050620000ca565b50306040516200013c90620001aa565b6001600160a01b039091168152602001604051809103906000f08015801562000169573d6000803e3d6000fd5b50600780546001600160a01b039283166001600160a01b0319918216179091556008805494909216931692909217909155506200060a975050505050505050565b610975806200400f83390190565b80516001600160a01b0381168114620001d057600080fd5b919050565b805160ff81168114620001d057600080fd5b634e487b7160e01b600052604160045260246000fd5b604051601f8201601f191681016001600160401b0381118282101715620002285762000228620001e7565b604052919050565b600082601f8301126200024257600080fd5b81516001600160401b038111156200025e576200025e620001e7565b602062000274601f8301601f19168201620001fd565b82815285828487010111156200028957600080fd5b60005b83811015620002a95785810183015182820184015282016200028c565b506000928101909101919091529392505050565b600082601f830112620002cf57600080fd5b815160206001600160401b0380831115620002ee57620002ee620001e7565b8260051b620002ff838201620001fd565b93845285810183019383810190888611156200031a57600080fd5b84880192505b858310156200035b578251848111156200033a5760008081fd5b6200034a8a87838c010162000230565b835250918401919084019062000320565b98975050505050505050565b6000806000806000806000806000806101408b8d0312156200038857600080fd5b620003938b620001b8565b9950620003a360208c01620001d5565b60408c015160608d015160808e015160a08f0151939c50919a50985096506001600160401b0380821115620003d757600080fd5b620003e58e838f0162000230565b965060c08d0151915080821115620003fc57600080fd5b6200040a8e838f0162000230565b955060e08d01519450620004226101008e01620001b8565b93506101208d01519150808211156200043a57600080fd5b50620004498d828e01620002bd565b9150509295989b9194979a5092959850565b634e487b7160e01b600052602160045260246000fd5b600181811c908216806200048657607f821691505b602082108103620004a757634e487b7160e01b600052602260045260246000fd5b50919050565b601f821115620004fb57600081815260208120601f850160051c81016020861015620004d65750805b601f850160051c820191505b81811015620004f757828155600101620004e2565b5050505b505050565b81516001600160401b038111156200051c576200051c620001e7565b62000534816200052d845462000471565b84620004ad565b602080601f8311600181146200056c5760008415620005535750858301515b600019600386901b1c1916600185901b178555620004f7565b600085815260208120601f198616915b828110156200059d578886015182559484019460019091019084016200057c565b5085821015620005bc5787850151600019600388901b60f8161c191681555b5050505050600190811b01905550565b634e487b7160e01b600052603260045260246000fd5b6000600182016200060357634e487b7160e01b600052601160045260246000fd5b5060010190565b60805160a05160c05160e0516101005161012051613929620006e660003960006107190152600081816107580152610cb401526000818161048f0152818161146c015281816115d20152611d0a0152600081816106bc01526114e80152600081816105d5015281816109ab01528181610b2a015281816110a6015281816112d501528181611e04015281816121d601528181612341015281816125c60152818161263301528181612b9e0152612e2301526000818161050f01528181610b9b0152818161134601528181611c2e015261278a01526139296000f3fe608060405234801561001057600080fd5b50600436106102b85760003560e01c8063a678b65b11610173578063c52164c6116100d4578063c52164c6146106a4578063cc5870e4146106b7578063ccd66863146106de578063cec81c44146106f1578063cf09e0d014610714578063d31a385e1461073b578063d4bcdc3d14610743578063de87bca01461074b578063e154adf514610753578063e28f80741461077a578063e9c566cd1461078d578063f1c2d0d9146107a0578063f35c181d146107b3578063f7453d14146107d657600080fd5b8063a678b65b1461053e578063aa15664514610551578063aab097c814610574578063abdfd95814610587578063acec338a146105aa578063ada03159146105bd578063ae200e79146105d0578063afc5ce44146105f7578063b07c7475146105ff578063b40cc27714610607578063b85656541461061a578063b94b32951461066b578063ba5b79821461068e578063bb971fb21461069757600080fd5b80634a7de5f21161021d5780634a7de5f21461044057806353f537e314610453578063581c091b1461045c578063595210ad1461046457806368d5526f146104775780636d6356f01461048a5780637284e416146104b15780637552a5df146104b957806377444917146104cc578063778c559b146104df5780638ae52a38146104f25780638ae9487c146104fa5780639ac7e6a9146105025780639da2fb3f1461050a57600080fd5b806309413a51146102bd5780630d9485fc146102f55780630fc9b95d14610323578063123c0b2b146103465780631fcf55ff1461034f57806320822abc1461035957806324548fe714610379578063273df8f51461038c5780632a0acc6a146103af5780633638a8b2146103e2578063388d5399146103f55780633b8e1bf51461040a578063438baa55146104305780634a79d50c14610438575b600080fd5b6102e06102cb3660046130e7565b60126020526000908152604090205460ff1681565b60405190151581526020015b60405180910390f35b6103156103033660046130e7565b600d6020526000908152604090205481565b6040519081526020016102ec565b6102e06103313660046130e7565b60096020526000908152604090205460ff1681565b61031560025481565b6103576107e8565b005b61036c610367366004613102565b6108f4565b6040516102ec9190613161565b6103576103873660046130e7565b6109a0565b6102e061039a3660046130e7565b600b6020526000908152604090205460ff1681565b6103ca73a0c5048c32870bb66d0be861643cd6bb5f66ada281565b6040516001600160a01b0390911681526020016102ec565b6103576103f03660046130e7565b610b1f565b6103fd610e8e565b6040516102ec9190613174565b61041d6104183660046130e7565b610ef0565b6040516102ec97969594939291906131d7565b61035761109b565b61036c611143565b6102e061044e3660046130e7565b611150565b61031560015481565b601054610315565b61035761047236600461323b565b6111de565b6103576104853660046130e7565b6112ca565b6103157f000000000000000000000000000000000000000000000000000000000000000081565b61036c6116c8565b6102e06104c73660046130e7565b6116d5565b61036c6104da3660046130e7565b61175f565b6103576104ed3660046132c2565b6118ab565b6103fd611b76565b6102e0611bd6565b610357611c02565b6105317f000000000000000000000000000000000000000000000000000000000000000081565b6040516102ec9190613372565b61035761054c3660046130e7565b611df9565b6102e061055f3660046130e7565b60146020526000908152604090205460ff1681565b6103ca610582366004613102565b612039565b6102e06105953660046130e7565b600c6020526000908152604090205460ff1681565b6103576105b836600461338c565b612063565b6103ca6105cb366004613102565b6120f7565b6103ca7f000000000000000000000000000000000000000000000000000000000000000081565b610315612107565b6103576121cb565b6103576106153660046133bf565b612432565b6106546106283660046130e7565b6001600160a01b03166000908152600c6020908152604080832054600d9092529091205460ff90911691565b6040805192151583526020830191909152016102ec565b6102e06106793660046130e7565b600a6020526000908152604090205460ff1681565b61031560035481565b600f546102e09060ff1681565b6007546103ca906001600160a01b031681565b6103157f000000000000000000000000000000000000000000000000000000000000000081565b61041d6106ec3660046130e7565b612688565b6102e06106ff3660046130e7565b600e6020526000908152604090205460ff1681565b6103157f000000000000000000000000000000000000000000000000000000000000000081565b61035761275e565b6103fd612835565b6103fd612a0b565b6103157f000000000000000000000000000000000000000000000000000000000000000081565b6103576107883660046130e7565b612b93565b61035761079b3660046133da565b612e18565b6008546103ca906001600160a01b031681565b6102e06107c13660046130e7565b60156020526000908152604090205460ff1681565b600f546102e090610100900460ff1681565b3360009081526012602052604090205460ff166108205760405162461bcd60e51b81526004016108179061340d565b60405180910390fd5b3360009081526011602052604090206003015460ff166108825760405162461bcd60e51b815260206004820152601c60248201527f4170706c69636174696f6e20616c726561647920696e616374697665000000006044820152606401610817565b3360009081526014602052604090205460ff16156108b25760405162461bcd60e51b81526004016108179061343b565b33600081815260116020526040808220600301805460ff19169055517fc6a566fc730a6d604ab0cdb7b53172fbd7db34f6e5434d23927fcdad6640e64f9190a2565b6006818154811061090457600080fd5b90600052602060002001600091509050805461091f9061346f565b80601f016020809104026020016040519081016040528092919081815260200182805461094b9061346f565b80156109985780601f1061096d57610100808354040283529160200191610998565b820191906000526020600020905b81548152906001019060200180831161097b57829003601f168201915b505050505081565b336001600160a01b037f000000000000000000000000000000000000000000000000000000000000000016146109e85760405162461bcd60e51b8152600401610817906134a3565b600f54610100900460ff1615610a105760405162461bcd60e51b8152600401610817906134ca565b6001600160a01b03811660009081526012602052604090205460ff16610a485760405162461bcd60e51b81526004016108179061340d565b6001600160a01b03811660009081526011602052604090206003015460ff16610a835760405162461bcd60e51b8152600401610817906134fa565b6001600160a01b03811660009081526014602052604090205460ff1615610abc5760405162461bcd60e51b81526004016108179061343b565b6001600160a01b03811660008181526011602052604080822060038101805442600484015561ffff1916610100179055600501805460ff19169055517f100f0d5a3ed6f212cbb8c205e4544ae49888e8f4081af2c28afb3883391b8b809190a250565b336001600160a01b037f00000000000000000000000000000000000000000000000000000000000000001614610b675760405162461bcd60e51b8152600401610817906134a3565b610b6f6130a1565b600f54610100900460ff1615610b975760405162461bcd60e51b8152600401610817906134ca565b60017f00000000000000000000000000000000000000000000000000000000000000006001811115610bcb57610bcb6131c1565b14610be85760405162461bcd60e51b81526004016108179061352a565b6001600160a01b03811660009081526014602052604090205460ff16610c205760405162461bcd60e51b81526004016108179061354f565b6001600160a01b03811660009081526015602052604090205460ff16610c585760405162461bcd60e51b815260040161081790613575565b6001600160a01b0381166000908152600c602052604090205460ff16610c905760405162461bcd60e51b815260040161081790613597565b6001600160a01b0381166000818152600c6020526040808220805460ff19169055517f00000000000000000000000000000000000000000000000000000000000000009284929184908381818185875af1925050503d8060008114610d11576040519150601f19603f3d011682016040523d82523d6000602084013e610d16565b606091505b5050905080610d375760405162461bcd60e51b8152600401610817906135c3565b60075460405163a27caeb760e01b81526001600160a01b039091169063a27caeb790610d6a9085906001906004016135e7565b600060405180830381600087803b158015610d8457600080fd5b505af1158015610d98573d6000803e3d6000fd5b505050506001600160a01b03821660008181526009602090815260408083208054600160ff199182168117909255600e84529382902080549094161790925590518581527f9250be6d331c7b11672fc0207421bfc1631fb0ddfa5479299c034ac0ec06583c910160405180910390a2816001600160a01b03167fd8d171e9282727e9227efa1afc482fc744e84c7b8233e44e03450844ba34abdf84604051610e4291815260200190565b60405180910390a26040516001600160a01b038316907fa7ce9489b811cd79bb8695d6ad4051484c96aea68805ffa76eea626f7121f80090600090a2505050610e8b6001600055565b50565b60606010805480602002602001604051908101604052809291908181526020018280548015610ee657602002820191906000526020600020905b81546001600160a01b03168152600190910190602001808311610ec8575b5050505050905090565b6001600160a01b0381166000908152601260205260408120546060908290819081908190819060ff16610f355760405162461bcd60e51b81526004016108179061340d565b6001600160a01b038089166000908152601160209081526040808320815160e0810190925280549094168152600184018054939491939192840191610f799061346f565b80601f0160208091040260200160405190810160405280929190818152602001828054610fa59061346f565b8015610ff25780601f10610fc757610100808354040283529160200191610ff2565b820191906000526020600020905b815481529060010190602001808311610fd557829003601f168201915b50505091835250506002820154602082015260038083015460ff808216151560408501526060909301926101009091041690811115611033576110336131c1565b6003811115611044576110446131c1565b8152600482015460208083019190915260059092015460ff161515604091820152825191830151908301516060840151608085015160a086015160c090960151949f939e50919c509a509850919650945092505050565b336001600160a01b037f000000000000000000000000000000000000000000000000000000000000000016146110e35760405162461bcd60e51b8152600401610817906134a3565b600f54610100900460ff161561110b5760405162461bcd60e51b8152600401610817906134ca565b600f805460ff191660011790556040517ff15447bf6e80cadb12851e8f57292eb42c9df96cbabf91c1bd239e35813e52cc90600090a1565b6004805461091f9061346f565b600f54600090610100900460ff1615801561118357506001600160a01b03821660009081526014602052604090205460ff165b80156111b357506001600160a01b0382166000908152600e602052604090205460ff16806111b35750600f5460ff165b80156111d857506001600160a01b0382166000908152600b602052604090205460ff16155b92915050565b600f54610100900460ff16156112065760405162461bcd60e51b8152600401610817906134ca565b600854604051637569a44d60e11b81526000916001600160a01b03169063ead3489a9061123b90309087908790600401613629565b6020604051808303816000875af115801561125a573d6000803e3d6000fd5b505050506040513d601f19601f8201168201806040525081019061127e9190613657565b9050336001600160a01b03167f90dbc172d69d9ef2ed29aa7a0aa260e1e96930cb705d72a22bcd2cfbe3b27f3b8285856040516112bd93929190613670565b60405180910390a2505050565b336001600160a01b037f000000000000000000000000000000000000000000000000000000000000000016146113125760405162461bcd60e51b8152600401610817906134a3565b61131a6130a1565b600f54610100900460ff16156113425760405162461bcd60e51b8152600401610817906134ca565b60007f00000000000000000000000000000000000000000000000000000000000000006001811115611376576113766131c1565b146113935760405162461bcd60e51b81526004016108179061368a565b6001600160a01b03811660009081526014602052604090205460ff166113cb5760405162461bcd60e51b81526004016108179061354f565b6001600160a01b03811660009081526015602052604090205460ff166114035760405162461bcd60e51b815260040161081790613575565b6001600160a01b0381166000908152600c602052604090205460ff1661143b5760405162461bcd60e51b815260040161081790613597565b60015461144b9062093a806136c4565b42101561146a5760405162461bcd60e51b8152600401610817906136d7565b7f0000000000000000000000000000000000000000000000000000000000000000600254106114ab5760405162461bcd60e51b8152600401610817906136f9565b42600155600280549060006114bf8361371b565b90915550506001600160a01b0381166000818152600c6020526040808220805460ff19169055517f00000000000000000000000000000000000000000000000000000000000000009284929184908381818185875af1925050503d8060008114611545576040519150601f19603f3d011682016040523d82523d6000602084013e61154a565b606091505b505090508061156b5760405162461bcd60e51b8152600401610817906135c3565b60075460405163a27caeb760e01b81526001600160a01b039091169063a27caeb79061159e9085906001906004016135e7565b600060405180830381600087803b1580156115b857600080fd5b505af11580156115cc573d6000803e3d6000fd5b505050507f000000000000000000000000000000000000000000000000000000000000000060025403611635576001600160a01b03821660009081526009602090815260408083208054600160ff199182168117909255600e9093529220805490911690911790555b816001600160a01b03167f9250be6d331c7b11672fc0207421bfc1631fb0ddfa5479299c034ac0ec06583c8460405161167091815260200190565b60405180910390a2816001600160a01b03167fdf20fd1e76bc69d672e4814fafb2c449bba3a5369d8359adf9e05e6fde87b056846040516116b391815260200190565b60405180910390a2505050610e8b6001600055565b6005805461091f9061346f565b600f54600090610100900460ff1615801561170857506001600160a01b03821660009081526014602052604090205460ff165b801561173857506001600160a01b0382166000908152600b602052604090205460ff16806117385750600f5460ff165b80156111d85750506001600160a01b03166000908152600a602052604090205460ff161590565b6001600160a01b03811660009081526012602052604090205460609060ff1661179a5760405162461bcd60e51b81526004016108179061340d565b6001600160a01b038216600090815260116020526040812060030154610100900460ff16908160038111156117d1576117d16131c1565b036117fb57505060408051808201909152600781526650656e64696e6760c81b6020820152919050565b600181600381111561180f5761180f6131c1565b03611886576001600160a01b03831660009081526011602052604090206005015460ff1661185d5760405180604001604052806008815260200167111958db1a5b995960c21b81525061187f565b604051806040016040528060088152602001671058d8d95c1d195960c21b8152505b9392505050565b50506040805180820190915260078152662ab735b737bbb760c91b6020820152919050565b600f54610100900460ff16156118d35760405162461bcd60e51b8152600401610817906134ca565b60008151116119225760405162461bcd60e51b815260206004820152601b60248201527a4170706c69636174696f6e2063616e6e6f7420626520656d70747960281b6044820152606401610817565b3360009081526012602052604090205460ff16156119745760405162461bcd60e51b815260206004820152600f60248201526e105b1c9958591e48185c1c1b1a5959608a1b6044820152606401610817565b3360009081526014602052604090205460ff16156119a45760405162461bcd60e51b81526004016108179061343b565b600354601354106119ee5760405162461bcd60e51b8152602060048201526014602482015273105b1b081c1bdcda5d1a5bdb9cc8199a5b1b195960621b6044820152606401610817565b6040805160e08101825233815260208101839052429181019190915260016060820152608081016000815260006020808301829052604092830182905233825260118152919020825181546001600160a01b0319166001600160a01b03909116178155908201516001820190611a649082613783565b506040820151600282015560608201516003808301805492151560ff19841681178255608086015193919261ff001990911661ffff199092169190911790610100908490811115611ab757611ab76131c1565b021790555060a0820151600482015560c0909101516005909101805491151560ff1992831617905533600081815260126020526040808220805490941660019081179094556010805494850181559091527f1b6847dc741a1b0cd08d278845f9d819d87b734759afb55fe2de5cb82a9ae67290920180546001600160a01b0319168217905590517f4d954d97ff5f7e3ceb48557e63515f2b6d839b08e9cb52c79f8be5347e86ad5590611b6b908490613161565b60405180910390a250565b60606013805480602002602001604051908101604052809291908181526020018280548015610ee6576020028201919060005260206000209081546001600160a01b03168152600190910190602001808311610ec8575050505050905090565b600f54600090610100900460ff16158015611bf15750601354155b8015611bfd5750600254155b905090565b600f54610100900460ff1615611c2a5760405162461bcd60e51b8152600401610817906134ca565b60007f00000000000000000000000000000000000000000000000000000000000000006001811115611c5e57611c5e6131c1565b14611c7b5760405162461bcd60e51b81526004016108179061368a565b3360009081526014602052604090205460ff16611caa5760405162461bcd60e51b81526004016108179061354f565b3360009081526015602052604090205460ff16611cd95760405162461bcd60e51b815260040161081790613575565b600154611ce99062093a806136c4565b421015611d085760405162461bcd60e51b8152600401610817906136d7565b7f000000000000000000000000000000000000000000000000000000000000000060025410611d495760405162461bcd60e51b8152600401610817906136f9565b336000908152600c602052604090205460ff1615611d9d5760405162461bcd60e51b8152602060048201526011602482015270105b1c9958591e481c995c5d595cdd1959607a1b6044820152606401610817565b336000818152600c60209081526040808320805460ff19166001179055600d825291829020429081905591519182527f4a0353366c54503c4eb4d024baf56134b0a62137ed7b5f688a205cb8ec34758f910160405180910390a2565b336001600160a01b037f00000000000000000000000000000000000000000000000000000000000000001614611e415760405162461bcd60e51b8152600401610817906134a3565b600f54610100900460ff1615611e695760405162461bcd60e51b8152600401610817906134ca565b6001600160a01b03811660009081526012602052604090205460ff16611ea15760405162461bcd60e51b81526004016108179061340d565b6001600160a01b03811660009081526011602052604090206003015460ff16611edc5760405162461bcd60e51b8152600401610817906134fa565b6001600160a01b03811660009081526014602052604090205460ff1615611f155760405162461bcd60e51b81526004016108179061343b565b60035460135410611f385760405162461bcd60e51b815260040161081790613842565b6001600160a01b038116600081815260116020908152604080832060038101805442600484015561ffff1916610100179055600501805460ff19908116600190811790925560148452828520805482168317905560159093528184208054909316811790925560138054928301815583527f66de8ffda797e3de9c05e8fc57b3bf0ec28a930d40b0d285d93c06501cf6a09090910180546001600160a01b03191684179055517f485af27643b0f91058287eb2aa76b88703036e31298f4a07f7efbbbf7ffa5f8b9190a26040516001600160a01b038216907f9f4c97600ac649eabe56724216338e96fe75493563dc37a3e489a8c46228d75690600090a250565b6013818154811061204957600080fd5b6000918252602090912001546001600160a01b0316905081565b600f54610100900460ff161561208b5760405162461bcd60e51b8152600401610817906134ca565b3360009081526014602052604090205460ff166120d75760405162461bcd60e51b815260206004820152600a6024820152692737ba103bb7b935b2b960b11b6044820152606401610817565b336000908152601560205260409020805460ff1916911515919091179055565b6010818154811061204957600080fd5b600080805b6010548110156121c557601160006010838154811061212d5761212d613870565b60009182526020808320909101546001600160a01b0316835282019290925260400190206003015460ff1680156121a05750601460006010838154811061217657612176613870565b60009182526020808320909101546001600160a01b0316835282019290925260400190205460ff16155b156121b357816121af8161371b565b9250505b806121bd8161371b565b91505061210c565b50919050565b336001600160a01b037f000000000000000000000000000000000000000000000000000000000000000016146122135760405162461bcd60e51b8152600401610817906134a3565b61221b6130a1565b600f54610100900460ff161561226b5760405162461bcd60e51b8152602060048201526015602482015274129bd888185b1c9958591e4818d85b98d95b1b1959605a1b6044820152606401610817565b601354156122cb5760405162461bcd60e51b815260206004820152602760248201527f43616e6e6f742063616e63656c206a6f6220776974682061737369676e656420604482015266776f726b65727360c81b6064820152608401610817565b600254156123275760405162461bcd60e51b8152602060048201526024808201527f43616e6e6f742063616e63656c206a6f622077697468207061796d656e7473206044820152636d61646560e01b6064820152608401610817565b600f805461ff0019166101001790554780156123f25760007f00000000000000000000000000000000000000000000000000000000000000006001600160a01b03168260405160006040518083038185875af1925050503d80600081146123aa576040519150601f19603f3d011682016040523d82523d6000602084013e6123af565b606091505b50509050806123f05760405162461bcd60e51b815260206004820152600d60248201526c1499599d5b990819985a5b1959609a1b6044820152606401610817565b505b6040518181527f58243f872c550ad02802199ade99eb4250f6bb19e9abbf2d3de7b969c0eb5e4f9060200160405180910390a1506124306001600055565b565b600f54610100900460ff161561245a5760405162461bcd60e51b8152600401610817906134ca565b3360009081526014602052604090205460ff166124895760405162461bcd60e51b815260040161081790613886565b336000908152600b602052604090205460ff16806124a95750600f5460ff165b6124f55760405162461bcd60e51b815260206004820152601d60248201527f456d706c6f796572206861736e277420726174656420796f75207965740000006044820152606401610817565b336000908152600a602052604090205460ff161561254e5760405162461bcd60e51b815260206004820152601660248201527520b63932b0b23c903930ba32b21032b6b83637bcb2b960511b6044820152606401610817565b60018160ff1610158015612566575060058160ff1611155b6125825760405162461bcd60e51b8152600401610817906138ac565b336000908152600a602052604090819020805460ff191660011790556007549051636ba0ed7960e11b81526001600160a01b03919091169063d741daf2906125f0907f00000000000000000000000000000000000000000000000000000000000000009085906004016138d7565b600060405180830381600087803b15801561260a57600080fd5b505af115801561261e573d6000803e3d6000fd5b505060405160ff841681526001600160a01b037f00000000000000000000000000000000000000000000000000000000000000001692503391507ff679ed47d9d270fdbcc0841fa6aaada363a11452a6629e5a49223b28fc0830659060200160405180910390a350565b601160205260009081526040902080546001820180546001600160a01b0390921692916126b49061346f565b80601f01602080910402602001604051908101604052809291908181526020018280546126e09061346f565b801561272d5780601f106127025761010080835404028352916020019161272d565b820191906000526020600020905b81548152906001019060200180831161271057829003601f168201915b5050506002840154600385015460048601546005909601549495919460ff8083169550610100909204821693501687565b600f54610100900460ff16156127865760405162461bcd60e51b8152600401610817906134ca565b60017f000000000000000000000000000000000000000000000000000000000000000060018111156127ba576127ba6131c1565b146127d75760405162461bcd60e51b81526004016108179061352a565b3360009081526014602052604090205460ff166128065760405162461bcd60e51b81526004016108179061354f565b3360009081526015602052604090205460ff16611d495760405162461bcd60e51b815260040161081790613575565b60606000805b6010548110156128f457601160006010838154811061285c5761285c613870565b60009182526020808320909101546001600160a01b0316835282019290925260400190206003015460ff1680156128cf575060146000601083815481106128a5576128a5613870565b60009182526020808320909101546001600160a01b0316835282019290925260400190205460ff16155b156128e257816128de8161371b565b9250505b806128ec8161371b565b91505061283b565b506000816001600160401b0381111561290f5761290f6132ac565b604051908082528060200260200182016040528015612938578160200160208202803683370190505b5090506000805b601054811015612a025760006010828154811061295e5761295e613870565b60009182526020808320909101546001600160a01b0316808352601190915260409091206003015490915060ff1680156129b157506001600160a01b03811660009081526014602052604090205460ff16155b156129ef57808484815181106129c9576129c9613870565b6001600160a01b0390921660209283029190910190910152826129eb8161371b565b9350505b50806129fa8161371b565b91505061293f565b50909392505050565b60606000805b601354811015612a7f57600c600060138381548110612a3257612a32613870565b60009182526020808320909101546001600160a01b0316835282019290925260400190205460ff1615612a6d5781612a698161371b565b9250505b80612a778161371b565b915050612a11565b506000816001600160401b03811115612a9a57612a9a6132ac565b604051908082528060200260200182016040528015612ac3578160200160208202803683370190505b5090506000805b601354811015612a0257600c600060138381548110612aeb57612aeb613870565b60009182526020808320909101546001600160a01b0316835282019290925260400190205460ff1615612b815760138181548110612b2b57612b2b613870565b9060005260206000200160009054906101000a90046001600160a01b0316838381518110612b5b57612b5b613870565b6001600160a01b039092166020928302919091019091015281612b7d8161371b565b9250505b80612b8b8161371b565b915050612aca565b336001600160a01b037f00000000000000000000000000000000000000000000000000000000000000001614612bdb5760405162461bcd60e51b8152600401610817906134a3565b600f54610100900460ff1615612c035760405162461bcd60e51b8152600401610817906134ca565b6001600160a01b038116612c465760405162461bcd60e51b815260206004820152600a6024820152692130b2103bb7b935b2b960b11b6044820152606401610817565b6001600160a01b03811660009081526014602052604090205460ff1615612ca25760405162461bcd60e51b815260206004820152601060248201526f105b1c9958591e48185cdcda59db995960821b6044820152606401610817565b60035460135410612cc55760405162461bcd60e51b815260040161081790613842565b6001600160a01b03811660008181526014602090815260408083208054600160ff199182168117909255601584528285208054909116821790556013805491820190557f66de8ffda797e3de9c05e8fc57b3bf0ec28a930d40b0d285d93c06501cf6a0900180546001600160a01b03191690941790935560129052205460ff1615612de1576001600160a01b038116600090815260116020526040812060038101805461ffff191661010017905560058101805460ff19166001179055600401549003612dac576001600160a01b0381166000908152601160205260409020426004909101555b6040516001600160a01b038216907f485af27643b0f91058287eb2aa76b88703036e31298f4a07f7efbbbf7ffa5f8b90600090a25b6040516001600160a01b038216907f9f4c97600ac649eabe56724216338e96fe75493563dc37a3e489a8c46228d75690600090a250565b336001600160a01b037f00000000000000000000000000000000000000000000000000000000000000001614612e605760405162461bcd60e51b8152600401610817906134a3565b600f54610100900460ff1615612e885760405162461bcd60e51b8152600401610817906134ca565b6001600160a01b03821660009081526014602052604090205460ff16612ec05760405162461bcd60e51b815260040161081790613886565b6001600160a01b0382166000908152600e602052604090205460ff1680612ee95750600f5460ff165b612f415760405162461bcd60e51b815260206004820152602360248201527f576f726b6572206861736e277420726563656976656420616c6c207061796d656044820152626e747360e81b6064820152608401610817565b6001600160a01b0382166000908152600b602052604090205460ff1615612fa65760405162461bcd60e51b815260206004820152601960248201527820b63932b0b23c903930ba32b2103a3434b9903bb7b935b2b960391b6044820152606401610817565b60018160ff1610158015612fbe575060058160ff1611155b612fda5760405162461bcd60e51b8152600401610817906138ac565b6001600160a01b038083166000908152600b602052604090819020805460ff191660011790556007549051636ba0ed7960e11b815291169063d741daf29061302890859085906004016138d7565b600060405180830381600087803b15801561304257600080fd5b505af1158015613056573d6000803e3d6000fd5b505060405160ff841681526001600160a01b03851692503391507ff679ed47d9d270fdbcc0841fa6aaada363a11452a6629e5a49223b28fc0830659060200160405180910390a35050565b6002600054036130c457604051633ee5aeb560e01b815260040160405180910390fd5b6002600055565b80356001600160a01b03811681146130e257600080fd5b919050565b6000602082840312156130f957600080fd5b61187f826130cb565b60006020828403121561311457600080fd5b5035919050565b6000815180845260005b8181101561314157602081850181015186830182015201613125565b506000602082860101526020601f19601f83011685010191505092915050565b60208152600061187f602083018461311b565b6020808252825182820181905260009190848201906040850190845b818110156131b55783516001600160a01b031683529284019291840191600101613190565b50909695505050505050565b634e487b7160e01b600052602160045260246000fd5b6001600160a01b038816815260e0602082018190526000906131fb9083018961311b565b905086604083015285151560608301526004851061321b5761321b6131c1565b8460808301528360a083015282151560c083015298975050505050505050565b6000806020838503121561324e57600080fd5b82356001600160401b038082111561326557600080fd5b818501915085601f83011261327957600080fd5b81358181111561328857600080fd5b86602082850101111561329a57600080fd5b60209290920196919550909350505050565b634e487b7160e01b600052604160045260246000fd5b6000602082840312156132d457600080fd5b81356001600160401b03808211156132eb57600080fd5b818401915084601f8301126132ff57600080fd5b813581811115613311576133116132ac565b604051601f8201601f19908116603f01168101908382118183101715613339576133396132ac565b8160405282815287602084870101111561335257600080fd5b826020860160208301376000928101602001929092525095945050505050565b6020810160028310613386576133866131c1565b91905290565b60006020828403121561339e57600080fd5b8135801515811461187f57600080fd5b803560ff811681146130e257600080fd5b6000602082840312156133d157600080fd5b61187f826133ae565b600080604083850312156133ed57600080fd5b6133f6836130cb565b9150613404602084016133ae565b90509250929050565b602080825260149082015273139bc8185c1c1b1a58d85d1a5bdb88199bdd5b9960621b604082015260600190565b6020808252601a908201527920b63932b0b23c9030b9b9b4b3b732b21030b9903bb7b935b2b960311b604082015260600190565b600181811c9082168061348357607f821691505b6020821081036121c557634e487b7160e01b600052602260045260246000fd5b6020808252600d908201526c27b7363c9032b6b83637bcb2b960991b604082015260600190565b602080825260169082015275129bd8881a185cc81899595b8818d85b98d95b1b195960521b604082015260600190565b6020808252601690820152754170706c69636174696f6e206e6f742061637469766560501b604082015260600190565b6020808252600b908201526a2737ba1037b73296b7b33360a91b604082015260600190565b6020808252600c908201526b139bdd08185cdcda59db995960a21b604082015260600190565b602080825260089082015267496e61637469766560c01b604082015260600190565b602080825260129082015271139bc81c185e5b595b9d081c995c5d595cdd60721b604082015260600190565b6020808252600a908201526914185e4819985a5b195960b21b604082015260600190565b6001600160a01b03929092168252602082015260400190565b81835281816020850137506000828201602090810191909152601f909101601f19169091010190565b6001600160a01b038416815260406020820181905260009061364e9083018486613600565b95945050505050565b60006020828403121561366957600080fd5b5051919050565b83815260406020820152600061364e604083018486613600565b6020808252600a90820152694e6f74207765656b6c7960b01b604082015260600190565b634e487b7160e01b600052601160045260246000fd5b808201808211156111d8576111d86136ae565b6020808252600890820152672a37b79039b7b7b760c11b604082015260600190565b602080825260089082015267105b1b081c185a5960c21b604082015260600190565b60006001820161372d5761372d6136ae565b5060010190565b601f82111561377e57600081815260208120601f850160051c8101602086101561375b5750805b601f850160051c820191505b8181101561377a57828155600101613767565b5050505b505050565b81516001600160401b0381111561379c5761379c6132ac565b6137b0816137aa845461346f565b84613734565b602080601f8311600181146137e557600084156137cd5750858301515b600019600386901b1c1916600185901b17855561377a565b600085815260208120601f198616915b82811015613814578886015182559484019460019091019084016137f5565b50858210156138325787850151600019600388901b60f8161c191681555b5050505050600190811b01905550565b60208082526014908201527313585e081c1bdcda5d1a5bdb9cc8199a5b1b195960621b604082015260600190565b634e487b7160e01b600052603260045260246000fd5b6020808252600c908201526b2737ba1030903bb7b935b2b960a11b604082015260600190565b60208082526011908201527053636f7265206d75737420626520312d3560781b604082015260600190565b6001600160a01b0392909216825260ff1660208201526040019056fea26469706673582212202747defd1304db7ff95766bab731e270a524400205fb98844546f44d93b050a864736f6c63430008140033608060405234801561001057600080fd5b5060405161097538038061097583398101604081905261002f91610054565b600080546001600160a01b0319166001600160a01b0392909216919091179055610084565b60006020828403121561006657600080fd5b81516001600160a01b038116811461007d57600080fd5b9392505050565b6108e2806100936000396000f3fe608060405234801561001057600080fd5b50600436106100835760003560e01c80637dafeb5414610088578063993aa627146100ff578063a27caeb71461011f578063afd86a7614610134578063baccbfdb1461015f578063c8b675221461018d578063d741daf2146101b5578063eb73d2ba146101c8578063f8b11691146101eb575b600080fd5b6100d96100963660046106f4565b6001600160a01b03908116600090815260016020818152604080842095909416835260039094019093522080549181015460029091015460ff9283169391921690565b6040805160ff909416845260208401929092521515908201526060015b60405180910390f35b61011261010d366004610727565b610219565b6040516100f69190610749565b61013261012d366004610796565b610292565b005b600054610147906001600160a01b031681565b6040516001600160a01b0390911681526020016100f6565b61017261016d366004610727565b61032d565b604080519384526020840192909252908201526060016100f6565b6101a061019b366004610727565b61038a565b604080519283526020830191909152016100f6565b6101326101c33660046107c0565b6103e1565b6101db6101d63660046106f4565b6106a1565b60405190151581526020016100f6565b6101726101f9366004610727565b600160208190526000918252604090912080549181015460029091015483565b6001600160a01b03811660009081526001602090815260409182902060050180548351818402810184019094528084526060939283018282801561028657602002820191906000526020600020905b81546001600160a01b03168152600190910190602001808311610268575b50505050509050919050565b6000546001600160a01b031633146102c55760405162461bcd60e51b81526004016102bc906107fd565b60405180910390fd5b6001600160a01b038216600090815260016020526040812060020180548392906102f0908490610847565b90915550506040516001600160a01b038316907fa7ce9489b811cd79bb8695d6ad4051484c96aea68805ffa76eea626f7121f80090600090a25050565b6001600160a01b03811660009081526001602052604081208054829182918290610358576000610374565b8154600183015461036a90606461085a565b6103749190610871565b8254600290930154909792965094509092505050565b6001600160a01b0381166000908152600160205260408120805482919082036103b95750600093849350915050565b805460018201546103cb90606461085a565b6103d59190610871565b90549094909350915050565b6000546001600160a01b0316331461040b5760405162461bcd60e51b81526004016102bc906107fd565b6001600160a01b0382166104595760405162461bcd60e51b8152602060048201526015602482015274496e76616c6964207261746565206164647265737360581b60448201526064016102bc565b60018160ff1610158015610471575060058160ff1611155b6104b15760405162461bcd60e51b815260206004820152601160248201527053636f7265206d75737420626520312d3560781b60448201526064016102bc565b6001600160a01b038216600090815260016020908152604080832032845260030190915290206002015460ff161561051b5760405162461bcd60e51b815260206004820152600d60248201526c105b1c9958591e481c985d1959609a1b60448201526064016102bc565b604080516060808201835260ff80851680845242602080860182815260018789018181526001600160a01b038c1660008181528386528b8120328083526003820188528d83209c518d54908c1660ff19918216178e5596518d870155935160029c8d0180549115159188169190911790558c519a8b018d52978a52898601968752898c018481529281528386528b812091815260049091018552998a209751885497169683169690961787559251868401559351949095018054941515949093169390931790915591528054916105f183610893565b90915550506001600160a01b0382166000908152600160208190526040822001805460ff84169290610624908490610847565b90915550506001600160a01b03821660008181526001602081815260408084206005018054938401815584529281902090910180546001600160a01b03191632908117909155915160ff851681527ff679ed47d9d270fdbcc0841fa6aaada363a11452a6629e5a49223b28fc083065910160405180910390a35050565b6001600160a01b038082166000908152600160209081526040808320938616835260039093019052206002015460ff165b92915050565b80356001600160a01b03811681146106ef57600080fd5b919050565b6000806040838503121561070757600080fd5b610710836106d8565b915061071e602084016106d8565b90509250929050565b60006020828403121561073957600080fd5b610742826106d8565b9392505050565b6020808252825182820181905260009190848201906040850190845b8181101561078a5783516001600160a01b031683529284019291840191600101610765565b50909695505050505050565b600080604083850312156107a957600080fd5b6107b2836106d8565b946020939093013593505050565b600080604083850312156107d357600080fd5b6107dc836106d8565b9150602083013560ff811681146107f257600080fd5b809150509250929050565b6020808252601a908201527913db9b1e481a9bd88818dbdb9d1c9858dd0818d85b8818d85b1b60321b604082015260600190565b634e487b7160e01b600052601160045260246000fd5b808201808211156106d2576106d2610831565b80820281158282048414176106d2576106d2610831565b60008261088e57634e487b7160e01b600052601260045260246000fd5b500490565b6000600182016108a5576108a5610831565b506001019056fea26469706673582212204a03572708afebd893e1503019ceeeab9867b1c043835cfb9d17d7e33e18109364736f6c63430008140033a2646970667358221220b87b0725d41ebc0b57562bc9882278ce19420c6324a13dae878cd103677b8ef664736f6c63430008140033",
  "linkReferences": {},
  "deployedLinkReferences": {}
}