{
  "_format": "hh-sol-artifact-1",
  "contractName": "ReputationSystem",
  "sourceName": "contracts/ReputationSystem.sol",
  "abi": [
    {
      "inputs": [
        {
          "internalType": "address",
          "name": "_jobContract",
          "type": "address"
        }
      ],
      "stateMutability": "nonpayable",
      "type": "constructor"
    },
    {
      "anonymous": false,
      "inputs": [
        {
          "indexed": true,
          "internalType": "address",
          "name": "worker",
          "type": "address"
        }
      ],
      "name": "JobCompleted",
      "type": "event"
    },
    {
      "anonymous": false,
      "inputs": [
        {
          "indexed": true,
          "internalType": "address",
          "name": "rater",
          "type": "address"
        },
        {
          "indexed": true,
          "internalType": "address",
          "name": "ratee",
          "type": "address"
        },
        {
          "indexed": false,
          "internalType": "uint8",
          "name": "score",
          "type": "uint8"
        }
      ],
      "name": "RatingSubmitted",
      "type": "event"
    },
    {
      "inputs": [
        {
          "internalType": "address",
          "name": "user",
          "type": "address"
        }
      ],
      "name": "getAverageRating",
      "outputs": [
        {
          "internalType": "uint256",
          "name": "average",
          "type": "uint256"
        },
        {
          "internalType": "uint256",
          "name": "totalRatings",
          "type": "uint256"
        }
      ],
      "stateMutability": "view",
      "type": "function"
    },
    {
      "inputs": [
        {
          "internalType": "address",
          "name": "rater",
          "type": "address"
        },
        {
          "internalType": "address",
          "name": "ratee",
          "type": "address"
        }
      ],
      "name": "getRating",
      "outputs": [
        {
          "internalType": "uint8",
          "name": "score",
          "type": "uint8"
        },
        {
          "internalType": "uint256",
          "name": "timestamp",
          "type": "uint256"
        },
        {
          "internalType": "bool",
          "name": "exists",
          "type": "bool"
        }
      ],
      "stateMutability": "view",
      "type": "function"
    },
    {
      "inputs": [
        {
          "internalType": "address",
          "name": "user",
          "type": "address"
        }
      ],
      "name": "getRatingAddresses",
      "outputs": [
        {
          "internalType": "address[]",
          "name": "",
          "type": "address[]"
        }
      ],
      "stateMutability": "view",
      "type": "function"
    },
    {
      "inputs": [
        {
          "internalType": "address",
          "name": "user",
          "type": "address"
        }
      ],
      "name": "getUserReputation",
      "outputs": [
        {
          "internalType": "uint256",
          "name": "averageRating",
          "type": "uint256"
        },
        {
          "internalType": "uint256",
          "name": "totalRatings",
          "type": "uint256"
        },
        {
          "internalType": "uint256",
          "name": "jobsCompleted",
          "type": "uint256"
        }
      ],
      "stateMutability": "view",
      "type": "function"
    },
    {
      "inputs": [
        {
          "internalType": "address",
          "name": "rater",
          "type": "address"
        },
        {
          "internalType": "address",
          "name": "ratee",
          "type": "address"
        }
      ],
      "name": "hasBeenRated",
      "outputs": [
        {
          "internalType": "bool",
          "name": "",
          "type": "bool"
        }
      ],
      "stateMutability": "view",
      "type": "function"
    },
    {
      "inputs": [],
      "name": "jobContract",
      "outputs": [
        {
          "internalType": "address",
          "name": "",
          "type": "address"
        }
      ],
      "stateMutability": "view",
      "type": "function"
    },
    {
      "inputs": [
        {
          "internalType": "address",
          "name": "ratee",
          "type": "address"
        },
        {
          "internalType": "uint8",
          "name": "score",
          "type": "uint8"
        }
      ],
      "name": "submitRating",
      "outputs": [],
      "stateMutability": "nonpayable",
      "type": "function"
    },
    {
      "inputs": [
        {
          "internalType": "address",
          "name": "worker",
          "type": "address"
        },
        {
          "internalType": "uint256",
          "name": "jobsCompleted",
          "type": "uint256"
        }
      ],
      "name": "updateWorker",
      "outputs": [],
      "stateMutability": "nonpayable",
      "type": "function"
    },
    {
      "inputs": [
        {
          "internalType": "address",
          "name": "",
          "type": "address"
        }
      ],
      "name": "userReputations",
      "outputs": [
        {
          "internalType": "uint256",
          "name": "totalRatings",
          "type": "uint256"
        },
        {
          "internalType": "uint256",
          "name": "totalScore",
          "type": "uint256"
        },
        {
          "internalType": "uint256",
          "name": "jobsCompleted",
          "type": "uint256"
        }
      ],
      "stateMutability": "view",
      "type": "function"
    }
  ],
  "bytecode": "0x608060405234801561001057600080fd5b5060405161097538038061097583398101604081905261002f91610054565b600080546001600160a01b0319166001600160a01b0392909216919091179055610084565b60006020828403121561006657600080fd5b81516001600160a01b038116811461007d57600080fd5b9392505050565b6108e2806100936000396000f3fe608060405234801561001057600080fd5b50600436106100835760003560e01c80637dafeb5414610088578063993aa627146100ff578063a27caeb71461011f578063afd86a7614610134578063baccbfdb1461015f578063c8b675221461018d578063d741daf2146101b5578063eb73d2ba146101c8578063f8b11691146101eb575b600080fd5b6100d96100963660046106f4565b6001600160a01b03908116600090815260016020818152604080842095909416835260039094019093522080549181015460029091015460ff9283169391921690565b6040805160ff909416845260208401929092521515908201526060015b60405180910390f35b61011261010d366004610727565b610219565b6040516100f69190610749565b61013261012d366004610796565b610292565b005b600054610147906001600160a01b031681565b6040516001600160a01b0390911681526020016100f6565b61017261016d366004610727565b61032d565b604080519384526020840192909252908201526060016100f6565b6101a061019b366004610727565b61038a565b604080519283526020830191909152016100f6565b6101326101c33660046107c0565b6103e1565b6101db6101d63660046106f4565b6106a1565b60405190151581526020016100f6565b6101726101f9366004610727565b600160208190526000918252604090912080549181015460029091015483565b6001600160a01b03811660009081526001602090815260409182902060050180548351818402810184019094528084526060939283018282801561028657602002820191906000526020600020905b81546001600160a01b03168152600190910190602001808311610268575b50505050509050919050565b6000546001600160a01b031633146102c55760405162461bcd60e51b81526004016102bc906107fd565b60405180910390fd5b6001600160a01b038216600090815260016020526040812060020180548392906102f0908490610847565b90915550506040516001600160a01b038316907fa7ce9489b811cd79bb8695d6ad4051484c96aea68805ffa76eea626f7121f80090600090a25050565b6001600160a01b03811660009081526001602052604081208054829182918290610358576000610374565b8154600183015461036a90606461085a565b6103749190610871565b8254600290930154909792965094509092505050565b6001600160a01b0381166000908152600160205260408120805482919082036103b95750600093849350915050565b805460018201546103cb90606461085a565b6103d59190610871565b90549094909350915050565b6000546001600160a01b0316331461040b5760405162461bcd60e51b81526004016102bc906107fd565b6001600160a01b0382166104595760405162461bcd60e51b8152602060048201526015602482015274496e76616c6964207261746565206164647265737360581b60448201526064016102bc565b60018160ff1610158015610471575060058160ff1611155b6104b15760405162461bcd60e51b815260206004820152601160248201527053636f7265206d75737420626520312d3560781b60448201526064016102bc565b6001600160a01b038216600090815260016020908152604080832032845260030190915290206002015460ff161561051b5760405162461bcd60e51b815260206004820152600d60248201526c105b1c9958591e481c985d1959609a1b60448201526064016102bc565b604080516060808201835260ff80851680845242602080860182815260018789018181526001600160a01b038c1660008181528386528b8120328083526003820188528d83209c518d54908c1660ff19918216178e5596518d870155935160029c8d0180549115159188169190911790558c519a8b018d52978a52898601968752898c018481529281528386528b812091815260049091018552998a209751885497169683169690961787559251868401559351949095018054941515949093169390931790915591528054916105f183610893565b90915550506001600160a01b0382166000908152600160208190526040822001805460ff84169290610624908490610847565b90915550506001600160a01b03821660008181526001602081815260408084206005018054938401815584529281902090910180546001600160a01b03191632908117909155915160ff851681527ff679ed47d9d270fdbcc0841fa6aaada363a11452a6629e5a49223b28fc083065910160405180910390a35050565b6001600160a01b038082166000908152600160209081526040808320938616835260039093019052206002015460ff165b92915050565b80356001600160a01b03811681146106ef57600080fd5b919050565b6000806040838503121561070757600080fd5b610710836106d8565b915061071e602084016106d8565b90509250929050565b60006020828403121561073957600080fd5b610742826106d8565b9392505050565b6020808252825182820181905260009190848201906040850190845b8181101561078a5783516001600160a01b031683529284019291840191600101610765565b50909695505050505050565b600080604083850312156107a957600080fd5b6107b2836106d8565b946020939093013593505050565b600080604083850312156107d357600080fd5b6107dc836106d8565b9150602083013560ff811681146107f257600080fd5b809150509250929050565b6020808252601a908201527913db9b1e481a9bd88818dbdb9d1c9858dd0818d85b8818d85b1b60321b604082015260600190565b634e487b7160e01b600052601160045260246000fd5b808201808211156106d2576106d2610831565b80820281158282048414176106d2576106d2610831565b60008261088e57634e487b7160e01b600052601260045260246000fd5b500490565b6000600182016108a5576108a5610831565b506001019056fea26469706673582212204a03572708afebd893e1503019ceeeab9867b1c043835cfb9d17d7e33e18109364736f6c63430008140033",
  "linkReferences": {},
  "deployedLinkReferences": {}
}