{
  "_format": "hh-sol-artifact-1",
  "contractName": "ExclusiveLicense721",
  "sourceName": "contracts/ExclusiveLicense721.sol",
  "abi": [
    {
      "inputs": [
        {
          "internalType": "string",
          "name": "name_",
          "type": "string"
        },
        {
          "internalType": "string",
          "name": "symbol_",
          "type": "string"
        }
      ],
      "stateMutability": "nonpayable",
      "type": "constructor"
    },
    {
      "inputs": [
        {
          "internalType": "address",
          "name": "sender",
          "type": "address"
        },
        {
          "internalType": "uint256",
          "name": "tokenId",
          "type": "uint256"
        },
        {
          "internalType": "address",
          "name": "owner",
          "type": "address"
        }
      ],
      "name": "ERC721IncorrectOwner",
      "type": "error"
    },
    {
      "inputs": [
        {
          "internalType": "address",
          "name": "operator",
          "type": "address"
        },
        {
          "internalType": "uint256",
          "name": "tokenId",
          "type": "uint256"
        }
      ],
      "name": "ERC721InsufficientApproval",
      "type": "error"
    },
    {
      "inputs": [
        {
          "internalType": "address",
          "name": "approver",
          "type": "address"
        }
      ],
      "name": "ERC721InvalidApprover",
      "type": "error"
    },
    {
      "inputs": [
        {
          "internalType": "address",
          "name": "operator",
          "type": "address"
        }
      ],
      "name": "ERC721InvalidOperator",
      "type": "error"
    },
    {
      "inputs": [
        {
          "internalType": "address",
          "name": "owner",
          "type": "address"
        }
      ],
      "name": "ERC721InvalidOwner",
      "type": "error"
    },
    {
      "inputs": [
        {
          "internalType": "address",
          "name": "receiver",
          "type": "address"
        }
      ],
      "name": "ERC721InvalidReceiver",
      "type": "error"
    },
    {
      "inputs": [
        {
          "internalType": "address",
          "name": "sender",
          "type": "address"
        }
      ],
      "name": "ERC721InvalidSender",
      "type": "error"
    },
    {
      "inputs": [
        {
          "internalType": "uint256",
          "name": "tokenId",
          "type": "uint256"
        }
      ],
      "name": "ERC721NonexistentToken",
      "type": "error"
    },
    {
      "inputs": [
        {
          "internalType": "uint256",
          "name": "required",
          "type": "uint256"
        },
        {
          "internalType": "uint256",
          "name": "provided",
          "type": "uint256"
        }
      ],
      "name": "IncorrectPayment",
      "type": "error"
    },
    {
      "inputs": [
        {
          "internalType": "uint256",
          "name": "id",
          "type": "uint256"
        }
      ],
      "name": "NotListed",
      "type": "error"
    },
    {
      "inputs": [
        {
          "internalType": "address",
          "name": "owner",
          "type": "address"
        }
      ],
      "name": "OwnableInvalidOwner",
      "type": "error"
    },
    {
      "inputs": [
        {
          "internalType": "address",
          "name": "account",
          "type": "address"
        }
      ],
      "name": "OwnableUnauthorizedAccount",
      "type": "error"
    },
    {
      "inputs": [],
      "name": "ReentrancyGuardReentrantCall",
      "type": "error"
    },
    {
      "inputs": [],
      "name": "TransfersDisabled",
      "type": "error"
    },
    {
      "anonymous": false,
      "inputs": [
        {
          "indexed": true,
          "internalType": "address",
          "name": "owner",
          "type": "address"
        },
        {
          "indexed": true,
          "internalType": "address",
          "name": "approved",
          "type": "address"
        },
        {
          "indexed": true,
          "internalType": "uint256",
          "name": "tokenId",
          "type": "uint256"
        }
      ],
      "name": "Approval",
      "type": "event"
    },
    {
      "anonymous": false,
      "inputs": [
        {
          "indexed": true,
          "internalType": "address",
          "name": "owner",
          "type": "address"
        },
        {
          "indexed": true,
          "internalType": "address",
          "name": "operator",
          "type": "address"
        },
        {
          "indexed": false,
          "internalType": "bool",
          "name": "approved",
          "type": "bool"
        }
      ],
      "name": "ApprovalForAll",
      "type": "event"
    },
    {
      "anonymous": false,
      "inputs": [
        {
          "indexed": true,
          "internalType": "uint256",
          "name": "id",
          "type": "uint256"
        },
        {
          "indexed": true,
          "internalType": "address",
          "name": "creator",
          "type": "address"
        },
        {
          "indexed": false,
          "internalType": "string",
          "name": "uri",
          "type": "string"
        },
        {
          "indexed": false,
          "internalType": "uint256",
          "name": "price",
          "type": "uint256"
        }
      ],
      "name": "AssetRegisteredExclusive",
      "type": "event"
    },
    {
      "anonymous": false,
      "inputs": [
        {
          "indexed": true,
          "internalType": "address",
          "name": "buyer",
          "type": "address"
        },
        {
          "indexed": true,
          "internalType": "uint256",
          "name": "id",
          "type": "uint256"
        },
        {
          "indexed": false,
          "internalType": "uint256",
          "name": "price",
          "type": "uint256"
        }
      ],
      "name": "ExclusivePurchased",
      "type": "event"
    },
    {
      "anonymous": false,
      "inputs": [
        {
          "indexed": true,
          "internalType": "address",
          "name": "previousOwner",
          "type": "address"
        },
        {
          "indexed": true,
          "internalType": "address",
          "name": "newOwner",
          "type": "address"
        }
      ],
      "name": "OwnershipTransferred",
      "type": "event"
    },
    {
      "anonymous": false,
      "inputs": [
        {
          "indexed": true,
          "internalType": "address",
          "name": "from",
          "type": "address"
        },
        {
          "indexed": true,
          "internalType": "address",
          "name": "to",
          "type": "address"
        },
        {
          "indexed": true,
          "internalType": "uint256",
          "name": "tokenId",
          "type": "uint256"
        }
      ],
      "name": "Transfer",
      "type": "event"
    },
    {
      "inputs": [
        {
          "internalType": "address",
          "name": "to",
          "type": "address"
        },
        {
          "internalType": "uint256",
          "name": "tokenId",
          "type": "uint256"
        }
      ],
      "name": "approve",
      "outputs": [],
      "stateMutability": "nonpayable",
      "type": "function"
    },
    {
      "inputs": [
        {
          "internalType": "address",
          "name": "owner",
          "type": "address"
        }
      ],
      "name": "balanceOf",
      "outputs": [
        {
          "internalType": "uint256",
          "name": "",
          "type": "uint256"
        }
      ],
      "stateMutability": "view",
      "type": "function"
    },
    {
      "inputs": [
        {
          "internalType": "uint256",
          "name": "",
          "type": "uint256"
        }
      ],
      "name": "creatorOf",
      "outputs": [
        {
          "internalType": "address",
          "name": "",
          "type": "address"
        }
      ],
      "stateMutability": "view",
      "type": "function"
    },
    {
      "inputs": [
        {
          "internalType": "uint256",
          "name": "tokenId",
          "type": "uint256"
        }
      ],
      "name": "getApproved",
      "outputs": [
        {
          "internalType": "address",
          "name": "",
          "type": "address"
        }
      ],
      "stateMutability": "view",
      "type": "function"
    },
    {
      "inputs": [
        {
          "internalType": "address",
          "name": "owner",
          "type": "address"
        },
        {
          "internalType": "address",
          "name": "operator",
          "type": "address"
        }
      ],
      "name": "isApprovedForAll",
      "outputs": [
        {
          "internalType": "bool",
          "name": "",
          "type": "bool"
        }
      ],
      "stateMutability": "view",
      "type": "function"
    },
    {
      "inputs": [
        {
          "internalType": "uint256",
          "name": "",
          "type": "uint256"
        }
      ],
      "name": "isListed",
      "outputs": [
        {
          "internalType": "bool",
          "name": "",
          "type": "bool"
        }
      ],
      "stateMutability": "view",
      "type": "function"
    },
    {
      "inputs": [],
      "name": "name",
      "outputs": [
        {
          "internalType": "string",
          "name": "",
          "type": "string"
        }
      ],
      "stateMutability": "view",
      "type": "function"
    },
    {
      "inputs": [],
      "name": "owner",
      "outputs": [
        {
          "internalType": "address",
          "name": "",
          "type": "address"
        }
      ],
      "stateMutability": "view",
      "type": "function"
    },
    {
      "inputs": [
        {
          "internalType": "uint256",
          "name": "tokenId",
          "type": "uint256"
        }
      ],
      "name": "ownerOf",
      "outputs": [
        {
          "internalType": "address",
          "name": "",
          "type": "address"
        }
      ],
      "stateMutability": "view",
      "type": "function"
    },
    {
      "inputs": [
        {
          "internalType": "uint256",
          "name": "",
          "type": "uint256"
        }
      ],
      "name": "pricePerAsset",
      "outputs": [
        {
          "internalType": "uint256",
          "name": "",
          "type": "uint256"
        }
      ],
      "stateMutability": "view",
      "type": "function"
    },
    {
      "inputs": [
        {
          "internalType": "uint256",
          "name": "id",
          "type": "uint256"
        }
      ],
      "name": "purchaseExclusive",
      "outputs": [],
      "stateMutability": "payable",
      "type": "function"
    },
    {
      "inputs": [
        {
          "internalType": "string",
          "name": "uri",
          "type": "string"
        },
        {
          "internalType": "uint256",
          "name": "price",
          "type": "uint256"
        }
      ],
      "name": "registerExclusiveAsset",
      "outputs": [
        {
          "internalType": "uint256",
          "name": "id",
          "type": "uint256"
        }
      ],
      "stateMutability": "nonpayable",
      "type": "function"
    },
    {
      "inputs": [],
      "name": "renounceOwnership",
      "outputs": [],
      "stateMutability": "nonpayable",
      "type": "function"
    },
    {
      "inputs": [
        {
          "internalType": "address",
          "name": "from",
          "type": "address"
        },
        {
          "internalType": "address",
          "name": "to",
          "type": "address"
        },
        {
          "internalType": "uint256",
          "name": "tokenId",
          "type": "uint256"
        }
      ],
      "name": "safeTransferFrom",
      "outputs": [],
      "stateMutability": "nonpayable",
      "type": "function"
    },
    {
      "inputs": [
        {
          "internalType": "address",
          "name": "from",
          "type": "address"
        },
        {
          "internalType": "address",
          "name": "to",
          "type": "address"
        },
        {
          "internalType": "uint256",
          "name": "tokenId",
          "type": "uint256"
        },
        {
          "internalType": "bytes",
          "name": "data",
          "type": "bytes"
        }
      ],
      "name": "safeTransferFrom",
      "outputs": [],
      "stateMutability": "nonpayable",
      "type": "function"
    },
    {
      "inputs": [
        {
          "internalType": "address",
          "name": "operator",
          "type": "address"
        },
        {
          "internalType": "bool",
          "name": "approved",
          "type": "bool"
        }
      ],
      "name": "setApprovalForAll",
      "outputs": [],
      "stateMutability": "nonpayable",
      "type": "function"
    },
    {
      "inputs": [
        {
          "internalType": "bytes4",
          "name": "interfaceId",
          "type": "bytes4"
        }
      ],
      "name": "supportsInterface",
      "outputs": [
        {
          "internalType": "bool",
          "name": "",
          "type": "bool"
        }
      ],
      "stateMutability": "view",
      "type": "function"
    },
    {
      "inputs": [],
      "name": "symbol",
      "outputs": [
        {
          "internalType": "string",
          "name": "",
          "type": "string"
        }
      ],
      "stateMutability": "view",
      "type": "function"
    },
    {
      "inputs": [
        {
          "internalType": "uint256",
          "name": "id",
          "type": "uint256"
        }
      ],
      "name": "tokenURI",
      "outputs": [
        {
          "internalType": "string",
          "name": "",
          "type": "string"
        }
      ],
      "stateMutability": "view",
      "type": "function"
    },
    {
      "inputs": [
        {
          "internalType": "address",
          "name": "ownerAddr",
          "type": "address"
        }
      ],
      "name": "tokensOfOwner",
      "outputs": [
        {
          "internalType": "uint256[]",
          "name": "",
          "type": "uint256[]"
        }
      ],
      "stateMutability": "view",
      "type": "function"
    },
    {
      "inputs": [
        {
          "internalType": "address",
          "name": "from",
          "type": "address"
        },
        {
          "internalType": "address",
          "name": "to",
          "type": "address"
        },
        {
          "internalType": "uint256",
          "name": "tokenId",
          "type": "uint256"
        }
      ],
      "name": "transferFrom",
      "outputs": [],
      "stateMutability": "nonpayable",
      "type": "function"
    },
    {
      "inputs": [
        {
          "internalType": "address",
          "name": "newOwner",
          "type": "address"
        }
      ],
      "name": "transferOwnership",
      "outputs": [],
      "stateMutability": "nonpayable",
      "type": "function"
    }
  ],
  "bytecode": "0x60806040523480156200001157600080fd5b50604051620019e8380380620019e88339810160408190526200003491620001b6565b3382826000620000458382620002af565b506001620000548282620002af565b5050506001600160a01b0381166200008657604051631e4fbdf760e01b81526000600482015260240160405180910390fd5b62000091816200009f565b50506001600755506200037b565b600680546001600160a01b038381166001600160a01b0319831681179093556040519116919082907f8be0079c531659141344cd1fd0a4f28419497f9722a3daafe3b4186f6b6457e090600090a35050565b634e487b7160e01b600052604160045260246000fd5b600082601f8301126200011957600080fd5b81516001600160401b0380821115620001365762000136620000f1565b604051601f8301601f19908116603f01168101908282118183101715620001615762000161620000f1565b816040528381526020925086838588010111156200017e57600080fd5b600091505b83821015620001a2578582018301518183018401529082019062000183565b600093810190920192909252949350505050565b60008060408385031215620001ca57600080fd5b82516001600160401b0380821115620001e257600080fd5b620001f08683870162000107565b935060208501519150808211156200020757600080fd5b50620002168582860162000107565b9150509250929050565b600181811c908216806200023557607f821691505b6020821081036200025657634e487b7160e01b600052602260045260246000fd5b50919050565b601f821115620002aa57600081815260208120601f850160051c81016020861015620002855750805b601f850160051c820191505b81811015620002a65782815560010162000291565b5050505b505050565b81516001600160401b03811115620002cb57620002cb620000f1565b620002e381620002dc845462000220565b846200025c565b602080601f8311600181146200031b5760008415620003025750858301515b600019600386901b1c1916600185901b178555620002a6565b600085815260208120601f198616915b828110156200034c578886015182559484019460019091019084016200032b565b50858210156200036b5787850151600019600388901b60f8161c191681555b5050505050600190811b01905550565b61165d806200038b6000396000f3fe6080604052600436106101155760003560e01c8063715018a61161009b578063715018a6146102b7578063745e1813146102cc5780638462151c146102f95780638da5cb5b1461032657806395d89b4114610344578063a22cb46514610359578063b88d4fde14610379578063c87b56dd14610399578063e985e9c5146103b9578063f2fde38b146103d9578063fcce4883146103f957600080fd5b806301ffc9a71461011a57806306fdde031461014f578063081812fc14610171578063095ea7b31461019e5780630d4e80ab146101c057806323b872dd146101ee57806327134f581461020e57806342842e0e14610221578063589a1743146102415780636352211e1461027757806370a0823114610297575b600080fd5b34801561012657600080fd5b5061013a6101353660046110c9565b610429565b60405190151581526020015b60405180910390f35b34801561015b57600080fd5b5061016461047b565b6040516101469190611133565b34801561017d57600080fd5b5061019161018c366004611146565b61050d565b604051610146919061115f565b3480156101aa57600080fd5b506101be6101b936600461118f565b610522565b005b3480156101cc57600080fd5b506101e06101db3660046111b9565b610531565b604051908152602001610146565b3480156101fa57600080fd5b506101be610209366004611231565b6105e9565b6101be61021c366004611146565b61067d565b34801561022d57600080fd5b506101be61023c366004611231565b610813565b34801561024d57600080fd5b5061019161025c366004611146565b600b602052600090815260409020546001600160a01b031681565b34801561028357600080fd5b50610191610292366004611146565b610833565b3480156102a357600080fd5b506101e06102b236600461126d565b61083e565b3480156102c357600080fd5b506101be610886565b3480156102d857600080fd5b506101e06102e7366004611146565b600a6020526000908152604090205481565b34801561030557600080fd5b5061031961031436600461126d565b61089a565b6040516101469190611288565b34801561033257600080fd5b506006546001600160a01b0316610191565b34801561035057600080fd5b50610164610906565b34801561036557600080fd5b506101be6103743660046112cc565b610915565b34801561038557600080fd5b506101be61039436600461131e565b610920565b3480156103a557600080fd5b506101646103b4366004611146565b610938565b3480156103c557600080fd5b5061013a6103d43660046113fa565b6109d0565b3480156103e557600080fd5b506101be6103f436600461126d565b6109fe565b34801561040557600080fd5b5061013a610414366004611146565b600c6020526000908152604090205460ff1681565b60006001600160e01b031982166380ac58cd60e01b148061045a57506001600160e01b03198216635b5e139f60e01b145b8061047557506301ffc9a760e01b6001600160e01b03198316145b92915050565b60606000805461048a9061142d565b80601f01602080910402602001604051908101604052809291908181526020018280546104b69061142d565b80156105035780601f106104d857610100808354040283529160200191610503565b820191906000526020600020905b8154815290600101906020018083116104e657829003601f168201915b5050505050905090565b600061051882610a39565b5061047582610a71565b61052d828233610a8c565b5050565b600880546000918261054283611467565b9091555060008181526009602052604090209091506105628486836114d4565b506000818152600a60209081526040808320859055600b825280832080546001600160a01b03191633908117909155600c90925291829020805460ff19166001179055905182907fd9d013f64b60dac8761bd700eafb8dbf6155f1a1e6d4e5c2248baadf5061849a906105da90889088908890611594565b60405180910390a39392505050565b6001600160a01b03821661061c576000604051633250574960e11b8152600401610613919061115f565b60405180910390fd5b6000610629838333610a99565b9050836001600160a01b0316816001600160a01b031614610677576040516364283d7b60e01b81526001600160a01b0380861660048301526024820184905282166044820152606401610613565b50505050565b610685610aef565b6000818152600c602052604090205460ff166106b75760405163068bb67560e51b815260048101829052602401610613565b6000818152600a60205260409020543481146106ef57604051630d35e92160e01b815260048101829052346024820152604401610613565b6000828152600c60205260409020805460ff1916905561070f3383610b19565b336000908152600d60209081526040808320805460018101825590845282842001859055848352600b9091528082205490516001600160a01b039091169034908381818185875af1925050503d8060008114610787576040519150601f19603f3d011682016040523d82523d6000602084013e61078c565b606091505b50509050806107cd5760405162461bcd60e51b815260206004820152600d60248201526c14185e5bdd5d0819985a5b1959609a1b6044820152606401610613565b604051828152839033907fa1156f4218434a7c0b118a889378ec10da4a1c66de39c5337df0042ff0b4c4d59060200160405180910390a350506108106001600755565b50565b61082e83838360405180602001604052806000815250610920565b505050565b600061047582610a39565b60006001600160a01b03821661086a5760006040516322718ad960e21b8152600401610613919061115f565b506001600160a01b031660009081526003602052604090205490565b61088e610b33565b6108986000610b60565b565b6001600160a01b0381166000908152600d60209081526040918290208054835181840281018401909452808452606093928301828280156108fa57602002820191906000526020600020905b8154815260200190600101908083116108e6575b50505050509050919050565b60606001805461048a9061142d565b61052d338383610bb2565b61092b8484846105e9565b6106773385858585610c48565b60008181526009602052604090208054606091906109559061142d565b80601f01602080910402602001604051908101604052809291908181526020018280546109819061142d565b80156108fa5780601f106109a3576101008083540402835291602001916108fa565b820191906000526020600020905b8154815290600101906020018083116109b15750939695505050505050565b6001600160a01b03918216600090815260056020908152604080832093909416825291909152205460ff1690565b610a06610b33565b6001600160a01b038116610a30576000604051631e4fbdf760e01b8152600401610613919061115f565b61081081610b60565b600080610a4583610d61565b90506001600160a01b03811661047557604051637e27328960e01b815260048101849052602401610613565b6000908152600460205260409020546001600160a01b031690565b61082e8383836001610d7c565b600080610aa7858585610e79565b90506001600160a01b03811615801590610ac957506001600160a01b03851615155b15610ae757604051638574adcf60e01b815260040160405180910390fd5b949350505050565b600260075403610b1257604051633ee5aeb560e01b815260040160405180910390fd5b6002600755565b61052d828260405180602001604052806000815250610f6d565b6006546001600160a01b03163314610898573360405163118cdaa760e01b8152600401610613919061115f565b600680546001600160a01b038381166001600160a01b0319831681179093556040519116919082907f8be0079c531659141344cd1fd0a4f28419497f9722a3daafe3b4186f6b6457e090600090a35050565b6001600160a01b038216610bdb5781604051630b61174360e31b8152600401610613919061115f565b6001600160a01b03838116600081815260056020908152604080832094871680845294825291829020805460ff191686151590811790915591519182527f17307eab39ab6107e8899845ad3d59bd9653f200f220920489ca2b5937696c31910160405180910390a3505050565b6001600160a01b0383163b15610d5a57604051630a85bd0160e11b81526001600160a01b0384169063150b7a0290610c8a9088908890879087906004016115cd565b6020604051808303816000875af1925050508015610cc5575060408051601f3d908101601f19168201909252610cc29181019061160a565b60015b610d25573d808015610cf3576040519150601f19603f3d011682016040523d82523d6000602084013e610cf8565b606091505b508051600003610d1d5783604051633250574960e11b8152600401610613919061115f565b805181602001fd5b6001600160e01b03198116630a85bd0160e11b14610d585783604051633250574960e11b8152600401610613919061115f565b505b5050505050565b6000908152600260205260409020546001600160a01b031690565b8080610d9057506001600160a01b03821615155b15610e49576000610da084610a39565b90506001600160a01b03831615801590610dcc5750826001600160a01b0316816001600160a01b031614155b8015610ddf5750610ddd81846109d0565b155b15610dff578260405163a9fbf51f60e01b8152600401610613919061115f565b8115610e475783856001600160a01b0316826001600160a01b03167f8c5be1e5ebec7d5bd14f71427d1e84f3dd0314c0f7b2291e5b200ac8c7c3b92560405160405180910390a45b505b5050600090815260046020526040902080546001600160a01b0319166001600160a01b0392909216919091179055565b600080610e8584610d61565b90506001600160a01b03831615610ea157610ea1818486610f85565b6001600160a01b03811615610edf57610ebe600085600080610d7c565b6001600160a01b038116600090815260036020526040902080546000190190555b6001600160a01b03851615610f0e576001600160a01b0385166000908152600360205260409020805460010190555b60008481526002602052604080822080546001600160a01b0319166001600160a01b0389811691821790925591518793918516917fddf252ad1be2c89b69c2b068fc378daa952ba7f163c4a11628f55a4df523b3ef91a4949350505050565b610f778383610fe9565b61082e336000858585610c48565b610f9083838361104e565b61082e576001600160a01b038316610fbe57604051637e27328960e01b815260048101829052602401610613565b60405163177e802f60e01b81526001600160a01b038316600482015260248101829052604401610613565b6001600160a01b038216611013576000604051633250574960e11b8152600401610613919061115f565b600061102183836000610a99565b90506001600160a01b0381161561082e5760006040516339e3563760e11b8152600401610613919061115f565b60006001600160a01b03831615801590610ae75750826001600160a01b0316846001600160a01b03161480611088575061108884846109d0565b80610ae75750826001600160a01b03166110a183610a71565b6001600160a01b031614949350505050565b6001600160e01b03198116811461081057600080fd5b6000602082840312156110db57600080fd5b81356110e6816110b3565b9392505050565b6000815180845260005b81811015611113576020818501810151868301820152016110f7565b506000602082860101526020601f19601f83011685010191505092915050565b6020815260006110e660208301846110ed565b60006020828403121561115857600080fd5b5035919050565b6001600160a01b0391909116815260200190565b80356001600160a01b038116811461118a57600080fd5b919050565b600080604083850312156111a257600080fd5b6111ab83611173565b946020939093013593505050565b6000806000604084860312156111ce57600080fd5b833567ffffffffffffffff808211156111e657600080fd5b818601915086601f8301126111fa57600080fd5b81358181111561120957600080fd5b87602082850101111561121b57600080fd5b6020928301989097509590910135949350505050565b60008060006060848603121561124657600080fd5b61124f84611173565b925061125d60208501611173565b9150604084013590509250925092565b60006020828403121561127f57600080fd5b6110e682611173565b6020808252825182820181905260009190848201906040850190845b818110156112c0578351835292840192918401916001016112a4565b50909695505050505050565b600080604083850312156112df57600080fd5b6112e883611173565b9150602083013580151581146112fd57600080fd5b809150509250929050565b634e487b7160e01b600052604160045260246000fd5b6000806000806080858703121561133457600080fd5b61133d85611173565b935061134b60208601611173565b925060408501359150606085013567ffffffffffffffff8082111561136f57600080fd5b818701915087601f83011261138357600080fd5b81358181111561139557611395611308565b604051601f8201601f19908116603f011681019083821181831017156113bd576113bd611308565b816040528281528a60208487010111156113d657600080fd5b82602086016020830137600060208483010152809550505050505092959194509250565b6000806040838503121561140d57600080fd5b61141683611173565b915061142460208401611173565b90509250929050565b600181811c9082168061144157607f821691505b60208210810361146157634e487b7160e01b600052602260045260246000fd5b50919050565b60006001820161148757634e487b7160e01b600052601160045260246000fd5b5060010190565b601f82111561082e57600081815260208120601f850160051c810160208610156114b55750805b601f850160051c820191505b81811015610d58578281556001016114c1565b67ffffffffffffffff8311156114ec576114ec611308565b611500836114fa835461142d565b8361148e565b6000601f841160018114611534576000851561151c5750838201355b600019600387901b1c1916600186901b178355610d5a565b600083815260209020601f19861690835b828110156115655786850135825560209485019460019092019101611545565b50868210156115825760001960f88860031b161c19848701351681555b505060018560011b0183555050505050565b604081528260408201528284606083013760006060848301015260006060601f19601f8601168301019050826020830152949350505050565b6001600160a01b0385811682528416602082015260408101839052608060608201819052600090611600908301846110ed565b9695505050505050565b60006020828403121561161c57600080fd5b81516110e6816110b356fea26469706673582212205030f4a734145cf34705ca547b3db07048beb956adb1b8cacbd62af9789efe9264736f6c63430008140033",
  "linkReferences": {},
  "deployedLinkReferences": {}
}