{
  "_format": "hh-sol-artifact-1",
  "contractName": "StandardLicense1155",
  "sourceName": "contracts/StandardLicense1155.sol",
  "abi": [
    {
      "inputs": [],
      "stateMutability": "nonpayable",
      "type": "constructor"
    },
    {
      "inputs": [
        {
          "internalType": "address",
          "name": "sender",
          "type": "address"
        },
        {
          "internalType": "uint256",
          "name": "balance",
          "type": "uint256"
        },
        {
          "internalType": "uint256",
          "name": "needed",
          "type": "uint256"
        },
        {
          "internalType": "uint256",
          "name": "tokenId",
          "type": "uint256"
        }
      ],
      "name": "ERC1155InsufficientBalance",
      "type": "error"
    },
    {
      "inputs": [
        {
          "internalType": "address",
          "name": "approver",
          "type": "address"
        }
      ],
      "name": "ERC1155InvalidApprover",
      "type": "error"
    },
    {
      "inputs": [
        {
          "internalType": "uint256",
          "name": "idsLength",
          "type": "uint256"
        },
        {
          "internalType": "uint256",
          "name": "valuesLength",
          "type": "uint256"
        }
      ],
      "name": "ERC1155InvalidArrayLength",
      "type": "error"
    },
    {
      "inputs": [
        {
          "internalType": "address",
          "name": "operator",
          "type": "address"
        }
      ],
      "name": "ERC1155InvalidOperator",
      "type": "error"
    },
    {
      "inputs": [
        {
          "internalType": "address",
          "name": "receiver",
          "type": "address"
        }
      ],
      "name": "ERC1155InvalidReceiver",
      "type": "error"
    },
    {
      "inputs": [
        {
          "internalType": "address",
          "name": "sender",
          "type": "address"
        }
      ],
      "name": "ERC1155InvalidSender",
      "type": "error"
    },
    {
      "inputs": [
        {
          "internalType": "address",
          "name": "operator",
          "type": "address"
        },
        {
          "internalType": "address",
          "name": "owner",
          "type": "address"
        }
      ],
      "name": "ERC1155MissingApprovalForAll",
      "type": "error"
    },
    {
      "inputs": [
        {
          "internalType": "uint256",
          "name": "required",
          "type": "uint256"
        },
        {
          "internalType": "uint256",
          "name": "provided",
          "type": "uint256"
        }
      ],
      "name": "IncorrectPayment",
      "type": "error"
    },
    {
      "inputs": [
        {
          "internalType": "uint256",
          "name": "id",
          "type": "uint256"
        }
      ],
      "name": "NotListed",
      "type": "error"
    },
    {
      "inputs": [
        {
          "internalType": "address",
          "name": "owner",
          "type": "address"
        }
      ],
      "name": "OwnableInvalidOwner",
      "type": "error"
    },
    {
      "inputs": [
        {
          "internalType": "address",
          "name": "account",
          "type": "address"
        }
      ],
      "name": "OwnableUnauthorizedAccount",
      "type": "error"
    },
    {
      "inputs": [],
      "name": "ReentrancyGuardReentrantCall",
      "type": "error"
    },
    {
      "inputs": [],
      "name": "TransfersDisabled",
      "type": "error"
    },
    {
      "anonymous": false,
      "inputs": [
        {
          "indexed": true,
          "internalType": "address",
          "name": "account",
          "type": "address"
        },
        {
          "indexed": true,
          "internalType": "address",
          "name": "operator",
          "type": "address"
        },
        {
          "indexed": false,
          "internalType": "bool",
          "name": "approved",
          "type": "bool"
        }
      ],
      "name": "ApprovalForAll",
      "type": "event"
    },
    {
      "anonymous": false,
      "inputs": [
        {
          "indexed": true,
          "internalType": "address",
          "name": "buyer",
          "type": "address"
        },
        {
          "indexed": true,
          "internalType": "uint256",
          "name": "id",
          "type": "uint256"
        },
        {
          "indexed": false,
          "internalType": "uint256",
          "name": "amount",
          "type": "uint256"
        },
        {
          "indexed": false,
          "internalType": "uint256",
          "name": "price",
          "type": "uint256"
        }
      ],
      "name": "AssetPurchased",
      "type": "event"
    },
    {
      "anonymous": false,
      "inputs": [
        {
          "indexed": true,
          "internalType": "uint256",
          "name": "id",
          "type": "uint256"
        },
        {
          "indexed": true,
          "internalType": "address",
          "name": "creator",
          "type": "address"
        },
        {
          "indexed": false,
          "internalType": "string",
          "name": "uri",
          "type": "string"
        },
        {
          "indexed": false,
          "internalType": "uint256",
          "name": "price",
          "type": "uint256"
        }
      ],
      "name": "AssetRegistered",
      "type": "event"
    },
    {
      "anonymous": false,
      "inputs": [
        {
          "indexed": true,
          "internalType": "address",
          "name": "previousOwner",
          "type": "address"
        },
        {
          "indexed": true,
          "internalType": "address",
          "name": "newOwner",
          "type": "address"
        }
      ],
      "name": "OwnershipTransferred",
      "type": "event"
    },
    {
      "anonymous": false,
      "inputs": [
        {
          "indexed": true,
          "internalType": "address",
          "name": "operator",
          "type": "address"
        },
        {
          "indexed": true,
          "internalType": "address",
          "name": "from",
          "type": "address"
        },
        {
          "indexed": true,
          "internalType": "address",
          "name": "to",
          "type": "address"
        },
        {
          "indexed": false,
          "internalType": "uint256[]",
          "name": "ids",
          "type": "uint256[]"
        },
        {
          "indexed": false,
          "internalType": "uint256[]",
          "name": "values",
          "type": "uint256[]"
        }
      ],
      "name": "TransferBatch",
      "type": "event"
    },
    {
      "anonymous": false,
      "inputs": [
        {
          "indexed": true,
          "internalType": "address",
          "name": "operator",
          "type": "address"
        },
        {
          "indexed": true,
          "internalType": "address",
          "name": "from",
          "type": "address"
        },
        {
          "indexed": true,
          "internalType": "address",
          "name": "to",
          "type": "address"
        },
        {
          "indexed": false,
          "internalType": "uint256",
          "name": "id",
          "type": "uint256"
        },
        {
          "indexed": false,
          "internalType": "uint256",
          "name": "value",
          "type": "uint256"
        }
      ],
      "name": "TransferSingle",
      "type": "event"
    },
    {
      "anonymous": false,
      "inputs": [
        {
          "indexed": false,
          "internalType": "string",
          "name": "value",
          "type": "string"
        },
        {
          "indexed": true,
          "internalType": "uint256",
          "name": "id",
          "type": "uint256"
        }
      ],
      "name": "URI",
      "type": "event"
    },
    {
      "inputs": [
        {
          "internalType": "address",
          "name": "account",
          "type": "address"
        },
        {
          "internalType": "uint256",
          "name": "id",
          "type": "uint256"
        }
      ],
      "name": "balanceOf",
      "outputs": [
        {
          "internalType": "uint256",
          "name": "",
          "type": "uint256"
        }
      ],
      "stateMutability": "view",
      "type": "function"
    },
    {
      "inputs": [
        {
          "internalType": "address[]",
          "name": "accounts",
          "type": "address[]"
        },
        {
          "internalType": "uint256[]",
          "name": "ids",
          "type": "uint256[]"
        }
      ],
      "name": "balanceOfBatch",
      "outputs": [
        {
          "internalType": "uint256[]",
          "name": "",
          "type": "uint256[]"
        }
      ],
      "stateMutability": "view",
      "type": "function"
    },
    {
      "inputs": [
        {
          "internalType": "uint256",
          "name": "",
          "type": "uint256"
        }
      ],
      "name": "creatorOf",
      "outputs": [
        {
          "internalType": "address",
          "name": "",
          "type": "address"
        }
      ],
      "stateMutability": "view",
      "type": "function"
    },
    {
      "inputs": [
        {
          "internalType": "address",
          "name": "account",
          "type": "address"
        },
        {
          "internalType": "address",
          "name": "operator",
          "type": "address"
        }
      ],
      "name": "isApprovedForAll",
      "outputs": [
        {
          "internalType": "bool",
          "name": "",
          "type": "bool"
        }
      ],
      "stateMutability": "view",
      "type": "function"
    },
    {
      "inputs": [],
      "name": "owner",
      "outputs": [
        {
          "internalType": "address",
          "name": "",
          "type": "address"
        }
      ],
      "stateMutability": "view",
      "type": "function"
    },
    {
      "inputs": [
        {
          "internalType": "uint256",
          "name": "",
          "type": "uint256"
        }
      ],
      "name": "pricePerAsset",
      "outputs": [
        {
          "internalType": "uint256",
          "name": "",
          "type": "uint256"
        }
      ],
      "stateMutability": "view",
      "type": "function"
    },
    {
      "inputs": [
        {
          "internalType": "uint256",
          "name": "id",
          "type": "uint256"
        },
        {
          "internalType": "uint256",
          "name": "amount",
          "type": "uint256"
        }
      ],
      "name": "purchaseStandard",
      "outputs": [],
      "stateMutability": "payable",
      "type": "function"
    },
    {
      "inputs": [
        {
          "internalType": "string",
          "name": "metadataUri",
          "type": "string"
        },
        {
          "internalType": "uint256",
          "name": "price",
          "type": "uint256"
        }
      ],
      "name": "registerStandardAsset",
      "outputs": [
        {
          "internalType": "uint256",
          "name": "id",
          "type": "uint256"
        }
      ],
      "stateMutability": "nonpayable",
      "type": "function"
    },
    {
      "inputs": [],
      "name": "renounceOwnership",
      "outputs": [],
      "stateMutability": "nonpayable",
      "type": "function"
    },
    {
      "inputs": [
        {
          "internalType": "address",
          "name": "from",
          "type": "address"
        },
        {
          "internalType": "address",
          "name": "to",
          "type": "address"
        },
        {
          "internalType": "uint256[]",
          "name": "ids",
          "type": "uint256[]"
        },
        {
          "internalType": "uint256[]",
          "name": "values",
          "type": "uint256[]"
        },
        {
          "internalType": "bytes",
          "name": "data",
          "type": "bytes"
        }
      ],
      "name": "safeBatchTransferFrom",
      "outputs": [],
      "stateMutability": "nonpayable",
      "type": "function"
    },
    {
      "inputs": [
        {
          "internalType": "address",
          "name": "from",
          "type": "address"
        },
        {
          "internalType": "address",
          "name": "to",
          "type": "address"
        },
        {
          "internalType": "uint256",
          "name": "id",
          "type": "uint256"
        },
        {
          "internalType": "uint256",
          "name": "value",
          "type": "uint256"
        },
        {
          "internalType": "bytes",
          "name": "data",
          "type": "bytes"
        }
      ],
      "name": "safeTransferFrom",
      "outputs": [],
      "stateMutability": "nonpayable",
      "type": "function"
    },
    {
      "inputs": [
        {
          "internalType": "address",
          "name": "operator",
          "type": "address"
        },
        {
          "internalType": "bool",
          "name": "approved",
          "type": "bool"
        }
      ],
      "name": "setApprovalForAll",
      "outputs": [],
      "stateMutability": "nonpayable",
      "type": "function"
    },
    {
      "inputs": [
        {
          "internalType": "bytes4",
          "name": "interfaceId",
          "type": "bytes4"
        }
      ],
      "name": "supportsInterface",
      "outputs": [
        {
          "internalType": "bool",
          "name": "",
          "type": "bool"
        }
      ],
      "stateMutability": "view",
      "type": "function"
    },
    {
      "inputs": [
        {
          "internalType": "address",
          "name": "account",
          "type": "address"
        }
      ],
      "name": "tokensOfHolder",
      "outputs": [
        {
          "internalType": "uint256[]",
          "name": "",
          "type": "uint256[]"
        }
      ],
      "stateMutability": "view",
      "type": "function"
    },
    {
      "inputs": [
        {
          "internalType": "address",
          "name": "newOwner",
          "type": "address"
        }
      ],
      "name": "transferOwnership",
      "outputs": [],
      "stateMutability": "nonpayable",
      "type": "function"
    },
    {
      "inputs": [
        {
          "internalType": "uint256",
          "name": "id",
          "type": "uint256"
        }
      ],
      "name": "uri",
      "outputs": [
        {
          "internalType": "string",
          "name": "",
          "type": "string"
        }
      ],
      "stateMutability": "view",
      "type": "function"
    }
  ],
  "bytecode": "0x60806040523480156200001157600080fd5b5060408051602081019091526000815233906200002e8162000075565b506001600160a01b0381166200005e57604051631e4fbdf760e01b81526000600482015260240160405180910390fd5b620000698162000087565b5060016004556200024a565b60026200008382826200017e565b5050565b600380546001600160a01b038381166001600160a01b0319831681179093556040519116919082907f8be0079c531659141344cd1fd0a4f28419497f9722a3daafe3b4186f6b6457e090600090a35050565b634e487b7160e01b600052604160045260246000fd5b600181811c908216806200010457607f821691505b6020821081036200012557634e487b7160e01b600052602260045260246000fd5b50919050565b601f8211156200017957600081815260208120601f850160051c81016020861015620001545750805b601f850160051c820191505b81811015620001755782815560010162000160565b5050505b505050565b81516001600160401b038111156200019a576200019a620000d9565b620001b281620001ab8454620000ef565b846200012b565b602080601f831160018114620001ea5760008415620001d15750858301515b600019600386901b1c1916600185901b17855562000175565b600085815260208120601f198616915b828110156200021b57888601518255948401946001909101908401620001fa565b50858210156200023a5787850151600019600388901b60f8161c191681555b5050505050600190811b01905550565b611934806200025a6000396000f3fe6080604052600436106100d25760003560e01c806365c3b0ba1161007a57806365c3b0ba1461022c578063715018a61461024c578063745e1813146102615780638da5cb5b1461028e578063a22cb465146102ac578063e985e9c5146102cc578063f242432a146102ec578063f2fde38b1461030c57600080fd5b8062fdd58e146100d757806301ffc9a71461010a5780630e89341c1461013a578063184fcac414610167578063283bf7201461017c5780632eb2c2d6146101a95780634e1273f4146101c9578063589a1743146101e9575b600080fd5b3480156100e357600080fd5b506100f76100f23660046110a0565b61032c565b6040519081526020015b60405180910390f35b34801561011657600080fd5b5061012a6101253660046110e0565b610354565b6040519015158152602001610101565b34801561014657600080fd5b5061015a610155366004611104565b6103a4565b6040516101019190611163565b61017a610175366004611176565b610446565b005b34801561018857600080fd5b5061019c610197366004611198565b610629565b60405161010191906111ee565b3480156101b557600080fd5b5061017a6101c4366004611344565b610694565b3480156101d557600080fd5b5061019c6101e43660046113ed565b6106ec565b3480156101f557600080fd5b5061021f610204366004611104565b6008602052600090815260409020546001600160a01b031681565b60405161010191906114ac565b34801561023857600080fd5b506100f76102473660046114c0565b6107c0565b34801561025857600080fd5b5061017a610866565b34801561026d57600080fd5b506100f761027c366004611104565b60076020526000908152604090205481565b34801561029a57600080fd5b506003546001600160a01b031661021f565b3480156102b857600080fd5b5061017a6102c7366004611537565b61087a565b3480156102d857600080fd5b5061012a6102e7366004611573565b610885565b3480156102f857600080fd5b5061017a6103073660046115a6565b6108b3565b34801561031857600080fd5b5061017a610327366004611198565b610903565b6000818152602081815260408083206001600160a01b03861684529091529020545b92915050565b60006001600160e01b03198216636cdb3d1360e11b148061038557506001600160e01b031982166303a24d0760e21b145b8061034e57506301ffc9a760e01b6001600160e01b031983161461034e565b60008181526006602052604090208054606091906103c19061160a565b80601f01602080910402602001604051908101604052809291908181526020018280546103ed9061160a565b801561043a5780601f1061040f5761010080835404028352916020019161043a565b820191906000526020600020905b81548152906001019060200180831161041d57829003601f168201915b50505050509050919050565b61044e610941565b600082815260076020526040812054908190036104865760405163068bb67560e51b8152600481018490526024015b60405180910390fd5b6000610492838361165a565b90508034146104bd57604051630d35e92160e01b81526004810182905234602482015260440161047d565b336000908152600a6020908152604080832087845290915290205460ff166105225733600081815260096020908152604080832080546001818101835591855283852001899055938352600a82528083208884529091529020805460ff191690911790555b61053d3385856040518060200160405280600081525061096b565b6000848152600860205260408082205490516001600160a01b039091169034908381818185875af1925050503d8060008114610595576040519150601f19603f3d011682016040523d82523d6000602084013e61059a565b606091505b50509050806105db5760405162461bcd60e51b815260206004820152600d60248201526c14185e5bdd5d0819985a5b1959609a1b604482015260640161047d565b6040805185815260208101859052869133917f751dfd922ff4b6048a31e74f71bfe6c58ee9135146d587bf908e12cfa525ae0b910160405180910390a35050506106256001600455565b5050565b6001600160a01b03811660009081526009602090815260409182902080548351818402810184019094528084526060939283018282801561043a57602002820191906000526020600020905b8154815260200190600101908083116106755750505050509050919050565b336001600160a01b03861681148015906106b557506106b38682610885565b155b156106d757808660405163711bec9160e11b815260040161047d929190611671565b6106e486868686866109b4565b505050505050565b6060815183511461071d5781518351604051635b05999160e01b81526004810192909252602482015260440161047d565b600083516001600160401b0381111561073857610738611201565b604051908082528060200260200182016040528015610761578160200160208202803683370190505b50905060005b84518110156107b85760208082028601015161078b9060208084028701015161032c565b82828151811061079d5761079d61168b565b60209081029190910101526107b1816116a1565b9050610767565b509392505050565b60058054600091826107d1836116a1565b9091555060008181526006602052604090209091506107f1848683611705565b50600081815260076020908152604080832085905560089091529081902080546001600160a01b03191633908117909155905182907f17bfbb947caca86ac77ea06397ced8c4f77a1a6c82a21b5a05a738ceddc1f66090610857908890889088906117c4565b60405180910390a39392505050565b61086e610a1b565b6108786000610a48565b565b610625338383610a9a565b6001600160a01b03918216600090815260016020908152604080832093909416825291909152205460ff1690565b336001600160a01b03861681148015906108d457506108d28682610885565b155b156108f657808660405163711bec9160e11b815260040161047d929190611671565b6106e48686868686610b30565b61090b610a1b565b6001600160a01b038116610935576000604051631e4fbdf760e01b815260040161047d91906114ac565b61093e81610a48565b50565b60026004540361096457604051633ee5aeb560e01b815260040160405180910390fd5b6002600455565b6001600160a01b038416610995576000604051632bfa23e760e11b815260040161047d91906114ac565b6000806109a28585610baa565b915091506106e4600087848487610bd2565b6001600160a01b0384166109de576000604051632bfa23e760e11b815260040161047d91906114ac565b6001600160a01b038516610a07576000604051626a0d4560e21b815260040161047d91906114ac565b610a148585858585610bd2565b5050505050565b6003546001600160a01b03163314610878573360405163118cdaa760e01b815260040161047d91906114ac565b600380546001600160a01b038381166001600160a01b0319831681179093556040519116919082907f8be0079c531659141344cd1fd0a4f28419497f9722a3daafe3b4186f6b6457e090600090a35050565b6001600160a01b038216610ac357600060405162ced3e160e81b815260040161047d91906114ac565b6001600160a01b03838116600081815260016020908152604080832094871680845294825291829020805460ff191686151590811790915591519182527f17307eab39ab6107e8899845ad3d59bd9653f200f220920489ca2b5937696c31910160405180910390a3505050565b6001600160a01b038416610b5a576000604051632bfa23e760e11b815260040161047d91906114ac565b6001600160a01b038516610b83576000604051626a0d4560e21b815260040161047d91906114ac565b600080610b908585610baa565b91509150610ba18787848487610bd2565b50505050505050565b6040805160018082526020820194909452808201938452606081019290925260808201905291565b610bde85858585610c25565b6001600160a01b03841615610a145782513390600103610c175760208481015190840151610c10838989858589610c75565b50506106e4565b6106e4818787878787610d87565b610c3184848484610e67565b6001600160a01b03841615801590610c5157506001600160a01b03831615155b15610c6f57604051638574adcf60e01b815260040160405180910390fd5b50505050565b6001600160a01b0384163b156106e45760405163f23a6e6160e01b81526001600160a01b0385169063f23a6e6190610cb990899089908890889088906004016117fd565b6020604051808303816000875af1925050508015610cf4575060408051601f3d908101601f19168201909252610cf191810190611842565b60015b610d54573d808015610d22576040519150601f19603f3d011682016040523d82523d6000602084013e610d27565b606091505b508051600003610d4c5784604051632bfa23e760e11b815260040161047d91906114ac565b805181602001fd5b6001600160e01b0319811663f23a6e6160e01b14610ba15784604051632bfa23e760e11b815260040161047d91906114ac565b6001600160a01b0384163b156106e45760405163bc197c8160e01b81526001600160a01b0385169063bc197c8190610dcb908990899088908890889060040161185f565b6020604051808303816000875af1925050508015610e06575060408051601f3d908101601f19168201909252610e0391810190611842565b60015b610e34573d808015610d22576040519150601f19603f3d011682016040523d82523d6000602084013e610d27565b6001600160e01b0319811663bc197c8160e01b14610ba15784604051632bfa23e760e11b815260040161047d91906114ac565b8051825114610e965781518151604051635b05999160e01b81526004810192909252602482015260440161047d565b3360005b8351811015610fa5576020818102858101820151908501909101516001600160a01b03881615610f4d576000828152602081815260408083206001600160a01b038c16845290915290205481811015610f26576040516303dee4c560e01b81526001600160a01b038a16600482015260248101829052604481018390526064810184905260840161047d565b6000838152602081815260408083206001600160a01b038d16845290915290209082900390555b6001600160a01b03871615610f92576000828152602081815260408083206001600160a01b038b16845290915281208054839290610f8c9084906118bd565b90915550505b505080610f9e906116a1565b9050610e9a565b5082516001036110265760208301516000906020840151909150856001600160a01b0316876001600160a01b0316846001600160a01b03167fc3d58168c5ae7397731d063d5bbf3d657854427343f4c083240f7aacaa2d0f628585604051611017929190918252602082015260400190565b60405180910390a45050610a14565b836001600160a01b0316856001600160a01b0316826001600160a01b03167f4a39dc06d4c0dbc64b70af90fd698a233a518aa5d07e595d983b8c0526c8f7fb86866040516110759291906118d0565b60405180910390a45050505050565b80356001600160a01b038116811461109b57600080fd5b919050565b600080604083850312156110b357600080fd5b6110bc83611084565b946020939093013593505050565b6001600160e01b03198116811461093e57600080fd5b6000602082840312156110f257600080fd5b81356110fd816110ca565b9392505050565b60006020828403121561111657600080fd5b5035919050565b6000815180845260005b8181101561114357602081850181015186830182015201611127565b506000602082860101526020601f19601f83011685010191505092915050565b6020815260006110fd602083018461111d565b6000806040838503121561118957600080fd5b50508035926020909101359150565b6000602082840312156111aa57600080fd5b6110fd82611084565b600081518084526020808501945080840160005b838110156111e3578151875295820195908201906001016111c7565b509495945050505050565b6020815260006110fd60208301846111b3565b634e487b7160e01b600052604160045260246000fd5b604051601f8201601f191681016001600160401b038111828210171561123f5761123f611201565b604052919050565b60006001600160401b0382111561126057611260611201565b5060051b60200190565b600082601f83011261127b57600080fd5b8135602061129061128b83611247565b611217565b82815260059290921b840181019181810190868411156112af57600080fd5b8286015b848110156112ca57803583529183019183016112b3565b509695505050505050565b600082601f8301126112e657600080fd5b81356001600160401b038111156112ff576112ff611201565b611312601f8201601f1916602001611217565b81815284602083860101111561132757600080fd5b816020850160208301376000918101602001919091529392505050565b600080600080600060a0868803121561135c57600080fd5b61136586611084565b945061137360208701611084565b935060408601356001600160401b038082111561138f57600080fd5b61139b89838a0161126a565b945060608801359150808211156113b157600080fd5b6113bd89838a0161126a565b935060808801359150808211156113d357600080fd5b506113e0888289016112d5565b9150509295509295909350565b6000806040838503121561140057600080fd5b82356001600160401b038082111561141757600080fd5b818501915085601f83011261142b57600080fd5b8135602061143b61128b83611247565b82815260059290921b8401810191818101908984111561145a57600080fd5b948201945b8386101561147f5761147086611084565b8252948201949082019061145f565b9650508601359250508082111561149557600080fd5b506114a28582860161126a565b9150509250929050565b6001600160a01b0391909116815260200190565b6000806000604084860312156114d557600080fd5b83356001600160401b03808211156114ec57600080fd5b818601915086601f83011261150057600080fd5b81358181111561150f57600080fd5b87602082850101111561152157600080fd5b6020928301989097509590910135949350505050565b6000806040838503121561154a57600080fd5b61155383611084565b91506020830135801515811461156857600080fd5b809150509250929050565b6000806040838503121561158657600080fd5b61158f83611084565b915061159d60208401611084565b90509250929050565b600080600080600060a086880312156115be57600080fd5b6115c786611084565b94506115d560208701611084565b9350604086013592506060860135915060808601356001600160401b038111156115fe57600080fd5b6113e0888289016112d5565b600181811c9082168061161e57607f821691505b60208210810361163e57634e487b7160e01b600052602260045260246000fd5b50919050565b634e487b7160e01b600052601160045260246000fd5b808202811582820484141761034e5761034e611644565b6001600160a01b0392831681529116602082015260400190565b634e487b7160e01b600052603260045260246000fd5b6000600182016116b3576116b3611644565b5060010190565b601f82111561170057600081815260208120601f850160051c810160208610156116e15750805b601f850160051c820191505b818110156106e4578281556001016116ed565b505050565b6001600160401b0383111561171c5761171c611201565b6117308361172a835461160a565b836116ba565b6000601f841160018114611764576000851561174c5750838201355b600019600387901b1c1916600186901b178355610a14565b600083815260209020601f19861690835b828110156117955786850135825560209485019460019092019101611775565b50868210156117b25760001960f88860031b161c19848701351681555b505060018560011b0183555050505050565b604081528260408201528284606083013760006060848301015260006060601f19601f8601168301019050826020830152949350505050565b6001600160a01b03868116825285166020820152604081018490526060810183905260a0608082018190526000906118379083018461111d565b979650505050505050565b60006020828403121561185457600080fd5b81516110fd816110ca565b6001600160a01b0386811682528516602082015260a06040820181905260009061188b908301866111b3565b828103606084015261189d81866111b3565b905082810360808401526118b1818561111d565b98975050505050505050565b8082018082111561034e5761034e611644565b6040815260006118e360408301856111b3565b82810360208401526118f581856111b3565b9594505050505056fea26469706673582212209e0b7376e14d3c2b78a3eb9395f6fe84e6237577f55274e2946bbac6f818a6b164736f6c63430008140033",
  "linkReferences": {},
  "deployedLinkReferences": {}
}