{
  "_format": "hh-sol-artifact-1",
  "contractName": "DisputeDAO",
  "sourceName": "contracts/DisputeDAO.sol",
  "abi": [
    {
      "inputs": [
        {
          "internalType": "address",
          "name": "initialOwner",
          "type": "address"
        }
      ],
      "stateMutability": "nonpayable",
      "type": "constructor"
    },
    {
      "inputs": [
        {
          "internalType": "address",
          "name": "owner",
          "type": "address"
        }
      ],
      "name": "OwnableInvalidOwner",
      "type": "error"
    },
    {
      "inputs": [
        {
          "internalType": "address",
          "name": "account",
          "type": "address"
        }
      ],
      "name": "OwnableUnauthorizedAccount",
      "type": "error"
    },
    {
      "inputs": [],
      "name": "ReentrancyGuardReentrantCall",
      "type": "error"
    },
    {
      "anonymous": false,
      "inputs": [
        {
          "indexed": true,
          "internalType": "uint256",
          "name": "id",
          "type": "uint256"
        },
        {
          "indexed": true,
          "internalType": "address",
          "name": "job",
          "type": "address"
        },
        {
          "indexed": true,
          "internalType": "address",
          "name": "by",
          "type": "address"
        },
        {
          "indexed": false,
          "internalType": "string",
          "name": "reason",
          "type": "string"
        }
      ],
      "name": "DisputeCreated",
      "type": "event"
    },
    {
      "anonymous": false,
      "inputs": [
        {
          "indexed": true,
          "internalType": "uint256",
          "name": "id",
          "type": "uint256"
        },
        {
          "indexed": false,
          "internalType": "bool",
          "name": "outcome",
          "type": "bool"
        }
      ],
      "name": "DisputeResolved",
      "type": "event"
    },
    {
      "anonymous": false,
      "inputs": [
        {
          "indexed": true,
          "internalType": "address",
          "name": "previousOwner",
          "type": "address"
        },
        {
          "indexed": true,
          "internalType": "address",
          "name": "newOwner",
          "type": "address"
        }
      ],
      "name": "OwnershipTransferred",
      "type": "event"
    },
    {
      "anonymous": false,
      "inputs": [
        {
          "indexed": true,
          "internalType": "uint256",
          "name": "id",
          "type": "uint256"
        },
        {
          "indexed": true,
          "internalType": "address",
          "name": "juror",
          "type": "address"
        },
        {
          "indexed": false,
          "internalType": "bool",
          "name": "support",
          "type": "bool"
        }
      ],
      "name": "Voted",
      "type": "event"
    },
    {
      "inputs": [
        {
          "internalType": "address",
          "name": "job",
          "type": "address"
        },
        {
          "internalType": "string",
          "name": "reason",
          "type": "string"
        }
      ],
      "name": "createDispute",
      "outputs": [
        {
          "internalType": "uint256",
          "name": "",
          "type": "uint256"
        }
      ],
      "stateMutability": "nonpayable",
      "type": "function"
    },
    {
      "inputs": [],
      "name": "disputeCount",
      "outputs": [
        {
          "internalType": "uint256",
          "name": "",
          "type": "uint256"
        }
      ],
      "stateMutability": "view",
      "type": "function"
    },
    {
      "inputs": [
        {
          "internalType": "uint256",
          "name": "",
          "type": "uint256"
        }
      ],
      "name": "disputes",
      "outputs": [
        {
          "internalType": "address",
          "name": "job",
          "type": "address"
        },
        {
          "internalType": "address",
          "name": "initiator",
          "type": "address"
        },
        {
          "internalType": "bool",
          "name": "resolved",
          "type": "bool"
        },
        {
          "internalType": "uint256",
          "name": "votesFor",
          "type": "uint256"
        },
        {
          "internalType": "uint256",
          "name": "votesAgainst",
          "type": "uint256"
        },
        {
          "internalType": "string",
          "name": "reason",
          "type": "string"
        }
      ],
      "stateMutability": "view",
      "type": "function"
    },
    {
      "inputs": [
        {
          "internalType": "uint256",
          "name": "id",
          "type": "uint256"
        }
      ],
      "name": "finalize",
      "outputs": [],
      "stateMutability": "nonpayable",
      "type": "function"
    },
    {
      "inputs": [],
      "name": "getDisputeCount",
      "outputs": [
        {
          "internalType": "uint256",
          "name": "",
          "type": "uint256"
        }
      ],
      "stateMutability": "view",
      "type": "function"
    },
    {
      "inputs": [
        {
          "internalType": "uint256",
          "name": "id",
          "type": "uint256"
        }
      ],
      "name": "getDisputeReason",
      "outputs": [
        {
          "internalType": "string",
          "name": "",
          "type": "string"
        }
      ],
      "stateMutability": "view",
      "type": "function"
    },
    {
      "inputs": [
        {
          "internalType": "uint256",
          "name": "id",
          "type": "uint256"
        }
      ],
      "name": "getDisputeSummary",
      "outputs": [
        {
          "internalType": "address",
          "name": "job",
          "type": "address"
        },
        {
          "internalType": "address",
          "name": "initiator",
          "type": "address"
        },
        {
          "internalType": "bool",
          "name": "resolved",
          "type": "bool"
        },
        {
          "internalType": "uint256",
          "name": "votesFor",
          "type": "uint256"
        },
        {
          "internalType": "uint256",
          "name": "votesAgainst",
          "type": "uint256"
        },
        {
          "internalType": "string",
          "name": "reason",
          "type": "string"
        }
      ],
      "stateMutability": "view",
      "type": "function"
    },
    {
      "inputs": [],
      "name": "getJurors",
      "outputs": [
        {
          "internalType": "address[]",
          "name": "",
          "type": "address[]"
        }
      ],
      "stateMutability": "view",
      "type": "function"
    },
    {
      "inputs": [
        {
          "internalType": "address",
          "name": "",
          "type": "address"
        }
      ],
      "name": "isJuror",
      "outputs": [
        {
          "internalType": "bool",
          "name": "",
          "type": "bool"
        }
      ],
      "stateMutability": "view",
      "type": "function"
    },
    {
      "inputs": [
        {
          "internalType": "uint256",
          "name": "",
          "type": "uint256"
        }
      ],
      "name": "jurors",
      "outputs": [
        {
          "internalType": "address",
          "name": "",
          "type": "address"
        }
      ],
      "stateMutability": "view",
      "type": "function"
    },
    {
      "inputs": [],
      "name": "owner",
      "outputs": [
        {
          "internalType": "address",
          "name": "",
          "type": "address"
        }
      ],
      "stateMutability": "view",
      "type": "function"
    },
    {
      "inputs": [],
      "name": "renounceOwnership",
      "outputs": [],
      "stateMutability": "nonpayable",
      "type": "function"
    },
    {
      "inputs": [
        {
          "internalType": "address",
          "name": "newOwner",
          "type": "address"
        }
      ],
      "name": "transferOwnership",
      "outputs": [],
      "stateMutability": "nonpayable",
      "type": "function"
    },
    {
      "inputs": [
        {
          "internalType": "uint256",
          "name": "id",
          "type": "uint256"
        },
        {
          "internalType": "bool",
          "name": "support",
          "type": "bool"
        }
      ],
      "name": "vote",
      "outputs": [],
      "stateMutability": "nonpayable",
      "type": "function"
    }
  ],
  "bytecode": "0x608060405234801561001057600080fd5b50604051610fa9380380610fa983398101604081905261002f916101a2565b806001600160a01b03811661005e57604051631e4fbdf760e01b81526000600482015260240160405180910390fd5b61006781610152565b505060018080556004805480830182557f8a35acfbc15ff81a39ae7d344fd709f28e8600b4aa8c65c6b64bfe7fe36bd19b908101805473ff817442f4cc914b0338f197c4c0effe2e2707c96001600160a01b03199182161790915582548085019093559101805473a0c5048c32870bb66d0be861643cd6bb5f66ada292168217905560056020527feea2e204ff58419b1eb426664c84b5d2b85de3b1cb0ebd36442fc0ba06a41266805460ff1990811684179091556000919091527f5663565aaf0040b9e8f8a34d62b2543d78ad74b7f009b9a3b6e8430338bc4bcc805490911690911790556101d2565b600080546001600160a01b038381166001600160a01b0319831681178455604051919092169283917f8be0079c531659141344cd1fd0a4f28419497f9722a3daafe3b4186f6b6457e09190a35050565b6000602082840312156101b457600080fd5b81516001600160a01b03811681146101cb57600080fd5b9392505050565b610dc8806101e16000396000f3fe608060405234801561001057600080fd5b50600436106100ba5760003560e01c806305261aea146100bf57806310987b77146100d45780632037a7aa146100eb578063564a565d1461011e5780635b3b2af814610143578063709aff3414610158578063715018a61461016b5780637cd38ff814610173578063801778c7146101935780638da5cb5b146101b3578063a28889e1146101c4578063c9d27afe146101cd578063ead3489a146101e0578063f2fde38b146101f3575b600080fd5b6100d26100cd3660046109ab565b610206565b005b6003545b6040519081526020015b60405180910390f35b61010e6100f93660046109d9565b60056020526000908152604090205460ff1681565b60405190151581526020016100e2565b61013161012c3660046109ab565b6102d1565b6040516100e296959493929190610a43565b61014b6103a2565b6040516100e29190610a91565b6101316101663660046109ab565b610404565b6100d26104f5565b6101866101813660046109ab565b610509565b6040516100e29190610ade565b6101a66101a13660046109ab565b610533565b6040516100e29190610af2565b6000546001600160a01b0316610186565b6100d860035481565b6100d26101db366004610b05565b6105d8565b6100d86101ee366004610b3a565b6106f8565b6100d26102013660046109d9565b6108c9565b61020e610904565b60008181526002602052604090206001810154600160a01b900460ff161561026c5760405162461bcd60e51b815260206004820152600c60248201526b416c726561647920646f6e6560a01b60448201526064015b60405180910390fd5b60018101805460ff60a01b1916600160a01b1790556003810154600282015460405191108082529083907f5a87909bff68caaaaf0b3fd9c74eeccc928832f879315e5c6fb7a73612f26c0c9060200160405180910390a250506102ce60018055565b50565b6002602081905260009182526040909120805460018201549282015460038301546004840180546001600160a01b039485169694851695600160a01b90950460ff1694919061031f90610bbf565b80601f016020809104026020016040519081016040528092919081815260200182805461034b90610bbf565b80156103985780601f1061036d57610100808354040283529160200191610398565b820191906000526020600020905b81548152906001019060200180831161037b57829003601f168201915b5050505050905086565b606060048054806020026020016040519081016040528092919081815260200182805480156103fa57602002820191906000526020600020905b81546001600160a01b031681526001909101906020018083116103dc575b5050505050905090565b6000818152600260208190526040822080546001820154928201546003830154600484018054879687968796879660609692956001600160a01b039283169592851694600160a01b900460ff16939192819061045f90610bbf565b80601f016020809104026020016040519081016040528092919081815260200182805461048b90610bbf565b80156104d85780601f106104ad576101008083540402835291602001916104d8565b820191906000526020600020905b8154815290600101906020018083116104bb57829003601f168201915b505050505090509650965096509650965096505091939550919395565b6104fd61092e565b610507600061095b565b565b6004818154811061051957600080fd5b6000918252602090912001546001600160a01b0316905081565b600081815260026020526040902060040180546060919061055390610bbf565b80601f016020809104026020016040519081016040528092919081815260200182805461057f90610bbf565b80156105cc5780601f106105a1576101008083540402835291602001916105cc565b820191906000526020600020905b8154815290600101906020018083116105af57829003601f168201915b50505050509050919050565b3360009081526005602052604090205460ff166106235760405162461bcd60e51b81526020600482015260096024820152682737ba10353ab937b960b91b6044820152606401610263565b60008281526002602052604090206001810154600160a01b900460ff16156106805760405162461bcd60e51b815260206004820152601060248201526f105b1c9958591e481c995cdbdb1d995960821b6044820152606401610263565b81156106a25760028101805490600061069883610bf9565b91905055506106ba565b6003810180549060006106b483610bf9565b91905055505b6040518215158152339084907ff2913dbe661ee2acc4a046d8fbcdc792373bda34c41c6086484b5345e5785e5f9060200160405180910390a3505050565b6000816107405760405162461bcd60e51b8152602060048201526016602482015275526561736f6e2063616e6e6f7420626520656d70747960501b6044820152606401610263565b6000846001600160a01b031663ae200e796040518163ffffffff1660e01b8152600401602060405180830381865afa158015610780573d6000803e3d6000fd5b505050506040513d601f19601f820116820180604052508101906107a49190610c20565b9050336001600160a01b03821614806107bc57503332145b6107f95760405162461bcd60e51b815260206004820152600e60248201526d139bdd08185d5d1a1bdc9a5e995960921b6044820152606401610263565b600380546000908152600260208190526040822080546001600160a01b0319166001600160a01b038a161781556001810180546001600160a81b0319163360ff60a01b1916179055908101829055918201556004810161085a858783610ca2565b50336001600160a01b0316866001600160a01b03166003547ff5a652e9be4dc80976de59ea0ab8ef105314d3e99785ac7ed699796f04364f1a88886040516108a3929190610d63565b60405180910390a4600380549060006108bb83610bf9565b909155509695505050505050565b6108d161092e565b6001600160a01b0381166108fb576000604051631e4fbdf760e01b81526004016102639190610ade565b6102ce8161095b565b60026001540361092757604051633ee5aeb560e01b815260040160405180910390fd5b6002600155565b6000546001600160a01b03163314610507573360405163118cdaa760e01b81526004016102639190610ade565b600080546001600160a01b038381166001600160a01b0319831681178455604051919092169283917f8be0079c531659141344cd1fd0a4f28419497f9722a3daafe3b4186f6b6457e09190a35050565b6000602082840312156109bd57600080fd5b5035919050565b6001600160a01b03811681146102ce57600080fd5b6000602082840312156109eb57600080fd5b81356109f6816109c4565b9392505050565b6000815180845260005b81811015610a2357602081850181015186830182015201610a07565b506000602082860101526020601f19601f83011685010191505092915050565b6001600160a01b038781168252861660208201528415156040820152606081018490526080810183905260c060a08201819052600090610a85908301846109fd565b98975050505050505050565b6020808252825182820181905260009190848201906040850190845b81811015610ad25783516001600160a01b031683529284019291840191600101610aad565b50909695505050505050565b6001600160a01b0391909116815260200190565b6020815260006109f660208301846109fd565b60008060408385031215610b1857600080fd5b8235915060208301358015158114610b2f57600080fd5b809150509250929050565b600080600060408486031215610b4f57600080fd5b8335610b5a816109c4565b9250602084013567ffffffffffffffff80821115610b7757600080fd5b818601915086601f830112610b8b57600080fd5b813581811115610b9a57600080fd5b876020828501011115610bac57600080fd5b6020830194508093505050509250925092565b600181811c90821680610bd357607f821691505b602082108103610bf357634e487b7160e01b600052602260045260246000fd5b50919050565b600060018201610c1957634e487b7160e01b600052601160045260246000fd5b5060010190565b600060208284031215610c3257600080fd5b81516109f6816109c4565b634e487b7160e01b600052604160045260246000fd5b601f821115610c9d57600081815260208120601f850160051c81016020861015610c7a5750805b601f850160051c820191505b81811015610c9957828155600101610c86565b5050505b505050565b67ffffffffffffffff831115610cba57610cba610c3d565b610cce83610cc88354610bbf565b83610c53565b6000601f841160018114610d025760008515610cea5750838201355b600019600387901b1c1916600186901b178355610d5c565b600083815260209020601f19861690835b82811015610d335786850135825560209485019460019092019101610d13565b5086821015610d505760001960f88860031b161c19848701351681555b505060018560011b0183555b5050505050565b60208152816020820152818360408301376000818301604090810191909152601f909201601f1916010191905056fea26469706673582212208e7609a2bbf3cc26c7f7970aad4214dc0c38552cc03de020077b3f4fd6c8112a64736f6c63430008140033",
  "linkReferences": {},
  "deployedLinkReferences": {}
}